{
  "contractName": "DeFiCustodyRegistry",
  "abi": [
    {
      "constant": true,
      "inputs": [
        {
          "name": "",
          "type": "address"
        }
      ],
      "name": "recoveryDeadline",
      "outputs": [
        {
          "name": "",
          "type": "uint256"
        }
      ],
      "payable": false,
      "stateMutability": "view",
      "type": "function"
    },
    {
      "constant": true,
      "inputs": [],
      "name": "rayStorage",
      "outputs": [
        {
          "name": "",
          "type": "address"
        }
      ],
      "payable": false,
      "stateMutability": "view",
      "type": "function"
    },
    {
      "constant": false,
      "inputs": [
        {
          "name": "",
          "type": "address"
        },
        {
          "name": "",
          "type": "address"
        },
        {
          "name": "",
          "type": "uint256"
        },
        {
          "name": "",
          "type": "bytes"
        }
      ],
      "name": "onERC721Received",
      "outputs": [
        {
          "name": "",
          "type": "bytes4"
        }
      ],
      "payable": false,
      "stateMutability": "nonpayable",
      "type": "function"
    },
    {
      "constant": false,
      "inputs": [
        {
          "name": "rayTokenId",
          "type": "bytes32"
        },
        {
          "name": "value",
          "type": "uint256"
        }
      ],
      "name": "deposit",
      "outputs": [],
      "payable": true,
      "stateMutability": "payable",
      "type": "function"
    },
    {
      "constant": true,
      "inputs": [
        {
          "name": "tokenId",
          "type": "bytes32"
        }
      ],
      "name": "getTokenOwner",
      "outputs": [
        {
          "name": "",
          "type": "address"
        }
      ],
      "payable": false,
      "stateMutability": "view",
      "type": "function"
    },
    {
      "constant": true,
      "inputs": [
        {
          "name": "wallet",
          "type": "address"
        }
      ],
      "name": "isRecoverable",
      "outputs": [
        {
          "name": "",
          "type": "bool"
        }
      ],
      "payable": false,
      "stateMutability": "view",
      "type": "function"
    },
    {
      "constant": true,
      "inputs": [
        {
          "name": "",
          "type": "address"
        },
        {
          "name": "",
          "type": "uint256"
        }
      ],
      "name": "reverseRayTokens",
      "outputs": [
        {
          "name": "",
          "type": "bytes32"
        }
      ],
      "payable": false,
      "stateMutability": "view",
      "type": "function"
    },
    {
      "constant": true,
      "inputs": [
        {
          "name": "",
          "type": "uint256"
        }
      ],
      "name": "dcWalletsList",
      "outputs": [
        {
          "name": "",
          "type": "address"
        }
      ],
      "payable": false,
      "stateMutability": "view",
      "type": "function"
    },
    {
      "constant": true,
      "inputs": [
        {
          "name": "portfolioDescription",
          "type": "string"
        }
      ],
      "name": "genPortfolioId",
      "outputs": [
        {
          "name": "",
          "type": "bytes32"
        }
      ],
      "payable": false,
      "stateMutability": "pure",
      "type": "function"
    },
    {
      "constant": true,
      "inputs": [
        {
          "name": "rayTokenId",
          "type": "bytes32"
        }
      ],
      "name": "getTokenValue",
      "outputs": [
        {
          "name": "",
          "type": "uint256"
        }
      ],
      "payable": false,
      "stateMutability": "view",
      "type": "function"
    },
    {
      "constant": true,
      "inputs": [
        {
          "name": "wallet",
          "type": "address"
        }
      ],
      "name": "getRecoveryWallets",
      "outputs": [
        {
          "name": "",
          "type": "address[]"
        }
      ],
      "payable": false,
      "stateMutability": "view",
      "type": "function"
    },
    {
      "constant": true,
      "inputs": [
        {
          "name": "",
          "type": "address"
        }
      ],
      "name": "lastAction",
      "outputs": [
        {
          "name": "",
          "type": "uint256"
        }
      ],
      "payable": false,
      "stateMutability": "view",
      "type": "function"
    },
    {
      "constant": false,
      "inputs": [],
      "name": "renounceOwnership",
      "outputs": [],
      "payable": false,
      "stateMutability": "nonpayable",
      "type": "function"
    },
    {
      "constant": false,
      "inputs": [],
      "name": "alive",
      "outputs": [
        {
          "name": "",
          "type": "bool"
        }
      ],
      "payable": false,
      "stateMutability": "nonpayable",
      "type": "function"
    },
    {
      "constant": false,
      "inputs": [
        {
          "name": "portfolioId",
          "type": "bytes32"
        },
        {
          "name": "beneficiary",
          "type": "address"
        },
        {
          "name": "value",
          "type": "uint256"
        }
      ],
      "name": "mint",
      "outputs": [
        {
          "name": "",
          "type": "bytes32"
        }
      ],
      "payable": true,
      "stateMutability": "payable",
      "type": "function"
    },
    {
      "constant": false,
      "inputs": [
        {
          "name": "rayTokenId",
          "type": "bytes32"
        },
        {
          "name": "valueToWithdraw",
          "type": "uint256"
        },
        {
          "name": "originalCaller",
          "type": "address"
        }
      ],
      "name": "redeemAndWithdraw",
      "outputs": [],
      "payable": false,
      "stateMutability": "nonpayable",
      "type": "function"
    },
    {
      "constant": true,
      "inputs": [
        {
          "name": "",
          "type": "bytes32"
        }
      ],
      "name": "rayTokens",
      "outputs": [
        {
          "name": "",
          "type": "address"
        }
      ],
      "payable": false,
      "stateMutability": "view",
      "type": "function"
    },
    {
      "constant": true,
      "inputs": [],
      "name": "owner",
      "outputs": [
        {
          "name": "",
          "type": "address"
        }
      ],
      "payable": false,
      "stateMutability": "view",
      "type": "function"
    },
    {
      "constant": true,
      "inputs": [],
      "name": "isOwner",
      "outputs": [
        {
          "name": "",
          "type": "bool"
        }
      ],
      "payable": false,
      "stateMutability": "view",
      "type": "function"
    },
    {
      "constant": true,
      "inputs": [
        {
          "name": "",
          "type": "address"
        },
        {
          "name": "",
          "type": "uint256"
        }
      ],
      "name": "recoveryWallets",
      "outputs": [
        {
          "name": "",
          "type": "address"
        }
      ],
      "payable": false,
      "stateMutability": "view",
      "type": "function"
    },
    {
      "constant": false,
      "inputs": [
        {
          "name": "erc20",
          "type": "address"
        },
        {
          "name": "amount",
          "type": "uint256"
        }
      ],
      "name": "withdrawDC",
      "outputs": [],
      "payable": false,
      "stateMutability": "nonpayable",
      "type": "function"
    },
    {
      "constant": true,
      "inputs": [],
      "name": "getDCWallets",
      "outputs": [
        {
          "name": "",
          "type": "address[]"
        }
      ],
      "payable": false,
      "stateMutability": "view",
      "type": "function"
    },
    {
      "constant": false,
      "inputs": [
        {
          "name": "wallet",
          "type": "address"
        }
      ],
      "name": "getRayTokens",
      "outputs": [
        {
          "name": "",
          "type": "bytes32[]"
        }
      ],
      "payable": false,
      "stateMutability": "nonpayable",
      "type": "function"
    },
    {
      "constant": false,
      "inputs": [
        {
          "name": "asset",
          "type": "address"
        },
        {
          "name": "wallets",
          "type": "address[]"
        },
        {
          "name": "values",
          "type": "uint256[]"
        },
        {
          "name": "deadline",
          "type": "uint256"
        }
      ],
      "name": "setRecoverySheet",
      "outputs": [],
      "payable": false,
      "stateMutability": "nonpayable",
      "type": "function"
    },
    {
      "constant": true,
      "inputs": [
        {
          "name": "",
          "type": "address"
        },
        {
          "name": "",
          "type": "address"
        }
      ],
      "name": "balances",
      "outputs": [
        {
          "name": "",
          "type": "uint256"
        }
      ],
      "payable": false,
      "stateMutability": "view",
      "type": "function"
    },
    {
      "constant": false,
      "inputs": [
        {
          "name": "erc20",
          "type": "address"
        },
        {
          "name": "user",
          "type": "address"
        },
        {
          "name": "amount",
          "type": "uint256"
        }
      ],
      "name": "depositDC",
      "outputs": [],
      "payable": false,
      "stateMutability": "nonpayable",
      "type": "function"
    },
    {
      "constant": false,
      "inputs": [
        {
          "name": "newOwner",
          "type": "address"
        }
      ],
      "name": "transferOwnership",
      "outputs": [],
      "payable": false,
      "stateMutability": "nonpayable",
      "type": "function"
    },
    {
      "constant": true,
      "inputs": [
        {
          "name": "",
          "type": "address"
        },
        {
          "name": "",
          "type": "address"
        },
        {
          "name": "",
          "type": "address"
        }
      ],
      "name": "recoverySheet",
      "outputs": [
        {
          "name": "",
          "type": "uint256"
        }
      ],
      "payable": false,
      "stateMutability": "view",
      "type": "function"
    },
    {
      "payable": true,
      "stateMutability": "payable",
      "type": "fallback"
    },
    {
      "anonymous": false,
      "inputs": [
        {
          "indexed": true,
          "name": "proxy",
          "type": "address"
        },
        {
          "indexed": false,
          "name": "admin",
          "type": "address"
        },
        {
          "indexed": false,
          "name": "sender",
          "type": "address"
        }
      ],
      "name": "NewWallet",
      "type": "event"
    },
    {
      "anonymous": false,
      "inputs": [
        {
          "indexed": true,
          "name": "token",
          "type": "address"
        },
        {
          "indexed": false,
          "name": "sender",
          "type": "address"
        }
      ],
      "name": "NewSupportedToken",
      "type": "event"
    },
    {
      "anonymous": false,
      "inputs": [
        {
          "indexed": true,
          "name": "wallet",
          "type": "address"
        },
        {
          "indexed": true,
          "name": "principalAddress",
          "type": "address"
        },
        {
          "indexed": true,
          "name": "beneficiary",
          "type": "address"
        },
        {
          "indexed": false,
          "name": "share",
          "type": "uint256"
        },
        {
          "indexed": false,
          "name": "value",
          "type": "uint256"
        }
      ],
      "name": "RecoveredERC20",
      "type": "event"
    },
    {
      "anonymous": false,
      "inputs": [
        {
          "indexed": false,
          "name": "user",
          "type": "address"
        },
        {
          "indexed": false,
          "name": "asset",
          "type": "address"
        },
        {
          "indexed": false,
          "name": "wallets",
          "type": "address[]"
        },
        {
          "indexed": false,
          "name": "values",
          "type": "uint256[]"
        },
        {
          "indexed": false,
          "name": "deadline",
          "type": "uint256"
        }
      ],
      "name": "NewRecoverySheet",
      "type": "event"
    },
    {
      "anonymous": false,
      "inputs": [
        {
          "indexed": false,
          "name": "portfolioId",
          "type": "bytes32"
        },
        {
          "indexed": false,
          "name": "beneficiary",
          "type": "address"
        },
        {
          "indexed": false,
          "name": "value",
          "type": "uint256"
        },
        {
          "indexed": false,
          "name": "rayTokenId",
          "type": "bytes32"
        }
      ],
      "name": "InvestmentRAY",
      "type": "event"
    },
    {
      "anonymous": false,
      "inputs": [
        {
          "indexed": false,
          "name": "rayTokenId",
          "type": "bytes32"
        },
        {
          "indexed": false,
          "name": "value",
          "type": "uint256"
        },
        {
          "indexed": false,
          "name": "beneficiary",
          "type": "address"
        }
      ],
      "name": "DepositRAY",
      "type": "event"
    },
    {
      "anonymous": false,
      "inputs": [
        {
          "indexed": false,
          "name": "rayTokenId",
          "type": "bytes32"
        },
        {
          "indexed": false,
          "name": "value",
          "type": "uint256"
        },
        {
          "indexed": false,
          "name": "beneficiary",
          "type": "address"
        }
      ],
      "name": "RedeemRAY",
      "type": "event"
    },
    {
      "anonymous": false,
      "inputs": [
        {
          "indexed": false,
          "name": "tokenAddress",
          "type": "address"
        },
        {
          "indexed": false,
          "name": "from",
          "type": "address"
        },
        {
          "indexed": false,
          "name": "beneficiary",
          "type": "address"
        },
        {
          "indexed": false,
          "name": "value",
          "type": "uint256"
        }
      ],
      "name": "FundsTransferRAY",
      "type": "event"
    },
    {
      "anonymous": false,
      "inputs": [
        {
          "indexed": false,
          "name": "erc20",
          "type": "address"
        },
        {
          "indexed": false,
          "name": "from",
          "type": "address"
        },
        {
          "indexed": false,
          "name": "amount",
          "type": "uint256"
        }
      ],
      "name": "DepositDC",
      "type": "event"
    },
    {
      "anonymous": false,
      "inputs": [
        {
          "indexed": false,
          "name": "erc20",
          "type": "address"
        },
        {
          "indexed": false,
          "name": "from",
          "type": "address"
        },
        {
          "indexed": false,
          "name": "amount",
          "type": "uint256"
        }
      ],
      "name": "WithdrawDC",
      "type": "event"
    },
    {
      "anonymous": false,
      "inputs": [
        {
          "indexed": true,
          "name": "previousOwner",
          "type": "address"
        },
        {
          "indexed": true,
          "name": "newOwner",
          "type": "address"
        }
      ],
      "name": "OwnershipTransferred",
      "type": "event"
    },
    {
      "constant": false,
      "inputs": [
        {
          "name": "owner",
          "type": "address"
        }
      ],
      "name": "init",
      "outputs": [],
      "payable": false,
      "stateMutability": "nonpayable",
      "type": "function"
    },
    {
      "constant": false,
      "inputs": [
        {
          "name": "_rayStorage",
          "type": "address"
        },
        {
          "name": "owner",
          "type": "address"
        }
      ],
      "name": "init",
      "outputs": [],
      "payable": false,
      "stateMutability": "nonpayable",
      "type": "function"
    },
    {
      "constant": true,
      "inputs": [],
      "name": "getTokens",
      "outputs": [
        {
          "name": "",
          "type": "address[]"
        }
      ],
      "payable": false,
      "stateMutability": "view",
      "type": "function"
    },
    {
      "constant": false,
      "inputs": [
        {
          "name": "token",
          "type": "address"
        }
      ],
      "name": "addSupportedToken",
      "outputs": [
        {
          "name": "",
          "type": "bool"
        }
      ],
      "payable": false,
      "stateMutability": "nonpayable",
      "type": "function"
    },
    {
      "constant": false,
      "inputs": [
        {
          "name": "rayTokenId",
          "type": "bytes32"
        }
      ],
      "name": "recoverRAY",
      "outputs": [],
      "payable": false,
      "stateMutability": "nonpayable",
      "type": "function"
    },
    {
      "constant": false,
      "inputs": [
        {
          "name": "wallet",
          "type": "address"
        },
        {
          "name": "asset",
          "type": "address"
        }
      ],
      "name": "recoverERC20",
      "outputs": [],
      "payable": false,
      "stateMutability": "nonpayable",
      "type": "function"
    }
  ],
  "bytecode": "0x608060405233603360006101000a81548173ffffffffffffffffffffffffffffffffffffffff021916908373ffffffffffffffffffffffffffffffffffffffff160217905550603360009054906101000a900473ffffffffffffffffffffffffffffffffffffffff1673ffffffffffffffffffffffffffffffffffffffff16600073ffffffffffffffffffffffffffffffffffffffff167f8be0079c531659141344cd1fd0a4f28419497f9722a3daafe3b4186f6b6457e060405160405180910390a36152a9806100d16000396000f3fe6080604052600436106101f95760003560e01c80637ed9db591161010d578063a50e4ed0116100a0578063c23f001f1161006f578063c23f001f14610fcc578063d442182914611051578063f09a4016146110cc578063f2fde38b1461113d578063f5db42551461118e576101f9565b8063a50e4ed014610ccb578063aa6ca80814610d37578063af249e2314610da3578063b5408a8e14610e49576101f9565b80638da5cb5b116100dc5780638da5cb5b14610b4f5780638f32d59b14610ba657806390bfebf014610bd5578063a0e538bb14610c70576101f9565b80637ed9db5914610992578063883820aa146109fe578063886f039a14610a635780638c04550c14610ad4576101f9565b80632ba5c3eb116101905780636d69fcaf1161015f5780636d69fcaf1461084357806370720d1f146108ac578063715018a6146109115780637346295914610928578063753899e914610963576101f9565b80632ba5c3eb146105f75780633a03e2b414610672578063421517f01461074e5780634ab6fcaf1461079d576101f9565b80631de26e16116101cc5780631de26e161461046c57806327f53f1c146104a45780632851bbc91461051f57806329c1a3ac14610588576101f9565b80630e54ae2e146101fb5780630ea80f8e14610260578063150b7a02146102b757806319ab453c1461041b575b005b34801561020757600080fd5b5061024a6004803603602081101561021e57600080fd5b81019080803573ffffffffffffffffffffffffffffffffffffffff169060200190929190505050611233565b6040518082815260200191505060405180910390f35b34801561026c57600080fd5b5061027561124b565b604051808273ffffffffffffffffffffffffffffffffffffffff1673ffffffffffffffffffffffffffffffffffffffff16815260200191505060405180910390f35b3480156102c357600080fd5b506103c7600480360360808110156102da57600080fd5b81019080803573ffffffffffffffffffffffffffffffffffffffff169060200190929190803573ffffffffffffffffffffffffffffffffffffffff169060200190929190803590602001909291908035906020019064010000000081111561034157600080fd5b82018360208201111561035357600080fd5b8035906020019184600183028401116401000000008311171561037557600080fd5b91908080601f016020809104026020016040519081016040528093929190818152602001838380828437600081840152601f19601f820116905080830192505050505050509192919290505050611271565b60405180827bffffffffffffffffffffffffffffffffffffffffffffffffffffffff19167bffffffffffffffffffffffffffffffffffffffffffffffffffffffff1916815260200191505060405180910390f35b34801561042757600080fd5b5061046a6004803603602081101561043e57600080fd5b81019080803573ffffffffffffffffffffffffffffffffffffffff169060200190929190505050611285565b005b6104a26004803603604081101561048257600080fd5b81019080803590602001909291908035906020019092919050505061138e565b005b3480156104b057600080fd5b506104dd600480360360208110156104c757600080fd5b8101908080359060200190929190505050611625565b604051808273ffffffffffffffffffffffffffffffffffffffff1673ffffffffffffffffffffffffffffffffffffffff16815260200191505060405180910390f35b34801561052b57600080fd5b5061056e6004803603602081101561054257600080fd5b81019080803573ffffffffffffffffffffffffffffffffffffffff169060200190929190505050611662565b604051808215151515815260200191505060405180910390f35b34801561059457600080fd5b506105e1600480360360408110156105ab57600080fd5b81019080803573ffffffffffffffffffffffffffffffffffffffff169060200190929190803590602001909291905050506116ef565b6040518082815260200191505060405180910390f35b34801561060357600080fd5b506106306004803603602081101561061a57600080fd5b810190808035906020019092919050505061171d565b604051808273ffffffffffffffffffffffffffffffffffffffff1673ffffffffffffffffffffffffffffffffffffffff16815260200191505060405180910390f35b34801561067e57600080fd5b506107386004803603602081101561069557600080fd5b81019080803590602001906401000000008111156106b257600080fd5b8201836020820111156106c457600080fd5b803590602001918460018302840111640100000000831117156106e657600080fd5b91908080601f016020809104026020016040519081016040528093929190818152602001838380828437600081840152601f19601f820116905080830192505050505050509192919290505050611759565b6040518082815260200191505060405180910390f35b34801561075a57600080fd5b506107876004803603602081101561077157600080fd5b81019080803590602001909291905050506117d4565b6040518082815260200191505060405180910390f35b3480156107a957600080fd5b506107ec600480360360208110156107c057600080fd5b81019080803573ffffffffffffffffffffffffffffffffffffffff1690602001909291905050506119e9565b6040518080602001828103825283818151815260200191508051906020019060200280838360005b8381101561082f578082015181840152602081019050610814565b505050509050019250505060405180910390f35b34801561084f57600080fd5b506108926004803603602081101561086657600080fd5b81019080803573ffffffffffffffffffffffffffffffffffffffff169060200190929190505050611ab6565b604051808215151515815260200191505060405180910390f35b3480156108b857600080fd5b506108fb600480360360208110156108cf57600080fd5b81019080803573ffffffffffffffffffffffffffffffffffffffff169060200190929190505050611cf8565b6040518082815260200191505060405180910390f35b34801561091d57600080fd5b50610926611d10565b005b34801561093457600080fd5b506109616004803603602081101561094b57600080fd5b8101908080359060200190929190505050611e4b565b005b34801561096f57600080fd5b50610978612435565b604051808215151515815260200191505060405180910390f35b6109e8600480360360608110156109a857600080fd5b8101908080359060200190929190803573ffffffffffffffffffffffffffffffffffffffff16906020019092919080359060200190929190505050612484565b6040518082815260200191505060405180910390f35b348015610a0a57600080fd5b50610a6160048036036060811015610a2157600080fd5b810190808035906020019092919080359060200190929190803573ffffffffffffffffffffffffffffffffffffffff16906020019092919050505061275b565b005b348015610a6f57600080fd5b50610ad260048036036040811015610a8657600080fd5b81019080803573ffffffffffffffffffffffffffffffffffffffff169060200190929190803573ffffffffffffffffffffffffffffffffffffffff1690602001909291905050506127bc565b005b348015610ae057600080fd5b50610b0d60048036036020811015610af757600080fd5b8101908080359060200190929190505050612b2f565b604051808273ffffffffffffffffffffffffffffffffffffffff1673ffffffffffffffffffffffffffffffffffffffff16815260200191505060405180910390f35b348015610b5b57600080fd5b50610b64612b62565b604051808273ffffffffffffffffffffffffffffffffffffffff1673ffffffffffffffffffffffffffffffffffffffff16815260200191505060405180910390f35b348015610bb257600080fd5b50610bbb612b8c565b604051808215151515815260200191505060405180910390f35b348015610be157600080fd5b50610c2e60048036036040811015610bf857600080fd5b81019080803573ffffffffffffffffffffffffffffffffffffffff16906020019092919080359060200190929190505050612be4565b604051808273ffffffffffffffffffffffffffffffffffffffff1673ffffffffffffffffffffffffffffffffffffffff16815260200191505060405180910390f35b348015610c7c57600080fd5b50610cc960048036036040811015610c9357600080fd5b81019080803573ffffffffffffffffffffffffffffffffffffffff16906020019092919080359060200190929190505050612c2f565b005b348015610cd757600080fd5b50610ce0612ea4565b6040518080602001828103825283818151815260200191508051906020019060200280838360005b83811015610d23578082015181840152602081019050610d08565b505050509050019250505060405180910390f35b348015610d4357600080fd5b50610d4c612f32565b6040518080602001828103825283818151815260200191508051906020019060200280838360005b83811015610d8f578082015181840152602081019050610d74565b505050509050019250505060405180910390f35b348015610daf57600080fd5b50610df260048036036020811015610dc657600080fd5b81019080803573ffffffffffffffffffffffffffffffffffffffff169060200190929190505050612fc0565b6040518080602001828103825283818151815260200191508051906020019060200280838360005b83811015610e35578082015181840152602081019050610e1a565b505050509050019250505060405180910390f35b348015610e5557600080fd5b50610fca60048036036080811015610e6c57600080fd5b81019080803573ffffffffffffffffffffffffffffffffffffffff16906020019092919080359060200190640100000000811115610ea957600080fd5b820183602082011115610ebb57600080fd5b80359060200191846020830284011164010000000083111715610edd57600080fd5b919080806020026020016040519081016040528093929190818152602001838360200280828437600081840152601f19601f82011690508083019250505050505050919291929080359060200190640100000000811115610f3d57600080fd5b820183602082011115610f4f57600080fd5b80359060200191846020830284011164010000000083111715610f7157600080fd5b919080806020026020016040519081016040528093929190818152602001838360200280828437600081840152601f19601f82011690508083019250505050505050919291929080359060200190929190505050613057565b005b348015610fd857600080fd5b5061103b60048036036040811015610fef57600080fd5b81019080803573ffffffffffffffffffffffffffffffffffffffff169060200190929190803573ffffffffffffffffffffffffffffffffffffffff1690602001909291905050506136a4565b6040518082815260200191505060405180910390f35b34801561105d57600080fd5b506110ca6004803603606081101561107457600080fd5b81019080803573ffffffffffffffffffffffffffffffffffffffff169060200190929190803573ffffffffffffffffffffffffffffffffffffffff169060200190929190803590602001909291905050506136c9565b005b3480156110d857600080fd5b5061113b600480360360408110156110ef57600080fd5b81019080803573ffffffffffffffffffffffffffffffffffffffff169060200190929190803573ffffffffffffffffffffffffffffffffffffffff169060200190929190505050613973565b005b34801561114957600080fd5b5061118c6004803603602081101561116057600080fd5b81019080803573ffffffffffffffffffffffffffffffffffffffff169060200190929190505050613a86565b005b34801561119a57600080fd5b5061121d600480360360608110156111b157600080fd5b81019080803573ffffffffffffffffffffffffffffffffffffffff169060200190929190803573ffffffffffffffffffffffffffffffffffffffff169060200190929190803573ffffffffffffffffffffffffffffffffffffffff169060200190929190505050613b0c565b6040518082815260200191505060405180910390f35b60406020528060005260406000206000915090505481565b603b60009054906101000a900473ffffffffffffffffffffffffffffffffffffffff1681565b600063150b7a0260e01b9050949350505050565b600060019054906101000a900460ff16806112a457506112a3613b3e565b5b806112bb57506000809054906101000a900460ff16155b611310576040517f08c379a000000000000000000000000000000000000000000000000000000000815260040180806020018281038252602e815260200180615143602e913960400191505060405180910390fd5b60008060019054906101000a900460ff161590508015611360576001600060016101000a81548160ff02191690831515021790555060016000806101000a81548160ff0219169083151502179055505b61136982613b4f565b801561138a5760008060016101000a81548160ff0219169083151502179055505b5050565b6000603b60009054906101000a900473ffffffffffffffffffffffffffffffffffffffff1673ffffffffffffffffffffffffffffffffffffffff166343aee400846040518263ffffffff1660e01b81526004018082815260200191505060206040518083038186803b15801561140357600080fd5b505afa158015611417573d6000803e3d6000fd5b505050506040513d602081101561142d57600080fd5b810190808051906020019092919050505090506000603b60009054906101000a900473ffffffffffffffffffffffffffffffffffffffff1673ffffffffffffffffffffffffffffffffffffffff16630d2020dd6036546040518263ffffffff1660e01b81526004018082815260200191505060206040518083038186803b1580156114b757600080fd5b505afa1580156114cb573d6000803e3d6000fd5b505050506040513d60208110156114e157600080fd5b81019080805190602001909291905050509050600061150283338685613c95565b90508173ffffffffffffffffffffffffffffffffffffffff16631de26e168287876040518463ffffffff1660e01b815260040180838152602001828152602001925050506000604051808303818588803b15801561155f57600080fd5b505af1158015611573573d6000803e3d6000fd5b50505050507f18deb3b7772ccd6bb7a588a8a4682455bd256880ac88a8cd6c692ff18ff15a628585603c600089815260200190815260200160002060009054906101000a900473ffffffffffffffffffffffffffffffffffffffff16604051808481526020018381526020018273ffffffffffffffffffffffffffffffffffffffff1673ffffffffffffffffffffffffffffffffffffffff168152602001935050505060405180910390a15050505050565b6000603c600083815260200190815260200160002060009054906101000a900473ffffffffffffffffffffffffffffffffffffffff169050919050565b600042604060008473ffffffffffffffffffffffffffffffffffffffff1673ffffffffffffffffffffffffffffffffffffffff16815260200190815260200160002054603f60008573ffffffffffffffffffffffffffffffffffffffff1673ffffffffffffffffffffffffffffffffffffffff168152602001908152602001600020540111159050919050565b603d602052816000526040600020818154811061170857fe5b90600052602060002001600091509150505481565b603e818154811061172a57fe5b906000526020600020016000915054906101000a900473ffffffffffffffffffffffffffffffffffffffff1681565b6000816040516020018082805190602001908083835b60208310611792578051825260208201915060208101905060208303925061176f565b6001836020036101000a038019825116818451168082178552505050505050905001915050604051602081830303815290604052805190602001209050919050565b600080600080603b60009054906101000a900473ffffffffffffffffffffffffffffffffffffffff1673ffffffffffffffffffffffffffffffffffffffff166343aee400866040518263ffffffff1660e01b81526004018082815260200191505060206040518083038186803b15801561184d57600080fd5b505afa158015611861573d6000803e3d6000fd5b505050506040513d602081101561187757600080fd5b81019080805190602001909291905050509050603b60009054906101000a900473ffffffffffffffffffffffffffffffffffffffff1673ffffffffffffffffffffffffffffffffffffffff16630d2020dd6039546040518263ffffffff1660e01b81526004018082815260200191505060206040518083038186803b1580156118ff57600080fd5b505afa158015611913573d6000803e3d6000fd5b505050506040513d602081101561192957600080fd5b810190808051906020019092919050505073ffffffffffffffffffffffffffffffffffffffff16632cc7b6f782876040518363ffffffff1660e01b81526004018083815260200182815260200192505050604080518083038186803b15801561199157600080fd5b505afa1580156119a5573d6000803e3d6000fd5b505050506040513d60408110156119bb57600080fd5b8101908080519060200190929190805190602001909291905050508093508194505050829350505050919050565b6060604160008373ffffffffffffffffffffffffffffffffffffffff1673ffffffffffffffffffffffffffffffffffffffff168152602001908152602001600020805480602002602001604051908101604052809291908181526020018280548015611aaa57602002820191906000526020600020905b8160009054906101000a900473ffffffffffffffffffffffffffffffffffffffff1673ffffffffffffffffffffffffffffffffffffffff1681526020019060010190808311611a60575b50505050509050919050565b6000611ac0612b8c565b611b32576040517f08c379a00000000000000000000000000000000000000000000000000000000081526004018080602001828103825260208152602001807f4f776e61626c653a2063616c6c6572206973206e6f7420746865206f776e657281525060200191505060405180910390fd5b60008090505b604380549050811015611c0e578273ffffffffffffffffffffffffffffffffffffffff1660438281548110611b6957fe5b9060005260206000200160009054906101000a900473ffffffffffffffffffffffffffffffffffffffff1673ffffffffffffffffffffffffffffffffffffffff161415611c01576040517f08c379a0000000000000000000000000000000000000000000000000000000008152600401808060200182810382526042815260200180614f216042913960600191505060405180910390fd5b8080600101915050611b38565b5060438290806001815401808255809150509060018203906000526020600020016000909192909190916101000a81548173ffffffffffffffffffffffffffffffffffffffff021916908373ffffffffffffffffffffffffffffffffffffffff160217905550508173ffffffffffffffffffffffffffffffffffffffff167fc335693ab2fc7f7806781247c0088839e7fed4246c371f702f26176dfe8b6ed933604051808273ffffffffffffffffffffffffffffffffffffffff1673ffffffffffffffffffffffffffffffffffffffff16815260200191505060405180910390a260019050919050565b603f6020528060005260406000206000915090505481565b611d18612b8c565b611d8a576040517f08c379a00000000000000000000000000000000000000000000000000000000081526004018080602001828103825260208152602001807f4f776e61626c653a2063616c6c6572206973206e6f7420746865206f776e657281525060200191505060405180910390fd5b600073ffffffffffffffffffffffffffffffffffffffff16603360009054906101000a900473ffffffffffffffffffffffffffffffffffffffff1673ffffffffffffffffffffffffffffffffffffffff167f8be0079c531659141344cd1fd0a4f28419497f9722a3daafe3b4186f6b6457e060405160405180910390a36000603360006101000a81548173ffffffffffffffffffffffffffffffffffffffff021916908373ffffffffffffffffffffffffffffffffffffffff160217905550565b603c600082815260200190815260200160002060009054906101000a900473ffffffffffffffffffffffffffffffffffffffff16611e8881611662565b611edd576040517f08c379a000000000000000000000000000000000000000000000000000000000815260040180806020018281038252604481526020018061505c6044913960600191505060405180910390fd5b600080600080600080603c600089815260200190815260200160002060009054906101000a900473ffffffffffffffffffffffffffffffffffffffff1690506000611f27896117d4565b9050611f348982306140f8565b80945081955050506000603b60009054906101000a900473ffffffffffffffffffffffffffffffffffffffff1673ffffffffffffffffffffffffffffffffffffffff16633f1793c3866040518263ffffffff1660e01b81526004018082815260200191505060206040518083038186803b158015611fb157600080fd5b505afa158015611fc5573d6000803e3d6000fd5b505050506040513d6020811015611fdb57600080fd5b8101908080519060200190929190505050905060008090505b604160008573ffffffffffffffffffffffffffffffffffffffff1673ffffffffffffffffffffffffffffffffffffffff1681526020019081526020016000208054905081101561242857604160008573ffffffffffffffffffffffffffffffffffffffff1673ffffffffffffffffffffffffffffffffffffffff168152602001908152602001600020818154811061208857fe5b9060005260206000200160009054906101000a900473ffffffffffffffffffffffffffffffffffffffff169850604260008573ffffffffffffffffffffffffffffffffffffffff1673ffffffffffffffffffffffffffffffffffffffff16815260200190815260200160002060008a73ffffffffffffffffffffffffffffffffffffffff1673ffffffffffffffffffffffffffffffffffffffff16815260200190815260200160002060008373ffffffffffffffffffffffffffffffffffffffff1673ffffffffffffffffffffffffffffffffffffffff16815260200190815260200160002054975061219e670de0b6b3a76400006121908a886143e690919063ffffffff16565b61446c90919063ffffffff16565b9650603b60009054906101000a900473ffffffffffffffffffffffffffffffffffffffff1673ffffffffffffffffffffffffffffffffffffffff166353024bae836040518263ffffffff1660e01b8152600401808273ffffffffffffffffffffffffffffffffffffffff1673ffffffffffffffffffffffffffffffffffffffff16815260200191505060206040518083038186803b15801561223f57600080fd5b505afa158015612253573d6000803e3d6000fd5b505050506040513d602081101561226957600080fd5b810190808051906020019092919050505015612397578173ffffffffffffffffffffffffffffffffffffffff1663a9059cbb8a896040518363ffffffff1660e01b8152600401808373ffffffffffffffffffffffffffffffffffffffff1673ffffffffffffffffffffffffffffffffffffffff16815260200182815260200192505050602060405180830381600087803b15801561230657600080fd5b505af115801561231a573d6000803e3d6000fd5b505050506040513d602081101561233057600080fd5b8101908080519060200190929190505050612396576040517f08c379a0000000000000000000000000000000000000000000000000000000008152600401808060200182810382526041815260200180614eb16041913960600191505060405180910390fd5b5b8873ffffffffffffffffffffffffffffffffffffffff168273ffffffffffffffffffffffffffffffffffffffff168573ffffffffffffffffffffffffffffffffffffffff167fea01a0ea7db0a551b7f4d29fae6934cd6ae327f0cdd83d01ad090fba6bcf92438b8b604051808381526020018281526020019250505060405180910390a48080600101915050611ff4565b5050505050505050505050565b60003342603f60008373ffffffffffffffffffffffffffffffffffffffff1673ffffffffffffffffffffffffffffffffffffffff16815260200190815260200160002081905550600191505090565b600080603b60009054906101000a900473ffffffffffffffffffffffffffffffffffffffff1673ffffffffffffffffffffffffffffffffffffffff16630d2020dd6036546040518263ffffffff1660e01b81526004018082815260200191505060206040518083038186803b1580156124fc57600080fd5b505afa158015612510573d6000803e3d6000fd5b505050506040513d602081101561252657600080fd5b81019080805190602001909291905050509050600061254786868685613c95565b905060008273ffffffffffffffffffffffffffffffffffffffff16637ed9db59838930896040518563ffffffff1660e01b8152600401808481526020018373ffffffffffffffffffffffffffffffffffffffff1673ffffffffffffffffffffffffffffffffffffffff16815260200182815260200193505050506020604051808303818588803b1580156125da57600080fd5b505af11580156125ee573d6000803e3d6000fd5b50505050506040513d602081101561260557600080fd5b8101908080519060200190929190505050905085603c600083815260200190815260200160002060006101000a81548173ffffffffffffffffffffffffffffffffffffffff021916908373ffffffffffffffffffffffffffffffffffffffff160217905550603d60008773ffffffffffffffffffffffffffffffffffffffff1673ffffffffffffffffffffffffffffffffffffffff1681526020019081526020016000208190806001815401808255809150509060018203906000526020600020016000909192909190915055507f8667d3b890097908e74765dd3b76068096309b7c3755b889b9afffc436182b5e87878784604051808581526020018473ffffffffffffffffffffffffffffffffffffffff1673ffffffffffffffffffffffffffffffffffffffff16815260200183815260200182815260200194505050505060405180910390a18093505050509392505050565b6000806127698585856140f8565b80925081935050506000603c600087815260200190815260200160002060009054906101000a900473ffffffffffffffffffffffffffffffffffffffff1690506127b48382846144fb565b505050505050565b816127c681611662565b61281b576040517f08c379a000000000000000000000000000000000000000000000000000000000815260040180806020018281038252604481526020018061505c6044913960600191505060405180910390fd5b600080600080600090505b604160008873ffffffffffffffffffffffffffffffffffffffff1673ffffffffffffffffffffffffffffffffffffffff16815260200190815260200160002080549050811015612b2657604160008873ffffffffffffffffffffffffffffffffffffffff1673ffffffffffffffffffffffffffffffffffffffff16815260200190815260200160002081815481106128ba57fe5b9060005260206000200160009054906101000a900473ffffffffffffffffffffffffffffffffffffffff169350604260008873ffffffffffffffffffffffffffffffffffffffff1673ffffffffffffffffffffffffffffffffffffffff16815260200190815260200160002060008573ffffffffffffffffffffffffffffffffffffffff1673ffffffffffffffffffffffffffffffffffffffff16815260200190815260200160002060008773ffffffffffffffffffffffffffffffffffffffff1673ffffffffffffffffffffffffffffffffffffffff168152602001908152602001600020549250612a4c670de0b6b3a7640000612a3e85603460008b73ffffffffffffffffffffffffffffffffffffffff1673ffffffffffffffffffffffffffffffffffffffff16815260200190815260200160002060008c73ffffffffffffffffffffffffffffffffffffffff1673ffffffffffffffffffffffffffffffffffffffff168152602001908152602001600020546143e690919063ffffffff16565b61446c90919063ffffffff16565b91508373ffffffffffffffffffffffffffffffffffffffff166108fc839081150290604051600060405180830381858888f19350505050158015612a94573d6000803e3d6000fd5b508373ffffffffffffffffffffffffffffffffffffffff168673ffffffffffffffffffffffffffffffffffffffff168873ffffffffffffffffffffffffffffffffffffffff167fea01a0ea7db0a551b7f4d29fae6934cd6ae327f0cdd83d01ad090fba6bcf92438686604051808381526020018281526020019250505060405180910390a48080600101915050612826565b50505050505050565b603c6020528060005260406000206000915054906101000a900473ffffffffffffffffffffffffffffffffffffffff1681565b6000603360009054906101000a900473ffffffffffffffffffffffffffffffffffffffff16905090565b6000603360009054906101000a900473ffffffffffffffffffffffffffffffffffffffff1673ffffffffffffffffffffffffffffffffffffffff163373ffffffffffffffffffffffffffffffffffffffff1614905090565b60416020528160005260406000208181548110612bfd57fe5b906000526020600020016000915091509054906101000a900473ffffffffffffffffffffffffffffffffffffffff1681565b612cbe81603460008573ffffffffffffffffffffffffffffffffffffffff1673ffffffffffffffffffffffffffffffffffffffff16815260200190815260200160002060003373ffffffffffffffffffffffffffffffffffffffff1673ffffffffffffffffffffffffffffffffffffffff1681526020019081526020016000205461499d90919063ffffffff16565b603460008473ffffffffffffffffffffffffffffffffffffffff1673ffffffffffffffffffffffffffffffffffffffff16815260200190815260200160002060003373ffffffffffffffffffffffffffffffffffffffff1673ffffffffffffffffffffffffffffffffffffffff168152602001908152602001600020819055508173ffffffffffffffffffffffffffffffffffffffff1663a9059cbb33836040518363ffffffff1660e01b8152600401808373ffffffffffffffffffffffffffffffffffffffff1673ffffffffffffffffffffffffffffffffffffffff16815260200182815260200192505050602060405180830381600087803b158015612dc557600080fd5b505af1158015612dd9573d6000803e3d6000fd5b505050506040513d6020811015612def57600080fd5b8101908080519060200190929190505050507f5a619174578cdee6ffdb33d380d4cc19d92b5e8ed08c2d52cfcc89d59d0a78e4823383604051808473ffffffffffffffffffffffffffffffffffffffff1673ffffffffffffffffffffffffffffffffffffffff1681526020018373ffffffffffffffffffffffffffffffffffffffff1673ffffffffffffffffffffffffffffffffffffffff168152602001828152602001935050505060405180910390a15050565b6060603e805480602002602001604051908101604052809291908181526020018280548015612f2857602002820191906000526020600020905b8160009054906101000a900473ffffffffffffffffffffffffffffffffffffffff1673ffffffffffffffffffffffffffffffffffffffff1681526020019060010190808311612ede575b5050505050905090565b60606043805480602002602001604051908101604052809291908181526020018280548015612fb657602002820191906000526020600020905b8160009054906101000a900473ffffffffffffffffffffffffffffffffffffffff1673ffffffffffffffffffffffffffffffffffffffff1681526020019060010190808311612f6c575b5050505050905090565b6060603d60008373ffffffffffffffffffffffffffffffffffffffff1673ffffffffffffffffffffffffffffffffffffffff16815260200190815260200160002080548060200260200160405190810160405280929190818152602001828054801561304b57602002820191906000526020600020905b815481526020019060010190808311613037575b50505050509050919050565b3342603f60008373ffffffffffffffffffffffffffffffffffffffff1673ffffffffffffffffffffffffffffffffffffffff16815260200190815260200160002081905550600073ffffffffffffffffffffffffffffffffffffffff168573ffffffffffffffffffffffffffffffffffffffff161415613122576040517f08c379a000000000000000000000000000000000000000000000000000000000815260040180806020018281038252603f8152602001806150a0603f913960400191505060405180910390fd5b6000821161317b576040517f08c379a0000000000000000000000000000000000000000000000000000000008152600401808060200182810382526044815260200180614fdb6044913960600191505060405180910390fd5b8251845114801561318d575060008451115b6131e2576040517f08c379a00000000000000000000000000000000000000000000000000000000081526004018080602001828103825260438152602001806150df6043913960600191505060405180910390fd5b600080905060008090505b855181101561340c57600073ffffffffffffffffffffffffffffffffffffffff1686828151811061321a57fe5b602002602001015173ffffffffffffffffffffffffffffffffffffffff16141561328f576040517f08c379a00000000000000000000000000000000000000000000000000000000081526004018080602001828103825260498152602001806151716049913960600191505060405180910390fd5b670de0b6b3a76400008582815181106132a457fe5b60200260200101511115613303576040517f08c379a0000000000000000000000000000000000000000000000000000000008152600401808060200182810382526050815260200180614e616050913960600191505060405180910390fd5b84818151811061330f57fe5b6020026020010151604260003373ffffffffffffffffffffffffffffffffffffffff1673ffffffffffffffffffffffffffffffffffffffff168152602001908152602001600020600088848151811061336457fe5b602002602001015173ffffffffffffffffffffffffffffffffffffffff1673ffffffffffffffffffffffffffffffffffffffff16815260200190815260200160002060008973ffffffffffffffffffffffffffffffffffffffff1673ffffffffffffffffffffffffffffffffffffffff168152602001908152602001600020819055508481815181106133f357fe5b60200260200101518201915080806001019150506131ed565b50670de0b6b3a7640000811461346d576040517f08c379a0000000000000000000000000000000000000000000000000000000008152600401808060200182810382526052815260200180614f896052913960600191505060405180910390fd5b82604060003373ffffffffffffffffffffffffffffffffffffffff1673ffffffffffffffffffffffffffffffffffffffff1681526020019081526020016000208190555084604160003373ffffffffffffffffffffffffffffffffffffffff1673ffffffffffffffffffffffffffffffffffffffff1681526020019081526020016000209080519060200190613504929190614d93565b507fd755b4b1c6f89e651f14f05a6de0376c202dddaf96dd4ee3052c42b72f47dbb43387878787604051808673ffffffffffffffffffffffffffffffffffffffff1673ffffffffffffffffffffffffffffffffffffffff1681526020018573ffffffffffffffffffffffffffffffffffffffff1673ffffffffffffffffffffffffffffffffffffffff1681526020018060200180602001848152602001838103835286818151815260200191508051906020019060200280838360005b838110156135dc5780820151818401526020810190506135c1565b50505050905001838103825285818151815260200191508051906020019060200280838360005b8381101561361e578082015181840152602081019050613603565b5050505090500197505050505050505060405180910390a1603e3390806001815401808255809150509060018203906000526020600020016000909192909190916101000a81548173ffffffffffffffffffffffffffffffffffffffff021916908373ffffffffffffffffffffffffffffffffffffffff16021790555050505050505050565b6034602052816000526040600020602052806000526040600020600091509150505481565b8273ffffffffffffffffffffffffffffffffffffffff166323b872dd8330846040518463ffffffff1660e01b8152600401808473ffffffffffffffffffffffffffffffffffffffff1673ffffffffffffffffffffffffffffffffffffffff1681526020018373ffffffffffffffffffffffffffffffffffffffff1673ffffffffffffffffffffffffffffffffffffffff1681526020018281526020019350505050602060405180830381600087803b15801561378457600080fd5b505af1158015613798573d6000803e3d6000fd5b505050506040513d60208110156137ae57600080fd5b81019080805190602001909291905050505061384f81603460008673ffffffffffffffffffffffffffffffffffffffff1673ffffffffffffffffffffffffffffffffffffffff16815260200190815260200160002060008573ffffffffffffffffffffffffffffffffffffffff1673ffffffffffffffffffffffffffffffffffffffff16815260200190815260200160002054614a2690919063ffffffff16565b603460008573ffffffffffffffffffffffffffffffffffffffff1673ffffffffffffffffffffffffffffffffffffffff16815260200190815260200160002060008473ffffffffffffffffffffffffffffffffffffffff1673ffffffffffffffffffffffffffffffffffffffff168152602001908152602001600020819055507f2158f66ce15490507ec69d9824ffc1a98ef4d4ed22a9bb0419bde6b92c06d05e838383604051808473ffffffffffffffffffffffffffffffffffffffff1673ffffffffffffffffffffffffffffffffffffffff1681526020018373ffffffffffffffffffffffffffffffffffffffff1673ffffffffffffffffffffffffffffffffffffffff168152602001828152602001935050505060405180910390a1505050565b600060019054906101000a900460ff16806139925750613991613b3e565b5b806139a957506000809054906101000a900460ff16155b6139fe576040517f08c379a000000000000000000000000000000000000000000000000000000000815260040180806020018281038252602e815260200180615143602e913960400191505060405180910390fd5b60008060019054906101000a900460ff161590508015613a4e576001600060016101000a81548160ff02191690831515021790555060016000806101000a81548160ff0219169083151502179055505b613a5783614aae565b613a6082611285565b8015613a815760008060016101000a81548160ff0219169083151502179055505b505050565b613a8e612b8c565b613b00576040517f08c379a00000000000000000000000000000000000000000000000000000000081526004018080602001828103825260208152602001807f4f776e61626c653a2063616c6c6572206973206e6f7420746865206f776e657281525060200191505060405180910390fd5b613b0981613b4f565b50565b604260205282600052604060002060205281600052604060002060205280600052604060002060009250925050505481565b600080303b90506000811491505090565b600073ffffffffffffffffffffffffffffffffffffffff168173ffffffffffffffffffffffffffffffffffffffff161415613bd5576040517f08c379a0000000000000000000000000000000000000000000000000000000008152600401808060200182810382526026815260200180614f636026913960400191505060405180910390fd5b8073ffffffffffffffffffffffffffffffffffffffff16603360009054906101000a900473ffffffffffffffffffffffffffffffffffffffff1673ffffffffffffffffffffffffffffffffffffffff167f8be0079c531659141344cd1fd0a4f28419497f9722a3daafe3b4186f6b6457e060405160405180910390a380603360006101000a81548173ffffffffffffffffffffffffffffffffffffffff021916908373ffffffffffffffffffffffffffffffffffffffff16021790555050565b600080603b60009054906101000a900473ffffffffffffffffffffffffffffffffffffffff1673ffffffffffffffffffffffffffffffffffffffff16633f1793c3876040518263ffffffff1660e01b81526004018082815260200191505060206040518083038186803b158015613d0b57600080fd5b505afa158015613d1f573d6000803e3d6000fd5b505050506040513d6020811015613d3557600080fd5b81019080805190602001909291905050509050603b60009054906101000a900473ffffffffffffffffffffffffffffffffffffffff1673ffffffffffffffffffffffffffffffffffffffff166353024bae826040518263ffffffff1660e01b8152600401808273ffffffffffffffffffffffffffffffffffffffff1673ffffffffffffffffffffffffffffffffffffffff16815260200191505060206040518083038186803b158015613de757600080fd5b505afa158015613dfb573d6000803e3d6000fd5b505050506040513d6020811015613e1157600080fd5b810190808051906020019092919050505015614093578073ffffffffffffffffffffffffffffffffffffffff166323b872dd8630876040518463ffffffff1660e01b8152600401808473ffffffffffffffffffffffffffffffffffffffff1673ffffffffffffffffffffffffffffffffffffffff1681526020018373ffffffffffffffffffffffffffffffffffffffff1673ffffffffffffffffffffffffffffffffffffffff1681526020018281526020019350505050602060405180830381600087803b158015613ee257600080fd5b505af1158015613ef6573d6000803e3d6000fd5b505050506040513d6020811015613f0c57600080fd5b8101908080519060200190929190505050613f72576040517f08c379a000000000000000000000000000000000000000000000000000000000815260040180806020018281038252603d8152602001806151ba603d913960400191505060405180910390fd5b8073ffffffffffffffffffffffffffffffffffffffff1663095ea7b384866040518363ffffffff1660e01b8152600401808373ffffffffffffffffffffffffffffffffffffffff1673ffffffffffffffffffffffffffffffffffffffff16815260200182815260200192505050602060405180830381600087803b158015613ff957600080fd5b505af115801561400d573d6000803e3d6000fd5b505050506040513d602081101561402357600080fd5b8101908080519060200190929190505050614089576040517f08c379a000000000000000000000000000000000000000000000000000000000815260040180806020018281038252603d81526020018061501f603d913960400191505060405180910390fd5b60009150506140f0565b3484146140eb576040517f08c379a00000000000000000000000000000000000000000000000000000000081526004018080602001828103825260488152602001806152366048913960600191505060405180910390fd5b839150505b949350505050565b6000806000603b60009054906101000a900473ffffffffffffffffffffffffffffffffffffffff1673ffffffffffffffffffffffffffffffffffffffff166343aee400876040518263ffffffff1660e01b81526004018082815260200191505060206040518083038186803b15801561417057600080fd5b505afa158015614184573d6000803e3d6000fd5b505050506040513d602081101561419a57600080fd5b810190808051906020019092919050505090506000603b60009054906101000a900473ffffffffffffffffffffffffffffffffffffffff1673ffffffffffffffffffffffffffffffffffffffff16630d2020dd6036546040518263ffffffff1660e01b81526004018082815260200191505060206040518083038186803b15801561422457600080fd5b505afa158015614238573d6000803e3d6000fd5b505050506040513d602081101561424e57600080fd5b8101908080519060200190929190505050905060008173ffffffffffffffffffffffffffffffffffffffff1663112ad90b8989896040518463ffffffff1660e01b8152600401808481526020018381526020018273ffffffffffffffffffffffffffffffffffffffff1673ffffffffffffffffffffffffffffffffffffffff1681526020019350505050602060405180830381600087803b1580156142f257600080fd5b505af1158015614306573d6000803e3d6000fd5b505050506040513d602081101561431c57600080fd5b810190808051906020019092919050505090507f7029c547dc32802e528b6770662e27ad50f2fb85883fe19b9107a73afa6e2ef68882603c60008c815260200190815260200160002060009054906101000a900473ffffffffffffffffffffffffffffffffffffffff16604051808481526020018381526020018273ffffffffffffffffffffffffffffffffffffffff1673ffffffffffffffffffffffffffffffffffffffff168152602001935050505060405180910390a1828194509450505050935093915050565b6000808314156143f95760009050614466565b600082840290508284828161440a57fe5b0414614461576040517f08c379a00000000000000000000000000000000000000000000000000000000081526004018080602001828103825260218152602001806151226021913960400191505060405180910390fd5b809150505b92915050565b60008082116144e3576040517f08c379a000000000000000000000000000000000000000000000000000000000815260040180806020018281038252601a8152602001807f536166654d6174683a206469766973696f6e206279207a65726f00000000000081525060200191505060405180910390fd5b60008284816144ee57fe5b0490508091505092915050565b6000603b60009054906101000a900473ffffffffffffffffffffffffffffffffffffffff1673ffffffffffffffffffffffffffffffffffffffff16633f1793c3856040518263ffffffff1660e01b81526004018082815260200191505060206040518083038186803b15801561457057600080fd5b505afa158015614584573d6000803e3d6000fd5b505050506040513d602081101561459a57600080fd5b81019080805190602001909291905050509050603b60009054906101000a900473ffffffffffffffffffffffffffffffffffffffff1673ffffffffffffffffffffffffffffffffffffffff166353024bae826040518263ffffffff1660e01b8152600401808273ffffffffffffffffffffffffffffffffffffffff1673ffffffffffffffffffffffffffffffffffffffff16815260200191505060206040518083038186803b15801561464c57600080fd5b505afa158015614660573d6000803e3d6000fd5b505050506040513d602081101561467657600080fd5b81019080805190602001909291905050501561487b578073ffffffffffffffffffffffffffffffffffffffff1663a9059cbb84846040518363ffffffff1660e01b8152600401808373ffffffffffffffffffffffffffffffffffffffff1673ffffffffffffffffffffffffffffffffffffffff16815260200182815260200192505050602060405180830381600087803b15801561471357600080fd5b505af1158015614727573d6000803e3d6000fd5b505050506040513d602081101561473d57600080fd5b81019080805190602001909291905050506147a3576040517f08c379a000000000000000000000000000000000000000000000000000000000815260040180806020018281038252603f8152602001806151f7603f913960400191505060405180910390fd5b7f811818cc81106965711d42e377725a1ae3815b6175654fc80aa44e7a6821b77f81308585604051808573ffffffffffffffffffffffffffffffffffffffff1673ffffffffffffffffffffffffffffffffffffffff1681526020018473ffffffffffffffffffffffffffffffffffffffff1673ffffffffffffffffffffffffffffffffffffffff1681526020018373ffffffffffffffffffffffffffffffffffffffff1673ffffffffffffffffffffffffffffffffffffffff16815260200182815260200194505050505060405180910390a1614997565b8273ffffffffffffffffffffffffffffffffffffffff166108fc839081150290604051600060405180830381858888f193505050501580156148c1573d6000803e3d6000fd5b507f811818cc81106965711d42e377725a1ae3815b6175654fc80aa44e7a6821b77f6000308585604051808573ffffffffffffffffffffffffffffffffffffffff1673ffffffffffffffffffffffffffffffffffffffff1681526020018473ffffffffffffffffffffffffffffffffffffffff1673ffffffffffffffffffffffffffffffffffffffff1681526020018373ffffffffffffffffffffffffffffffffffffffff1673ffffffffffffffffffffffffffffffffffffffff16815260200182815260200194505050505060405180910390a15b50505050565b600082821115614a15576040517f08c379a000000000000000000000000000000000000000000000000000000000815260040180806020018281038252601e8152602001807f536166654d6174683a207375627472616374696f6e206f766572666c6f77000081525060200191505060405180910390fd5b600082840390508091505092915050565b600080828401905083811015614aa4576040517f08c379a000000000000000000000000000000000000000000000000000000000815260040180806020018281038252601b8152602001807f536166654d6174683a206164646974696f6e206f766572666c6f77000000000081525060200191505060405180910390fd5b8091505092915050565b600060019054906101000a900460ff1680614acd5750614acc613b3e565b5b80614ae457506000809054906101000a900460ff16155b614b39576040517f08c379a000000000000000000000000000000000000000000000000000000000815260040180806020018281038252602e815260200180615143602e913960400191505060405180910390fd5b60008060019054906101000a900460ff161590508015614b89576001600060016101000a81548160ff02191690831515021790555060016000806101000a81548160ff0219169083151502179055505b81603b60006101000a81548173ffffffffffffffffffffffffffffffffffffffff021916908373ffffffffffffffffffffffffffffffffffffffff16021790555060405180807f41646d696e436f6e747261637400000000000000000000000000000000000000815250600d019050604051809103902060358190555060405180807f506f7274666f6c696f4d616e61676572436f6e747261637400000000000000008152506018019050604051809103902060368190555060405180807f5061796572436f6e747261637400000000000000000000000000000000000000815250600d019050604051809103902060378190555060405180807f524159546f6b656e436f6e7472616374000000000000000000000000000000008152506010019050604051809103902060388190555060405180807f4e415643616c63756c61746f72436f6e74726163740000000000000000000000815250601501905060405180910390206039819055506040518080614ef2602f9139602f0190506040518091039020603a60006101000a81548163ffffffff021916908360e01c02179055506000603a60046101000a81548173ffffffffffffffffffffffffffffffffffffffff021916908373ffffffffffffffffffffffffffffffffffffffff1602179055508015614d8f5760008060016101000a81548160ff0219169083151502179055505b5050565b828054828255906000526020600020908101928215614e0c579160200282015b82811115614e0b5782518260006101000a81548173ffffffffffffffffffffffffffffffffffffffff021916908373ffffffffffffffffffffffffffffffffffffffff16021790555091602001919060010190614db3565b5b509050614e199190614e1d565b5090565b614e5d91905b80821115614e5957600081816101000a81549073ffffffffffffffffffffffffffffffffffffffff021916905550600101614e23565b5090565b9056fe235265636f766572794c6f676963207365745265636f76657279536865657428293a2050657263656e74616765206d75737420626520736d616c6c6572207468656e20312065746865722831303025292344654669437573746f64795265676973747279207265636f76657252415928293a205472616e73666572206f6620455243323020746f6b656e206661696c65646f6e455243373231526563656976656428616464726573732c616464726573732c75696e743235362c6279746573292344654669437573746f6479526567697374727920616464537570706f72746564546f6b656e28293a20546f6b656e2077617320616c72656164792061646465642e4f776e61626c653a206e6577206f776e657220697320746865207a65726f2061646472657373235265636f766572794c6f676963207365745265636f76657279536865657428293a2053756d206f6620616c6c207468652070657263656e7461676573206973206e6f742031206574686572283130302529235265636f766572794c6f676963207365745265636f76657279536865657428293a20446561646c696e65206d75737420626520626967676572207468616e207a65726f23524159496e746567726174696f6e2076657269667956616c756528293a20417070726f76616c206f6620455243323020546f6b656e206661696c6564235265636f766572794c6f6769632069665265636f76657261626c652829206d6f6469666965723a20436f6e7472616374206973206e6f74207265636f76657261626c65235265636f766572794c6f676963207365745265636f76657279536865657428293a2041737365742063616e6e6f74206265207a65726f2061646472657373235265636f766572794c6f676963207365745265636f76657279536865657428293a204c656e67746820696e636f72726563742e204461746120636f72727570746564536166654d6174683a206d756c7469706c69636174696f6e206f766572666c6f77436f6e747261637420696e7374616e63652068617320616c7265616479206265656e20696e697469616c697a6564235265636f766572794c6f676963207365745265636f76657279536865657428293a205265636f766572792077616c6c65742063616e6e6f74206265207a65726f206164647265737323524159496e746567726174696f6e2076657269667956616c756528293a205472616e73666572206f6620455243323020546f6b656e206661696c656423524159496e746567726174696f6e207472616e7366657246756e647328293a205472616e73666572206f6620455243323020746f6b656e206661696c656423524159496e746567726174696f6e2076657269667956616c756528293a204554482076616c75652073656e7420646f6573206e6f74206d6174636820696e7075742076616c7565a165627a7a7230582070b3da0079bca9d0157a88119c968da2058616cbe78ac52a5f5901ce47b379b30029",
  "source": "pragma solidity >=0.5.0 <0.6.0;\n\n\nimport \"@openzeppelin/upgrades/contracts/Initializable.sol\";\nimport \"@openzeppelin/contracts/ownership/Ownable.sol\";\nimport \"./DCWallet.sol\";\nimport \"./RAYIntegration.sol\";\nimport \"./RecoveryLogic.sol\";\n\n\ncontract DeFiCustodyRegistry is Initializable, Ownable, DCWallet, RAYIntegration, RecoveryLogic {\n\n    address[] private tokens;\n\n    event NewWallet(address indexed proxy, address admin, address sender);\n    event NewSupportedToken(address indexed token, address sender);\n    event RecoveredERC20(\n        address indexed wallet,\n        address indexed principalAddress,\n        address indexed beneficiary,\n        uint share,\n        uint value);\n\n    function init(address _rayStorage, address owner) public initializer {\n        RAYIntegration.init(_rayStorage);\n        RecoveryLogic.init(owner);\n    }\n\n    function getTokens() external view returns(address[] memory) {\n        return tokens;\n    }\n\n    function addSupportedToken(address token) external onlyOwner returns(bool) {\n        for (uint i = 0; i < tokens.length; i++) {\n            require(tokens[i]!= token, \"#DeFiCustodyRegistry addSupportedToken(): Token was already added.\");\n        }\n        tokens.push(token);\n        emit NewSupportedToken(token, msg.sender);\n        return true;\n    }\n\n    function recoverRAY(bytes32 rayTokenId) external ifRecoverable(rayTokens[rayTokenId]) {\n        address payable beneficiary;\n        uint share;\n        uint value;\n        bytes32 portfolioId;\n        uint valueAfterFee;\n\n        address wallet = rayTokens[rayTokenId];\n        uint valueToWithdraw = getTokenValue(rayTokenId);\n        (portfolioId, valueAfterFee) = redeem(rayTokenId, valueToWithdraw, address(this));\n        address principalAddress = rayStorage.getPrincipalAddress(portfolioId);\n\n        for (uint i = 0; i < recoveryWallets[wallet].length; i++) {\n            beneficiary = address(uint160(recoveryWallets[wallet][i]));\n            share = recoverySheet[wallet][beneficiary][principalAddress];\n            value = valueAfterFee.mul(share).div(1 ether);\n\n            if (rayStorage.getIsERC20(principalAddress)) {\n                require(IERC20(principalAddress).transfer(beneficiary, value),\n                    \"#DeFiCustodyRegistry recoverRAY(): Transfer of ERC20 token failed\");\n            }\n            emit RecoveredERC20(wallet, principalAddress, beneficiary, share, value);\n        }\n    }\n\n    function recoverERC20(address wallet, address asset) external ifRecoverable(wallet) {\n        address payable beneficiary;\n        uint share;\n        uint value;\n\n        for (uint i = 0; i < recoveryWallets[wallet].length; i++) {\n            beneficiary = address(uint160(recoveryWallets[wallet][i]));\n            share = recoverySheet[wallet][beneficiary][asset];\n            value = balances[asset][wallet].mul(share).div(1 ether);\n            beneficiary.transfer(value);\n            emit RecoveredERC20(wallet, asset, beneficiary, share, value);\n        }\n    }\n\n    \n}\n",
  "sourcePath": "/Users/pedrosousagrilo/deficustody/defi-custody-sf-hackathon/contracts/DeFiCustodyRegistry.sol",
  "compiler": {
    "name": "solc",
    "version": "0.5.8+commit.23d335f2.Emscripten.clang"
  },
  "schemaVersion": "3.0.15",
  "updatedAt": "2019-10-27T04:58:38.580Z",
  "devdoc": {
    "methods": {
      "alive()": {
        "details": "extend the deadline for recovery"
      },
      "deposit(bytes32,uint256)": {
        "details": "The value added must be in the same underlying asset as the position. ",
        "params": {
          "rayTokenId": "- The unique id of the RAY token",
          "value": "- The amount to be deposited denominated in the smallest units                  in-kind. Ex. For USDC, to deposit 1 USDC, value = 1000000"
        }
      },
      "getTokenValue(bytes32)": {
        "params": {
          "rayTokenId": "- The unique token id of the RAY "
        },
        "return": "Value of the token"
      },
      "isOwner()": {
        "details": "Returns true if the caller is the current owner."
      },
      "mint(bytes32,address,uint256)": {
        "params": {
          "beneficiary": "- The address that will own the position",
          "portfolioId": "- The portfolio id",
          "value": "- The amount to be deposited denominated in the smallest units                  in-kind. Ex. For USDC, to deposit 1 USDC, value = 1000000 "
        },
        "return": "The unique token id of the new RAY token position"
      },
      "owner()": {
        "details": "Returns the address of the current owner."
      },
      "redeemAndWithdraw(bytes32,uint256,address)": {
        "details": "Caller must be the 'true' owner of the token or RAY's GasFunder (Payer) contract ",
        "params": {
          "originalCaller": "- Unimportant unless Payer is the msg.sender, tells                            us who signed the original message.",
          "rayTokenId": "- The id of the position",
          "valueToWithdraw": "- The value to withdraw"
        }
      },
      "renounceOwnership()": {
        "details": "Leaves the contract without owner. It will not be possible to call `onlyOwner` functions anymore. Can only be called by the current owner.     * > Note: Renouncing ownership will leave the contract without an owner, thereby removing any functionality that is only available to the owner."
      },
      "setRecoverySheet(address,address[],uint256[],uint256)": {
        "details": "Allows to recoverySheet state.",
        "params": {
          "asset": "The address of token that will be used as Asset.",
          "deadline": "The number of seconds from the current moment (lastAction) the Asset will be sent to wallets.",
          "values": "The array of percentages that corresponds to each wallets share. 1 ether = 100%.",
          "wallets": "The array of addresses to whom the asset will be sent."
        }
      },
      "transferOwnership(address)": {
        "details": "Transfers ownership of the contract to a new account (`newOwner`). Can only be called by the current owner."
      }
    }
  },
  "userdoc": {
    "methods": {
      "deposit(bytes32,uint256)": {
        "notice": "Adds capital to an existing RAY token, this doesn't restrict who          adds. Addresses besides the owner can add value to the position. "
      },
      "getTokenValue(bytes32)": {
        "notice": "Gets a RAY tokens current value "
      },
      "mint(bytes32,address,uint256)": {
        "notice": "Allows users to deposit ETH or accepted ERC20's to this contract and          used as capital. In return they receive an ERC-721 'RAY' token. "
      },
      "redeemAndWithdraw(bytes32,uint256,address)": {
        "notice": "Withdraw value from a RAY token "
      }
    }
  }
}