{
  "contractName": "DeFiCustodyRegistry",
  "abi": [
    {
      "constant": true,
      "inputs": [
        {
          "name": "",
          "type": "address"
        }
      ],
      "name": "recoveryDeadline",
      "outputs": [
        {
          "name": "",
          "type": "uint256"
        }
      ],
      "payable": false,
      "stateMutability": "view",
      "type": "function"
    },
    {
      "constant": true,
      "inputs": [],
      "name": "rayStorage",
      "outputs": [
        {
          "name": "",
          "type": "address"
        }
      ],
      "payable": false,
      "stateMutability": "view",
      "type": "function"
    },
    {
      "constant": false,
      "inputs": [
        {
          "name": "",
          "type": "address"
        },
        {
          "name": "",
          "type": "address"
        },
        {
          "name": "",
          "type": "uint256"
        },
        {
          "name": "",
          "type": "bytes"
        }
      ],
      "name": "onERC721Received",
      "outputs": [
        {
          "name": "",
          "type": "bytes4"
        }
      ],
      "payable": false,
      "stateMutability": "nonpayable",
      "type": "function"
    },
    {
      "constant": false,
      "inputs": [
        {
          "name": "rayTokenId",
          "type": "bytes32"
        },
        {
          "name": "value",
          "type": "uint256"
        }
      ],
      "name": "deposit",
      "outputs": [],
      "payable": true,
      "stateMutability": "payable",
      "type": "function"
    },
    {
      "constant": true,
      "inputs": [
        {
          "name": "tokenId",
          "type": "bytes32"
        }
      ],
      "name": "getTokenOwner",
      "outputs": [
        {
          "name": "",
          "type": "address"
        }
      ],
      "payable": false,
      "stateMutability": "view",
      "type": "function"
    },
    {
      "constant": true,
      "inputs": [
        {
          "name": "wallet",
          "type": "address"
        }
      ],
      "name": "isRecoverable",
      "outputs": [
        {
          "name": "",
          "type": "bool"
        }
      ],
      "payable": false,
      "stateMutability": "view",
      "type": "function"
    },
    {
      "constant": true,
      "inputs": [
        {
          "name": "",
          "type": "address"
        },
        {
          "name": "",
          "type": "uint256"
        }
      ],
      "name": "reverseRayTokens",
      "outputs": [
        {
          "name": "",
          "type": "bytes32"
        }
      ],
      "payable": false,
      "stateMutability": "view",
      "type": "function"
    },
    {
      "constant": true,
      "inputs": [
        {
          "name": "",
          "type": "uint256"
        }
      ],
      "name": "dcWalletsList",
      "outputs": [
        {
          "name": "",
          "type": "address"
        }
      ],
      "payable": false,
      "stateMutability": "view",
      "type": "function"
    },
    {
      "constant": true,
      "inputs": [
        {
          "name": "portfolioDescription",
          "type": "string"
        }
      ],
      "name": "genPortfolioId",
      "outputs": [
        {
          "name": "",
          "type": "bytes32"
        }
      ],
      "payable": false,
      "stateMutability": "pure",
      "type": "function"
    },
    {
      "constant": true,
      "inputs": [
        {
          "name": "rayTokenId",
          "type": "bytes32"
        }
      ],
      "name": "getTokenValue",
      "outputs": [
        {
          "name": "",
          "type": "uint256"
        }
      ],
      "payable": false,
      "stateMutability": "view",
      "type": "function"
    },
    {
      "constant": true,
      "inputs": [
        {
          "name": "wallet",
          "type": "address"
        }
      ],
      "name": "getRecoveryWallets",
      "outputs": [
        {
          "name": "",
          "type": "address[]"
        }
      ],
      "payable": false,
      "stateMutability": "view",
      "type": "function"
    },
    {
      "constant": true,
      "inputs": [
        {
          "name": "",
          "type": "address"
        }
      ],
      "name": "lastAction",
      "outputs": [
        {
          "name": "",
          "type": "uint256"
        }
      ],
      "payable": false,
      "stateMutability": "view",
      "type": "function"
    },
    {
      "constant": false,
      "inputs": [],
      "name": "renounceOwnership",
      "outputs": [],
      "payable": false,
      "stateMutability": "nonpayable",
      "type": "function"
    },
    {
      "constant": false,
      "inputs": [],
      "name": "alive",
      "outputs": [
        {
          "name": "",
          "type": "bool"
        }
      ],
      "payable": false,
      "stateMutability": "nonpayable",
      "type": "function"
    },
    {
      "constant": false,
      "inputs": [
        {
          "name": "portfolioId",
          "type": "bytes32"
        },
        {
          "name": "beneficiary",
          "type": "address"
        },
        {
          "name": "value",
          "type": "uint256"
        }
      ],
      "name": "mint",
      "outputs": [
        {
          "name": "",
          "type": "bytes32"
        }
      ],
      "payable": true,
      "stateMutability": "payable",
      "type": "function"
    },
    {
      "constant": false,
      "inputs": [
        {
          "name": "rayTokenId",
          "type": "bytes32"
        },
        {
          "name": "valueToWithdraw",
          "type": "uint256"
        },
        {
          "name": "originalCaller",
          "type": "address"
        }
      ],
      "name": "redeemAndWithdraw",
      "outputs": [],
      "payable": false,
      "stateMutability": "nonpayable",
      "type": "function"
    },
    {
      "constant": true,
      "inputs": [
        {
          "name": "",
          "type": "bytes32"
        }
      ],
      "name": "rayTokens",
      "outputs": [
        {
          "name": "",
          "type": "address"
        }
      ],
      "payable": false,
      "stateMutability": "view",
      "type": "function"
    },
    {
      "constant": true,
      "inputs": [],
      "name": "owner",
      "outputs": [
        {
          "name": "",
          "type": "address"
        }
      ],
      "payable": false,
      "stateMutability": "view",
      "type": "function"
    },
    {
      "constant": true,
      "inputs": [],
      "name": "isOwner",
      "outputs": [
        {
          "name": "",
          "type": "bool"
        }
      ],
      "payable": false,
      "stateMutability": "view",
      "type": "function"
    },
    {
      "constant": true,
      "inputs": [
        {
          "name": "",
          "type": "address"
        },
        {
          "name": "",
          "type": "uint256"
        }
      ],
      "name": "recoveryWallets",
      "outputs": [
        {
          "name": "",
          "type": "address"
        }
      ],
      "payable": false,
      "stateMutability": "view",
      "type": "function"
    },
    {
      "constant": false,
      "inputs": [
        {
          "name": "erc20",
          "type": "address"
        },
        {
          "name": "amount",
          "type": "uint256"
        }
      ],
      "name": "withdrawDC",
      "outputs": [],
      "payable": false,
      "stateMutability": "nonpayable",
      "type": "function"
    },
    {
      "constant": false,
      "inputs": [
        {
          "name": "wallet",
          "type": "address"
        }
      ],
      "name": "getRayTokens",
      "outputs": [
        {
          "name": "",
          "type": "bytes32[]"
        }
      ],
      "payable": false,
      "stateMutability": "nonpayable",
      "type": "function"
    },
    {
      "constant": false,
      "inputs": [
        {
          "name": "asset",
          "type": "address"
        },
        {
          "name": "wallets",
          "type": "address[]"
        },
        {
          "name": "values",
          "type": "uint256[]"
        },
        {
          "name": "deadline",
          "type": "uint256"
        }
      ],
      "name": "setRecoverySheet",
      "outputs": [],
      "payable": false,
      "stateMutability": "nonpayable",
      "type": "function"
    },
    {
      "constant": true,
      "inputs": [
        {
          "name": "",
          "type": "address"
        },
        {
          "name": "",
          "type": "address"
        }
      ],
      "name": "balances",
      "outputs": [
        {
          "name": "",
          "type": "uint256"
        }
      ],
      "payable": false,
      "stateMutability": "view",
      "type": "function"
    },
    {
      "constant": false,
      "inputs": [
        {
          "name": "erc20",
          "type": "address"
        },
        {
          "name": "user",
          "type": "address"
        },
        {
          "name": "amount",
          "type": "uint256"
        }
      ],
      "name": "depositDC",
      "outputs": [],
      "payable": false,
      "stateMutability": "nonpayable",
      "type": "function"
    },
    {
      "constant": false,
      "inputs": [
        {
          "name": "newOwner",
          "type": "address"
        }
      ],
      "name": "transferOwnership",
      "outputs": [],
      "payable": false,
      "stateMutability": "nonpayable",
      "type": "function"
    },
    {
      "constant": true,
      "inputs": [
        {
          "name": "",
          "type": "address"
        },
        {
          "name": "",
          "type": "address"
        },
        {
          "name": "",
          "type": "address"
        }
      ],
      "name": "recoverySheet",
      "outputs": [
        {
          "name": "",
          "type": "uint256"
        }
      ],
      "payable": false,
      "stateMutability": "view",
      "type": "function"
    },
    {
      "payable": true,
      "stateMutability": "payable",
      "type": "fallback"
    },
    {
      "anonymous": false,
      "inputs": [
        {
          "indexed": true,
          "name": "proxy",
          "type": "address"
        },
        {
          "indexed": false,
          "name": "admin",
          "type": "address"
        },
        {
          "indexed": false,
          "name": "sender",
          "type": "address"
        }
      ],
      "name": "NewWallet",
      "type": "event"
    },
    {
      "anonymous": false,
      "inputs": [
        {
          "indexed": true,
          "name": "token",
          "type": "address"
        },
        {
          "indexed": false,
          "name": "sender",
          "type": "address"
        }
      ],
      "name": "NewSupportedToken",
      "type": "event"
    },
    {
      "anonymous": false,
      "inputs": [
        {
          "indexed": true,
          "name": "wallet",
          "type": "address"
        },
        {
          "indexed": true,
          "name": "principalAddress",
          "type": "address"
        },
        {
          "indexed": true,
          "name": "beneficiary",
          "type": "address"
        },
        {
          "indexed": false,
          "name": "share",
          "type": "uint256"
        },
        {
          "indexed": false,
          "name": "value",
          "type": "uint256"
        }
      ],
      "name": "RecoveredERC20",
      "type": "event"
    },
    {
      "anonymous": false,
      "inputs": [
        {
          "indexed": false,
          "name": "user",
          "type": "address"
        },
        {
          "indexed": false,
          "name": "asset",
          "type": "address"
        },
        {
          "indexed": false,
          "name": "wallets",
          "type": "address[]"
        },
        {
          "indexed": false,
          "name": "values",
          "type": "uint256[]"
        },
        {
          "indexed": false,
          "name": "deadline",
          "type": "uint256"
        }
      ],
      "name": "NewRecoverySheet",
      "type": "event"
    },
    {
      "anonymous": false,
      "inputs": [
        {
          "indexed": false,
          "name": "portfolioId",
          "type": "bytes32"
        },
        {
          "indexed": false,
          "name": "beneficiary",
          "type": "address"
        },
        {
          "indexed": false,
          "name": "value",
          "type": "uint256"
        },
        {
          "indexed": false,
          "name": "rayTokenId",
          "type": "bytes32"
        }
      ],
      "name": "InvestmentRAY",
      "type": "event"
    },
    {
      "anonymous": false,
      "inputs": [
        {
          "indexed": false,
          "name": "rayTokenId",
          "type": "bytes32"
        },
        {
          "indexed": false,
          "name": "value",
          "type": "uint256"
        },
        {
          "indexed": false,
          "name": "beneficiary",
          "type": "address"
        }
      ],
      "name": "DepositRAY",
      "type": "event"
    },
    {
      "anonymous": false,
      "inputs": [
        {
          "indexed": false,
          "name": "rayTokenId",
          "type": "bytes32"
        },
        {
          "indexed": false,
          "name": "value",
          "type": "uint256"
        },
        {
          "indexed": false,
          "name": "beneficiary",
          "type": "address"
        }
      ],
      "name": "RedeemRAY",
      "type": "event"
    },
    {
      "anonymous": false,
      "inputs": [
        {
          "indexed": false,
          "name": "tokenAddress",
          "type": "address"
        },
        {
          "indexed": false,
          "name": "from",
          "type": "address"
        },
        {
          "indexed": false,
          "name": "beneficiary",
          "type": "address"
        },
        {
          "indexed": false,
          "name": "value",
          "type": "uint256"
        }
      ],
      "name": "FundsTransferRAY",
      "type": "event"
    },
    {
      "anonymous": false,
      "inputs": [
        {
          "indexed": false,
          "name": "erc20",
          "type": "address"
        },
        {
          "indexed": false,
          "name": "from",
          "type": "address"
        },
        {
          "indexed": false,
          "name": "amount",
          "type": "uint256"
        }
      ],
      "name": "DepositDC",
      "type": "event"
    },
    {
      "anonymous": false,
      "inputs": [
        {
          "indexed": false,
          "name": "erc20",
          "type": "address"
        },
        {
          "indexed": false,
          "name": "from",
          "type": "address"
        },
        {
          "indexed": false,
          "name": "amount",
          "type": "uint256"
        }
      ],
      "name": "WithdrawDC",
      "type": "event"
    },
    {
      "anonymous": false,
      "inputs": [
        {
          "indexed": true,
          "name": "previousOwner",
          "type": "address"
        },
        {
          "indexed": true,
          "name": "newOwner",
          "type": "address"
        }
      ],
      "name": "OwnershipTransferred",
      "type": "event"
    },
    {
      "constant": false,
      "inputs": [
        {
          "name": "owner",
          "type": "address"
        }
      ],
      "name": "init",
      "outputs": [],
      "payable": false,
      "stateMutability": "nonpayable",
      "type": "function"
    },
    {
      "constant": false,
      "inputs": [
        {
          "name": "_rayStorage",
          "type": "address"
        },
        {
          "name": "owner",
          "type": "address"
        }
      ],
      "name": "init",
      "outputs": [],
      "payable": false,
      "stateMutability": "nonpayable",
      "type": "function"
    },
    {
      "constant": true,
      "inputs": [],
      "name": "getTokens",
      "outputs": [
        {
          "name": "",
          "type": "address[]"
        }
      ],
      "payable": false,
      "stateMutability": "view",
      "type": "function"
    },
    {
      "constant": false,
      "inputs": [
        {
          "name": "token",
          "type": "address"
        }
      ],
      "name": "addSupportedToken",
      "outputs": [
        {
          "name": "",
          "type": "bool"
        }
      ],
      "payable": false,
      "stateMutability": "nonpayable",
      "type": "function"
    },
    {
      "constant": false,
      "inputs": [
        {
          "name": "rayTokenId",
          "type": "bytes32"
        }
      ],
      "name": "recoverRAY",
      "outputs": [],
      "payable": false,
      "stateMutability": "nonpayable",
      "type": "function"
    },
    {
      "constant": false,
      "inputs": [
        {
          "name": "wallet",
          "type": "address"
        },
        {
          "name": "asset",
          "type": "address"
        }
      ],
      "name": "recoverERC20",
      "outputs": [],
      "payable": false,
      "stateMutability": "nonpayable",
      "type": "function"
    }
  ],
  "bytecode": "0x608060405233603360006101000a81548173ffffffffffffffffffffffffffffffffffffffff021916908373ffffffffffffffffffffffffffffffffffffffff160217905550603360009054906101000a900473ffffffffffffffffffffffffffffffffffffffff1673ffffffffffffffffffffffffffffffffffffffff16600073ffffffffffffffffffffffffffffffffffffffff167f8be0079c531659141344cd1fd0a4f28419497f9722a3daafe3b4186f6b6457e060405160405180910390a36151a4806100d16000396000f3fe6080604052600436106101ee5760003560e01c8063753899e91161010d578063a0e538bb116100a0578063c23f001f1161006f578063c23f001f14610f55578063d442182914610fda578063f09a401614611055578063f2fde38b146110c6578063f5db425514611117576101ee565b8063a0e538bb14610c65578063aa6ca80814610cc0578063af249e2314610d2c578063b5408a8e14610dd2576101ee565b80638c04550c116100dc5780638c04550c14610ac95780638da5cb5b14610b445780638f32d59b14610b9b57806390bfebf014610bca576101ee565b8063753899e9146109585780637ed9db5914610987578063883820aa146109f3578063886f039a14610a58576101ee565b80632ba5c3eb116101855780636d69fcaf116101545780636d69fcaf1461083857806370720d1f146108a1578063715018a614610906578063734629591461091d576101ee565b80632ba5c3eb146105ec5780633a03e2b414610667578063421517f0146107435780634ab6fcaf14610792576101ee565b80631de26e16116101c15780631de26e161461046157806327f53f1c146104995780632851bbc91461051457806329c1a3ac1461057d576101ee565b80630e54ae2e146101f05780630ea80f8e14610255578063150b7a02146102ac57806319ab453c14610410575b005b3480156101fc57600080fd5b5061023f6004803603602081101561021357600080fd5b81019080803573ffffffffffffffffffffffffffffffffffffffff1690602001909291905050506111bc565b6040518082815260200191505060405180910390f35b34801561026157600080fd5b5061026a6111d4565b604051808273ffffffffffffffffffffffffffffffffffffffff1673ffffffffffffffffffffffffffffffffffffffff16815260200191505060405180910390f35b3480156102b857600080fd5b506103bc600480360360808110156102cf57600080fd5b81019080803573ffffffffffffffffffffffffffffffffffffffff169060200190929190803573ffffffffffffffffffffffffffffffffffffffff169060200190929190803590602001909291908035906020019064010000000081111561033657600080fd5b82018360208201111561034857600080fd5b8035906020019184600183028401116401000000008311171561036a57600080fd5b91908080601f016020809104026020016040519081016040528093929190818152602001838380828437600081840152601f19601f8201169050808301925050505050505091929192905050506111fa565b60405180827bffffffffffffffffffffffffffffffffffffffffffffffffffffffff19167bffffffffffffffffffffffffffffffffffffffffffffffffffffffff1916815260200191505060405180910390f35b34801561041c57600080fd5b5061045f6004803603602081101561043357600080fd5b81019080803573ffffffffffffffffffffffffffffffffffffffff16906020019092919050505061120e565b005b6104976004803603604081101561047757600080fd5b810190808035906020019092919080359060200190929190505050611317565b005b3480156104a557600080fd5b506104d2600480360360208110156104bc57600080fd5b81019080803590602001909291905050506115ae565b604051808273ffffffffffffffffffffffffffffffffffffffff1673ffffffffffffffffffffffffffffffffffffffff16815260200191505060405180910390f35b34801561052057600080fd5b506105636004803603602081101561053757600080fd5b81019080803573ffffffffffffffffffffffffffffffffffffffff1690602001909291905050506115eb565b604051808215151515815260200191505060405180910390f35b34801561058957600080fd5b506105d6600480360360408110156105a057600080fd5b81019080803573ffffffffffffffffffffffffffffffffffffffff16906020019092919080359060200190929190505050611678565b6040518082815260200191505060405180910390f35b3480156105f857600080fd5b506106256004803603602081101561060f57600080fd5b81019080803590602001909291905050506116a6565b604051808273ffffffffffffffffffffffffffffffffffffffff1673ffffffffffffffffffffffffffffffffffffffff16815260200191505060405180910390f35b34801561067357600080fd5b5061072d6004803603602081101561068a57600080fd5b81019080803590602001906401000000008111156106a757600080fd5b8201836020820111156106b957600080fd5b803590602001918460018302840111640100000000831117156106db57600080fd5b91908080601f016020809104026020016040519081016040528093929190818152602001838380828437600081840152601f19601f8201169050808301925050505050505091929192905050506116e2565b6040518082815260200191505060405180910390f35b34801561074f57600080fd5b5061077c6004803603602081101561076657600080fd5b810190808035906020019092919050505061175d565b6040518082815260200191505060405180910390f35b34801561079e57600080fd5b506107e1600480360360208110156107b557600080fd5b81019080803573ffffffffffffffffffffffffffffffffffffffff169060200190929190505050611972565b6040518080602001828103825283818151815260200191508051906020019060200280838360005b83811015610824578082015181840152602081019050610809565b505050509050019250505060405180910390f35b34801561084457600080fd5b506108876004803603602081101561085b57600080fd5b81019080803573ffffffffffffffffffffffffffffffffffffffff169060200190929190505050611a3f565b604051808215151515815260200191505060405180910390f35b3480156108ad57600080fd5b506108f0600480360360208110156108c457600080fd5b81019080803573ffffffffffffffffffffffffffffffffffffffff169060200190929190505050611c81565b6040518082815260200191505060405180910390f35b34801561091257600080fd5b5061091b611c99565b005b34801561092957600080fd5b506109566004803603602081101561094057600080fd5b8101908080359060200190929190505050611dd4565b005b34801561096457600080fd5b5061096d6123be565b604051808215151515815260200191505060405180910390f35b6109dd6004803603606081101561099d57600080fd5b8101908080359060200190929190803573ffffffffffffffffffffffffffffffffffffffff1690602001909291908035906020019092919050505061240d565b6040518082815260200191505060405180910390f35b3480156109ff57600080fd5b50610a5660048036036060811015610a1657600080fd5b810190808035906020019092919080359060200190929190803573ffffffffffffffffffffffffffffffffffffffff1690602001909291905050506126e4565b005b348015610a6457600080fd5b50610ac760048036036040811015610a7b57600080fd5b81019080803573ffffffffffffffffffffffffffffffffffffffff169060200190929190803573ffffffffffffffffffffffffffffffffffffffff169060200190929190505050612745565b005b348015610ad557600080fd5b50610b0260048036036020811015610aec57600080fd5b8101908080359060200190929190505050612ab8565b604051808273ffffffffffffffffffffffffffffffffffffffff1673ffffffffffffffffffffffffffffffffffffffff16815260200191505060405180910390f35b348015610b5057600080fd5b50610b59612aeb565b604051808273ffffffffffffffffffffffffffffffffffffffff1673ffffffffffffffffffffffffffffffffffffffff16815260200191505060405180910390f35b348015610ba757600080fd5b50610bb0612b15565b604051808215151515815260200191505060405180910390f35b348015610bd657600080fd5b50610c2360048036036040811015610bed57600080fd5b81019080803573ffffffffffffffffffffffffffffffffffffffff16906020019092919080359060200190929190505050612b6d565b604051808273ffffffffffffffffffffffffffffffffffffffff1673ffffffffffffffffffffffffffffffffffffffff16815260200191505060405180910390f35b348015610c7157600080fd5b50610cbe60048036036040811015610c8857600080fd5b81019080803573ffffffffffffffffffffffffffffffffffffffff16906020019092919080359060200190929190505050612bb8565b005b348015610ccc57600080fd5b50610cd5612e2d565b6040518080602001828103825283818151815260200191508051906020019060200280838360005b83811015610d18578082015181840152602081019050610cfd565b505050509050019250505060405180910390f35b348015610d3857600080fd5b50610d7b60048036036020811015610d4f57600080fd5b81019080803573ffffffffffffffffffffffffffffffffffffffff169060200190929190505050612ebb565b6040518080602001828103825283818151815260200191508051906020019060200280838360005b83811015610dbe578082015181840152602081019050610da3565b505050509050019250505060405180910390f35b348015610dde57600080fd5b50610f5360048036036080811015610df557600080fd5b81019080803573ffffffffffffffffffffffffffffffffffffffff16906020019092919080359060200190640100000000811115610e3257600080fd5b820183602082011115610e4457600080fd5b80359060200191846020830284011164010000000083111715610e6657600080fd5b919080806020026020016040519081016040528093929190818152602001838360200280828437600081840152601f19601f82011690508083019250505050505050919291929080359060200190640100000000811115610ec657600080fd5b820183602082011115610ed857600080fd5b80359060200191846020830284011164010000000083111715610efa57600080fd5b919080806020026020016040519081016040528093929190818152602001838360200280828437600081840152601f19601f82011690508083019250505050505050919291929080359060200190929190505050612f52565b005b348015610f6157600080fd5b50610fc460048036036040811015610f7857600080fd5b81019080803573ffffffffffffffffffffffffffffffffffffffff169060200190929190803573ffffffffffffffffffffffffffffffffffffffff16906020019092919050505061359f565b6040518082815260200191505060405180910390f35b348015610fe657600080fd5b5061105360048036036060811015610ffd57600080fd5b81019080803573ffffffffffffffffffffffffffffffffffffffff169060200190929190803573ffffffffffffffffffffffffffffffffffffffff169060200190929190803590602001909291905050506135c4565b005b34801561106157600080fd5b506110c46004803603604081101561107857600080fd5b81019080803573ffffffffffffffffffffffffffffffffffffffff169060200190929190803573ffffffffffffffffffffffffffffffffffffffff16906020019092919050505061386e565b005b3480156110d257600080fd5b50611115600480360360208110156110e957600080fd5b81019080803573ffffffffffffffffffffffffffffffffffffffff169060200190929190505050613981565b005b34801561112357600080fd5b506111a66004803603606081101561113a57600080fd5b81019080803573ffffffffffffffffffffffffffffffffffffffff169060200190929190803573ffffffffffffffffffffffffffffffffffffffff169060200190929190803573ffffffffffffffffffffffffffffffffffffffff169060200190929190505050613a07565b6040518082815260200191505060405180910390f35b60406020528060005260406000206000915090505481565b603b60009054906101000a900473ffffffffffffffffffffffffffffffffffffffff1681565b600063150b7a0260e01b9050949350505050565b600060019054906101000a900460ff168061122d575061122c613a39565b5b8061124457506000809054906101000a900460ff16155b611299576040517f08c379a000000000000000000000000000000000000000000000000000000000815260040180806020018281038252602e81526020018061503e602e913960400191505060405180910390fd5b60008060019054906101000a900460ff1615905080156112e9576001600060016101000a81548160ff02191690831515021790555060016000806101000a81548160ff0219169083151502179055505b6112f282613a4a565b80156113135760008060016101000a81548160ff0219169083151502179055505b5050565b6000603b60009054906101000a900473ffffffffffffffffffffffffffffffffffffffff1673ffffffffffffffffffffffffffffffffffffffff166343aee400846040518263ffffffff1660e01b81526004018082815260200191505060206040518083038186803b15801561138c57600080fd5b505afa1580156113a0573d6000803e3d6000fd5b505050506040513d60208110156113b657600080fd5b810190808051906020019092919050505090506000603b60009054906101000a900473ffffffffffffffffffffffffffffffffffffffff1673ffffffffffffffffffffffffffffffffffffffff16630d2020dd6036546040518263ffffffff1660e01b81526004018082815260200191505060206040518083038186803b15801561144057600080fd5b505afa158015611454573d6000803e3d6000fd5b505050506040513d602081101561146a57600080fd5b81019080805190602001909291905050509050600061148b83338685613b90565b90508173ffffffffffffffffffffffffffffffffffffffff16631de26e168287876040518463ffffffff1660e01b815260040180838152602001828152602001925050506000604051808303818588803b1580156114e857600080fd5b505af11580156114fc573d6000803e3d6000fd5b50505050507f18deb3b7772ccd6bb7a588a8a4682455bd256880ac88a8cd6c692ff18ff15a628585603c600089815260200190815260200160002060009054906101000a900473ffffffffffffffffffffffffffffffffffffffff16604051808481526020018381526020018273ffffffffffffffffffffffffffffffffffffffff1673ffffffffffffffffffffffffffffffffffffffff168152602001935050505060405180910390a15050505050565b6000603c600083815260200190815260200160002060009054906101000a900473ffffffffffffffffffffffffffffffffffffffff169050919050565b600042604060008473ffffffffffffffffffffffffffffffffffffffff1673ffffffffffffffffffffffffffffffffffffffff16815260200190815260200160002054603f60008573ffffffffffffffffffffffffffffffffffffffff1673ffffffffffffffffffffffffffffffffffffffff168152602001908152602001600020540111159050919050565b603d602052816000526040600020818154811061169157fe5b90600052602060002001600091509150505481565b603e81815481106116b357fe5b906000526020600020016000915054906101000a900473ffffffffffffffffffffffffffffffffffffffff1681565b6000816040516020018082805190602001908083835b6020831061171b57805182526020820191506020810190506020830392506116f8565b6001836020036101000a038019825116818451168082178552505050505050905001915050604051602081830303815290604052805190602001209050919050565b600080600080603b60009054906101000a900473ffffffffffffffffffffffffffffffffffffffff1673ffffffffffffffffffffffffffffffffffffffff166343aee400866040518263ffffffff1660e01b81526004018082815260200191505060206040518083038186803b1580156117d657600080fd5b505afa1580156117ea573d6000803e3d6000fd5b505050506040513d602081101561180057600080fd5b81019080805190602001909291905050509050603b60009054906101000a900473ffffffffffffffffffffffffffffffffffffffff1673ffffffffffffffffffffffffffffffffffffffff16630d2020dd6039546040518263ffffffff1660e01b81526004018082815260200191505060206040518083038186803b15801561188857600080fd5b505afa15801561189c573d6000803e3d6000fd5b505050506040513d60208110156118b257600080fd5b810190808051906020019092919050505073ffffffffffffffffffffffffffffffffffffffff16632cc7b6f782876040518363ffffffff1660e01b81526004018083815260200182815260200192505050604080518083038186803b15801561191a57600080fd5b505afa15801561192e573d6000803e3d6000fd5b505050506040513d604081101561194457600080fd5b8101908080519060200190929190805190602001909291905050508093508194505050829350505050919050565b6060604160008373ffffffffffffffffffffffffffffffffffffffff1673ffffffffffffffffffffffffffffffffffffffff168152602001908152602001600020805480602002602001604051908101604052809291908181526020018280548015611a3357602002820191906000526020600020905b8160009054906101000a900473ffffffffffffffffffffffffffffffffffffffff1673ffffffffffffffffffffffffffffffffffffffff16815260200190600101908083116119e9575b50505050509050919050565b6000611a49612b15565b611abb576040517f08c379a00000000000000000000000000000000000000000000000000000000081526004018080602001828103825260208152602001807f4f776e61626c653a2063616c6c6572206973206e6f7420746865206f776e657281525060200191505060405180910390fd5b60008090505b604380549050811015611b97578273ffffffffffffffffffffffffffffffffffffffff1660438281548110611af257fe5b9060005260206000200160009054906101000a900473ffffffffffffffffffffffffffffffffffffffff1673ffffffffffffffffffffffffffffffffffffffff161415611b8a576040517f08c379a0000000000000000000000000000000000000000000000000000000008152600401808060200182810382526042815260200180614e1c6042913960600191505060405180910390fd5b8080600101915050611ac1565b5060438290806001815401808255809150509060018203906000526020600020016000909192909190916101000a81548173ffffffffffffffffffffffffffffffffffffffff021916908373ffffffffffffffffffffffffffffffffffffffff160217905550508173ffffffffffffffffffffffffffffffffffffffff167fc335693ab2fc7f7806781247c0088839e7fed4246c371f702f26176dfe8b6ed933604051808273ffffffffffffffffffffffffffffffffffffffff1673ffffffffffffffffffffffffffffffffffffffff16815260200191505060405180910390a260019050919050565b603f6020528060005260406000206000915090505481565b611ca1612b15565b611d13576040517f08c379a00000000000000000000000000000000000000000000000000000000081526004018080602001828103825260208152602001807f4f776e61626c653a2063616c6c6572206973206e6f7420746865206f776e657281525060200191505060405180910390fd5b600073ffffffffffffffffffffffffffffffffffffffff16603360009054906101000a900473ffffffffffffffffffffffffffffffffffffffff1673ffffffffffffffffffffffffffffffffffffffff167f8be0079c531659141344cd1fd0a4f28419497f9722a3daafe3b4186f6b6457e060405160405180910390a36000603360006101000a81548173ffffffffffffffffffffffffffffffffffffffff021916908373ffffffffffffffffffffffffffffffffffffffff160217905550565b603c600082815260200190815260200160002060009054906101000a900473ffffffffffffffffffffffffffffffffffffffff16611e11816115eb565b611e66576040517f08c379a0000000000000000000000000000000000000000000000000000000008152600401808060200182810382526044815260200180614f576044913960600191505060405180910390fd5b600080600080600080603c600089815260200190815260200160002060009054906101000a900473ffffffffffffffffffffffffffffffffffffffff1690506000611eb08961175d565b9050611ebd898230613ff3565b80945081955050506000603b60009054906101000a900473ffffffffffffffffffffffffffffffffffffffff1673ffffffffffffffffffffffffffffffffffffffff16633f1793c3866040518263ffffffff1660e01b81526004018082815260200191505060206040518083038186803b158015611f3a57600080fd5b505afa158015611f4e573d6000803e3d6000fd5b505050506040513d6020811015611f6457600080fd5b8101908080519060200190929190505050905060008090505b604160008573ffffffffffffffffffffffffffffffffffffffff1673ffffffffffffffffffffffffffffffffffffffff168152602001908152602001600020805490508110156123b157604160008573ffffffffffffffffffffffffffffffffffffffff1673ffffffffffffffffffffffffffffffffffffffff168152602001908152602001600020818154811061201157fe5b9060005260206000200160009054906101000a900473ffffffffffffffffffffffffffffffffffffffff169850604260008573ffffffffffffffffffffffffffffffffffffffff1673ffffffffffffffffffffffffffffffffffffffff16815260200190815260200160002060008a73ffffffffffffffffffffffffffffffffffffffff1673ffffffffffffffffffffffffffffffffffffffff16815260200190815260200160002060008373ffffffffffffffffffffffffffffffffffffffff1673ffffffffffffffffffffffffffffffffffffffff168152602001908152602001600020549750612127670de0b6b3a76400006121198a886142e190919063ffffffff16565b61436790919063ffffffff16565b9650603b60009054906101000a900473ffffffffffffffffffffffffffffffffffffffff1673ffffffffffffffffffffffffffffffffffffffff166353024bae836040518263ffffffff1660e01b8152600401808273ffffffffffffffffffffffffffffffffffffffff1673ffffffffffffffffffffffffffffffffffffffff16815260200191505060206040518083038186803b1580156121c857600080fd5b505afa1580156121dc573d6000803e3d6000fd5b505050506040513d60208110156121f257600080fd5b810190808051906020019092919050505015612320578173ffffffffffffffffffffffffffffffffffffffff1663a9059cbb8a896040518363ffffffff1660e01b8152600401808373ffffffffffffffffffffffffffffffffffffffff1673ffffffffffffffffffffffffffffffffffffffff16815260200182815260200192505050602060405180830381600087803b15801561228f57600080fd5b505af11580156122a3573d6000803e3d6000fd5b505050506040513d60208110156122b957600080fd5b810190808051906020019092919050505061231f576040517f08c379a0000000000000000000000000000000000000000000000000000000008152600401808060200182810382526041815260200180614dac6041913960600191505060405180910390fd5b5b8873ffffffffffffffffffffffffffffffffffffffff168273ffffffffffffffffffffffffffffffffffffffff168573ffffffffffffffffffffffffffffffffffffffff167fea01a0ea7db0a551b7f4d29fae6934cd6ae327f0cdd83d01ad090fba6bcf92438b8b604051808381526020018281526020019250505060405180910390a48080600101915050611f7d565b5050505050505050505050565b60003342603f60008373ffffffffffffffffffffffffffffffffffffffff1673ffffffffffffffffffffffffffffffffffffffff16815260200190815260200160002081905550600191505090565b600080603b60009054906101000a900473ffffffffffffffffffffffffffffffffffffffff1673ffffffffffffffffffffffffffffffffffffffff16630d2020dd6036546040518263ffffffff1660e01b81526004018082815260200191505060206040518083038186803b15801561248557600080fd5b505afa158015612499573d6000803e3d6000fd5b505050506040513d60208110156124af57600080fd5b8101908080519060200190929190505050905060006124d086868685613b90565b905060008273ffffffffffffffffffffffffffffffffffffffff16637ed9db59838930896040518563ffffffff1660e01b8152600401808481526020018373ffffffffffffffffffffffffffffffffffffffff1673ffffffffffffffffffffffffffffffffffffffff16815260200182815260200193505050506020604051808303818588803b15801561256357600080fd5b505af1158015612577573d6000803e3d6000fd5b50505050506040513d602081101561258e57600080fd5b8101908080519060200190929190505050905085603c600083815260200190815260200160002060006101000a81548173ffffffffffffffffffffffffffffffffffffffff021916908373ffffffffffffffffffffffffffffffffffffffff160217905550603d60008773ffffffffffffffffffffffffffffffffffffffff1673ffffffffffffffffffffffffffffffffffffffff1681526020019081526020016000208190806001815401808255809150509060018203906000526020600020016000909192909190915055507f8667d3b890097908e74765dd3b76068096309b7c3755b889b9afffc436182b5e87878784604051808581526020018473ffffffffffffffffffffffffffffffffffffffff1673ffffffffffffffffffffffffffffffffffffffff16815260200183815260200182815260200194505050505060405180910390a18093505050509392505050565b6000806126f2858585613ff3565b80925081935050506000603c600087815260200190815260200160002060009054906101000a900473ffffffffffffffffffffffffffffffffffffffff16905061273d8382846143f6565b505050505050565b8161274f816115eb565b6127a4576040517f08c379a0000000000000000000000000000000000000000000000000000000008152600401808060200182810382526044815260200180614f576044913960600191505060405180910390fd5b600080600080600090505b604160008873ffffffffffffffffffffffffffffffffffffffff1673ffffffffffffffffffffffffffffffffffffffff16815260200190815260200160002080549050811015612aaf57604160008873ffffffffffffffffffffffffffffffffffffffff1673ffffffffffffffffffffffffffffffffffffffff168152602001908152602001600020818154811061284357fe5b9060005260206000200160009054906101000a900473ffffffffffffffffffffffffffffffffffffffff169350604260008873ffffffffffffffffffffffffffffffffffffffff1673ffffffffffffffffffffffffffffffffffffffff16815260200190815260200160002060008573ffffffffffffffffffffffffffffffffffffffff1673ffffffffffffffffffffffffffffffffffffffff16815260200190815260200160002060008773ffffffffffffffffffffffffffffffffffffffff1673ffffffffffffffffffffffffffffffffffffffff1681526020019081526020016000205492506129d5670de0b6b3a76400006129c785603460008b73ffffffffffffffffffffffffffffffffffffffff1673ffffffffffffffffffffffffffffffffffffffff16815260200190815260200160002060008c73ffffffffffffffffffffffffffffffffffffffff1673ffffffffffffffffffffffffffffffffffffffff168152602001908152602001600020546142e190919063ffffffff16565b61436790919063ffffffff16565b91508373ffffffffffffffffffffffffffffffffffffffff166108fc839081150290604051600060405180830381858888f19350505050158015612a1d573d6000803e3d6000fd5b508373ffffffffffffffffffffffffffffffffffffffff168673ffffffffffffffffffffffffffffffffffffffff168873ffffffffffffffffffffffffffffffffffffffff167fea01a0ea7db0a551b7f4d29fae6934cd6ae327f0cdd83d01ad090fba6bcf92438686604051808381526020018281526020019250505060405180910390a480806001019150506127af565b50505050505050565b603c6020528060005260406000206000915054906101000a900473ffffffffffffffffffffffffffffffffffffffff1681565b6000603360009054906101000a900473ffffffffffffffffffffffffffffffffffffffff16905090565b6000603360009054906101000a900473ffffffffffffffffffffffffffffffffffffffff1673ffffffffffffffffffffffffffffffffffffffff163373ffffffffffffffffffffffffffffffffffffffff1614905090565b60416020528160005260406000208181548110612b8657fe5b906000526020600020016000915091509054906101000a900473ffffffffffffffffffffffffffffffffffffffff1681565b612c4781603460008573ffffffffffffffffffffffffffffffffffffffff1673ffffffffffffffffffffffffffffffffffffffff16815260200190815260200160002060003373ffffffffffffffffffffffffffffffffffffffff1673ffffffffffffffffffffffffffffffffffffffff1681526020019081526020016000205461489890919063ffffffff16565b603460008473ffffffffffffffffffffffffffffffffffffffff1673ffffffffffffffffffffffffffffffffffffffff16815260200190815260200160002060003373ffffffffffffffffffffffffffffffffffffffff1673ffffffffffffffffffffffffffffffffffffffff168152602001908152602001600020819055508173ffffffffffffffffffffffffffffffffffffffff1663a9059cbb33836040518363ffffffff1660e01b8152600401808373ffffffffffffffffffffffffffffffffffffffff1673ffffffffffffffffffffffffffffffffffffffff16815260200182815260200192505050602060405180830381600087803b158015612d4e57600080fd5b505af1158015612d62573d6000803e3d6000fd5b505050506040513d6020811015612d7857600080fd5b8101908080519060200190929190505050507f5a619174578cdee6ffdb33d380d4cc19d92b5e8ed08c2d52cfcc89d59d0a78e4823383604051808473ffffffffffffffffffffffffffffffffffffffff1673ffffffffffffffffffffffffffffffffffffffff1681526020018373ffffffffffffffffffffffffffffffffffffffff1673ffffffffffffffffffffffffffffffffffffffff168152602001828152602001935050505060405180910390a15050565b60606043805480602002602001604051908101604052809291908181526020018280548015612eb157602002820191906000526020600020905b8160009054906101000a900473ffffffffffffffffffffffffffffffffffffffff1673ffffffffffffffffffffffffffffffffffffffff1681526020019060010190808311612e67575b5050505050905090565b6060603d60008373ffffffffffffffffffffffffffffffffffffffff1673ffffffffffffffffffffffffffffffffffffffff168152602001908152602001600020805480602002602001604051908101604052809291908181526020018280548015612f4657602002820191906000526020600020905b815481526020019060010190808311612f32575b50505050509050919050565b3342603f60008373ffffffffffffffffffffffffffffffffffffffff1673ffffffffffffffffffffffffffffffffffffffff16815260200190815260200160002081905550600073ffffffffffffffffffffffffffffffffffffffff168573ffffffffffffffffffffffffffffffffffffffff16141561301d576040517f08c379a000000000000000000000000000000000000000000000000000000000815260040180806020018281038252603f815260200180614f9b603f913960400191505060405180910390fd5b60008211613076576040517f08c379a0000000000000000000000000000000000000000000000000000000008152600401808060200182810382526044815260200180614ed66044913960600191505060405180910390fd5b82518451148015613088575060008451115b6130dd576040517f08c379a0000000000000000000000000000000000000000000000000000000008152600401808060200182810382526043815260200180614fda6043913960600191505060405180910390fd5b600080905060008090505b855181101561330757600073ffffffffffffffffffffffffffffffffffffffff1686828151811061311557fe5b602002602001015173ffffffffffffffffffffffffffffffffffffffff16141561318a576040517f08c379a000000000000000000000000000000000000000000000000000000000815260040180806020018281038252604981526020018061506c6049913960600191505060405180910390fd5b670de0b6b3a764000085828151811061319f57fe5b602002602001015111156131fe576040517f08c379a0000000000000000000000000000000000000000000000000000000008152600401808060200182810382526050815260200180614d5c6050913960600191505060405180910390fd5b84818151811061320a57fe5b6020026020010151604260003373ffffffffffffffffffffffffffffffffffffffff1673ffffffffffffffffffffffffffffffffffffffff168152602001908152602001600020600088848151811061325f57fe5b602002602001015173ffffffffffffffffffffffffffffffffffffffff1673ffffffffffffffffffffffffffffffffffffffff16815260200190815260200160002060008973ffffffffffffffffffffffffffffffffffffffff1673ffffffffffffffffffffffffffffffffffffffff168152602001908152602001600020819055508481815181106132ee57fe5b60200260200101518201915080806001019150506130e8565b50670de0b6b3a76400008114613368576040517f08c379a0000000000000000000000000000000000000000000000000000000008152600401808060200182810382526052815260200180614e846052913960600191505060405180910390fd5b82604060003373ffffffffffffffffffffffffffffffffffffffff1673ffffffffffffffffffffffffffffffffffffffff1681526020019081526020016000208190555084604160003373ffffffffffffffffffffffffffffffffffffffff1673ffffffffffffffffffffffffffffffffffffffff16815260200190815260200160002090805190602001906133ff929190614c8e565b507fd755b4b1c6f89e651f14f05a6de0376c202dddaf96dd4ee3052c42b72f47dbb43387878787604051808673ffffffffffffffffffffffffffffffffffffffff1673ffffffffffffffffffffffffffffffffffffffff1681526020018573ffffffffffffffffffffffffffffffffffffffff1673ffffffffffffffffffffffffffffffffffffffff1681526020018060200180602001848152602001838103835286818151815260200191508051906020019060200280838360005b838110156134d75780820151818401526020810190506134bc565b50505050905001838103825285818151815260200191508051906020019060200280838360005b838110156135195780820151818401526020810190506134fe565b5050505090500197505050505050505060405180910390a1603e3390806001815401808255809150509060018203906000526020600020016000909192909190916101000a81548173ffffffffffffffffffffffffffffffffffffffff021916908373ffffffffffffffffffffffffffffffffffffffff16021790555050505050505050565b6034602052816000526040600020602052806000526040600020600091509150505481565b8273ffffffffffffffffffffffffffffffffffffffff166323b872dd8330846040518463ffffffff1660e01b8152600401808473ffffffffffffffffffffffffffffffffffffffff1673ffffffffffffffffffffffffffffffffffffffff1681526020018373ffffffffffffffffffffffffffffffffffffffff1673ffffffffffffffffffffffffffffffffffffffff1681526020018281526020019350505050602060405180830381600087803b15801561367f57600080fd5b505af1158015613693573d6000803e3d6000fd5b505050506040513d60208110156136a957600080fd5b81019080805190602001909291905050505061374a81603460008673ffffffffffffffffffffffffffffffffffffffff1673ffffffffffffffffffffffffffffffffffffffff16815260200190815260200160002060008573ffffffffffffffffffffffffffffffffffffffff1673ffffffffffffffffffffffffffffffffffffffff1681526020019081526020016000205461492190919063ffffffff16565b603460008573ffffffffffffffffffffffffffffffffffffffff1673ffffffffffffffffffffffffffffffffffffffff16815260200190815260200160002060008473ffffffffffffffffffffffffffffffffffffffff1673ffffffffffffffffffffffffffffffffffffffff168152602001908152602001600020819055507f2158f66ce15490507ec69d9824ffc1a98ef4d4ed22a9bb0419bde6b92c06d05e838383604051808473ffffffffffffffffffffffffffffffffffffffff1673ffffffffffffffffffffffffffffffffffffffff1681526020018373ffffffffffffffffffffffffffffffffffffffff1673ffffffffffffffffffffffffffffffffffffffff168152602001828152602001935050505060405180910390a1505050565b600060019054906101000a900460ff168061388d575061388c613a39565b5b806138a457506000809054906101000a900460ff16155b6138f9576040517f08c379a000000000000000000000000000000000000000000000000000000000815260040180806020018281038252602e81526020018061503e602e913960400191505060405180910390fd5b60008060019054906101000a900460ff161590508015613949576001600060016101000a81548160ff02191690831515021790555060016000806101000a81548160ff0219169083151502179055505b613952836149a9565b61395b8261120e565b801561397c5760008060016101000a81548160ff0219169083151502179055505b505050565b613989612b15565b6139fb576040517f08c379a00000000000000000000000000000000000000000000000000000000081526004018080602001828103825260208152602001807f4f776e61626c653a2063616c6c6572206973206e6f7420746865206f776e657281525060200191505060405180910390fd5b613a0481613a4a565b50565b604260205282600052604060002060205281600052604060002060205280600052604060002060009250925050505481565b600080303b90506000811491505090565b600073ffffffffffffffffffffffffffffffffffffffff168173ffffffffffffffffffffffffffffffffffffffff161415613ad0576040517f08c379a0000000000000000000000000000000000000000000000000000000008152600401808060200182810382526026815260200180614e5e6026913960400191505060405180910390fd5b8073ffffffffffffffffffffffffffffffffffffffff16603360009054906101000a900473ffffffffffffffffffffffffffffffffffffffff1673ffffffffffffffffffffffffffffffffffffffff167f8be0079c531659141344cd1fd0a4f28419497f9722a3daafe3b4186f6b6457e060405160405180910390a380603360006101000a81548173ffffffffffffffffffffffffffffffffffffffff021916908373ffffffffffffffffffffffffffffffffffffffff16021790555050565b600080603b60009054906101000a900473ffffffffffffffffffffffffffffffffffffffff1673ffffffffffffffffffffffffffffffffffffffff16633f1793c3876040518263ffffffff1660e01b81526004018082815260200191505060206040518083038186803b158015613c0657600080fd5b505afa158015613c1a573d6000803e3d6000fd5b505050506040513d6020811015613c3057600080fd5b81019080805190602001909291905050509050603b60009054906101000a900473ffffffffffffffffffffffffffffffffffffffff1673ffffffffffffffffffffffffffffffffffffffff166353024bae826040518263ffffffff1660e01b8152600401808273ffffffffffffffffffffffffffffffffffffffff1673ffffffffffffffffffffffffffffffffffffffff16815260200191505060206040518083038186803b158015613ce257600080fd5b505afa158015613cf6573d6000803e3d6000fd5b505050506040513d6020811015613d0c57600080fd5b810190808051906020019092919050505015613f8e578073ffffffffffffffffffffffffffffffffffffffff166323b872dd8630876040518463ffffffff1660e01b8152600401808473ffffffffffffffffffffffffffffffffffffffff1673ffffffffffffffffffffffffffffffffffffffff1681526020018373ffffffffffffffffffffffffffffffffffffffff1673ffffffffffffffffffffffffffffffffffffffff1681526020018281526020019350505050602060405180830381600087803b158015613ddd57600080fd5b505af1158015613df1573d6000803e3d6000fd5b505050506040513d6020811015613e0757600080fd5b8101908080519060200190929190505050613e6d576040517f08c379a000000000000000000000000000000000000000000000000000000000815260040180806020018281038252603d8152602001806150b5603d913960400191505060405180910390fd5b8073ffffffffffffffffffffffffffffffffffffffff1663095ea7b384866040518363ffffffff1660e01b8152600401808373ffffffffffffffffffffffffffffffffffffffff1673ffffffffffffffffffffffffffffffffffffffff16815260200182815260200192505050602060405180830381600087803b158015613ef457600080fd5b505af1158015613f08573d6000803e3d6000fd5b505050506040513d6020811015613f1e57600080fd5b8101908080519060200190929190505050613f84576040517f08c379a000000000000000000000000000000000000000000000000000000000815260040180806020018281038252603d815260200180614f1a603d913960400191505060405180910390fd5b6000915050613feb565b348414613fe6576040517f08c379a00000000000000000000000000000000000000000000000000000000081526004018080602001828103825260488152602001806151316048913960600191505060405180910390fd5b839150505b949350505050565b6000806000603b60009054906101000a900473ffffffffffffffffffffffffffffffffffffffff1673ffffffffffffffffffffffffffffffffffffffff166343aee400876040518263ffffffff1660e01b81526004018082815260200191505060206040518083038186803b15801561406b57600080fd5b505afa15801561407f573d6000803e3d6000fd5b505050506040513d602081101561409557600080fd5b810190808051906020019092919050505090506000603b60009054906101000a900473ffffffffffffffffffffffffffffffffffffffff1673ffffffffffffffffffffffffffffffffffffffff16630d2020dd6036546040518263ffffffff1660e01b81526004018082815260200191505060206040518083038186803b15801561411f57600080fd5b505afa158015614133573d6000803e3d6000fd5b505050506040513d602081101561414957600080fd5b8101908080519060200190929190505050905060008173ffffffffffffffffffffffffffffffffffffffff1663112ad90b8989896040518463ffffffff1660e01b8152600401808481526020018381526020018273ffffffffffffffffffffffffffffffffffffffff1673ffffffffffffffffffffffffffffffffffffffff1681526020019350505050602060405180830381600087803b1580156141ed57600080fd5b505af1158015614201573d6000803e3d6000fd5b505050506040513d602081101561421757600080fd5b810190808051906020019092919050505090507f7029c547dc32802e528b6770662e27ad50f2fb85883fe19b9107a73afa6e2ef68882603c60008c815260200190815260200160002060009054906101000a900473ffffffffffffffffffffffffffffffffffffffff16604051808481526020018381526020018273ffffffffffffffffffffffffffffffffffffffff1673ffffffffffffffffffffffffffffffffffffffff168152602001935050505060405180910390a1828194509450505050935093915050565b6000808314156142f45760009050614361565b600082840290508284828161430557fe5b041461435c576040517f08c379a000000000000000000000000000000000000000000000000000000000815260040180806020018281038252602181526020018061501d6021913960400191505060405180910390fd5b809150505b92915050565b60008082116143de576040517f08c379a000000000000000000000000000000000000000000000000000000000815260040180806020018281038252601a8152602001807f536166654d6174683a206469766973696f6e206279207a65726f00000000000081525060200191505060405180910390fd5b60008284816143e957fe5b0490508091505092915050565b6000603b60009054906101000a900473ffffffffffffffffffffffffffffffffffffffff1673ffffffffffffffffffffffffffffffffffffffff16633f1793c3856040518263ffffffff1660e01b81526004018082815260200191505060206040518083038186803b15801561446b57600080fd5b505afa15801561447f573d6000803e3d6000fd5b505050506040513d602081101561449557600080fd5b81019080805190602001909291905050509050603b60009054906101000a900473ffffffffffffffffffffffffffffffffffffffff1673ffffffffffffffffffffffffffffffffffffffff166353024bae826040518263ffffffff1660e01b8152600401808273ffffffffffffffffffffffffffffffffffffffff1673ffffffffffffffffffffffffffffffffffffffff16815260200191505060206040518083038186803b15801561454757600080fd5b505afa15801561455b573d6000803e3d6000fd5b505050506040513d602081101561457157600080fd5b810190808051906020019092919050505015614776578073ffffffffffffffffffffffffffffffffffffffff1663a9059cbb84846040518363ffffffff1660e01b8152600401808373ffffffffffffffffffffffffffffffffffffffff1673ffffffffffffffffffffffffffffffffffffffff16815260200182815260200192505050602060405180830381600087803b15801561460e57600080fd5b505af1158015614622573d6000803e3d6000fd5b505050506040513d602081101561463857600080fd5b810190808051906020019092919050505061469e576040517f08c379a000000000000000000000000000000000000000000000000000000000815260040180806020018281038252603f8152602001806150f2603f913960400191505060405180910390fd5b7f811818cc81106965711d42e377725a1ae3815b6175654fc80aa44e7a6821b77f81308585604051808573ffffffffffffffffffffffffffffffffffffffff1673ffffffffffffffffffffffffffffffffffffffff1681526020018473ffffffffffffffffffffffffffffffffffffffff1673ffffffffffffffffffffffffffffffffffffffff1681526020018373ffffffffffffffffffffffffffffffffffffffff1673ffffffffffffffffffffffffffffffffffffffff16815260200182815260200194505050505060405180910390a1614892565b8273ffffffffffffffffffffffffffffffffffffffff166108fc839081150290604051600060405180830381858888f193505050501580156147bc573d6000803e3d6000fd5b507f811818cc81106965711d42e377725a1ae3815b6175654fc80aa44e7a6821b77f6000308585604051808573ffffffffffffffffffffffffffffffffffffffff1673ffffffffffffffffffffffffffffffffffffffff1681526020018473ffffffffffffffffffffffffffffffffffffffff1673ffffffffffffffffffffffffffffffffffffffff1681526020018373ffffffffffffffffffffffffffffffffffffffff1673ffffffffffffffffffffffffffffffffffffffff16815260200182815260200194505050505060405180910390a15b50505050565b600082821115614910576040517f08c379a000000000000000000000000000000000000000000000000000000000815260040180806020018281038252601e8152602001807f536166654d6174683a207375627472616374696f6e206f766572666c6f77000081525060200191505060405180910390fd5b600082840390508091505092915050565b60008082840190508381101561499f576040517f08c379a000000000000000000000000000000000000000000000000000000000815260040180806020018281038252601b8152602001807f536166654d6174683a206164646974696f6e206f766572666c6f77000000000081525060200191505060405180910390fd5b8091505092915050565b600060019054906101000a900460ff16806149c857506149c7613a39565b5b806149df57506000809054906101000a900460ff16155b614a34576040517f08c379a000000000000000000000000000000000000000000000000000000000815260040180806020018281038252602e81526020018061503e602e913960400191505060405180910390fd5b60008060019054906101000a900460ff161590508015614a84576001600060016101000a81548160ff02191690831515021790555060016000806101000a81548160ff0219169083151502179055505b81603b60006101000a81548173ffffffffffffffffffffffffffffffffffffffff021916908373ffffffffffffffffffffffffffffffffffffffff16021790555060405180807f41646d696e436f6e747261637400000000000000000000000000000000000000815250600d019050604051809103902060358190555060405180807f506f7274666f6c696f4d616e61676572436f6e747261637400000000000000008152506018019050604051809103902060368190555060405180807f5061796572436f6e747261637400000000000000000000000000000000000000815250600d019050604051809103902060378190555060405180807f524159546f6b656e436f6e7472616374000000000000000000000000000000008152506010019050604051809103902060388190555060405180807f4e415643616c63756c61746f72436f6e74726163740000000000000000000000815250601501905060405180910390206039819055506040518080614ded602f9139602f0190506040518091039020603a60006101000a81548163ffffffff021916908360e01c02179055506000603a60046101000a81548173ffffffffffffffffffffffffffffffffffffffff021916908373ffffffffffffffffffffffffffffffffffffffff1602179055508015614c8a5760008060016101000a81548160ff0219169083151502179055505b5050565b828054828255906000526020600020908101928215614d07579160200282015b82811115614d065782518260006101000a81548173ffffffffffffffffffffffffffffffffffffffff021916908373ffffffffffffffffffffffffffffffffffffffff16021790555091602001919060010190614cae565b5b509050614d149190614d18565b5090565b614d5891905b80821115614d5457600081816101000a81549073ffffffffffffffffffffffffffffffffffffffff021916905550600101614d1e565b5090565b9056fe235265636f766572794c6f676963207365745265636f76657279536865657428293a2050657263656e74616765206d75737420626520736d616c6c6572207468656e20312065746865722831303025292344654669437573746f64795265676973747279207265636f76657252415928293a205472616e73666572206f6620455243323020746f6b656e206661696c65646f6e455243373231526563656976656428616464726573732c616464726573732c75696e743235362c6279746573292344654669437573746f6479526567697374727920616464537570706f72746564546f6b656e28293a20546f6b656e2077617320616c72656164792061646465642e4f776e61626c653a206e6577206f776e657220697320746865207a65726f2061646472657373235265636f766572794c6f676963207365745265636f76657279536865657428293a2053756d206f6620616c6c207468652070657263656e7461676573206973206e6f742031206574686572283130302529235265636f766572794c6f676963207365745265636f76657279536865657428293a20446561646c696e65206d75737420626520626967676572207468616e207a65726f23524159496e746567726174696f6e2076657269667956616c756528293a20417070726f76616c206f6620455243323020546f6b656e206661696c6564235265636f766572794c6f6769632069665265636f76657261626c652829206d6f6469666965723a20436f6e7472616374206973206e6f74207265636f76657261626c65235265636f766572794c6f676963207365745265636f76657279536865657428293a2041737365742063616e6e6f74206265207a65726f2061646472657373235265636f766572794c6f676963207365745265636f76657279536865657428293a204c656e67746820696e636f72726563742e204461746120636f72727570746564536166654d6174683a206d756c7469706c69636174696f6e206f766572666c6f77436f6e747261637420696e7374616e63652068617320616c7265616479206265656e20696e697469616c697a6564235265636f766572794c6f676963207365745265636f76657279536865657428293a205265636f766572792077616c6c65742063616e6e6f74206265207a65726f206164647265737323524159496e746567726174696f6e2076657269667956616c756528293a205472616e73666572206f6620455243323020546f6b656e206661696c656423524159496e746567726174696f6e207472616e7366657246756e647328293a205472616e73666572206f6620455243323020746f6b656e206661696c656423524159496e746567726174696f6e2076657269667956616c756528293a204554482076616c75652073656e7420646f6573206e6f74206d6174636820696e7075742076616c7565a165627a7a723058203b0a2982e54742a7d4fae88844034025fd5e05e823e9b112100c191c07fea7400029",
  "source": "pragma solidity >=0.5.0 <0.6.0;\n\n\nimport \"@openzeppelin/upgrades/contracts/Initializable.sol\";\nimport \"@openzeppelin/contracts/ownership/Ownable.sol\";\nimport \"./DCWallet.sol\";\nimport \"./RAYIntegration.sol\";\nimport \"./RecoveryLogic.sol\";\n\n\ncontract DeFiCustodyRegistry is Initializable, Ownable, DCWallet, RAYIntegration, RecoveryLogic {\n\n    address[] private tokens;\n\n    event NewWallet(address indexed proxy, address admin, address sender);\n    event NewSupportedToken(address indexed token, address sender);\n    event RecoveredERC20(\n        address indexed wallet,\n        address indexed principalAddress,\n        address indexed beneficiary,\n        uint share,\n        uint value);\n\n    function init(address _rayStorage, address owner) public initializer {\n        RAYIntegration.init(_rayStorage);\n        RecoveryLogic.init(owner);\n    }\n\n    function getTokens() external view returns(address[] memory) {\n        return tokens;\n    }\n\n    function addSupportedToken(address token) external onlyOwner returns(bool) {\n        for (uint i = 0; i < tokens.length; i++) {\n            require(tokens[i]!= token, \"#DeFiCustodyRegistry addSupportedToken(): Token was already added.\");\n        }\n        tokens.push(token);\n        emit NewSupportedToken(token, msg.sender);\n        return true;\n    }\n\n    function recoverRAY(bytes32 rayTokenId) external ifRecoverable(rayTokens[rayTokenId]) {\n        address payable beneficiary;\n        uint share;\n        uint value;\n        bytes32 portfolioId;\n        uint valueAfterFee;\n\n        address wallet = rayTokens[rayTokenId];\n        uint valueToWithdraw = getTokenValue(rayTokenId);\n        (portfolioId, valueAfterFee) = redeem(rayTokenId, valueToWithdraw, address(this));\n        address principalAddress = rayStorage.getPrincipalAddress(portfolioId);\n\n        for (uint i = 0; i < recoveryWallets[wallet].length; i++) {\n            beneficiary = address(uint160(recoveryWallets[wallet][i]));\n            share = recoverySheet[wallet][beneficiary][principalAddress];\n            value = valueAfterFee.mul(share).div(1 ether);\n\n            if (rayStorage.getIsERC20(principalAddress)) {\n                require(IERC20(principalAddress).transfer(beneficiary, value),\n                    \"#DeFiCustodyRegistry recoverRAY(): Transfer of ERC20 token failed\");\n            }\n            emit RecoveredERC20(wallet, principalAddress, beneficiary, share, value);\n        }\n    }\n\n    function recoverERC20(address wallet, address asset) external ifRecoverable(wallet) {\n        address payable beneficiary;\n        uint share;\n        uint value;\n\n        for (uint i = 0; i < recoveryWallets[wallet].length; i++) {\n            beneficiary = address(uint160(recoveryWallets[wallet][i]));\n            share = recoverySheet[wallet][beneficiary][asset];\n            value = balances[asset][wallet].mul(share).div(1 ether);\n            beneficiary.transfer(value);\n            emit RecoveredERC20(wallet, asset, beneficiary, share, value);\n        }\n    }\n\n    \n}\n",
  "sourcePath": "/Users/tom/www/defi-custody-sf-hackathon/contracts/DeFiCustodyRegistry.sol",
  "compiler": {
    "name": "solc",
    "version": "0.5.8+commit.23d335f2.Emscripten.clang"
  },
  "schemaVersion": "3.0.11",
  "updatedAt": "2019-10-27T03:24:49.794Z",
  "devdoc": {
    "methods": {
      "alive()": {
        "details": "extend the deadline for recovery"
      },
      "deposit(bytes32,uint256)": {
        "details": "The value added must be in the same underlying asset as the position. ",
        "params": {
          "rayTokenId": "- The unique id of the RAY token",
          "value": "- The amount to be deposited denominated in the smallest units                  in-kind. Ex. For USDC, to deposit 1 USDC, value = 1000000"
        }
      },
      "getTokenValue(bytes32)": {
        "params": {
          "rayTokenId": "- The unique token id of the RAY "
        },
        "return": "Value of the token"
      },
      "isOwner()": {
        "details": "Returns true if the caller is the current owner."
      },
      "mint(bytes32,address,uint256)": {
        "params": {
          "beneficiary": "- The address that will own the position",
          "portfolioId": "- The portfolio id",
          "value": "- The amount to be deposited denominated in the smallest units                  in-kind. Ex. For USDC, to deposit 1 USDC, value = 1000000 "
        },
        "return": "The unique token id of the new RAY token position"
      },
      "owner()": {
        "details": "Returns the address of the current owner."
      },
      "redeemAndWithdraw(bytes32,uint256,address)": {
        "details": "Caller must be the 'true' owner of the token or RAY's GasFunder (Payer) contract ",
        "params": {
          "originalCaller": "- Unimportant unless Payer is the msg.sender, tells                            us who signed the original message.",
          "rayTokenId": "- The id of the position",
          "valueToWithdraw": "- The value to withdraw"
        }
      },
      "renounceOwnership()": {
        "details": "Leaves the contract without owner. It will not be possible to call `onlyOwner` functions anymore. Can only be called by the current owner.     * > Note: Renouncing ownership will leave the contract without an owner, thereby removing any functionality that is only available to the owner."
      },
      "setRecoverySheet(address,address[],uint256[],uint256)": {
        "details": "Allows to recoverySheet state.",
        "params": {
          "asset": "The address of token that will be used as Asset.",
          "deadline": "The number of seconds from the current moment (lastAction) the Asset will be sent to wallets.",
          "values": "The array of percentages that corresponds to each wallets share. 1 ether = 100%.",
          "wallets": "The array of addresses to whom the asset will be sent."
        }
      },
      "transferOwnership(address)": {
        "details": "Transfers ownership of the contract to a new account (`newOwner`). Can only be called by the current owner."
      }
    }
  },
  "userdoc": {
    "methods": {
      "deposit(bytes32,uint256)": {
        "notice": "Adds capital to an existing RAY token, this doesn't restrict who          adds. Addresses besides the owner can add value to the position. "
      },
      "getTokenValue(bytes32)": {
        "notice": "Gets a RAY tokens current value "
      },
      "mint(bytes32,address,uint256)": {
        "notice": "Allows users to deposit ETH or accepted ERC20's to this contract and          used as capital. In return they receive an ERC-721 'RAY' token. "
      },
      "redeemAndWithdraw(bytes32,uint256,address)": {
        "notice": "Withdraw value from a RAY token "
      }
    }
  }
}