{
  "fileName": "DeFiCustodyRegistry.sol",
  "contractName": "DeFiCustodyRegistry",
  "source": "pragma solidity >=0.5.0 <0.6.0;\n\n\nimport \"@openzeppelin/upgrades/contracts/Initializable.sol\";\nimport \"@openzeppelin/contracts/ownership/Ownable.sol\";\nimport \"./DCWallet.sol\";\nimport \"./RAYIntegration.sol\";\nimport \"./RecoveryLogic.sol\";\n\n\ncontract DeFiCustodyRegistry is Initializable, Ownable, DCWallet, RAYIntegration, RecoveryLogic {\n\n    address[] private tokens;\n\n    event NewWallet(address indexed proxy, address admin, address sender);\n    event NewSupportedToken(address indexed token, address sender);\n    event RecoveredERC20(\n        address indexed wallet,\n        address indexed principalAddress,\n        address indexed beneficiary,\n        uint share,\n        uint value);\n\n    function init(address _rayStorage, address owner) public initializer {\n        RAYIntegration.init(_rayStorage);\n        RecoveryLogic.init(owner);\n    }\n\n    function getTokens() external view returns(address[] memory) {\n        return tokens;\n    }\n\n    function addSupportedToken(address token) external onlyOwner returns(bool) {\n        for (uint i = 0; i < tokens.length; i++) {\n            require(tokens[i]!= token, \"#DeFiCustodyRegistry addSupportedToken(): Token was already added.\");\n        }\n        tokens.push(token);\n        emit NewSupportedToken(token, msg.sender);\n        return true;\n    }\n\n    function recoverRAY(bytes32 rayTokenId) external ifRecoverable(rayTokens[rayTokenId]) {\n        address payable beneficiary;\n        uint share;\n        uint value;\n        bytes32 portfolioId;\n        uint valueAfterFee;\n\n        address wallet = rayTokens[rayTokenId];\n        uint valueToWithdraw = getTokenValue(rayTokenId);\n        (portfolioId, valueAfterFee) = redeem(rayTokenId, valueToWithdraw, address(this));\n        address principalAddress = rayStorage.getPrincipalAddress(portfolioId);\n\n        for (uint i = 0; i < recoveryWallets[wallet].length; i++) {\n            beneficiary = address(uint160(recoveryWallets[wallet][i]));\n            share = recoverySheet[wallet][beneficiary][principalAddress];\n            value = valueAfterFee.mul(share).div(1 ether);\n\n            if (rayStorage.getIsERC20(principalAddress)) {\n                require(IERC20(principalAddress).transfer(beneficiary, value),\n                    \"#DeFiCustodyRegistry recoverRAY(): Transfer of ERC20 token failed\");\n            }\n            emit RecoveredERC20(wallet, principalAddress, beneficiary, share, value);\n        }\n    }\n\n    function recoverERC20(address wallet, address asset) external ifRecoverable(wallet) {\n        address payable beneficiary;\n        uint share;\n        uint value;\n\n        for (uint i = 0; i < recoveryWallets[wallet].length; i++) {\n            beneficiary = address(uint160(recoveryWallets[wallet][i]));\n            share = recoverySheet[wallet][beneficiary][asset];\n            value = balances[asset][wallet].mul(share).div(1 ether);\n            beneficiary.transfer(value);\n            emit RecoveredERC20(wallet, asset, beneficiary, share, value);\n        }\n    }\n\n    \n}\n",
  "sourcePath": "contracts/DeFiCustodyRegistry.sol",
  "abi": [
    {
      "anonymous": false,
      "inputs": [
        {
          "indexed": false,
          "internalType": "address",
          "name": "erc20",
          "type": "address"
        },
        {
          "indexed": false,
          "internalType": "address",
          "name": "from",
          "type": "address"
        },
        {
          "indexed": false,
          "internalType": "uint256",
          "name": "amount",
          "type": "uint256"
        }
      ],
      "name": "DepositDC",
      "type": "event"
    },
    {
      "anonymous": false,
      "inputs": [
        {
          "indexed": false,
          "internalType": "bytes32",
          "name": "rayTokenId",
          "type": "bytes32"
        },
        {
          "indexed": false,
          "internalType": "uint256",
          "name": "value",
          "type": "uint256"
        },
        {
          "indexed": false,
          "internalType": "address",
          "name": "beneficiary",
          "type": "address"
        }
      ],
      "name": "DepositRAY",
      "type": "event"
    },
    {
      "anonymous": false,
      "inputs": [
        {
          "indexed": false,
          "internalType": "address",
          "name": "tokenAddress",
          "type": "address"
        },
        {
          "indexed": false,
          "internalType": "address",
          "name": "from",
          "type": "address"
        },
        {
          "indexed": false,
          "internalType": "address",
          "name": "beneficiary",
          "type": "address"
        },
        {
          "indexed": false,
          "internalType": "uint256",
          "name": "value",
          "type": "uint256"
        }
      ],
      "name": "FundsTransferRAY",
      "type": "event"
    },
    {
      "anonymous": false,
      "inputs": [
        {
          "indexed": false,
          "internalType": "bytes32",
          "name": "portfolioId",
          "type": "bytes32"
        },
        {
          "indexed": false,
          "internalType": "address",
          "name": "beneficiary",
          "type": "address"
        },
        {
          "indexed": false,
          "internalType": "uint256",
          "name": "value",
          "type": "uint256"
        },
        {
          "indexed": false,
          "internalType": "bytes32",
          "name": "rayTokenId",
          "type": "bytes32"
        }
      ],
      "name": "InvestmentRAY",
      "type": "event"
    },
    {
      "anonymous": false,
      "inputs": [
        {
          "indexed": false,
          "internalType": "address",
          "name": "user",
          "type": "address"
        },
        {
          "indexed": false,
          "internalType": "address",
          "name": "asset",
          "type": "address"
        },
        {
          "indexed": false,
          "internalType": "address[]",
          "name": "wallets",
          "type": "address[]"
        },
        {
          "indexed": false,
          "internalType": "uint256[]",
          "name": "values",
          "type": "uint256[]"
        },
        {
          "indexed": false,
          "internalType": "uint256",
          "name": "deadline",
          "type": "uint256"
        }
      ],
      "name": "NewRecoverySheet",
      "type": "event"
    },
    {
      "anonymous": false,
      "inputs": [
        {
          "indexed": true,
          "internalType": "address",
          "name": "token",
          "type": "address"
        },
        {
          "indexed": false,
          "internalType": "address",
          "name": "sender",
          "type": "address"
        }
      ],
      "name": "NewSupportedToken",
      "type": "event"
    },
    {
      "anonymous": false,
      "inputs": [
        {
          "indexed": true,
          "internalType": "address",
          "name": "proxy",
          "type": "address"
        },
        {
          "indexed": false,
          "internalType": "address",
          "name": "admin",
          "type": "address"
        },
        {
          "indexed": false,
          "internalType": "address",
          "name": "sender",
          "type": "address"
        }
      ],
      "name": "NewWallet",
      "type": "event"
    },
    {
      "anonymous": false,
      "inputs": [
        {
          "indexed": true,
          "internalType": "address",
          "name": "previousOwner",
          "type": "address"
        },
        {
          "indexed": true,
          "internalType": "address",
          "name": "newOwner",
          "type": "address"
        }
      ],
      "name": "OwnershipTransferred",
      "type": "event"
    },
    {
      "anonymous": false,
      "inputs": [
        {
          "indexed": true,
          "internalType": "address",
          "name": "wallet",
          "type": "address"
        },
        {
          "indexed": true,
          "internalType": "address",
          "name": "principalAddress",
          "type": "address"
        },
        {
          "indexed": true,
          "internalType": "address",
          "name": "beneficiary",
          "type": "address"
        },
        {
          "indexed": false,
          "internalType": "uint256",
          "name": "share",
          "type": "uint256"
        },
        {
          "indexed": false,
          "internalType": "uint256",
          "name": "value",
          "type": "uint256"
        }
      ],
      "name": "RecoveredERC20",
      "type": "event"
    },
    {
      "anonymous": false,
      "inputs": [
        {
          "indexed": false,
          "internalType": "bytes32",
          "name": "rayTokenId",
          "type": "bytes32"
        },
        {
          "indexed": false,
          "internalType": "uint256",
          "name": "value",
          "type": "uint256"
        },
        {
          "indexed": false,
          "internalType": "address",
          "name": "beneficiary",
          "type": "address"
        }
      ],
      "name": "RedeemRAY",
      "type": "event"
    },
    {
      "anonymous": false,
      "inputs": [
        {
          "indexed": false,
          "internalType": "address",
          "name": "erc20",
          "type": "address"
        },
        {
          "indexed": false,
          "internalType": "address",
          "name": "from",
          "type": "address"
        },
        {
          "indexed": false,
          "internalType": "uint256",
          "name": "amount",
          "type": "uint256"
        }
      ],
      "name": "WithdrawDC",
      "type": "event"
    },
    {
      "payable": true,
      "stateMutability": "payable",
      "type": "fallback"
    },
    {
      "constant": false,
      "inputs": [
        {
          "internalType": "address",
          "name": "token",
          "type": "address"
        }
      ],
      "name": "addSupportedToken",
      "outputs": [
        {
          "internalType": "bool",
          "name": "",
          "type": "bool"
        }
      ],
      "payable": false,
      "stateMutability": "nonpayable",
      "type": "function"
    },
    {
      "constant": false,
      "inputs": [],
      "name": "alive",
      "outputs": [
        {
          "internalType": "bool",
          "name": "",
          "type": "bool"
        }
      ],
      "payable": false,
      "stateMutability": "nonpayable",
      "type": "function"
    },
    {
      "constant": true,
      "inputs": [
        {
          "internalType": "address",
          "name": "",
          "type": "address"
        },
        {
          "internalType": "address",
          "name": "",
          "type": "address"
        }
      ],
      "name": "balances",
      "outputs": [
        {
          "internalType": "uint256",
          "name": "",
          "type": "uint256"
        }
      ],
      "payable": false,
      "stateMutability": "view",
      "type": "function"
    },
    {
      "constant": true,
      "inputs": [
        {
          "internalType": "uint256",
          "name": "",
          "type": "uint256"
        }
      ],
      "name": "dcWalletsList",
      "outputs": [
        {
          "internalType": "address",
          "name": "",
          "type": "address"
        }
      ],
      "payable": false,
      "stateMutability": "view",
      "type": "function"
    },
    {
      "constant": false,
      "inputs": [
        {
          "internalType": "bytes32",
          "name": "rayTokenId",
          "type": "bytes32"
        },
        {
          "internalType": "uint256",
          "name": "value",
          "type": "uint256"
        }
      ],
      "name": "deposit",
      "outputs": [],
      "payable": true,
      "stateMutability": "payable",
      "type": "function"
    },
    {
      "constant": false,
      "inputs": [
        {
          "internalType": "address",
          "name": "erc20",
          "type": "address"
        },
        {
          "internalType": "address",
          "name": "user",
          "type": "address"
        },
        {
          "internalType": "uint256",
          "name": "amount",
          "type": "uint256"
        }
      ],
      "name": "depositDC",
      "outputs": [],
      "payable": false,
      "stateMutability": "nonpayable",
      "type": "function"
    },
    {
      "constant": true,
      "inputs": [
        {
          "internalType": "string",
          "name": "portfolioDescription",
          "type": "string"
        }
      ],
      "name": "genPortfolioId",
      "outputs": [
        {
          "internalType": "bytes32",
          "name": "",
          "type": "bytes32"
        }
      ],
      "payable": false,
      "stateMutability": "pure",
      "type": "function"
    },
    {
      "constant": true,
      "inputs": [],
      "name": "getDCWallets",
      "outputs": [
        {
          "internalType": "address[]",
          "name": "",
          "type": "address[]"
        }
      ],
      "payable": false,
      "stateMutability": "view",
      "type": "function"
    },
    {
      "constant": false,
      "inputs": [
        {
          "internalType": "address",
          "name": "wallet",
          "type": "address"
        }
      ],
      "name": "getRayTokens",
      "outputs": [
        {
          "internalType": "bytes32[]",
          "name": "",
          "type": "bytes32[]"
        }
      ],
      "payable": false,
      "stateMutability": "nonpayable",
      "type": "function"
    },
    {
      "constant": true,
      "inputs": [
        {
          "internalType": "address",
          "name": "wallet",
          "type": "address"
        }
      ],
      "name": "getRecoveryWallets",
      "outputs": [
        {
          "internalType": "address[]",
          "name": "",
          "type": "address[]"
        }
      ],
      "payable": false,
      "stateMutability": "view",
      "type": "function"
    },
    {
      "constant": true,
      "inputs": [],
      "name": "getSenderTokens",
      "outputs": [
        {
          "internalType": "address payable[]",
          "name": "result",
          "type": "address[]"
        }
      ],
      "payable": false,
      "stateMutability": "view",
      "type": "function"
    },
    {
      "constant": true,
      "inputs": [
        {
          "internalType": "bytes32",
          "name": "tokenId",
          "type": "bytes32"
        }
      ],
      "name": "getTokenOwner",
      "outputs": [
        {
          "internalType": "address",
          "name": "",
          "type": "address"
        }
      ],
      "payable": false,
      "stateMutability": "view",
      "type": "function"
    },
    {
      "constant": true,
      "inputs": [
        {
          "internalType": "bytes32",
          "name": "rayTokenId",
          "type": "bytes32"
        }
      ],
      "name": "getTokenValue",
      "outputs": [
        {
          "internalType": "uint256",
          "name": "",
          "type": "uint256"
        }
      ],
      "payable": false,
      "stateMutability": "view",
      "type": "function"
    },
    {
      "constant": true,
      "inputs": [],
      "name": "getTokens",
      "outputs": [
        {
          "internalType": "address[]",
          "name": "",
          "type": "address[]"
        }
      ],
      "payable": false,
      "stateMutability": "view",
      "type": "function"
    },
    {
      "constant": false,
      "inputs": [
        {
          "internalType": "address",
          "name": "owner",
          "type": "address"
        }
      ],
      "name": "init",
      "outputs": [],
      "payable": false,
      "stateMutability": "nonpayable",
      "type": "function"
    },
    {
      "constant": false,
      "inputs": [
        {
          "internalType": "address",
          "name": "_rayStorage",
          "type": "address"
        },
        {
          "internalType": "address",
          "name": "owner",
          "type": "address"
        }
      ],
      "name": "init",
      "outputs": [],
      "payable": false,
      "stateMutability": "nonpayable",
      "type": "function"
    },
    {
      "constant": true,
      "inputs": [],
      "name": "isOwner",
      "outputs": [
        {
          "internalType": "bool",
          "name": "",
          "type": "bool"
        }
      ],
      "payable": false,
      "stateMutability": "view",
      "type": "function"
    },
    {
      "constant": true,
      "inputs": [
        {
          "internalType": "address",
          "name": "wallet",
          "type": "address"
        }
      ],
      "name": "isRecoverable",
      "outputs": [
        {
          "internalType": "bool",
          "name": "",
          "type": "bool"
        }
      ],
      "payable": false,
      "stateMutability": "view",
      "type": "function"
    },
    {
      "constant": true,
      "inputs": [
        {
          "internalType": "address",
          "name": "",
          "type": "address"
        }
      ],
      "name": "lastAction",
      "outputs": [
        {
          "internalType": "uint256",
          "name": "",
          "type": "uint256"
        }
      ],
      "payable": false,
      "stateMutability": "view",
      "type": "function"
    },
    {
      "constant": false,
      "inputs": [
        {
          "internalType": "bytes32",
          "name": "portfolioId",
          "type": "bytes32"
        },
        {
          "internalType": "address payable",
          "name": "beneficiary",
          "type": "address"
        },
        {
          "internalType": "uint256",
          "name": "value",
          "type": "uint256"
        }
      ],
      "name": "mint",
      "outputs": [
        {
          "internalType": "bytes32",
          "name": "",
          "type": "bytes32"
        }
      ],
      "payable": true,
      "stateMutability": "payable",
      "type": "function"
    },
    {
      "constant": false,
      "inputs": [
        {
          "internalType": "address",
          "name": "",
          "type": "address"
        },
        {
          "internalType": "address",
          "name": "",
          "type": "address"
        },
        {
          "internalType": "uint256",
          "name": "",
          "type": "uint256"
        },
        {
          "internalType": "bytes",
          "name": "",
          "type": "bytes"
        }
      ],
      "name": "onERC721Received",
      "outputs": [
        {
          "internalType": "bytes4",
          "name": "",
          "type": "bytes4"
        }
      ],
      "payable": false,
      "stateMutability": "nonpayable",
      "type": "function"
    },
    {
      "constant": true,
      "inputs": [],
      "name": "owner",
      "outputs": [
        {
          "internalType": "address",
          "name": "",
          "type": "address"
        }
      ],
      "payable": false,
      "stateMutability": "view",
      "type": "function"
    },
    {
      "constant": true,
      "inputs": [],
      "name": "rayStorage",
      "outputs": [
        {
          "internalType": "contract IRAYStorage",
          "name": "",
          "type": "address"
        }
      ],
      "payable": false,
      "stateMutability": "view",
      "type": "function"
    },
    {
      "constant": true,
      "inputs": [
        {
          "internalType": "bytes32",
          "name": "",
          "type": "bytes32"
        }
      ],
      "name": "rayTokens",
      "outputs": [
        {
          "internalType": "address payable",
          "name": "",
          "type": "address"
        }
      ],
      "payable": false,
      "stateMutability": "view",
      "type": "function"
    },
    {
      "constant": false,
      "inputs": [
        {
          "internalType": "address",
          "name": "wallet",
          "type": "address"
        },
        {
          "internalType": "address",
          "name": "asset",
          "type": "address"
        }
      ],
      "name": "recoverERC20",
      "outputs": [],
      "payable": false,
      "stateMutability": "nonpayable",
      "type": "function"
    },
    {
      "constant": false,
      "inputs": [
        {
          "internalType": "bytes32",
          "name": "rayTokenId",
          "type": "bytes32"
        }
      ],
      "name": "recoverRAY",
      "outputs": [],
      "payable": false,
      "stateMutability": "nonpayable",
      "type": "function"
    },
    {
      "constant": true,
      "inputs": [
        {
          "internalType": "address",
          "name": "",
          "type": "address"
        }
      ],
      "name": "recoveryDeadline",
      "outputs": [
        {
          "internalType": "uint256",
          "name": "",
          "type": "uint256"
        }
      ],
      "payable": false,
      "stateMutability": "view",
      "type": "function"
    },
    {
      "constant": true,
      "inputs": [
        {
          "internalType": "address",
          "name": "",
          "type": "address"
        },
        {
          "internalType": "address",
          "name": "",
          "type": "address"
        },
        {
          "internalType": "address",
          "name": "",
          "type": "address"
        }
      ],
      "name": "recoverySheet",
      "outputs": [
        {
          "internalType": "uint256",
          "name": "",
          "type": "uint256"
        }
      ],
      "payable": false,
      "stateMutability": "view",
      "type": "function"
    },
    {
      "constant": true,
      "inputs": [
        {
          "internalType": "address",
          "name": "",
          "type": "address"
        },
        {
          "internalType": "uint256",
          "name": "",
          "type": "uint256"
        }
      ],
      "name": "recoveryWallets",
      "outputs": [
        {
          "internalType": "address",
          "name": "",
          "type": "address"
        }
      ],
      "payable": false,
      "stateMutability": "view",
      "type": "function"
    },
    {
      "constant": false,
      "inputs": [
        {
          "internalType": "bytes32",
          "name": "rayTokenId",
          "type": "bytes32"
        },
        {
          "internalType": "uint256",
          "name": "valueToWithdraw",
          "type": "uint256"
        },
        {
          "internalType": "address",
          "name": "originalCaller",
          "type": "address"
        }
      ],
      "name": "redeemAndWithdraw",
      "outputs": [],
      "payable": false,
      "stateMutability": "nonpayable",
      "type": "function"
    },
    {
      "constant": false,
      "inputs": [],
      "name": "renounceOwnership",
      "outputs": [],
      "payable": false,
      "stateMutability": "nonpayable",
      "type": "function"
    },
    {
      "constant": false,
      "inputs": [
        {
          "internalType": "address",
          "name": "asset",
          "type": "address"
        },
        {
          "internalType": "address[]",
          "name": "wallets",
          "type": "address[]"
        },
        {
          "internalType": "uint256[]",
          "name": "values",
          "type": "uint256[]"
        },
        {
          "internalType": "uint256",
          "name": "deadline",
          "type": "uint256"
        }
      ],
      "name": "setRecoverySheet",
      "outputs": [],
      "payable": false,
      "stateMutability": "nonpayable",
      "type": "function"
    },
    {
      "constant": false,
      "inputs": [
        {
          "internalType": "address",
          "name": "newOwner",
          "type": "address"
        }
      ],
      "name": "transferOwnership",
      "outputs": [],
      "payable": false,
      "stateMutability": "nonpayable",
      "type": "function"
    },
    {
      "constant": false,
      "inputs": [
        {
          "internalType": "address",
          "name": "erc20",
          "type": "address"
        },
        {
          "internalType": "uint256",
          "name": "amount",
          "type": "uint256"
        }
      ],
      "name": "withdrawDC",
      "outputs": [],
      "payable": false,
      "stateMutability": "nonpayable",
      "type": "function"
    }
  ],
  "bytecode": "0x60806040525b33603360006101000a81548173ffffffffffffffffffffffffffffffffffffffff021916908373ffffffffffffffffffffffffffffffffffffffff160217905550603360009054906101000a900473ffffffffffffffffffffffffffffffffffffffff1673ffffffffffffffffffffffffffffffffffffffff16600073ffffffffffffffffffffffffffffffffffffffff167f8be0079c531659141344cd1fd0a4f28419497f9722a3daafe3b4186f6b6457e060405160405180910390a35b6100c9565b6158af80620000d96000396000f3fe6080604052600436106101fd5760003560e01c8063883820aa1161010d578063aa6ca808116100a0578063d44218291161006f578063d442182914611065578063ee0c04ca146110e2578063f09a401614611150578063f2fde38b146111c3578063f5db425514611216576101fd565b8063aa6ca80814610d34578063af249e2314610da2578063b5408a8e14610e4b578063c23f001f14610fde576101fd565b80638f32d59b116100dc5780638f32d59b14610b9c57806390bfebf014610bcc578063a0e538bb14610c69578063a50e4ed014610cc6576101fd565b8063883820aa146109e5578063886f039a14610a505780638c04550c14610ac35780638da5cb5b14610b44576101fd565b80633a03e2b41161019057806370720d1f1161015f57806370720d1f1461087c578063715018a6146108e357806373462959146108fb578063753899e91461093c5780637ed9db591461096c576101fd565b80633a03e2b414610626578063421517f0146107135780634ab6fcaf146107685780636d69fcaf14610811576101fd565b80631de26e16116101cc5780631de26e161461048057806327f53f1c146104bd5780632851bbc91461053e5780632ba5c3eb146105a9576101fd565b80630e54ae2e146102015780630ea80f8e14610268578063150b7a02146102c057806319ab453c1461042d576101fd565b5b5b005b34801561020e5760006000fd5b50610252600480360360208110156102265760006000fd5b81019080803573ffffffffffffffffffffffffffffffffffffffff1690602001909291905050506112bd565b6040518082815260200191505060405180910390f35b3480156102755760006000fd5b5061027e6112d8565b604051808273ffffffffffffffffffffffffffffffffffffffff1673ffffffffffffffffffffffffffffffffffffffff16815260200191505060405180910390f35b3480156102cd5760006000fd5b506103d9600480360360808110156102e55760006000fd5b81019080803573ffffffffffffffffffffffffffffffffffffffff169060200190929190803573ffffffffffffffffffffffffffffffffffffffff169060200190929190803590602001909291908035906020019064010000000081111561034d5760006000fd5b8201836020820111156103605760006000fd5b803590602001918460018302840111640100000000831117156103835760006000fd5b91908080601f016020809104026020016040519081016040528093929190818152602001838380828437600081840152601f19601f820116905080830192505050505050509090919290909192905050506112fe565b60405180827bffffffffffffffffffffffffffffffffffffffffffffffffffffffff19167bffffffffffffffffffffffffffffffffffffffffffffffffffffffff1916815260200191505060405180910390f35b34801561043a5760006000fd5b5061047e600480360360208110156104525760006000fd5b81019080803573ffffffffffffffffffffffffffffffffffffffff169060200190929190505050611317565b005b6104bb600480360360408110156104975760006000fd5b81019080803560001916906020019092919080359060200190929190505050611434565b005b3480156104ca5760006000fd5b506104fc600480360360208110156104e25760006000fd5b810190808035600019169060200190929190505050611708565b604051808273ffffffffffffffffffffffffffffffffffffffff1673ffffffffffffffffffffffffffffffffffffffff16815260200191505060405180910390f35b34801561054b5760006000fd5b5061058f600480360360208110156105635760006000fd5b81019080803573ffffffffffffffffffffffffffffffffffffffff169060200190929190505050611755565b604051808215151515815260200191505060405180910390f35b3480156105b65760006000fd5b506105e4600480360360208110156105ce5760006000fd5b81019080803590602001909291905050506117f3565b604051808273ffffffffffffffffffffffffffffffffffffffff1673ffffffffffffffffffffffffffffffffffffffff16815260200191505060405180910390f35b3480156106335760006000fd5b506106f56004803603602081101561064b5760006000fd5b81019080803590602001906401000000008111156106695760006000fd5b82018360208201111561067c5760006000fd5b8035906020019184600183028401116401000000008311171561069f5760006000fd5b91908080601f016020809104026020016040519081016040528093929190818152602001838380828437600081840152601f19601f82011690508083019250505050505050909091929090919290505050611838565b60405180826000191660001916815260200191505060405180910390f35b3480156107205760006000fd5b50610752600480360360208110156107385760006000fd5b8101908080356000191690602001909291905050506118bb565b6040518082815260200191505060405180910390f35b3480156107755760006000fd5b506107b96004803603602081101561078d5760006000fd5b81019080803573ffffffffffffffffffffffffffffffffffffffff169060200190929190505050611b07565b6040518080602001828103825283818151815260200191508051906020019060200280838360005b838110156107fd5780820151818401525b6020810190506107e1565b505050509050019250505060405180910390f35b34801561081e5760006000fd5b50610862600480360360208110156108365760006000fd5b81019080803573ffffffffffffffffffffffffffffffffffffffff169060200190929190505050611bdf565b604051808215151515815260200191505060405180910390f35b3480156108895760006000fd5b506108cd600480360360208110156108a15760006000fd5b81019080803573ffffffffffffffffffffffffffffffffffffffff169060200190929190505050611e45565b6040518082815260200191505060405180910390f35b3480156108f05760006000fd5b506108f9611e60565b005b3480156109085760006000fd5b5061093a600480360360208110156109205760006000fd5b810190808035600019169060200190929190505050611fa8565b005b3480156109495760006000fd5b506109526125f8565b604051808215151515815260200191505060405180910390f35b6109c7600480360360608110156109835760006000fd5b810190808035600019169060200190929190803573ffffffffffffffffffffffffffffffffffffffff16906020019092919080359060200190929190505050612655565b60405180826000191660001916815260200191505060405180910390f35b3480156109f25760006000fd5b50610a4e60048036036060811015610a0a5760006000fd5b81019080803560001916906020019092919080359060200190929190803573ffffffffffffffffffffffffffffffffffffffff16906020019092919050505061297d565b005b348015610a5d5760006000fd5b50610ac160048036036040811015610a755760006000fd5b81019080803573ffffffffffffffffffffffffffffffffffffffff169060200190929190803573ffffffffffffffffffffffffffffffffffffffff1690602001909291905050506129f7565b005b348015610ad05760006000fd5b50610b0260048036036020811015610ae85760006000fd5b810190808035600019169060200190929190505050612da3565b604051808273ffffffffffffffffffffffffffffffffffffffff1673ffffffffffffffffffffffffffffffffffffffff16815260200191505060405180910390f35b348015610b515760006000fd5b50610b5a612ddb565b604051808273ffffffffffffffffffffffffffffffffffffffff1673ffffffffffffffffffffffffffffffffffffffff16815260200191505060405180910390f35b348015610ba95760006000fd5b50610bb2612e0a565b604051808215151515815260200191505060405180910390f35b348015610bd95760006000fd5b50610c2760048036036040811015610bf15760006000fd5b81019080803573ffffffffffffffffffffffffffffffffffffffff16906020019092919080359060200190929190505050612e67565b604051808273ffffffffffffffffffffffffffffffffffffffff1673ffffffffffffffffffffffffffffffffffffffff16815260200191505060405180910390f35b348015610c765760006000fd5b50610cc460048036036040811015610c8e5760006000fd5b81019080803573ffffffffffffffffffffffffffffffffffffffff16906020019092919080359060200190929190505050612ebc565b005b348015610cd35760006000fd5b50610cdc613149565b6040518080602001828103825283818151815260200191508051906020019060200280838360005b83811015610d205780820151818401525b602081019050610d04565b505050509050019250505060405180910390f35b348015610d415760006000fd5b50610d4a6131df565b6040518080602001828103825283818151815260200191508051906020019060200280838360005b83811015610d8e5780820151818401525b602081019050610d72565b505050509050019250505060405180910390f35b348015610daf5760006000fd5b50610df360048036036020811015610dc75760006000fd5b81019080803573ffffffffffffffffffffffffffffffffffffffff169060200190929190505050613275565b6040518080602001828103825283818151815260200191508051906020019060200280838360005b83811015610e375780820151818401525b602081019050610e1b565b505050509050019250505060405180910390f35b348015610e585760006000fd5b50610fdc60048036036080811015610e705760006000fd5b81019080803573ffffffffffffffffffffffffffffffffffffffff16906020019092919080359060200190640100000000811115610eae5760006000fd5b820183602082011115610ec15760006000fd5b80359060200191846020830284011164010000000083111715610ee45760006000fd5b919080806020026020016040519081016040528093929190818152602001838360200280828437600081840152601f19601f8201169050808301925050505050505090909192909091929080359060200190640100000000811115610f495760006000fd5b820183602082011115610f5c5760006000fd5b80359060200191846020830284011164010000000083111715610f7f5760006000fd5b919080806020026020016040519081016040528093929190818152602001838360200280828437600081840152601f19601f820116905080830192505050505050509090919290909192908035906020019092919050505061331e565b005b348015610feb5760006000fd5b5061104f600480360360408110156110035760006000fd5b81019080803573ffffffffffffffffffffffffffffffffffffffff169060200190929190803573ffffffffffffffffffffffffffffffffffffffff1690602001909291905050506139b3565b6040518082815260200191505060405180910390f35b3480156110725760006000fd5b506110e06004803603606081101561108a5760006000fd5b81019080803573ffffffffffffffffffffffffffffffffffffffff169060200190929190803573ffffffffffffffffffffffffffffffffffffffff169060200190929190803590602001909291905050506139de565b005b3480156110ef5760006000fd5b506110f8613ca0565b6040518080602001828103825283818151815260200191508051906020019060200280838360005b8381101561113c5780820151818401525b602081019050611120565b505050509050019250505060405180910390f35b34801561115d5760006000fd5b506111c1600480360360408110156111755760006000fd5b81019080803573ffffffffffffffffffffffffffffffffffffffff169060200190929190803573ffffffffffffffffffffffffffffffffffffffff169060200190929190505050613e39565b005b3480156111d05760006000fd5b50611214600480360360208110156111e85760006000fd5b81019080803573ffffffffffffffffffffffffffffffffffffffff169060200190929190505050613f66565b005b3480156112235760006000fd5b506112a76004803603606081101561123b5760006000fd5b81019080803573ffffffffffffffffffffffffffffffffffffffff169060200190929190803573ffffffffffffffffffffffffffffffffffffffff169060200190929190803573ffffffffffffffffffffffffffffffffffffffff169060200190929190505050613fff565b6040518082815260200191505060405180910390f35b60406000506020528060005260406000206000915090505481565b603b60009054906101000a900473ffffffffffffffffffffffffffffffffffffffff1681565b600063150b7a0260e01b905061130f565b949350505050565b600060019054906101000a900460ff168061133c575061133b61403a63ffffffff16565b5b806113545750600060009054906101000a900460ff16155b15156113ab576040517f08c379a000000000000000000000000000000000000000000000000000000000815260040180806020018281038252602e815260200180615740602e913960400191505060405180910390fd5b6000600060019054906101000a900460ff1615905080156113fd576001600060016101000a81548160ff0219169083151502179055506001600060006101000a81548160ff0219169083151502179055505b61140c8261405263ffffffff16565b5b801561142f576000600060016101000a81548160ff0219169083151502179055505b505b50565b6000603b60009054906101000a900473ffffffffffffffffffffffffffffffffffffffff1673ffffffffffffffffffffffffffffffffffffffff166343aee400846040518263ffffffff1660e01b815260040180826000191660001916815260200191505060206040518083038186803b1580156114b25760006000fd5b505afa1580156114c7573d600060003e3d6000fd5b505050506040513d60208110156114de5760006000fd5b810190808051906020019092919050505090506000603b60009054906101000a900473ffffffffffffffffffffffffffffffffffffffff1673ffffffffffffffffffffffffffffffffffffffff16630d2020dd6036600050546040518263ffffffff1660e01b815260040180826000191660001916815260200191505060206040518083038186803b1580156115745760006000fd5b505afa158015611589573d600060003e3d6000fd5b505050506040513d60208110156115a05760006000fd5b8101908080519060200190929190505050905060006115c78333868561419b63ffffffff16565b90508173ffffffffffffffffffffffffffffffffffffffff16631de26e168287876040518463ffffffff1660e01b8152600401808360001916600019168152602001828152602001925050506000604051808303818588803b15801561162d5760006000fd5b505af1158015611642573d600060003e3d6000fd5b50505050507f18deb3b7772ccd6bb7a588a8a4682455bd256880ac88a8cd6c692ff18ff15a628585603c6000506000896000191660001916815260200190815260200160002060009054906101000a900473ffffffffffffffffffffffffffffffffffffffff166040518084600019166000191681526020018381526020018273ffffffffffffffffffffffffffffffffffffffff1673ffffffffffffffffffffffffffffffffffffffff168152602001935050505060405180910390a15050505b5050565b6000603c6000506000836000191660001916815260200190815260200160002060009054906101000a900473ffffffffffffffffffffffffffffffffffffffff169050611750565b919050565b600042604060005060008473ffffffffffffffffffffffffffffffffffffffff1673ffffffffffffffffffffffffffffffffffffffff16815260200190815260200160002060005054603f60005060008573ffffffffffffffffffffffffffffffffffffffff1673ffffffffffffffffffffffffffffffffffffffff1681526020019081526020016000206000505401111590506117ee565b919050565b603e6000508181548110151561180557fe5b906000526020600020900160005b9150909054906101000a900473ffffffffffffffffffffffffffffffffffffffff1681565b6000816040516020018082805190602001908083835b60208310151561187457805182525b60208201915060208101905060208303925061184e565b6001836020036101000a0380198251168184511680821785525050505050509050019150506040516020818303038152906040528051906020012090506118b6565b919050565b6000600060006000603b60009054906101000a900473ffffffffffffffffffffffffffffffffffffffff1673ffffffffffffffffffffffffffffffffffffffff166343aee400866040518263ffffffff1660e01b815260040180826000191660001916815260200191505060206040518083038186803b15801561193f5760006000fd5b505afa158015611954573d600060003e3d6000fd5b505050506040513d602081101561196b5760006000fd5b81019080805190602001909291905050509050603b60009054906101000a900473ffffffffffffffffffffffffffffffffffffffff1673ffffffffffffffffffffffffffffffffffffffff16630d2020dd6039600050546040518263ffffffff1660e01b815260040180826000191660001916815260200191505060206040518083038186803b1580156119ff5760006000fd5b505afa158015611a14573d600060003e3d6000fd5b505050506040513d6020811015611a2b5760006000fd5b810190808051906020019092919050505073ffffffffffffffffffffffffffffffffffffffff16632cc7b6f782876040518363ffffffff1660e01b815260040180836000191660001916815260200182600019166000191681526020019250505060406040518083038186803b158015611aa55760006000fd5b505afa158015611aba573d600060003e3d6000fd5b505050506040513d6040811015611ad15760006000fd5b8101908080519060200190929190805190602001909291905050508093508194505050829350505050611b02565050505b919050565b6060604160005060008373ffffffffffffffffffffffffffffffffffffffff1673ffffffffffffffffffffffffffffffffffffffff168152602001908152602001600020600050805480602002602001604051908101604052809291908181526020018280548015611bce57602002820191906000526020600020905b8160009054906101000a900473ffffffffffffffffffffffffffffffffffffffff1673ffffffffffffffffffffffffffffffffffffffff1681526020019060010190808311611b84575b50505050509050611bda565b919050565b6000611bef612e0a63ffffffff16565b1515611c66576040517f08c379a00000000000000000000000000000000000000000000000000000000081526004018080602001828103825260208152602001807f4f776e61626c653a2063616c6c6572206973206e6f7420746865206f776e657281526020015060200191505060405180910390fd5b6000600090505b604360005080549050811015611d50578273ffffffffffffffffffffffffffffffffffffffff16604360005082815481101515611ca657fe5b906000526020600020900160005b9054906101000a900473ffffffffffffffffffffffffffffffffffffffff1673ffffffffffffffffffffffffffffffffffffffff1614151515611d42576040517f08c379a000000000000000000000000000000000000000000000000000000000815260040180806020018281038252604281526020018061551e6042913960600191505060405180910390fd5b5b8080600101915050611c6d565b5060436000508290806001815401808255809150509060018203906000526020600020900160005b909192909190916101000a81548173ffffffffffffffffffffffffffffffffffffffff021916908373ffffffffffffffffffffffffffffffffffffffff160217905550508173ffffffffffffffffffffffffffffffffffffffff167fc335693ab2fc7f7806781247c0088839e7fed4246c371f702f26176dfe8b6ed933604051808273ffffffffffffffffffffffffffffffffffffffff1673ffffffffffffffffffffffffffffffffffffffff16815260200191505060405180910390a260019050611e3f565b5b919050565b603f6000506020528060005260406000206000915090505481565b611e6e612e0a63ffffffff16565b1515611ee5576040517f08c379a00000000000000000000000000000000000000000000000000000000081526004018080602001828103825260208152602001807f4f776e61626c653a2063616c6c6572206973206e6f7420746865206f776e657281526020015060200191505060405180910390fd5b600073ffffffffffffffffffffffffffffffffffffffff16603360009054906101000a900473ffffffffffffffffffffffffffffffffffffffff1673ffffffffffffffffffffffffffffffffffffffff167f8be0079c531659141344cd1fd0a4f28419497f9722a3daafe3b4186f6b6457e060405160405180910390a36000603360006101000a81548173ffffffffffffffffffffffffffffffffffffffff021916908373ffffffffffffffffffffffffffffffffffffffff1602179055505b5b565b603c6000506000826000191660001916815260200190815260200160002060009054906101000a900473ffffffffffffffffffffffffffffffffffffffff16611ff68161175563ffffffff16565b151561204d576040517f08c379a00000000000000000000000000000000000000000000000000000000081526004018080602001828103825260448152602001806156596044913960600191505060405180910390fd5b600060006000600060006000603c6000506000896000191660001916815260200190815260200160002060009054906101000a900473ffffffffffffffffffffffffffffffffffffffff16905060006120ab896118bb63ffffffff16565b90506120be89823061462363ffffffff16565b80945081955050506000603b60009054906101000a900473ffffffffffffffffffffffffffffffffffffffff1673ffffffffffffffffffffffffffffffffffffffff16633f1793c3866040518263ffffffff1660e01b815260040180826000191660001916815260200191505060206040518083038186803b1580156121445760006000fd5b505afa158015612159573d600060003e3d6000fd5b505050506040513d60208110156121705760006000fd5b810190808051906020019092919050505090506000600090505b604160005060008573ffffffffffffffffffffffffffffffffffffffff1673ffffffffffffffffffffffffffffffffffffffff168152602001908152602001600020600050805490508110156125e957604160005060008573ffffffffffffffffffffffffffffffffffffffff1673ffffffffffffffffffffffffffffffffffffffff1681526020019081526020016000206000508181548110151561222c57fe5b906000526020600020900160005b9054906101000a900473ffffffffffffffffffffffffffffffffffffffff1698508850604260005060008573ffffffffffffffffffffffffffffffffffffffff1673ffffffffffffffffffffffffffffffffffffffff16815260200190815260200160002060005060008a73ffffffffffffffffffffffffffffffffffffffff1673ffffffffffffffffffffffffffffffffffffffff16815260200190815260200160002060005060008373ffffffffffffffffffffffffffffffffffffffff1673ffffffffffffffffffffffffffffffffffffffff1681526020019081526020016000206000505497508750612354670de0b6b3a76400006123468a8861495190919063ffffffff16565b6149e190919063ffffffff16565b96508650603b60009054906101000a900473ffffffffffffffffffffffffffffffffffffffff1673ffffffffffffffffffffffffffffffffffffffff166353024bae836040518263ffffffff1660e01b8152600401808273ffffffffffffffffffffffffffffffffffffffff1673ffffffffffffffffffffffffffffffffffffffff16815260200191505060206040518083038186803b1580156123f85760006000fd5b505afa15801561240d573d600060003e3d6000fd5b505050506040513d60208110156124245760006000fd5b810190808051906020019092919050505015612557578173ffffffffffffffffffffffffffffffffffffffff1663a9059cbb8a896040518363ffffffff1660e01b8152600401808373ffffffffffffffffffffffffffffffffffffffff1673ffffffffffffffffffffffffffffffffffffffff16815260200182815260200192505050602060405180830381600087803b1580156124c25760006000fd5b505af11580156124d7573d600060003e3d6000fd5b505050506040513d60208110156124ee5760006000fd5b81019080805190602001909291905050501515612556576040517f08c379a00000000000000000000000000000000000000000000000000000000081526004018080602001828103825260418152602001806154ae6041913960600191505060405180910390fd5b5b8873ffffffffffffffffffffffffffffffffffffffff168273ffffffffffffffffffffffffffffffffffffffff168573ffffffffffffffffffffffffffffffffffffffff167fea01a0ea7db0a551b7f4d29fae6934cd6ae327f0cdd83d01ad090fba6bcf92438b8b604051808381526020018281526020019250505060405180910390a45b808060010191505061218a565b5050505050505050505b5b5050565b60003342603f60005060008373ffffffffffffffffffffffffffffffffffffffff1673ffffffffffffffffffffffffffffffffffffffff16815260200190815260200160002060005081909090555060019150612650565b5b5090565b60006000603b60009054906101000a900473ffffffffffffffffffffffffffffffffffffffff1673ffffffffffffffffffffffffffffffffffffffff16630d2020dd6036600050546040518263ffffffff1660e01b815260040180826000191660001916815260200191505060206040518083038186803b1580156126da5760006000fd5b505afa1580156126ef573d600060003e3d6000fd5b505050506040513d60208110156127065760006000fd5b81019080805190602001909291905050509050600061272d8686868561419b63ffffffff16565b905060008273ffffffffffffffffffffffffffffffffffffffff16637ed9db59838930896040518563ffffffff1660e01b81526004018084600019166000191681526020018373ffffffffffffffffffffffffffffffffffffffff1673ffffffffffffffffffffffffffffffffffffffff16815260200182815260200193505050506020604051808303818588803b1580156127c95760006000fd5b505af11580156127de573d600060003e3d6000fd5b50505050506040513d60208110156127f65760006000fd5b8101908080519060200190929190505050905085603c6000506000836000191660001916815260200190815260200160002060006101000a81548173ffffffffffffffffffffffffffffffffffffffff021916908373ffffffffffffffffffffffffffffffffffffffff160217905550603d60005060008773ffffffffffffffffffffffffffffffffffffffff1673ffffffffffffffffffffffffffffffffffffffff1681526020019081526020016000206000508190806001815401808255809150509060018203906000526020600020900160005b909192909190915090600019169055507f8667d3b890097908e74765dd3b76068096309b7c3755b889b9afffc436182b5e878787846040518085600019166000191681526020018473ffffffffffffffffffffffffffffffffffffffff1673ffffffffffffffffffffffffffffffffffffffff168152602001838152602001826000191660001916815260200194505050505060405180910390a1809350505050612976565050505b9392505050565b6000600061299285858561462363ffffffff16565b80925081935050506000603c6000506000876000191660001916815260200190815260200160002060009054906101000a900473ffffffffffffffffffffffffffffffffffffffff1690506129ee838284614a7e63ffffffff16565b5050505b505050565b81612a078161175563ffffffff16565b1515612a5e576040517f08c379a00000000000000000000000000000000000000000000000000000000081526004018080602001828103825260448152602001806156596044913960600191505060405180910390fd5b6000600060006000600090505b604160005060008873ffffffffffffffffffffffffffffffffffffffff1673ffffffffffffffffffffffffffffffffffffffff16815260200190815260200160002060005080549050811015612d9857604160005060008873ffffffffffffffffffffffffffffffffffffffff1673ffffffffffffffffffffffffffffffffffffffff16815260200190815260200160002060005081815481101515612b0d57fe5b906000526020600020900160005b9054906101000a900473ffffffffffffffffffffffffffffffffffffffff1693508350604260005060008873ffffffffffffffffffffffffffffffffffffffff1673ffffffffffffffffffffffffffffffffffffffff16815260200190815260200160002060005060008573ffffffffffffffffffffffffffffffffffffffff1673ffffffffffffffffffffffffffffffffffffffff16815260200190815260200160002060005060008773ffffffffffffffffffffffffffffffffffffffff1673ffffffffffffffffffffffffffffffffffffffff1681526020019081526020016000206000505492508250612cba670de0b6b3a7640000612cac85603460005060008b73ffffffffffffffffffffffffffffffffffffffff1673ffffffffffffffffffffffffffffffffffffffff16815260200190815260200160002060005060008c73ffffffffffffffffffffffffffffffffffffffff1673ffffffffffffffffffffffffffffffffffffffff1681526020019081526020016000206000505461495190919063ffffffff16565b6149e190919063ffffffff16565b915081508373ffffffffffffffffffffffffffffffffffffffff166108fc839081150290604051600060405180830381858888f19350505050158015612d05573d600060003e3d6000fd5b508373ffffffffffffffffffffffffffffffffffffffff168673ffffffffffffffffffffffffffffffffffffffff168873ffffffffffffffffffffffffffffffffffffffff167fea01a0ea7db0a551b7f4d29fae6934cd6ae327f0cdd83d01ad090fba6bcf92438686604051808381526020018281526020019250505060405180910390a45b8080600101915050612a6b565b505050505b5b505050565b603c60005060205280600052604060002060009150909054906101000a900473ffffffffffffffffffffffffffffffffffffffff1681565b6000603360009054906101000a900473ffffffffffffffffffffffffffffffffffffffff169050612e07565b90565b6000603360009054906101000a900473ffffffffffffffffffffffffffffffffffffffff1673ffffffffffffffffffffffffffffffffffffffff163373ffffffffffffffffffffffffffffffffffffffff16149050612e64565b90565b604160005060205281600052604060002060005081815481101515612e8857fe5b906000526020600020900160005b915091509054906101000a900473ffffffffffffffffffffffffffffffffffffffff1681565b612f5481603460005060008573ffffffffffffffffffffffffffffffffffffffff1673ffffffffffffffffffffffffffffffffffffffff16815260200190815260200160002060005060003373ffffffffffffffffffffffffffffffffffffffff1673ffffffffffffffffffffffffffffffffffffffff16815260200190815260200160002060005054614f3590919063ffffffff16565b603460005060008473ffffffffffffffffffffffffffffffffffffffff1673ffffffffffffffffffffffffffffffffffffffff16815260200190815260200160002060005060003373ffffffffffffffffffffffffffffffffffffffff1673ffffffffffffffffffffffffffffffffffffffff1681526020019081526020016000206000508190909055508173ffffffffffffffffffffffffffffffffffffffff1663a9059cbb33836040518363ffffffff1660e01b8152600401808373ffffffffffffffffffffffffffffffffffffffff1673ffffffffffffffffffffffffffffffffffffffff16815260200182815260200192505050602060405180830381600087803b1580156130675760006000fd5b505af115801561307c573d600060003e3d6000fd5b505050506040513d60208110156130935760006000fd5b8101908080519060200190929190505050507f5a619174578cdee6ffdb33d380d4cc19d92b5e8ed08c2d52cfcc89d59d0a78e4823383604051808473ffffffffffffffffffffffffffffffffffffffff1673ffffffffffffffffffffffffffffffffffffffff1681526020018373ffffffffffffffffffffffffffffffffffffffff1673ffffffffffffffffffffffffffffffffffffffff168152602001828152602001935050505060405180910390a15b5050565b6060603e6000508054806020026020016040519081016040528092919081815260200182805480156131d057602002820191906000526020600020905b8160009054906101000a900473ffffffffffffffffffffffffffffffffffffffff1673ffffffffffffffffffffffffffffffffffffffff1681526020019060010190808311613186575b505050505090506131dc565b90565b6060604360005080548060200260200160405190810160405280929190818152602001828054801561326657602002820191906000526020600020905b8160009054906101000a900473ffffffffffffffffffffffffffffffffffffffff1673ffffffffffffffffffffffffffffffffffffffff168152602001906001019080831161321c575b50505050509050613272565b90565b6060603d60005060008373ffffffffffffffffffffffffffffffffffffffff1673ffffffffffffffffffffffffffffffffffffffff16815260200190815260200160002060005080548060200260200160405190810160405280929190818152602001828054801561330d57602002820191906000526020600020905b816000505460001916815260200190600101908083116132f2575b50505050509050613319565b919050565b3342603f60005060008373ffffffffffffffffffffffffffffffffffffffff1673ffffffffffffffffffffffffffffffffffffffff168152602001908152602001600020600050819090905550600073ffffffffffffffffffffffffffffffffffffffff168573ffffffffffffffffffffffffffffffffffffffff16141515156133f3576040517f08c379a000000000000000000000000000000000000000000000000000000000815260040180806020018281038252603f81526020018061569d603f913960400191505060405180910390fd5b60008211151561344e576040517f08c379a00000000000000000000000000000000000000000000000000000000081526004018080602001828103825260448152602001806155d86044913960600191505060405180910390fd5b82518451148015613460575060008451115b15156134b7576040517f08c379a00000000000000000000000000000000000000000000000000000000081526004018080602001828103825260438152602001806156dc6043913960600191505060405180910390fd5b6000600090506000600090505b855181101561370257600073ffffffffffffffffffffffffffffffffffffffff1686828151811015156134f357fe5b602002602001015173ffffffffffffffffffffffffffffffffffffffff161415151561356a576040517f08c379a000000000000000000000000000000000000000000000000000000000815260040180806020018281038252604981526020018061576e6049913960600191505060405180910390fd5b670de0b6b3a7640000858281518110151561358157fe5b6020026020010151111515156135e2576040517f08c379a000000000000000000000000000000000000000000000000000000000815260040180806020018281038252605081526020018061545e6050913960600191505060405180910390fd5b84818151811015156135f057fe5b6020026020010151604260005060003373ffffffffffffffffffffffffffffffffffffffff1673ffffffffffffffffffffffffffffffffffffffff1681526020019081526020016000206000506000888481518110151561364d57fe5b602002602001015173ffffffffffffffffffffffffffffffffffffffff1673ffffffffffffffffffffffffffffffffffffffff16815260200190815260200160002060005060008973ffffffffffffffffffffffffffffffffffffffff1673ffffffffffffffffffffffffffffffffffffffff16815260200190815260200160002060005081909090555084818151811015156136e657fe5b60200260200101518201915081505b80806001019150506134c4565b50670de0b6b3a764000081141515613765576040517f08c379a00000000000000000000000000000000000000000000000000000000081526004018080602001828103825260528152602001806155866052913960600191505060405180910390fd5b82604060005060003373ffffffffffffffffffffffffffffffffffffffff1673ffffffffffffffffffffffffffffffffffffffff16815260200190815260200160002060005081909090555084604160005060003373ffffffffffffffffffffffffffffffffffffffff1673ffffffffffffffffffffffffffffffffffffffff168152602001908152602001600020600050908051906020019061380a92919061538c565b507fd755b4b1c6f89e651f14f05a6de0376c202dddaf96dd4ee3052c42b72f47dbb43387878787604051808673ffffffffffffffffffffffffffffffffffffffff1673ffffffffffffffffffffffffffffffffffffffff1681526020018573ffffffffffffffffffffffffffffffffffffffff1673ffffffffffffffffffffffffffffffffffffffff1681526020018060200180602001848152602001838103835286818151815260200191508051906020019060200280838360005b838110156138e35780820151818401525b6020810190506138c7565b50505050905001838103825285818151815260200191508051906020019060200280838360005b838110156139265780820151818401525b60208101905061390a565b5050505090500197505050505050505060405180910390a1603e6000503390806001815401808255809150509060018203906000526020600020900160005b909192909190916101000a81548173ffffffffffffffffffffffffffffffffffffffff021916908373ffffffffffffffffffffffffffffffffffffffff16021790555050505b5b5050505050565b6034600050602052816000526040600020600050602052806000526040600020600091509150505481565b8273ffffffffffffffffffffffffffffffffffffffff166323b872dd8330846040518463ffffffff1660e01b8152600401808473ffffffffffffffffffffffffffffffffffffffff1673ffffffffffffffffffffffffffffffffffffffff1681526020018373ffffffffffffffffffffffffffffffffffffffff1673ffffffffffffffffffffffffffffffffffffffff1681526020018281526020019350505050602060405180830381600087803b158015613a9a5760006000fd5b505af1158015613aaf573d600060003e3d6000fd5b505050506040513d6020811015613ac65760006000fd5b810190808051906020019092919050505050613b7081603460005060008673ffffffffffffffffffffffffffffffffffffffff1673ffffffffffffffffffffffffffffffffffffffff16815260200190815260200160002060005060008573ffffffffffffffffffffffffffffffffffffffff1673ffffffffffffffffffffffffffffffffffffffff16815260200190815260200160002060005054614fc990919063ffffffff16565b603460005060008573ffffffffffffffffffffffffffffffffffffffff1673ffffffffffffffffffffffffffffffffffffffff16815260200190815260200160002060005060008473ffffffffffffffffffffffffffffffffffffffff1673ffffffffffffffffffffffffffffffffffffffff1681526020019081526020016000206000508190909055507f2158f66ce15490507ec69d9824ffc1a98ef4d4ed22a9bb0419bde6b92c06d05e838383604051808473ffffffffffffffffffffffffffffffffffffffff1673ffffffffffffffffffffffffffffffffffffffff1681526020018373ffffffffffffffffffffffffffffffffffffffff1673ffffffffffffffffffffffffffffffffffffffff168152602001828152602001935050505060405180910390a15b505050565b60606060603d60005060003373ffffffffffffffffffffffffffffffffffffffff1673ffffffffffffffffffffffffffffffffffffffff168152602001908152602001600020600050805480602002602001604051908101604052809291908181526020018280548015613d3a57602002820191906000526020600020905b81600050546000191681526020019060010190808311613d1f575b505050505090508051604051908082528060200260200182016040528015613d715781602001602082028038833980820191505090505b50915081506000600090505b8151811015613e3357603c60005060008383815181101515613d9b57fe5b60200260200101516000191660001916815260200190815260200160002060009054906101000a900473ffffffffffffffffffffffffffffffffffffffff168382815181101515613de857fe5b602002602001019073ffffffffffffffffffffffffffffffffffffffff16908173ffffffffffffffffffffffffffffffffffffffff16815260200150505b8080600101915050613d7d565b50505b90565b600060019054906101000a900460ff1680613e5e5750613e5d61403a63ffffffff16565b5b80613e765750600060009054906101000a900460ff16155b1515613ecd576040517f08c379a000000000000000000000000000000000000000000000000000000000815260040180806020018281038252602e815260200180615740602e913960400191505060405180910390fd5b6000600060019054906101000a900460ff161590508015613f1f576001600060016101000a81548160ff0219169083151502179055506001600060006101000a81548160ff0219169083151502179055505b613f2e8361505d63ffffffff16565b613f3d8261131763ffffffff16565b5b8015613f60576000600060016101000a81548160ff0219169083151502179055505b505b5050565b613f74612e0a63ffffffff16565b1515613feb576040517f08c379a00000000000000000000000000000000000000000000000000000000081526004018080602001828103825260208152602001807f4f776e61626c653a2063616c6c6572206973206e6f7420746865206f776e657281526020015060200191505060405180910390fd5b613ffa8161405263ffffffff16565b5b5b50565b604260005060205282600052604060002060005060205281600052604060002060005060205280600052604060002060009250925050505481565b60006000303b90506000811491505061404f56505b90565b600073ffffffffffffffffffffffffffffffffffffffff168173ffffffffffffffffffffffffffffffffffffffff16141515156140da576040517f08c379a00000000000000000000000000000000000000000000000000000000081526004018080602001828103825260268152602001806155606026913960400191505060405180910390fd5b8073ffffffffffffffffffffffffffffffffffffffff16603360009054906101000a900473ffffffffffffffffffffffffffffffffffffffff1673ffffffffffffffffffffffffffffffffffffffff167f8be0079c531659141344cd1fd0a4f28419497f9722a3daafe3b4186f6b6457e060405160405180910390a380603360006101000a81548173ffffffffffffffffffffffffffffffffffffffff021916908373ffffffffffffffffffffffffffffffffffffffff1602179055505b50565b60006000603b60009054906101000a900473ffffffffffffffffffffffffffffffffffffffff1673ffffffffffffffffffffffffffffffffffffffff16633f1793c3876040518263ffffffff1660e01b815260040180826000191660001916815260200191505060206040518083038186803b15801561421b5760006000fd5b505afa158015614230573d600060003e3d6000fd5b505050506040513d60208110156142475760006000fd5b81019080805190602001909291905050509050603b60009054906101000a900473ffffffffffffffffffffffffffffffffffffffff1673ffffffffffffffffffffffffffffffffffffffff166353024bae826040518263ffffffff1660e01b8152600401808273ffffffffffffffffffffffffffffffffffffffff1673ffffffffffffffffffffffffffffffffffffffff16815260200191505060206040518083038186803b1580156142fa5760006000fd5b505afa15801561430f573d600060003e3d6000fd5b505050506040513d60208110156143265760006000fd5b8101908080519060200190929190505050156145b6578073ffffffffffffffffffffffffffffffffffffffff166323b872dd8630876040518463ffffffff1660e01b8152600401808473ffffffffffffffffffffffffffffffffffffffff1673ffffffffffffffffffffffffffffffffffffffff1681526020018373ffffffffffffffffffffffffffffffffffffffff1673ffffffffffffffffffffffffffffffffffffffff1681526020018281526020019350505050602060405180830381600087803b1580156143f85760006000fd5b505af115801561440d573d600060003e3d6000fd5b505050506040513d60208110156144245760006000fd5b8101908080519060200190929190505050151561448c576040517f08c379a000000000000000000000000000000000000000000000000000000000815260040180806020018281038252603d8152602001806157b7603d913960400191505060405180910390fd5b8073ffffffffffffffffffffffffffffffffffffffff1663095ea7b384866040518363ffffffff1660e01b8152600401808373ffffffffffffffffffffffffffffffffffffffff1673ffffffffffffffffffffffffffffffffffffffff16815260200182815260200192505050602060405180830381600087803b1580156145145760006000fd5b505af1158015614529573d600060003e3d6000fd5b505050506040513d60208110156145405760006000fd5b810190808051906020019092919050505015156145a8576040517f08c379a000000000000000000000000000000000000000000000000000000000815260040180806020018281038252603d81526020018061561c603d913960400191505060405180910390fd5b600091505061461b56614619565b3484141515614610576040517f08c379a00000000000000000000000000000000000000000000000000000000081526004018080602001828103825260488152602001806158336048913960600191505060405180910390fd5b8391505061461b565b505b949350505050565b600060006000603b60009054906101000a900473ffffffffffffffffffffffffffffffffffffffff1673ffffffffffffffffffffffffffffffffffffffff166343aee400876040518263ffffffff1660e01b815260040180826000191660001916815260200191505060206040518083038186803b1580156146a55760006000fd5b505afa1580156146ba573d600060003e3d6000fd5b505050506040513d60208110156146d15760006000fd5b810190808051906020019092919050505090506000603b60009054906101000a900473ffffffffffffffffffffffffffffffffffffffff1673ffffffffffffffffffffffffffffffffffffffff16630d2020dd6036600050546040518263ffffffff1660e01b815260040180826000191660001916815260200191505060206040518083038186803b1580156147675760006000fd5b505afa15801561477c573d600060003e3d6000fd5b505050506040513d60208110156147935760006000fd5b8101908080519060200190929190505050905060008173ffffffffffffffffffffffffffffffffffffffff1663112ad90b8989896040518463ffffffff1660e01b81526004018084600019166000191681526020018381526020018273ffffffffffffffffffffffffffffffffffffffff1673ffffffffffffffffffffffffffffffffffffffff1681526020019350505050602060405180830381600087803b1580156148405760006000fd5b505af1158015614855573d600060003e3d6000fd5b505050506040513d602081101561486c5760006000fd5b810190808051906020019092919050505090507f7029c547dc32802e528b6770662e27ad50f2fb85883fe19b9107a73afa6e2ef68882603c60005060008c6000191660001916815260200190815260200160002060009054906101000a900473ffffffffffffffffffffffffffffffffffffffff166040518084600019166000191681526020018381526020018273ffffffffffffffffffffffffffffffffffffffff1673ffffffffffffffffffffffffffffffffffffffff168152602001935050505060405180910390a1828194509450505050614949565050505b935093915050565b6000600083141561496557600090506149db565b6000828402905082848281151561497857fe5b041415156149d1576040517f08c379a000000000000000000000000000000000000000000000000000000000815260040180806020018281038252602181526020018061571f6021913960400191505060405180910390fd5b809150506149db56505b92915050565b6000600082111515614a5e576040517f08c379a000000000000000000000000000000000000000000000000000000000815260040180806020018281038252601a8152602001807f536166654d6174683a206469766973696f6e206279207a65726f00000000000081526020015060200191505060405180910390fd5b60008284811515614a6b57fe5b04905080915050614a7856505b92915050565b6000603b60009054906101000a900473ffffffffffffffffffffffffffffffffffffffff1673ffffffffffffffffffffffffffffffffffffffff16633f1793c3856040518263ffffffff1660e01b815260040180826000191660001916815260200191505060206040518083038186803b158015614afc5760006000fd5b505afa158015614b11573d600060003e3d6000fd5b505050506040513d6020811015614b285760006000fd5b81019080805190602001909291905050509050603b60009054906101000a900473ffffffffffffffffffffffffffffffffffffffff1673ffffffffffffffffffffffffffffffffffffffff166353024bae826040518263ffffffff1660e01b8152600401808273ffffffffffffffffffffffffffffffffffffffff1673ffffffffffffffffffffffffffffffffffffffff16815260200191505060206040518083038186803b158015614bdb5760006000fd5b505afa158015614bf0573d600060003e3d6000fd5b505050506040513d6020811015614c075760006000fd5b810190808051906020019092919050505015614e11578073ffffffffffffffffffffffffffffffffffffffff1663a9059cbb84846040518363ffffffff1660e01b8152600401808373ffffffffffffffffffffffffffffffffffffffff1673ffffffffffffffffffffffffffffffffffffffff16815260200182815260200192505050602060405180830381600087803b158015614ca55760006000fd5b505af1158015614cba573d600060003e3d6000fd5b505050506040513d6020811015614cd15760006000fd5b81019080805190602001909291905050501515614d39576040517f08c379a000000000000000000000000000000000000000000000000000000000815260040180806020018281038252603f8152602001806157f4603f913960400191505060405180910390fd5b7f811818cc81106965711d42e377725a1ae3815b6175654fc80aa44e7a6821b77f81308585604051808573ffffffffffffffffffffffffffffffffffffffff1673ffffffffffffffffffffffffffffffffffffffff1681526020018473ffffffffffffffffffffffffffffffffffffffff1673ffffffffffffffffffffffffffffffffffffffff1681526020018373ffffffffffffffffffffffffffffffffffffffff1673ffffffffffffffffffffffffffffffffffffffff16815260200182815260200194505050505060405180910390a1614f2e565b8273ffffffffffffffffffffffffffffffffffffffff166108fc839081150290604051600060405180830381858888f19350505050158015614e58573d600060003e3d6000fd5b507f811818cc81106965711d42e377725a1ae3815b6175654fc80aa44e7a6821b77f6000308585604051808573ffffffffffffffffffffffffffffffffffffffff1673ffffffffffffffffffffffffffffffffffffffff1681526020018473ffffffffffffffffffffffffffffffffffffffff1673ffffffffffffffffffffffffffffffffffffffff1681526020018373ffffffffffffffffffffffffffffffffffffffff1673ffffffffffffffffffffffffffffffffffffffff16815260200182815260200194505050505060405180910390a15b505b505050565b6000828211151515614fb2576040517f08c379a000000000000000000000000000000000000000000000000000000000815260040180806020018281038252601e8152602001807f536166654d6174683a207375627472616374696f6e206f766572666c6f77000081526020015060200191505060405180910390fd5b6000828403905080915050614fc356505b92915050565b60006000828401905083811015151561504d576040517f08c379a000000000000000000000000000000000000000000000000000000000815260040180806020018281038252601b8152602001807f536166654d6174683a206164646974696f6e206f766572666c6f77000000000081526020015060200191505060405180910390fd5b8091505061505756505b92915050565b600060019054906101000a900460ff1680615082575061508161403a63ffffffff16565b5b8061509a5750600060009054906101000a900460ff16155b15156150f1576040517f08c379a000000000000000000000000000000000000000000000000000000000815260040180806020018281038252602e815260200180615740602e913960400191505060405180910390fd5b6000600060019054906101000a900460ff161590508015615143576001600060016101000a81548160ff0219169083151502179055506001600060006101000a81548160ff0219169083151502179055505b81603b60006101000a81548173ffffffffffffffffffffffffffffffffffffffff021916908373ffffffffffffffffffffffffffffffffffffffff16021790555060405180807f41646d696e436f6e747261637400000000000000000000000000000000000000815260200150600d019050604051809103902060356000508190906000191690555060405180807f506f7274666f6c696f4d616e61676572436f6e747261637400000000000000008152602001506018019050604051809103902060366000508190906000191690555060405180807f5061796572436f6e747261637400000000000000000000000000000000000000815260200150600d019050604051809103902060376000508190906000191690555060405180807f524159546f6b656e436f6e7472616374000000000000000000000000000000008152602001506010019050604051809103902060386000508190906000191690555060405180807f4e415643616c63756c61746f72436f6e747261637400000000000000000000008152602001506015019050604051809103902060396000508190906000191690555060405180806154ef602f9139602f0190506040518091039020603a60006101000a81548163ffffffff021916908360e01c02179055506000603a60046101000a81548173ffffffffffffffffffffffffffffffffffffffff021916908373ffffffffffffffffffffffffffffffffffffffff1602179055505b8015615387576000600060016101000a81548160ff0219169083151502179055505b505b50565b828054828255906000526020600020908101928215615405579160200282015b828111156154045782518260006101000a81548173ffffffffffffffffffffffffffffffffffffffff021916908373ffffffffffffffffffffffffffffffffffffffff160217905550916020019190600101906153ac565b5b5090506154129190615416565b5090565b61545a9190615420565b8082111561545657600081816101000a81549073ffffffffffffffffffffffffffffffffffffffff021916905550600101615420565b5090565b9056fe235265636f766572794c6f676963207365745265636f76657279536865657428293a2050657263656e74616765206d75737420626520736d616c6c6572207468656e20312065746865722831303025292344654669437573746f64795265676973747279207265636f76657252415928293a205472616e73666572206f6620455243323020746f6b656e206661696c65646f6e455243373231526563656976656428616464726573732c616464726573732c75696e743235362c6279746573292344654669437573746f6479526567697374727920616464537570706f72746564546f6b656e28293a20546f6b656e2077617320616c72656164792061646465642e4f776e61626c653a206e6577206f776e657220697320746865207a65726f2061646472657373235265636f766572794c6f676963207365745265636f76657279536865657428293a2053756d206f6620616c6c207468652070657263656e7461676573206973206e6f742031206574686572283130302529235265636f766572794c6f676963207365745265636f76657279536865657428293a20446561646c696e65206d75737420626520626967676572207468616e207a65726f23524159496e746567726174696f6e2076657269667956616c756528293a20417070726f76616c206f6620455243323020546f6b656e206661696c6564235265636f766572794c6f6769632069665265636f76657261626c652829206d6f6469666965723a20436f6e7472616374206973206e6f74207265636f76657261626c65235265636f766572794c6f676963207365745265636f76657279536865657428293a2041737365742063616e6e6f74206265207a65726f2061646472657373235265636f766572794c6f676963207365745265636f76657279536865657428293a204c656e67746820696e636f72726563742e204461746120636f72727570746564536166654d6174683a206d756c7469706c69636174696f6e206f766572666c6f77436f6e747261637420696e7374616e63652068617320616c7265616479206265656e20696e697469616c697a6564235265636f766572794c6f676963207365745265636f76657279536865657428293a205265636f766572792077616c6c65742063616e6e6f74206265207a65726f206164647265737323524159496e746567726174696f6e2076657269667956616c756528293a205472616e73666572206f6620455243323020546f6b656e206661696c656423524159496e746567726174696f6e207472616e7366657246756e647328293a205472616e73666572206f6620455243323020746f6b656e206661696c656423524159496e746567726174696f6e2076657269667956616c756528293a204554482076616c75652073656e7420646f6573206e6f74206d6174636820696e7075742076616c7565a265627a7a7231582060ecb70306cce4bb26f2bd4168dbdc01a8170f5ea58c87795adca90d9bbe227464736f6c634300050c0032",
  "compiler": {
    "name": "solc",
    "version": "0.5.12+commit.7709ece9.Emscripten.clang",
    "optimizer": {},
    "evmVersion": "constantinople"
  }
}