{
  "contractName": "NAVCalculator",
  "abi": [
    {
      "constant": true,
      "inputs": [],
      "name": "deprecated",
      "outputs": [
        {
          "name": "",
          "type": "bool"
        }
      ],
      "payable": false,
      "stateMutability": "view",
      "type": "function"
    },
    {
      "constant": true,
      "inputs": [],
      "name": "_storage",
      "outputs": [
        {
          "name": "",
          "type": "address"
        }
      ],
      "payable": false,
      "stateMutability": "view",
      "type": "function"
    },
    {
      "inputs": [
        {
          "name": "__storage",
          "type": "address"
        }
      ],
      "payable": false,
      "stateMutability": "nonpayable",
      "type": "constructor"
    },
    {
      "constant": false,
      "inputs": [
        {
          "name": "portfolioId",
          "type": "bytes32"
        },
        {
          "name": "yield",
          "type": "uint256"
        }
      ],
      "name": "updateYield",
      "outputs": [],
      "payable": false,
      "stateMutability": "nonpayable",
      "type": "function"
    },
    {
      "constant": false,
      "inputs": [
        {
          "name": "value",
          "type": "bool"
        }
      ],
      "name": "setDeprecated",
      "outputs": [],
      "payable": false,
      "stateMutability": "nonpayable",
      "type": "function"
    },
    {
      "constant": true,
      "inputs": [
        {
          "name": "portfolioId",
          "type": "bytes32"
        },
        {
          "name": "unrealizedYield",
          "type": "uint256"
        }
      ],
      "name": "getPricePerShare",
      "outputs": [
        {
          "name": "",
          "type": "uint256"
        }
      ],
      "payable": false,
      "stateMutability": "view",
      "type": "function"
    },
    {
      "constant": true,
      "inputs": [
        {
          "name": "portfolioId",
          "type": "bytes32"
        },
        {
          "name": "unrealizedYield",
          "type": "uint256"
        }
      ],
      "name": "getTotalYieldPerShare",
      "outputs": [
        {
          "name": "",
          "type": "uint256"
        }
      ],
      "payable": false,
      "stateMutability": "view",
      "type": "function"
    },
    {
      "constant": true,
      "inputs": [
        {
          "name": "unrealizedYield",
          "type": "uint256"
        },
        {
          "name": "realizedYield",
          "type": "uint256"
        },
        {
          "name": "withdrawnYield",
          "type": "uint256"
        }
      ],
      "name": "getTotalYield",
      "outputs": [
        {
          "name": "",
          "type": "uint256"
        }
      ],
      "payable": false,
      "stateMutability": "pure",
      "type": "function"
    },
    {
      "constant": true,
      "inputs": [
        {
          "name": "portfolioId",
          "type": "bytes32"
        }
      ],
      "name": "getPortfolioUnrealizedYield",
      "outputs": [
        {
          "name": "",
          "type": "uint256"
        }
      ],
      "payable": false,
      "stateMutability": "view",
      "type": "function"
    },
    {
      "constant": true,
      "inputs": [
        {
          "name": "portfolioId",
          "type": "bytes32"
        },
        {
          "name": "amountToWithdraw",
          "type": "uint256"
        }
      ],
      "name": "getOpportunityUnrealizedYield",
      "outputs": [
        {
          "name": "",
          "type": "uint256"
        }
      ],
      "payable": false,
      "stateMutability": "view",
      "type": "function"
    },
    {
      "constant": true,
      "inputs": [
        {
          "name": "portfolioId",
          "type": "bytes32"
        },
        {
          "name": "opportunityId",
          "type": "bytes32"
        },
        {
          "name": "amountToWithdraw",
          "type": "uint256"
        }
      ],
      "name": "getOpportunityYield",
      "outputs": [
        {
          "name": "",
          "type": "uint256"
        }
      ],
      "payable": false,
      "stateMutability": "view",
      "type": "function"
    },
    {
      "constant": true,
      "inputs": [
        {
          "name": "portfolioId",
          "type": "bytes32"
        },
        {
          "name": "opportunityId",
          "type": "bytes32"
        }
      ],
      "name": "getOpportunityBalance",
      "outputs": [
        {
          "name": "",
          "type": "uint256"
        }
      ],
      "payable": false,
      "stateMutability": "view",
      "type": "function"
    },
    {
      "constant": true,
      "inputs": [
        {
          "name": "principalToken",
          "type": "address"
        },
        {
          "name": "value",
          "type": "uint256"
        }
      ],
      "name": "calculatePayableAmount",
      "outputs": [
        {
          "name": "",
          "type": "bool"
        },
        {
          "name": "",
          "type": "uint256"
        }
      ],
      "payable": false,
      "stateMutability": "view",
      "type": "function"
    },
    {
      "constant": true,
      "inputs": [
        {
          "name": "tokenId",
          "type": "bytes32"
        },
        {
          "name": "origCaller",
          "type": "address"
        },
        {
          "name": "msgSender",
          "type": "address"
        }
      ],
      "name": "onlyTokenOwner",
      "outputs": [
        {
          "name": "",
          "type": "address"
        }
      ],
      "payable": false,
      "stateMutability": "view",
      "type": "function"
    },
    {
      "constant": true,
      "inputs": [
        {
          "name": "typeId",
          "type": "bytes32"
        },
        {
          "name": "tokenId",
          "type": "bytes32"
        }
      ],
      "name": "getTokenValue",
      "outputs": [
        {
          "name": "",
          "type": "uint256"
        },
        {
          "name": "",
          "type": "uint256"
        }
      ],
      "payable": false,
      "stateMutability": "view",
      "type": "function"
    },
    {
      "constant": true,
      "inputs": [
        {
          "name": "portfolioId",
          "type": "bytes32"
        }
      ],
      "name": "getPortfolioPricePerShare",
      "outputs": [
        {
          "name": "",
          "type": "uint256"
        }
      ],
      "payable": false,
      "stateMutability": "view",
      "type": "function"
    },
    {
      "constant": true,
      "inputs": [
        {
          "name": "opportunityId",
          "type": "bytes32"
        }
      ],
      "name": "getOpportunityPricePerShare",
      "outputs": [
        {
          "name": "",
          "type": "uint256"
        }
      ],
      "payable": false,
      "stateMutability": "view",
      "type": "function"
    }
  ],
  "bytecode": "0x608060405234801561001057600080fd5b5060405160208061242f833981016040525160008054600160a060020a03909216600160a060020a03199092169190911790556123dd806100526000396000f3006080604052600436106100cc5763ffffffff60e060020a6000350416630e136b1981146100d15780632cc7b6f7146100fa5780634c7105be1461012e578063660dfdac1461015e5780637b5379a1146101765780637c1e2f4c1461019157806383f3c4c8146101a95780638ef41a4f146101c7578063beb7edbf1461020d578063c3fb90d61461022a578063c840e0d61461023f578063d848dee71461027e578063d84cbf8914610298578063d9bdc6be146102b3578063ed1d6a6c146102cb578063f85e2016146102e6575b600080fd5b3480156100dd57600080fd5b506100e6610301565b604080519115158252519081900360200190f35b34801561010657600080fd5b50610115600435602435610311565b6040805192835260208301919091528051918290030190f35b34801561013a57600080fd5b5061014c6004356024356044356107ea565b60408051918252519081900360200190f35b34801561016a57600080fd5b5061014c6004356109c7565b34801561018257600080fd5b5061014c600435602435610b99565b34801561019d57600080fd5b5061014c600435610f2a565b3480156101b557600080fd5b5061014c60043560243560443561110d565b3480156101d357600080fd5b506101f1600435600160a060020a036024358116906044351661111c565b60408051600160a060020a039092168252519081900360200190f35b34801561021957600080fd5b50610228600435602435611633565b005b34801561023657600080fd5b506101f1611d5c565b34801561024b57600080fd5b50610263600160a060020a0360043516602435611d6b565b60408051921515835260208301919091528051918290030190f35b34801561028a57600080fd5b506102286004351515611e9f565b3480156102a457600080fd5b5061014c600435602435612023565b3480156102bf57600080fd5b5061014c60043561215e565b3480156102d757600080fd5b5061014c600435602435612176565b3480156102f257600080fd5b5061014c60043560243561222f565b60005460a060020a900460ff1681565b60008054604080517f524159546f6b656e436f6e7472616374000000000000000000000000000000008152815190819003601001812060e060020a630d2020dd028252600482015290518392839283928392600160a060020a031691630d2020dd91602480830192602092919082900301818787803b15801561039357600080fd5b505af11580156103a7573d6000803e3d6000fd5b505050506040513d60208110156103bd57600080fd5b5051604080517f56fa44a6000000000000000000000000000000000000000000000000000000008152600481018990529051600160a060020a03909216916356fa44a6916024808201926020929091908290030181600087803b15801561042357600080fd5b505af1158015610437573d6000803e3d6000fd5b505050506040513d602081101561044d57600080fd5b5051156104645761045d8761215e565b9250610622565b60008054604080517f4f70706f7274756e697479546f6b656e436f6e747261637400000000000000008152815190819003601801812060e060020a630d2020dd02825260048201529051600160a060020a0390921692630d2020dd926024808401936020939083900390910190829087803b1580156104e257600080fd5b505af11580156104f6573d6000803e3d6000fd5b505050506040513d602081101561050c57600080fd5b5051604080517f56fa44a6000000000000000000000000000000000000000000000000000000008152600481018990529051600160a060020a03909216916356fa44a6916024808201926020929091908290030181600087803b15801561057257600080fd5b505af1158015610586573d6000803e3d6000fd5b505050506040513d602081101561059c57600080fd5b5051156105ac5761045d87610f2a565b6040805160e560020a62461bcd02815260206004820152602f60248201527f234e415643616c63756c61746f7220676574546f6b656e56616c756528293a2060448201527f496e76616c696420746f6b656e49640000000000000000000000000000000000606482015290519081900360840190fd5b60008054604080517f3f1793c3000000000000000000000000000000000000000000000000000000008152600481018b90529051600160a060020a039092169263234817e7928492633f1793c39260248083019360209390929083900390910190829087803b15801561069457600080fd5b505af11580156106a8573d6000803e3d6000fd5b505050506040513d60208110156106be57600080fd5b50516040805160e060020a63ffffffff8516028152600160a060020a0390921660048301525160248083019260209291908290030181600087803b15801561070557600080fd5b505af1158015610719573d6000803e3d6000fd5b505050506040513d602081101561072f57600080fd5b505160008054604080517fd400d43a000000000000000000000000000000000000000000000000000000008152600481018c9052602481018b905290519395508593600160a060020a039092169263d400d43a926044808401936020939083900390910190829087803b1580156107a557600080fd5b505af11580156107b9573d6000803e3d6000fd5b505050506040513d60208110156107cf57600080fd5b505184028115156107dc57fe5b049792965091945050505050565b6000805481908190819060a060020a900460ff1615610869576040805160e560020a62461bcd02815260206004820152605d602482015260008051602061239283398151915260448201526000805160206123528339815191526064820152600080516020612372833981519152608482015290519081900360a40190fd5b60008054604080517fc80a2929000000000000000000000000000000000000000000000000000000008152600481018b9052602481018a90529051600160a060020a039092169263c80a2929926044808401936020939083900390910190829087803b1580156108d857600080fd5b505af11580156108ec573d6000803e3d6000fd5b505050506040513d602081101561090257600080fd5b505160008054604080517f2d577a50000000000000000000000000000000000000000000000000000000008152600481018b9052602481018590529051939650600160a060020a0390911692632d577a5092604480840193602093929083900390910190829087803b15801561097757600080fd5b505af115801561098b573d6000803e3d6000fd5b505050506040513d60208110156109a157600080fd5b505191508482106109b557600093506109bd565b508084039250825b5050509392505050565b60008054819060609082908190819060a060020a900460ff1615610a4b576040805160e560020a62461bcd02815260206004820152605d602482015260008051602061239283398151915260448201526000805160206123528339815191526064820152600080516020612372833981519152608482015290519081900360a40190fd5b60008054604080517f69a4e7ac000000000000000000000000000000000000000000000000000000008152600481018b90529051600160a060020a03909216926369a4e7ac9260248084019382900301818387803b158015610aac57600080fd5b505af1158015610ac0573d6000803e3d6000fd5b505050506040513d6000823e601f3d908101601f191682016040526020811015610ae957600080fd5b810190808051640100000000811115610b0157600080fd5b82016020810184811115610b1457600080fd5b8151856020820283011164010000000082111715610b3157600080fd5b5090975060009650505050505b8351831015610b8e578383815181101515610b5557fe5b906020019060200201519150610b6b8783612023565b90508015610b8357610b7e8783836107ea565b850194505b600190920191610b3e565b509295945050505050565b600080548190819081908190819060a060020a900460ff1615610c1c576040805160e560020a62461bcd02815260206004820152605d602482015260008051602061239283398151915260448201526000805160206123528339815191526064820152600080516020612372833981519152608482015290519081900360a40190fd5b60008054604080517f1843b73c000000000000000000000000000000000000000000000000000000008152600481018c90529051600160a060020a0390921692631843b73c926024808401936020939083900390910190829087803b158015610c8457600080fd5b505af1158015610c98573d6000803e3d6000fd5b505050506040513d6020811015610cae57600080fd5b505194506000851115610f1a5760008054604080517f39cbe718000000000000000000000000000000000000000000000000000000008152600481018c90529051600160a060020a03909216926339cbe718926024808401936020939083900390910190829087803b158015610d2357600080fd5b505af1158015610d37573d6000803e3d6000fd5b505050506040513d6020811015610d4d57600080fd5b505160008054604080517f87d985b0000000000000000000000000000000000000000000000000000000008152600481018d90529051939750600160a060020a03909116926387d985b092602480840193602093929083900390910190829087803b158015610dbb57600080fd5b505af1158015610dcf573d6000803e3d6000fd5b505050506040513d6020811015610de557600080fd5b50519250610df487858561110d565b60008054604080517f3f1793c3000000000000000000000000000000000000000000000000000000008152600481018d90529051939550600160a060020a039091169263234817e7928492633f1793c39260248083019360209383900390910190829087803b158015610e6657600080fd5b505af1158015610e7a573d6000803e3d6000fd5b505050506040513d6020811015610e9057600080fd5b50516040805160e060020a63ffffffff8516028152600160a060020a0390921660048301525160248083019260209291908290030181600087803b158015610ed757600080fd5b505af1158015610eeb573d6000803e3d6000fd5b505050506040513d6020811015610f0157600080fd5b5051905084828202811515610f1257fe5b049550610f1f565b600095505b505050505092915050565b60008054604080517feeb7b248000000000000000000000000000000000000000000000000000000008152600481018590529051839283928392600160a060020a039092169163eeb7b2489160248082019260209290919082900301818787803b158015610f9757600080fd5b505af1158015610fab573d6000803e3d6000fd5b505050506040513d6020811015610fc157600080fd5b505160008054604080517f3f1793c3000000000000000000000000000000000000000000000000000000008152600481018a90529051939650600160a060020a0390911692633f1793c392602480840193602093929083900390910190829087803b15801561102f57600080fd5b505af1158015611043573d6000803e3d6000fd5b505050506040513d602081101561105957600080fd5b5051604080517ff8b2cb4f000000000000000000000000000000000000000000000000000000008152600160a060020a03808416600483015291519294506110f892889287169163f8b2cb4f9160248083019260209291908290030181600087803b1580156110c757600080fd5b505af11580156110db573d6000803e3d6000fd5b505050506040513d60208110156110f157600080fd5b5051612176565b9050611104858261222f565b95945050505050565b600080611104848601846122c9565b6000805460a060020a900460ff1615611195576040805160e560020a62461bcd02815260206004820152605d602482015260008051602061239283398151915260448201526000805160206123528339815191526064820152600080516020612372833981519152608482015290519081900360a40190fd5b60008054604080517f5061796572436f6e7472616374000000000000000000000000000000000000008152815190819003600d01812060e060020a630d2020dd02825260048201529051600160a060020a0390921692630d2020dd926024808401936020939083900390910190829087803b15801561121357600080fd5b505af1158015611227573d6000803e3d6000fd5b505050506040513d602081101561123d57600080fd5b5051600160a060020a03838116911614156114415760008054604080517f524159546f6b656e436f6e7472616374000000000000000000000000000000008152815190819003601001812060e060020a630d2020dd02825260048201529051600160a060020a0380881694931692630d2020dd92602480820193602093909283900390910190829087803b1580156112d457600080fd5b505af11580156112e8573d6000803e3d6000fd5b505050506040513d60208110156112fe57600080fd5b5051604080517f6352211e000000000000000000000000000000000000000000000000000000008152600481018890529051600160a060020a0390921691636352211e916024808201926020929091908290030181600087803b15801561136457600080fd5b505af1158015611378573d6000803e3d6000fd5b505050506040513d602081101561138e57600080fd5b5051600160a060020a03161461143a576040805160e560020a62461bcd02815260206004820152604f60248201527f23524159206f6e6c79546f6b656e4f776e6572206d6f6469666965723a20546860448201527f65206f726967696e616c2063616c6c6572206973206e6f7420746865206f776e60648201527f6572206f662074686520746f6b656e0000000000000000000000000000000000608482015290519081900360a40190fd5b508161162c565b60008054604080517f524159546f6b656e436f6e7472616374000000000000000000000000000000008152815190819003601001812060e060020a630d2020dd02825260048201529051600160a060020a0380871694931692630d2020dd92602480820193602093909283900390910190829087803b1580156114c357600080fd5b505af11580156114d7573d6000803e3d6000fd5b505050506040513d60208110156114ed57600080fd5b5051604080517f6352211e000000000000000000000000000000000000000000000000000000008152600481018890529051600160a060020a0390921691636352211e916024808201926020929091908290030181600087803b15801561155357600080fd5b505af1158015611567573d6000803e3d6000fd5b505050506040513d602081101561157d57600080fd5b5051600160a060020a031614611629576040805160e560020a62461bcd02815260206004820152604660248201527f23524159206f6e6c79546f6b656e4f776e6572206d6f6469666965723a20546860448201527f652063616c6c6572206973206e6f7420746865206f776e6572206f662074686560648201527f20746f6b656e0000000000000000000000000000000000000000000000000000608482015290519081900360a40190fd5b50805b9392505050565b60008054819060a060020a900460ff16156116ae576040805160e560020a62461bcd02815260206004820152605d602482015260008051602061239283398151915260448201526000805160206123528339815191526064820152600080516020612372833981519152608482015290519081900360a40190fd5b60008054604080517feeb7b2480000000000000000000000000000000000000000000000000000000081526004810188905290518793600160a060020a039093169263eeb7b24892602480820193602093909283900390910190829087803b15801561171957600080fd5b505af115801561172d573d6000803e3d6000fd5b505050506040513d602081101561174357600080fd5b5051600160a060020a031633148061180c575060008054604080517f4f70706f7274756e6974794d616e61676572436f6e74726163740000000000008152815190819003601a01812060e060020a630d2020dd02825260048201529051600160a060020a0390921692630d2020dd926024808401936020939083900390910190829087803b1580156117d457600080fd5b505af11580156117e8573d6000803e3d6000fd5b505050506040513d60208110156117fe57600080fd5b5051600160a060020a031633145b15156118ae576040805160e560020a62461bcd02815260206004820152605f60248201527f234e415643616c63756c61746f72206f6e6c79506f7274666f6c696f4f724f7060448201527f706f7274756e6974794d616e61676572204d6f6469666965723a20546869732060648201527f6973206e6f7420612076616c696420636f6e74726163742063616c6c696e6700608482015290519081900360a40190fd5b60008054604080517f87d985b0000000000000000000000000000000000000000000000000000000008152600481018990529051600160a060020a03909216926387d985b0926024808401936020939083900390910190829087803b15801561191657600080fd5b505af115801561192a573d6000803e3d6000fd5b505050506040513d602081101561194057600080fd5b5051925083831015611c275760008054604080517f53746f7261676557726170706572436f6e7472616374000000000000000000008152815190819003601601812060e060020a630d2020dd028252600482015290518688039550600160a060020a0390921692630d2020dd926024808401936020939083900390910190829087803b1580156119cf57600080fd5b505af11580156119e3573d6000803e3d6000fd5b505050506040513d60208110156119f957600080fd5b5051604080517fc40a302e000000000000000000000000000000000000000000000000000000008152600481018890526000602482018190529151600160a060020a039093169263c40a302e9260448084019391929182900301818387803b158015611a6457600080fd5b505af1158015611a78573d6000803e3d6000fd5b505060008054604080517f53746f7261676557726170706572436f6e7472616374000000000000000000008152815190819003601601812060e060020a630d2020dd02825260048201529051600160a060020a039092169450630d2020dd93506024808201936020939283900390910190829087803b158015611afa57600080fd5b505af1158015611b0e573d6000803e3d6000fd5b505050506040513d6020811015611b2457600080fd5b505160008054604080517f39cbe718000000000000000000000000000000000000000000000000000000008152600481018a90529051600160a060020a0394851694632391e9f5948b9489949216926339cbe718926024808201936020939283900390910190829087803b158015611b9b57600080fd5b505af1158015611baf573d6000803e3d6000fd5b505050506040513d6020811015611bc557600080fd5b50516040805160e060020a63ffffffff871602815260048101949094529101602483015251604480830192600092919082900301818387803b158015611c0a57600080fd5b505af1158015611c1e573d6000803e3d6000fd5b50505050611d55565b60008054604080517f53746f7261676557726170706572436f6e7472616374000000000000000000008152815190819003601601812060e060020a630d2020dd02825260048201529051600160a060020a0390921692630d2020dd926024808401936020939083900390910190829087803b158015611ca557600080fd5b505af1158015611cb9573d6000803e3d6000fd5b505050506040513d6020811015611ccf57600080fd5b5051604080517fc40a302e0000000000000000000000000000000000000000000000000000000081526004810188905286860360248201529051600160a060020a039092169163c40a302e9160448082019260009290919082900301818387803b158015611d3c57600080fd5b505af1158015611d50573d6000803e3d6000fd5b505050505b5050505050565b600054600160a060020a031681565b6000805481908190819060a060020a900460ff1615611dea576040805160e560020a62461bcd02815260206004820152605d602482015260008051602061239283398151915260448201526000805160206123528339815191526064820152600080516020612372833981519152608482015290519081900360a40190fd5b60008054604080517f53024bae000000000000000000000000000000000000000000000000000000008152600160a060020a038a81166004830152915191909216926353024bae92602480820193602093909283900390910190829087803b158015611e5557600080fd5b505af1158015611e69573d6000803e3d6000fd5b505050506040513d6020811015611e7f57600080fd5b505191508115611e9157506000611e94565b50835b909590945092505050565b60008054604080517f41646d696e436f6e7472616374000000000000000000000000000000000000008152815190819003600d01812060e060020a630d2020dd02825260048201529051600160a060020a0390921692630d2020dd926024808401936020939083900390910190829087803b158015611f1d57600080fd5b505af1158015611f31573d6000803e3d6000fd5b505050506040513d6020811015611f4757600080fd5b5051600160a060020a03163314611ff4576040805160e560020a62461bcd02815260206004820152604860248201527f234e617643616c63756c61746f72206f6e6c7941646d696e204d6f646966696560448201527f723a204f6e6c79207468652041646d696e20636f6e74726163742063616e206360648201527f616c6c2074686973000000000000000000000000000000000000000000000000608482015290519081900360a40190fd5b6000805491151560a060020a0274ff000000000000000000000000000000000000000019909216919091179055565b6000805481908190819060a060020a900460ff16156120a2576040805160e560020a62461bcd02815260206004820152605d602482015260008051602061239283398151915260448201526000805160206123528339815191526064820152600080516020612372833981519152608482015290519081900360a40190fd5b60008054604080517fc80a2929000000000000000000000000000000000000000000000000000000008152600481018a9052602481018990529051600160a060020a039092169263c80a2929926044808401936020939083900390910190829087803b15801561211157600080fd5b505af1158015612125573d6000803e3d6000fd5b505050506040513d602081101561213b57600080fd5b5051925082156121555761214f8584610311565b90925090505b50949350505050565b60008061216a836109c7565b905061162c838261222f565b60008054604080517f5ecc131700000000000000000000000000000000000000000000000000000000815260048101869052905183928392600160a060020a0390911691635ecc13179160248082019260209290919082900301818787803b1580156121e157600080fd5b505af11580156121f5573d6000803e3d6000fd5b505050506040513d602081101561220b57600080fd5b5051915083821061221f5760009250612227565b508083039150815b505092915050565b600080548190819060a060020a900460ff16156122ac576040805160e560020a62461bcd02815260206004820152605d602482015260008051602061239283398151915260448201526000805160206123528339815191526064820152600080516020612372833981519152608482015290519081900360a40190fd5b6122b68585610b99565b670de0b6b3a76400000195945050505050565b6000808383111561234a576040805160e560020a62461bcd02815260206004820152603260248201527f23536166654d6174682073756228293a205468697320776f756c64207265737560448201527f6c7420696e20616e20756e646572666c6f770000000000000000000000000000606482015290519081900360840190fd5b5050900390560069666965723a20496e2064657072656361746564206d6f6465202d207468697320636f6e747261637420686173206265656e2064657072656361746564000000234e617643616c63756c61746f72206e6f7444657072656361746564204d6f64a165627a7a7230582092f1c6e7747c21c0c576ee16819da840b0489acade6a265bfe96fa6f7f7520430029",
  "source": "/**\n\n    The software and documentation available in this repository (the \"Software\") is\n    protected by copyright law and accessible pursuant to the license set forth below.\n\n    Copyright  2019 Staked Securely, Inc. All rights reserved.\n\n    Permission is hereby granted, free of charge, to any person or organization\n    obtaining the Software (the Licensee) to privately study, review, and analyze\n    the Software. Licensee shall not use the Software for any other purpose. Licensee\n    shall not modify, transfer, assign, share, or sub-license the Software or any\n    derivative works of the Software.\n\n    THE SOFTWARE IS PROVIDED \"AS IS\", WITHOUT WARRANTY OF ANY KIND, EXPRESS OR IMPLIED,\n    INCLUDING BUT NOT LIMITED TO THE WARRANTIES OF MERCHANTABILITY, FITNESS FOR A\n    PARTICULAR PURPOSE, TITLE, AND NON-INFRINGEMENT. IN NO EVENT SHALL THE COPYRIGHT\n    HOLDERS BE LIABLE FOR ANY DAMAGES OR OTHER LIABILITY, WHETHER IN CONTRACT, TORT,\n    OR OTHERWISE, ARISING FROM, OUT OF, OR IN CONNECTION WITH THE SOFTWARE.\n\n*/\n\npragma solidity 0.4.25;\n\n\n// external dependency\nimport \"./openzeppelin/math/SafeMath.sol\";\n\n// internal dependencies\nimport \"../interfaces/IRAYToken.sol\";\nimport \"../interfaces/Opportunity.sol\";\nimport \"../interfaces/Upgradeable.sol\";\n\nimport \"./Storage.sol\";\nimport \"./wrappers/StorageWrapper.sol\";\n\n\n/// @notice  NAVCalculator generally holds functions to calculate the NAV and\n///          calculate the value or portfolio [RAY] and opportunity tokens.\n///          However, it does contain functions not semantically correct\n///          but I've put them here for now to avoid PortfolioManager being\n///          to large (reduce bytecode) and also avoid creating more contracts.\n///\n/// Author:   Devan Purhar\n/// Version:  1.0.0\n\ncontract NAVCalculator is Upgradeable {\n  using SafeMath\n  for uint256;\n\n\n  /*************** STORAGE VARIABLE DECLARATIONS **************/\n\n\n  // contracts used\n  bytes32 internal constant ADMIN_CONTRACT = keccak256(\"AdminContract\");\n  bytes32 internal constant RAY_TOKEN_CONTRACT = keccak256(\"RAYTokenContract\");\n  bytes32 internal constant PAYER_CONTRACT = keccak256(\"PayerContract\");\n  bytes32 internal constant OPPORTUNITY_MANAGER_CONTRACT = keccak256(\"OpportunityManagerContract\");\n  bytes32 internal constant OPPORTUNITY_TOKEN_CONTRACT = keccak256(\"OpportunityTokenContract\");\n  bytes32 internal constant STORAGE_WRAPPER_CONTRACT = keccak256(\"StorageWrapperContract\");\n\n  uint internal constant ON_CHAIN_PRECISION = 1e18;\n  uint internal constant BASE_PRICE_IN_WEI = 1 wei;\n\n  Storage public _storage;\n  bool public deprecated;\n\n\n  /*************** MODIFIER DECLARATIONS **************/\n\n\n  /// @notice  Checks the caller is our Admin contract\n  modifier onlyAdmin()\n  {\n\n    require(\n      msg.sender == _storage.getContractAddress(ADMIN_CONTRACT),\n      \"#NavCalculator onlyAdmin Modifier: Only the Admin contract can call this\"\n    );\n\n    _;\n\n  }\n\n\n  /// @notice  Requires the sender be OpportunityManager or one of our PortfolioManager's\n  modifier onlyPortfolioOrOpportunityManager(bytes32 contractId)\n  {\n      require(\n            msg.sender == _storage.getVerifier(contractId) ||\n            msg.sender == _storage.getContractAddress(OPPORTUNITY_MANAGER_CONTRACT),\n          \"#NAVCalculator onlyPortfolioOrOpportunityManager Modifier: This is not a valid contract calling\"\n      );\n\n      _;\n  }\n\n\n\n  /// @notice  Checks if the contract has been set to deprecated\n  modifier notDeprecated()\n  {\n      require(\n           deprecated == false,\n          \"#NavCalculator notDeprecated Modifier: In deprecated mode - this contract has been deprecated\"\n      );\n\n      _;\n  }\n\n\n  /////////////////////// FUNCTION DECLARATIONS BEGIN ///////////////////////\n\n  /******************* PUBLIC FUNCTIONS *******************/\n\n\n  /// @notice  Sets the Storage contract instance\n  ///\n  /// @param   __storage - The Storage contracts address\n  constructor(address __storage) public {\n\n    _storage = Storage(__storage);\n\n  }\n\n\n  /// @notice  Update the yield after withdrawing it\n  ///\n  /// @dev     Yield is always greater than zero when this is called\n  ///\n  /// @param   portfolioId - The portfolio id\n  /// @param   yield - The yield withdrawn in\n  function updateYield(\n    bytes32 portfolioId,\n    uint yield\n  )\n    external\n    notDeprecated\n    onlyPortfolioOrOpportunityManager(portfolioId)\n  {\n\n    uint withdrawnYield = _storage.getWithdrawnYield(portfolioId);\n\n    if (withdrawnYield < yield) {\n\n        uint difference = yield - withdrawnYield; // can't underflow due to the if()\n        StorageWrapper(_storage.getContractAddress(STORAGE_WRAPPER_CONTRACT)).setWithdrawnYield(portfolioId, 0);\n        // realizedYield += difference;\n        StorageWrapper(_storage.getContractAddress(STORAGE_WRAPPER_CONTRACT)).setRealizedYield(portfolioId, _storage.getRealizedYield(portfolioId) + difference);\n\n    } else {\n\n        // withdrawnYield -= yield;\n        // can't underflow due to the if()\n        StorageWrapper(_storage.getContractAddress(STORAGE_WRAPPER_CONTRACT)).setWithdrawnYield(portfolioId, withdrawnYield - yield);\n\n    }\n\n  }\n\n\n  /** ----------------- ONLY ADMIN MUTATORS ----------------- **/\n\n\n  /// @notice  Sets the deprecated flag of the contract\n  ///\n  /// @dev     Used when upgrading a contract\n  ///\n  /// @param   value - true to deprecate, false to un-deprecate\n  function setDeprecated(bool value) external onlyAdmin {\n\n      deprecated = value;\n\n\n  }\n\n\n  /** ----------------- VIEW ACCESSORS ----------------- **/\n\n\n  /// @notice  Calculates the current price per share\n  ///\n  /// @param   portfolioId - The portfolio id\n  ///\n  /// @return  The price per share scaled by ON_CHAIN_PRECISION\n  function getPricePerShare(\n    bytes32 portfolioId,\n    uint unrealizedYield\n  )\n    public\n    notDeprecated\n    view\n    returns (uint)\n  {\n\n      uint yield = getTotalYieldPerShare(portfolioId, unrealizedYield);\n      uint scaledPrice = BASE_PRICE_IN_WEI * ON_CHAIN_PRECISION;\n      return yield + scaledPrice;\n\n  }\n\n\n  /// @notice  Calculates the current yield per share\n  ///\n  /// @param   portfolioId - The portfolio id\n  ///\n  /// @return   The yield per share scaled by ON_CHAIN_PRECISION\n  function getTotalYieldPerShare(\n    bytes32 portfolioId,\n    uint unrealizedYield\n  )\n    public\n    view\n    notDeprecated\n    returns (uint)\n  {\n\n      uint shareSupply = _storage.getShareSupply(portfolioId);\n\n      if (shareSupply > 0) {\n\n          uint realizedYield = _storage.getRealizedYield(portfolioId);\n          uint withdrawnYield = _storage.getWithdrawnYield(portfolioId);\n\n          uint totalYield = getTotalYield(unrealizedYield, realizedYield, withdrawnYield);\n          uint raised = _storage.getRaised(_storage.getPrincipalAddress(portfolioId));\n\n          return (totalYield * raised) / shareSupply;\n\n      } else {\n\n          return 0;\n\n      }\n\n  }\n\n\n  /// @notice  Calculates the total yield when considering all factors\n  ///\n  /// @param   unrealizedYield - The unrealized yield of the portfolio\n  /// @param   realizedYield - The realized yield of this portfolio\n  /// @param   withdrawnYield - The withdrawn yield of this portfolio\n  ///\n  /// @return  The total yield\n  function getTotalYield(\n    uint unrealizedYield,\n    uint realizedYield,\n    uint withdrawnYield\n  )\n    public\n    pure\n    returns (uint)\n  {\n\n    // withdrawnYield can't be bigger than unrealizedYield + realizedYield since it's the\n    // unrealized yield we already added to realizedYield, it's there to make sure we\n    // don't double count it, but check underflow anyway for now (audit suggestion)\n    // unrealizedYield + realizedYield - withdrawnYield\n    uint totalYield = SafeMath.sub((unrealizedYield + realizedYield), withdrawnYield);\n\n    return totalYield;\n\n  }\n\n\n  /// @notice  Sums the unrealized yield from all the opportunities in this portfolio\n  ///\n  /// @param   portfolioId - The portfolio id\n  ///\n  /// @return  The total unrealized yield\n  function getPortfolioUnrealizedYield(bytes32 portfolioId) public notDeprecated view returns (uint) {\n\n    uint unrealizedYield;\n    bytes32[] memory opportunities;\n    opportunities = _storage.getOpportunities(portfolioId);\n\n    for (uint i = 0; i < opportunities.length; i++) {\n\n        bytes32 opportunityId = opportunities[i];\n        uint balance = getOpportunityBalance(portfolioId, opportunityId);\n\n        if (balance != 0) {\n\n          unrealizedYield += getOpportunityYield(portfolioId, opportunityId, balance);\n\n        }\n\n    }\n\n    return unrealizedYield;\n\n  }\n\n\n  /// @notice  Gets the amount of yield earnt based on an amount being withdrawn\n  ///          for an Opportunity.\n  ///\n  /// @param   portfolioId - The portfolio id\n  /// @param   amountToWithdraw - The amount being withdraw\n  ///\n  /// @return  The total unrealized yield\n  function getOpportunityUnrealizedYield(\n    bytes32 portfolioId,\n    uint amountToWithdraw\n  )\n    public\n    view\n    returns (uint)\n  {\n\n      uint principalAmount = _storage.getPrincipal(portfolioId);\n\n      if (principalAmount >= amountToWithdraw) {\n\n\n          return 0; // we aren't withdrawing any yield, we prioritize taking principal out first\n\n      }\n\n      uint yield = amountToWithdraw - principalAmount; // can't underflow due to if() ^\n\n      return yield;\n  }\n\n\n  /// @notice  Calculate how much yield a generic Opportunity has made\n  ///\n  /// @param   portfolioId - The portfolio id\n  /// @param   opportunityId - The opportunity id\n  /// @param   amountToWithdraw - The amount we're trying to check if we have yield on if we withdrew\n  ///\n  /// @return  The amount of yield this opportunity has if we withdraw a certain value\n  function getOpportunityYield(\n    bytes32 portfolioId,\n    bytes32 opportunityId,\n    uint amountToWithdraw\n  )\n    public\n    notDeprecated\n    view\n    returns (uint)\n {\n\n      bytes32 tokenId = _storage.getOpportunityToken(portfolioId, opportunityId);\n      uint principalAmount =  _storage.getTokenCapital(opportunityId, tokenId);\n\n      if (principalAmount >= amountToWithdraw) {\n\n          return 0;\n\n      }\n\n      uint yield = amountToWithdraw - principalAmount; // can't underflow due to if() ^\n      return yield;\n  }\n\n\n  /// @notice  Get the total value of a generic Opportunity\n  ///\n  /// @param   portfolioId - The portfolio id\n  /// @param   opportunityId - The opportunity id\n  ///\n  /// @return  The total value of the Opportunity (capital + yield)\n  function getOpportunityBalance(\n    bytes32 portfolioId,\n    bytes32 opportunityId\n  )\n    public\n    notDeprecated\n    view\n    returns(uint)\n  {\n\n      bytes32 tokenId = _storage.getOpportunityToken(portfolioId, opportunityId);\n\n      uint tokenValue;\n      uint pricePerShare;\n\n      if (tokenId != bytes32(0)) { // if we've lent to this opporunity\n\n        (tokenValue, pricePerShare) = getTokenValue(opportunityId, tokenId);\n\n      }\n\n      return tokenValue;\n  }\n\n\n  /// @notice  Decides how much value we need to send to our OpportunityManager function\n  ///          that accepts ETH and ERC20's. It does this by checking if the\n  ///          coin in question is an ERC20 or not.\n  ///\n  /// @param   principalToken - The coin we're checking for\n  /// @param   value - The amount of value in the coin we need to send\n  function calculatePayableAmount(\n    address principalToken,\n    uint value\n  )\n    external\n    notDeprecated\n    view\n    returns(bool, uint)\n  {\n\n      bool isERC20 = _storage.getIsERC20(principalToken);\n      uint payableValue;\n\n      if (isERC20) {\n\n        payableValue = 0;\n\n      } else {\n\n        payableValue = value;\n\n      }\n\n      return (isERC20, payableValue);\n\n  }\n\n\n\n  /// @notice  Checks that if the msg.sender == our Payer contract and then the\n  ///          original caller == the true owner. We can do this since we trust\n  ///          Payer (ours). Else, msg.sender must be the true owner of the token.\n  ///\n  /// @dev     This function exists so we can support paying for user transactions.\n  ///\n  /// @param   tokenId - The unique id of the position in question\n  /// @param   origCaller - The address that signed the transaction that went through Payer\n  /// @param   msgSender - The msg.sender to the function in PortfolioManager\n  function onlyTokenOwner(\n    bytes32 tokenId,\n    address origCaller,\n    address msgSender\n  )\n    external\n    notDeprecated\n    view\n    returns (address)\n  {\n\n      if (msgSender == _storage.getContractAddress(PAYER_CONTRACT)) {\n\n        require(IRAYToken(_storage.getContractAddress(RAY_TOKEN_CONTRACT)).ownerOf(uint(tokenId)) == origCaller,\n                \"#RAY onlyTokenOwner modifier: The original caller is not the owner of the token\");\n\n        return origCaller;\n\n      } else {\n\n        require(IRAYToken(_storage.getContractAddress(RAY_TOKEN_CONTRACT)).ownerOf(uint(tokenId)) == msgSender,\n                \"#RAY onlyTokenOwner modifier: The caller is not the owner of the token\");\n\n        return msgSender;\n\n      }\n\n  }\n\n\n  /// @notice  Calculates the current token value\n  ///\n  /// @dev     (price per share * shares)\n  ///\n  /// @param    typeId - The portfolio / opportunity id\n  /// @param    tokenId - The unique token id\n  ///\n  /// @return   Value of the token and price per share used to calculate it\n  function getTokenValue(\n    bytes32 typeId,\n    bytes32 tokenId\n  )\n    public\n    view\n    returns(uint, uint)\n  {\n\n      uint pricePerShare;\n\n      if (IRAYToken(_storage.getContractAddress(RAY_TOKEN_CONTRACT)).tokenExists(tokenId)) {\n\n        pricePerShare = getPortfolioPricePerShare(typeId);\n\n      } else if (IRAYToken(_storage.getContractAddress(OPPORTUNITY_TOKEN_CONTRACT)).tokenExists(tokenId)) {\n\n        pricePerShare = getOpportunityPricePerShare(typeId);\n\n      } else {\n\n        require(1 == 0, \"#NAVCalculator getTokenValue(): Invalid tokenId\");\n\n      }\n\n      uint raised = _storage.getRaised(_storage.getPrincipalAddress(typeId));\n      uint tokenValue = pricePerShare * _storage.getTokenShares(typeId, tokenId) / raised;\n\n      return (tokenValue, pricePerShare);\n  }\n\n\n  /// @notice  Helper to get a portfolios price per share\n  ///\n  /// @param   portfolioId - The portfolio id\n  ///\n  /// @return  The price per share of the portfolio\n  function getPortfolioPricePerShare(bytes32 portfolioId) public view returns (uint) {\n\n    uint unrealizedYield = getPortfolioUnrealizedYield(portfolioId);\n\n    return getPricePerShare(portfolioId, unrealizedYield);\n\n  }\n\n\n  /// @notice  Helper to get an opportunities price per share\n  ///\n  /// @param   opportunityId - The opportunity id\n  ///\n  /// @return  The price per share of the opportunity\n  function getOpportunityPricePerShare(bytes32 opportunityId) public view returns (uint) {\n\n    address opportunity = _storage.getVerifier(opportunityId);\n    address principalAddress = _storage.getPrincipalAddress(opportunityId);\n    uint unrealizedYield = getOpportunityUnrealizedYield(opportunityId, Opportunity(opportunity).getBalance(principalAddress));\n\n    return getPricePerShare(opportunityId, unrealizedYield);\n\n  }\n\n\n}\n",
  "sourcePath": "/Users/tom/www/robo-advisor-yield/contracts/ray/protocol/impl/NAVCalculator.sol",
  "compiler": {
    "name": "solc",
    "version": "0.4.25+commit.59dbf8f1.Emscripten.clang"
  },
  "schemaVersion": "3.0.11",
  "updatedAt": "2019-10-25T03:55:56.863Z",
  "devdoc": {
    "methods": {
      "calculatePayableAmount(address,uint256)": {
        "params": {
          "principalToken": "- The coin we're checking for",
          "value": "- The amount of value in the coin we need to send"
        }
      },
      "getOpportunityBalance(bytes32,bytes32)": {
        "params": {
          "opportunityId": "- The opportunity id ",
          "portfolioId": "- The portfolio id"
        },
        "return": "The total value of the Opportunity (capital + yield)"
      },
      "getOpportunityPricePerShare(bytes32)": {
        "params": {
          "opportunityId": "- The opportunity id "
        },
        "return": "The price per share of the opportunity"
      },
      "getOpportunityUnrealizedYield(bytes32,uint256)": {
        "params": {
          "amountToWithdraw": "- The amount being withdraw ",
          "portfolioId": "- The portfolio id"
        },
        "return": "The total unrealized yield"
      },
      "getOpportunityYield(bytes32,bytes32,uint256)": {
        "params": {
          "amountToWithdraw": "- The amount we're trying to check if we have yield on if we withdrew ",
          "opportunityId": "- The opportunity id",
          "portfolioId": "- The portfolio id"
        },
        "return": "The amount of yield this opportunity has if we withdraw a certain value"
      },
      "getPortfolioPricePerShare(bytes32)": {
        "params": {
          "portfolioId": "- The portfolio id "
        },
        "return": "The price per share of the portfolio"
      },
      "getPortfolioUnrealizedYield(bytes32)": {
        "params": {
          "portfolioId": "- The portfolio id "
        },
        "return": "The total unrealized yield"
      },
      "getPricePerShare(bytes32,uint256)": {
        "params": {
          "portfolioId": "- The portfolio id "
        },
        "return": "The price per share scaled by ON_CHAIN_PRECISION"
      },
      "getTokenValue(bytes32,bytes32)": {
        "details": "(price per share * shares) ",
        "params": {
          "tokenId": "- The unique token id ",
          "typeId": "- The portfolio / opportunity id"
        },
        "return": "Value of the token and price per share used to calculate it"
      },
      "getTotalYield(uint256,uint256,uint256)": {
        "params": {
          "realizedYield": "- The realized yield of this portfolio",
          "unrealizedYield": "- The unrealized yield of the portfolio",
          "withdrawnYield": "- The withdrawn yield of this portfolio "
        },
        "return": "The total yield"
      },
      "getTotalYieldPerShare(bytes32,uint256)": {
        "params": {
          "portfolioId": "- The portfolio id "
        },
        "return": "The yield per share scaled by ON_CHAIN_PRECISION"
      },
      "onlyTokenOwner(bytes32,address,address)": {
        "details": "This function exists so we can support paying for user transactions. ",
        "params": {
          "msgSender": "- The msg.sender to the function in PortfolioManager",
          "origCaller": "- The address that signed the transaction that went through Payer",
          "tokenId": "- The unique id of the position in question"
        }
      },
      "setDeprecated(bool)": {
        "details": "Used when upgrading a contract ",
        "params": {
          "value": "- true to deprecate, false to un-deprecate"
        }
      },
      "updateYield(bytes32,uint256)": {
        "details": "Yield is always greater than zero when this is called ",
        "params": {
          "portfolioId": "- The portfolio id",
          "yield": "- The yield withdrawn in"
        }
      }
    }
  },
  "userdoc": {
    "methods": {
      "calculatePayableAmount(address,uint256)": {
        "notice": "Decides how much value we need to send to our OpportunityManager function          that accepts ETH and ERC20's. It does this by checking if the          coin in question is an ERC20 or not. "
      },
      "getOpportunityBalance(bytes32,bytes32)": {
        "notice": "Get the total value of a generic Opportunity "
      },
      "getOpportunityPricePerShare(bytes32)": {
        "notice": "Helper to get an opportunities price per share "
      },
      "getOpportunityUnrealizedYield(bytes32,uint256)": {
        "notice": "Gets the amount of yield earnt based on an amount being withdrawn          for an Opportunity. "
      },
      "getOpportunityYield(bytes32,bytes32,uint256)": {
        "notice": "Calculate how much yield a generic Opportunity has made "
      },
      "getPortfolioPricePerShare(bytes32)": {
        "notice": "Helper to get a portfolios price per share "
      },
      "getPortfolioUnrealizedYield(bytes32)": {
        "notice": "Sums the unrealized yield from all the opportunities in this portfolio "
      },
      "getPricePerShare(bytes32,uint256)": {
        "notice": "Calculates the current price per share "
      },
      "getTokenValue(bytes32,bytes32)": {
        "notice": "Calculates the current token value "
      },
      "getTotalYield(uint256,uint256,uint256)": {
        "notice": "Calculates the total yield when considering all factors "
      },
      "getTotalYieldPerShare(bytes32,uint256)": {
        "notice": "Calculates the current yield per share "
      },
      "onlyTokenOwner(bytes32,address,address)": {
        "notice": "Checks that if the msg.sender == our Payer contract and then the          original caller == the true owner. We can do this since we trust          Payer (ours). Else, msg.sender must be the true owner of the token. "
      },
      "setDeprecated(bool)": {
        "notice": "Sets the deprecated flag of the contract "
      },
      "updateYield(bytes32,uint256)": {
        "notice": "Update the yield after withdrawing it "
      }
    }
  }
}