{
  "contractName": "Oracle",
  "abi": [
    {
      "constant": true,
      "inputs": [],
      "name": "deprecated",
      "outputs": [
        {
          "name": "",
          "type": "bool"
        }
      ],
      "payable": false,
      "stateMutability": "view",
      "type": "function"
    },
    {
      "constant": true,
      "inputs": [],
      "name": "_storage",
      "outputs": [
        {
          "name": "",
          "type": "address"
        }
      ],
      "payable": false,
      "stateMutability": "view",
      "type": "function"
    },
    {
      "inputs": [
        {
          "name": "__storage",
          "type": "address"
        }
      ],
      "payable": false,
      "stateMutability": "nonpayable",
      "type": "constructor"
    },
    {
      "anonymous": false,
      "inputs": [
        {
          "indexed": false,
          "name": "portfolioKey",
          "type": "bytes32"
        },
        {
          "indexed": false,
          "name": "opportunityKey",
          "type": "bytes32"
        },
        {
          "indexed": false,
          "name": "value",
          "type": "uint256"
        }
      ],
      "name": "LogWithdrawFromPortfolio",
      "type": "event"
    },
    {
      "anonymous": false,
      "inputs": [
        {
          "indexed": false,
          "name": "key",
          "type": "bytes32"
        },
        {
          "indexed": false,
          "name": "dust",
          "type": "uint256"
        }
      ],
      "name": "LogOpportunityDust",
      "type": "event"
    },
    {
      "constant": false,
      "inputs": [
        {
          "name": "key",
          "type": "bytes32"
        },
        {
          "name": "opportunityKey",
          "type": "bytes32"
        },
        {
          "name": "opportunity",
          "type": "address"
        },
        {
          "name": "value",
          "type": "uint256"
        }
      ],
      "name": "lend",
      "outputs": [],
      "payable": false,
      "stateMutability": "nonpayable",
      "type": "function"
    },
    {
      "constant": false,
      "inputs": [
        {
          "name": "key",
          "type": "bytes32"
        },
        {
          "name": "wOpportunityKeys",
          "type": "bytes32[]"
        },
        {
          "name": "wOpps",
          "type": "address[]"
        },
        {
          "name": "wValues",
          "type": "uint256[]"
        },
        {
          "name": "lOpportunityKeys",
          "type": "bytes32[]"
        },
        {
          "name": "lOpps",
          "type": "address[]"
        },
        {
          "name": "lValues",
          "type": "uint256[]"
        }
      ],
      "name": "rebalance",
      "outputs": [],
      "payable": false,
      "stateMutability": "nonpayable",
      "type": "function"
    },
    {
      "constant": false,
      "inputs": [
        {
          "name": "key",
          "type": "bytes32"
        },
        {
          "name": "opportunityKey",
          "type": "bytes32"
        },
        {
          "name": "opportunity",
          "type": "address"
        },
        {
          "name": "value",
          "type": "uint256"
        }
      ],
      "name": "withdraw",
      "outputs": [],
      "payable": false,
      "stateMutability": "nonpayable",
      "type": "function"
    },
    {
      "constant": false,
      "inputs": [
        {
          "name": "value",
          "type": "bool"
        }
      ],
      "name": "setDeprecated",
      "outputs": [],
      "payable": false,
      "stateMutability": "nonpayable",
      "type": "function"
    },
    {
      "constant": false,
      "inputs": [
        {
          "name": "key",
          "type": "bytes32"
        },
        {
          "name": "valueToWithdraw",
          "type": "uint256"
        },
        {
          "name": "totalValue",
          "type": "uint256"
        }
      ],
      "name": "withdrawFromProtocols",
      "outputs": [
        {
          "name": "",
          "type": "uint256"
        }
      ],
      "payable": false,
      "stateMutability": "nonpayable",
      "type": "function"
    }
  ],
  "bytecode": "0x608060405234801561001057600080fd5b506040516020806122f4833981016040525160008054600160a060020a03909216600160a060020a03199092169190911790556122a2806100526000396000f3006080604052600436106100695763ffffffff60e060020a6000350416630e136b19811461006e5780636e93374614610097578063ae4c8d49146100c3578063c3fb90d61461023a578063d2684e781461026b578063d848dee71461029b578063fa52e3df146102b5575b600080fd5b34801561007a57600080fd5b506100836102df565b604080519115158252519081900360200190f35b3480156100a357600080fd5b506100c1600435602435600160a060020a03604435166064356102ef565b005b3480156100cf57600080fd5b506040805160206004602480358281013584810280870186019097528086526100c196843596369660449591949091019291829185019084908082843750506040805187358901803560208181028481018201909552818452989b9a998901989297509082019550935083925085019084908082843750506040805187358901803560208181028481018201909552818452989b9a998901989297509082019550935083925085019084908082843750506040805187358901803560208181028481018201909552818452989b9a998901989297509082019550935083925085019084908082843750506040805187358901803560208181028481018201909552818452989b9a998901989297509082019550935083925085019084908082843750506040805187358901803560208181028481018201909552818452989b9a9989019892975090820195509350839250850190849080828437509497506106cc9650505050505050565b34801561024657600080fd5b5061024f610e46565b60408051600160a060020a039092168252519081900360200190f35b34801561027757600080fd5b50610289600435602435604435610e55565b60408051918252519081900360200190f35b3480156102a757600080fd5b506100c160043515156113c7565b3480156102c157600080fd5b506100c1600435602435600160a060020a0360443516606435611528565b60005460a060020a900460ff1681565b60008054604080517fc8f544cc0000000000000000000000000000000000000000000000000000000081523360048201529051600160a060020a039092169263c8f544cc926024808401936020939083900390910190829087803b15801561035657600080fd5b505af115801561036a573d6000803e3d6000fd5b505050506040513d602081101561038057600080fd5b50511515600114610401576040805160e560020a62461bcd02815260206004820152603860248201527f234f7261636c65206f6e6c794f7261636c6573204d6f6469666965723a204f6e60448201527f6c79204f7261636c65732063616e2063616c6c20746869730000000000000000606482015290519081900360840190fd5b60005460a060020a900460ff1615610479576040805160e560020a62461bcd028152602060048201526056602482015260008051602061225783398151915260448201526000805160206122178339815191526064820152600080516020612237833981519152608482015290519081900360a40190fd5b60008054604080517f270ce10c000000000000000000000000000000000000000000000000000000008152600481018890529051600160a060020a039092169263270ce10c926024808401936020939083900390910190829087803b1580156104e157600080fd5b505af11580156104f5573d6000803e3d6000fd5b505050506040513d602081101561050b57600080fd5b50518111156105b0576040805160e560020a62461bcd02815260206004820152605160248201527f234f7261636c65206c656e6428293a204e6f7420656e6f75676820617661696c60448201527f61626c65206361706974616c20696e207468697320706f7274666f6c696f207460648201527f6f206c656e6420746869732076616c7565000000000000000000000000000000608482015290519081900360a40190fd5b600080546040805160e360020a631dd6f649028152600481018890529051600160a060020a039092169263eeb7b248926024808401936020939083900390910190829087803b15801561060257600080fd5b505af1158015610616573d6000803e3d6000fd5b505050506040513d602081101561062c57600080fd5b5051604080517f37310a8a0000000000000000000000000000000000000000000000000000000081526004810187905260248101869052600160a060020a0385811660448301526064820185905260016084830152915191909216916337310a8a9160a480830192600092919082900301818387803b1580156106ae57600080fd5b505af11580156106c2573d6000803e3d6000fd5b5050505050505050565b60008054604080517fc8f544cc000000000000000000000000000000000000000000000000000000008152336004820152905183928392839283928392600160a060020a039091169163c8f544cc9160248082019260209290919082900301818787803b15801561073c57600080fd5b505af1158015610750573d6000803e3d6000fd5b505050506040513d602081101561076657600080fd5b505115156001146107e7576040805160e560020a62461bcd02815260206004820152603860248201527f234f7261636c65206f6e6c794f7261636c6573204d6f6469666965723a204f6e60448201527f6c79204f7261636c65732063616e2063616c6c20746869730000000000000000606482015290519081900360840190fd5b60005460a060020a900460ff161561085f576040805160e560020a62461bcd028152602060048201526056602482015260008051602061225783398151915260448201526000805160206122178339815191526064820152600080516020612237833981519152608482015290519081900360a40190fd5b600093505b8a518410156109f9576000809054906101000a9004600160a060020a0316600160a060020a031663eeb7b2488e6040518263ffffffff1660e060020a028152600401808260001916600019168152602001915050602060405180830381600087803b1580156108d257600080fd5b505af11580156108e6573d6000803e3d6000fd5b505050506040513d60208110156108fc57600080fd5b50518c51600160a060020a0390911690639db165c5908f908f908890811061092057fe5b906020019060200201518e8881518110151561093857fe5b906020019060200201518e8981518110151561095057fe5b602090810290910101516040805160e060020a63ffffffff881602815260048101959095526024850193909352600160a060020a0390911660448401526064830152600060848301819052905160a48084019382900301818387803b1580156109b857600080fd5b505af11580156109cc573d6000803e3d6000fd5b5050505089848151811015156109de57fe5b90602001906020020151860195508380600101945050610864565b600093505b8751841015610b93576000809054906101000a9004600160a060020a0316600160a060020a031663eeb7b2488e6040518263ffffffff1660e060020a028152600401808260001916600019168152602001915050602060405180830381600087803b158015610a6c57600080fd5b505af1158015610a80573d6000803e3d6000fd5b505050506040513d6020811015610a9657600080fd5b50518951600160a060020a03909116906337310a8a908f908c9088908110610aba57fe5b906020019060200201518b88815181101515610ad257fe5b906020019060200201518b89815181101515610aea57fe5b602090810290910101516040805160e060020a63ffffffff881602815260048101959095526024850193909352600160a060020a0390911660448401526064830152600060848301819052905160a48084019382900301818387803b158015610b5257600080fd5b505af1158015610b66573d6000803e3d6000fd5b505050508684815181101515610b7857fe5b906020019060200201518501945083806001019450506109fe565b6000809054906101000a9004600160a060020a0316600160a060020a031663270ce10c8e6040518263ffffffff1660e060020a028152600401808260001916600019168152602001915050602060405180830381600087803b158015610bf857600080fd5b505af1158015610c0c573d6000803e3d6000fd5b505050506040513d6020811015610c2257600080fd5b50519250858301851115610cf2576040805160e560020a62461bcd02815260206004820152607360248201527f234f7261636c6520726562616c616e636528293a2054686520616d6f756e742060448201527f6c656e74206f7574206d757374206265206c657373207468616e206f7220657160648201527f75616c20746f2074686520616d6f756e742077697468647261776e202b20746860848201527f6520617661696c61626c65206361706974616c0000000000000000000000000060a482015290519081900360c40190fd5b85851115610e37578585039150610d0983836117d0565b60008054604080517f53746f726167655772617070657254776f436f6e7472616374000000000000008152815190819003601901812060e060020a630d2020dd02825260048201529051939450600160a060020a0390911692630d2020dd92602480840193602093929083900390910190829087803b158015610d8b57600080fd5b505af1158015610d9f573d6000803e3d6000fd5b505050506040513d6020811015610db557600080fd5b8101908080519060200190929190505050600160a060020a031663bce316558e836040518363ffffffff1660e060020a02815260040180836000191660001916815260200182815260200192505050600060405180830381600087803b158015610e1e57600080fd5b505af1158015610e32573d6000803e3d6000fd5b505050505b50505050505050505050505050565b600054600160a060020a031681565b60008054819081906060908290819081908190819060a060020a900460ff1615610edf576040805160e560020a62461bcd028152602060048201526056602482015260008051602061225783398151915260448201526000805160206122178339815191526064820152600080516020612237833981519152608482015290519081900360a40190fd5b8b33600160a060020a03166000809054906101000a9004600160a060020a0316600160a060020a031663eeb7b248836040518263ffffffff1660e060020a028152600401808260001916600019168152602001915050602060405180830381600087803b158015610f4f57600080fd5b505af1158015610f63573d6000803e3d6000fd5b505050506040513d6020811015610f7957600080fd5b5051600160a060020a031614611025576040805160e560020a62461bcd02815260206004820152604d60248201527f234f7261636c65206f6e6c79506f7274666f6c696f4d616e61676572204d6f6460448201527f69666965723a204f6e6c792076616c69642052415920636f6e7472616374732060648201527f63616e2063616c6c207468697300000000000000000000000000000000000000608482015290519081900360a40190fd5b8b97506110328d8961185f565b975087151561104457600099506113b7565b6000809054906101000a9004600160a060020a0316600160a060020a03166369a4e7ac8e6040518263ffffffff1660e060020a028152600401808260001916600019168152602001915050600060405180830381600087803b1580156110a957600080fd5b505af11580156110bd573d6000803e3d6000fd5b505050506040513d6000823e601f3d908101601f1916820160405260208110156110e657600080fd5b8101908080516401000000008111156110fe57600080fd5b8201602081018481111561111157600080fd5b815185602082028301116401000000008211171561112e57600080fd5b50909a5060009950505050505b865186101561135f57868681518110151561115257fe5b6020908102909101810151600080546040805160e360020a631dd6f649028152600481018590529051939950600160a060020a039091169363eeb7b2489360248084019492939192918390030190829087803b1580156111b157600080fd5b505af11580156111c5573d6000803e3d6000fd5b505050506040513d60208110156111db57600080fd5b505160008054604080517f4e415643616c63756c61746f72436f6e747261637400000000000000000000008152815190819003601501812060e060020a630d2020dd02825260048201529051939750600160a060020a0390911692630d2020dd92602480840193602093929083900390910190829087803b15801561125f57600080fd5b505af1158015611273573d6000803e3d6000fd5b505050506040513d602081101561128957600080fd5b8101908080519060200190929190505050600160a060020a031663d84cbf898e876040518363ffffffff1660e060020a028152600401808360001916600019168152602001826000191660001916815260200192505050602060405180830381600087803b1580156112fa57600080fd5b505af115801561130e573d6000803e3d6000fd5b505050506040513d602081101561132457600080fd5b505192506000831161133557611354565b6113438d86868b878e611b72565b90995097508715156113545761135f565b60019095019461113b565b8a898d0111156113b357604080518e81528d8b018d90036020820181905282519b8190039b9094507f3ea2935a06414e75deed2d2c3123023b5fbfeb9dc75d309ac4a23cd494f6e123929181900390910190a15b8899505b5050505050505050509392505050565b60008054604080517f41646d696e436f6e7472616374000000000000000000000000000000000000008152815190819003600d01812060e060020a630d2020dd028252600482015290513393600160a060020a039390931692630d2020dd92602480820193602093909283900390910190829087803b15801561144957600080fd5b505af115801561145d573d6000803e3d6000fd5b505050506040513d602081101561147357600080fd5b5051600160a060020a0316146114f9576040805160e560020a62461bcd02815260206004820152603460248201527f234f7261636c65206f6e6c7941646d696e204d6f6469666965723a204f6e6c7960448201527f2041646d696e2063616e2063616c6c2074686973000000000000000000000000606482015290519081900360840190fd5b6000805491151560a060020a0274ff000000000000000000000000000000000000000019909216919091179055565b60008054604080517f41646d696e436f6e7472616374000000000000000000000000000000000000008152815190819003600d01812060e060020a630d2020dd028252600482015290513393600160a060020a039390931692630d2020dd92602480820193602093909283900390910190829087803b1580156115aa57600080fd5b505af11580156115be573d6000803e3d6000fd5b505050506040513d60208110156115d457600080fd5b5051600160a060020a03161461165a576040805160e560020a62461bcd02815260206004820152603460248201527f234f7261636c65206f6e6c7941646d696e204d6f6469666965723a204f6e6c7960448201527f2041646d696e2063616e2063616c6c2074686973000000000000000000000000606482015290519081900360840190fd5b60005460a060020a900460ff16156116d2576040805160e560020a62461bcd028152602060048201526056602482015260008051602061225783398151915260448201526000805160206122178339815191526064820152600080516020612237833981519152608482015290519081900360a40190fd5b600080546040805160e360020a631dd6f649028152600481018890529051600160a060020a039092169263eeb7b248926024808401936020939083900390910190829087803b15801561172457600080fd5b505af1158015611738573d6000803e3d6000fd5b505050506040513d602081101561174e57600080fd5b5051604080517f9db165c50000000000000000000000000000000000000000000000000000000081526004810187905260248101869052600160a060020a038581166044830152606482018590526001608483015291519190921691639db165c59160a480830192600092919082900301818387803b1580156106ae57600080fd5b60008083831115611851576040805160e560020a62461bcd02815260206004820152603260248201527f23536166654d6174682073756228293a205468697320776f756c64207265737560448201527f6c7420696e20616e20756e646572666c6f770000000000000000000000000000606482015290519081900360840190fd5b5050808203805b5092915050565b60008054604080517f270ce10c0000000000000000000000000000000000000000000000000000000081526004810186905290518392600160a060020a03169163270ce10c91602480830192602092919082900301818787803b1580156118c557600080fd5b505af11580156118d9573d6000803e3d6000fd5b505050506040513d60208110156118ef57600080fd5b50519050808311611a305760008054604080517f53746f726167655772617070657254776f436f6e7472616374000000000000008152815190819003601901812060e060020a630d2020dd02825260048201529051600160a060020a0390921692630d2020dd926024808401936020939083900390910190829087803b15801561197857600080fd5b505af115801561198c573d6000803e3d6000fd5b505050506040513d60208110156119a257600080fd5b5051604080517fbce316550000000000000000000000000000000000000000000000000000000081526004810187905285840360248201529051600160a060020a039092169163bce316559160448082019260009290919082900301818387803b158015611a0f57600080fd5b505af1158015611a23573d6000803e3d6000fd5b5050505060009150611858565b6000811115611b6a5760008054604080517f53746f726167655772617070657254776f436f6e7472616374000000000000008152815190819003601901812060e060020a630d2020dd02825260048201529051600160a060020a0390921692630d2020dd926024808401936020939083900390910190829087803b158015611ab757600080fd5b505af1158015611acb573d6000803e3d6000fd5b505050506040513d6020811015611ae157600080fd5b5051604080517fbce31655000000000000000000000000000000000000000000000000000000008152600481018790526000602482018190529151600160a060020a039093169263bce316559260448084019391929182900301818387803b158015611b4c57600080fd5b505af1158015611b60573d6000803e3d6000fd5b5050505080830392505b509092915050565b60008080848611611cb657611b8989898989611de2565b600080546040805160e360020a631dd6f649028152600481018e905290519984019997840197939450600160a060020a039091169263eeb7b24892602480840193602093929083900390910190829087803b158015611be757600080fd5b505af1158015611bfb573d6000803e3d6000fd5b505050506040513d6020811015611c1157600080fd5b5051604080517f9db165c5000000000000000000000000000000000000000000000000000000008152600481018c9052602481018b9052600160a060020a038a81166044830152606482018a90526000608483018190529251931692639db165c59260a48084019391929182900301818387803b158015611c9157600080fd5b505af1158015611ca5573d6000803e3d6000fd5b5086955060009450611dd692505050565b600080546040805160e360020a631dd6f649028152600481018d905290519888900398600160a060020a039092169263eeb7b248926024808401936020939083900390910190829087803b158015611d0d57600080fd5b505af1158015611d21573d6000803e3d6000fd5b505050506040513d6020811015611d3757600080fd5b5051604080517f9db165c5000000000000000000000000000000000000000000000000000000008152600481018c9052602481018b9052600160a060020a038a81166044830152606482018990526000608483018190529251931692639db165c59260a48084019391929182900301818387803b158015611db757600080fd5b505af1158015611dcb573d6000803e3d6000fd5b505050508386925092505b50965096945050505050565b60008054604080517fc80a292900000000000000000000000000000000000000000000000000000000815260048101889052602481018790529051839283928392839283928392600160a060020a039092169163d400d43a918d91849163c80a292991604480830192602092919082900301818a87803b158015611e6557600080fd5b505af1158015611e79573d6000803e3d6000fd5b505050506040513d6020811015611e8f57600080fd5b50516040805160e060020a63ffffffff8616028152600481019390935260248301919091525160448083019260209291908290030181600087803b158015611ed657600080fd5b505af1158015611eea573d6000803e3d6000fd5b505050506040513d6020811015611f0057600080fd5b505160008054604080517f4e415643616c63756c61746f72436f6e747261637400000000000000000000008152815190819003601501812060e060020a630d2020dd02825260048201529051939950600160a060020a0390911692630d2020dd92602480840193602093929083900390910190829087803b158015611f8457600080fd5b505af1158015611f98573d6000803e3d6000fd5b505050506040513d6020811015611fae57600080fd5b5051604080517f7c1e2f4c000000000000000000000000000000000000000000000000000000008152600481018d90529051600160a060020a0390921691637c1e2f4c916024808201926020929091908290030181600087803b15801561201457600080fd5b505af1158015612028573d6000803e3d6000fd5b505050506040513d602081101561203e57600080fd5b810190808051906020019092919050505094506000809054906101000a9004600160a060020a0316600160a060020a031663234817e76000809054906101000a9004600160a060020a0316600160a060020a0316633f1793c38e6040518263ffffffff1660e060020a028152600401808260001916600019168152602001915050602060405180830381600087803b1580156120d957600080fd5b505af11580156120ed573d6000803e3d6000fd5b505050506040513d602081101561210357600080fd5b50516040805160e060020a63ffffffff8516028152600160a060020a0390921660048301525160248083019260209291908290030181600087803b15801561214a57600080fd5b505af115801561215e573d6000803e3d6000fd5b505050506040513d602081101561217457600080fd5b50519350612184888787876121bf565b925061219183600a6121fa565b91508582111561219f578591505b50818103670de0b6b3a7640000858202049b9a5050505050505050505050565b6000806000838587028115156121d157fe5b048488028115156121de57fe5b049150838287028115156121ee57fe5b04979650505050505050565b6000818260018486010381151561220d57fe5b040293925050505600496e2064657072656361746564206d6f6465202d207468697320636f6e747261637420686173206265656e206465707265636174656400000000000000000000234f7261636c65206e6f7444657072656361746564204d6f6469666965723a20a165627a7a72305820bfca315efe49aef15a086c2286b46285a47577c821a2cf10275143e283e8f21a0029",
  "source": "/**\n\n    The software and documentation available in this repository (the \"Software\") is\n    protected by copyright law and accessible pursuant to the license set forth below.\n\n    Copyright  2019 Staked Securely, Inc. All rights reserved.\n\n    Permission is hereby granted, free of charge, to any person or organization\n    obtaining the Software (the Licensee) to privately study, review, and analyze\n    the Software. Licensee shall not use the Software for any other purpose. Licensee\n    shall not modify, transfer, assign, share, or sub-license the Software or any\n    derivative works of the Software.\n\n    THE SOFTWARE IS PROVIDED \"AS IS\", WITHOUT WARRANTY OF ANY KIND, EXPRESS OR IMPLIED,\n    INCLUDING BUT NOT LIMITED TO THE WARRANTIES OF MERCHANTABILITY, FITNESS FOR A\n    PARTICULAR PURPOSE, TITLE, AND NON-INFRINGEMENT. IN NO EVENT SHALL THE COPYRIGHT\n    HOLDERS BE LIABLE FOR ANY DAMAGES OR OTHER LIABILITY, WHETHER IN CONTRACT, TORT,\n    OR OTHERWISE, ARISING FROM, OUT OF, OR IN CONNECTION WITH THE SOFTWARE.\n\n*/\n\npragma solidity 0.4.25;\n\n\n// external dependency\nimport \"./openzeppelin/math/SafeMath.sol\";\n\n// internal dependencies\nimport \"../interfaces/IPortfolioManager.sol\";\nimport \"../interfaces/INAVCalculator.sol\";\nimport \"../interfaces/Opportunity.sol\";\nimport \"../interfaces/Upgradeable.sol\";\n\nimport \"./Storage.sol\";\nimport \"./wrappers/StorageWrapperTwo.sol\";\n\n\n/// @notice  Oracle is the contract that receives instructions from our off-chain\n///          'oracle' which tells it where and what the optimal allocations of capital are.\n///\n///          Eventually we'll upgrade this contract to sample from different\n///          oracles and take the median, or some sort of consensus logic,\n///          possibly like MakerDAO's Medianizer for prices. The goal is to\n///          decentralize the oracle.\n///\n///          We currently run the oracle as an off-chain microservice because\n///          the calculations we wish to do will be too complex to carry out\n///          on-chain, as we scale to many more opportunities.\n///\n///          !! Due to the design of the smart contracts, the runner of the\n///          oracle(s) CAN'T steal any funds. The worst they could do is direct\n///          funds into the lowest yielding opportunity. Due to this, Staked\n///          only has strong economic incentives to run the single oracle properly.\n///\n///          We only create revenue IF the oracle is functioning optimally and we\n///          can't steal the funds through the oracle.\n///\n/// Author:   Devan Purhar\n/// Version:  1.0.0\n\ncontract Oracle is Upgradeable {\n\n\n  /*************** STORAGE VARIABLE DECLARATIONS **************/\n\n\n  // contracts used\n  bytes32 internal constant NAV_CALCULATOR_CONTRACT = keccak256(\"NAVCalculatorContract\");\n  bytes32 internal constant ADMIN_CONTRACT = keccak256(\"AdminContract\");\n  bytes32 internal constant STORAGE_WRAPPER_TWO_CONTRACT = keccak256(\"StorageWrapperTwoContract\");\n\n  uint internal constant ON_CHAIN_PRECISION = 1e18;\n\n  Storage public _storage;\n  bool public deprecated;\n\n\n  /*************** EVENT DECLARATIONS **************/\n\n\n  /// @notice  Logs when withdrawing from an Opportunity\n  ///\n  /// TODO: Check if this logs the same data as an event in OpportunityManager\n  event LogWithdrawFromPortfolio(\n    bytes32 portfolioKey,\n    bytes32 opportunityKey,\n    uint value\n  );\n\n  /// @notice  Logs the extra value we withdrew from the Opportunities that the\n  ///          RAY Token didn't have credit for.\n  event LogOpportunityDust(\n    bytes32 key,\n    uint dust\n  );\n\n  /*************** MODIFIER DECLARATIONS **************/\n\n\n  /// @notice  Checks the caller is an approved [off-chain] Oracle\n  modifier onlyOracles()\n  {\n\n    require(\n      _storage.getIsOracle(msg.sender) == true,\n      \"#Oracle onlyOracles Modifier: Only Oracles can call this\"\n    );\n\n    _;\n\n  }\n\n\n  /// @notice  Checks the caller is our Admin contract\n  modifier onlyAdmin()\n  {\n\n    require(\n      _storage.getContractAddress(ADMIN_CONTRACT) == msg.sender,\n      \"#Oracle onlyAdmin Modifier: Only Admin can call this\"\n    );\n\n    _;\n\n  }\n\n\n  /// @notice  Checks the caller is one of our PortfolioManager contracts\n  modifier onlyPortfolioManager(bytes32 contractId)\n  {\n      require(\n           _storage.getVerifier(contractId) == msg.sender,\n          \"#Oracle onlyPortfolioManager Modifier: Only valid RAY contracts can call this\"\n      );\n\n      _;\n  }\n\n\n  /// @notice  Checks if the contract has been set to deprecated\n  modifier notDeprecated()\n  {\n      require(\n           deprecated == false,\n          \"#Oracle notDeprecated Modifier: In deprecated mode - this contract has been deprecated\"\n      );\n\n      _;\n  }\n\n\n  /////////////////////// FUNCTION DECLARATIONS BEGIN ///////////////////////\n\n  /******************* PUBLIC FUNCTIONS *******************/\n\n\n  /// @notice  Sets the Storage contract instance\n  ///\n  /// @param   __storage - The Storage contracts address\n  constructor(address __storage) public {\n\n    _storage = Storage(__storage);\n\n  }\n\n\n  /** --------------- OFF-CHAIN ORACLE ENTRYPOINTS (ONLY ORACLE) ----------------- **/\n\n\n  /// @notice  Entrypoint for the off-chain oracle to instruct initial lending\n  ///\n  /// @param   key - The portfolio key to lend too\n  /// @param   opportunityKey - The opportunity key of the opportunity we want to lend too\n  /// @param   opportunity - The opportunity's contract address we're lending too (ours not the third-party one)\n  /// @param   value - The value we're lending in-kind smallest units\n  function lend(\n    bytes32 key,\n    bytes32 opportunityKey,\n    address opportunity,\n    uint value\n  )\n    external\n    onlyOracles\n    notDeprecated\n  {\n\n    // require(value > 0, \"#Oracle lend(): Need to lend greater than 0  in value\"); // covered by PositionManager verifyAmount()\n    require(value <= _storage.getAvailableCapital(key), \"#Oracle lend(): Not enough available capital in this portfolio to lend this value\");\n\n    IPortfolioManager(_storage.getVerifier(key)).lend(key, opportunityKey, opportunity, value, true);\n\n  }\n\n\n  /// @notice  Entrypoint for the off-chain oracle to carry out rebalances. We\n  ///          have this function to make it faster/more efficient to rebalance.\n  ///\n  /// @dev     All indexes must be correlated across the same type (w or l)\n  ///\n  /// @param   wOpportunityKeys - The opportunity keys of platforms we're withdrawing from\n  /// @param   wOpps - The opportunity contract addresses of the platforms we're withdrawing from\n  /// @param   wValues - The amount we're withdrawing\n  /// @param   lOpportunityKeys - The opportunity keys of platforms we're lending to\n  /// @param   lOpps - The opportunity contract addresses of the platforms we're lending to\n  /// @param   lValues - The amount we're lending to\n  function rebalance(\n    bytes32 key,\n    bytes32[] memory wOpportunityKeys,\n    address[] memory wOpps,\n    uint[] memory wValues,\n    bytes32[] memory lOpportunityKeys,\n    address[] memory lOpps,\n    uint[] memory lValues\n  )\n    public // not external b/c we use memory to pass in the arrays\n    onlyOracles\n    notDeprecated\n  {\n\n    // notPaused(key); // checked in PortfolioManager\n\n    // entering invalid portfolios will throw not at our check in PortfolioManager,\n    // but when it tries to call the address in verifier (which would be NULL/false)\n\n    uint totalWithdrawn;\n    uint totalLent;\n\n    // Watch for breaching the block gas limit on for loops like this - it's fine\n    // for now but need to check how scalable in the future.\n    for (uint i = 0; i < wOpps.length; i++) {\n\n      IPortfolioManager(_storage.getVerifier(key)).withdraw(key, wOpportunityKeys[i], wOpps[i], wValues[i], false);\n\n      totalWithdrawn += wValues[i];\n\n    }\n\n    // Watch for breaching the block gas limit on for loops like this - it's fine\n    // for now but need to check how scalable in the future\n    for (i = 0; i < lOpps.length; i++) {\n\n      IPortfolioManager(_storage.getVerifier(key)).lend(key, lOpportunityKeys[i], lOpps[i], lValues[i], false);\n\n      totalLent += lValues[i];\n\n    }\n\n    uint currAvailableCapital =  _storage.getAvailableCapital(key);\n\n    require(totalLent <= (totalWithdrawn + currAvailableCapital), \"#Oracle rebalance(): The amount lent out must be less than or equal to the amount withdrawn + the available capital\");\n\n    if (totalLent > totalWithdrawn) {\n\n      uint amountFromAvailableCapital = totalLent - totalWithdrawn;\n\n      uint newAvailableCapital = SafeMath.sub(currAvailableCapital, amountFromAvailableCapital); // will revert if underflows\n      StorageWrapperTwo(_storage.getContractAddress(STORAGE_WRAPPER_TWO_CONTRACT)).setAvailableCapital(key, newAvailableCapital);\n\n    }\n\n  }\n\n\n  /** ----------------- ONLY ADMIN MUTATORS ----------------- **/\n\n\n  /// @notice  Only called when we're withdrawing from PortfolioManager on an upgrade\n  ///\n  /// @param   key - The portfolio key we're withdrawing from\n  /// @param   opportunityKey - The opportunity key we're withdrawing from\n  /// @param   opportunity - The contract address of the opportunity\n  /// @param   value - The value in-kind in the smallest units we're withdrawing\n  function withdraw(\n    bytes32 key,\n    bytes32 opportunityKey,\n    address opportunity,\n    uint value\n  )\n    external\n    onlyAdmin\n    notDeprecated\n  {\n\n    IPortfolioManager(_storage.getVerifier(key)).withdraw(key, opportunityKey, opportunity, value, true);\n\n  }\n\n\n  /// @notice  Sets the deprecated flag of the contract\n  ///\n  /// @dev     Used when upgrading a contract\n  ///\n  /// @param   value - true to deprecate, false to un-deprecate\n  function setDeprecated(bool value) external onlyAdmin {\n\n      deprecated = value;\n\n  }\n\n\n  /** ----------------- ONLY RAY(S) MUTATORS ----------------- **/\n\n\n  /// @notice  Tells the PortfolioManager which protocols to withdraw from upon a\n  ///          withdrawal request from a user.\n  ///\n  /// @dev     This is hard-coded currently in order of withdrawal from Opportunities\n  ///\n  /// @param   key - The portfolio key to use to find the Opportunities of this portfolio\n  /// @param   valueToWithdraw - The amount to withdraw in total.\n  /// @param   totalValue - The tokens total value, used to not withdraw more value then allowed\n  ///\n  /// @return  The amount of value to add to the top-level tokens withdrawal\n  ///\n  /// TODO:    Don't hard-code, maybe keep a map of spots each Opp. is ranked in and\n  ///          update off some threshold. Currently this will just withdraw from the first\n  ///          protocols that have enough value, it loops through based on what order\n  ///          they were added in. A rebalance will re-optimize the amounts\n  function withdrawFromProtocols(\n    bytes32 key,\n    uint valueToWithdraw,\n    uint totalValue\n  )\n    public\n    notDeprecated\n    onlyPortfolioManager(key)\n    returns (uint)\n  {\n\n    uint totalDust;\n    uint leftToWithdraw = valueToWithdraw;\n\n    leftToWithdraw = considerAvailableCapital(key, leftToWithdraw);\n\n    if (leftToWithdraw == 0) {\n      return 0;\n    }\n\n    // I think it's better UX to let revert then return less then requested funds.\n    // We check the market is liquid enough off-chain now BEFORE the request to\n    // withdraw is ever made to avoid that scenario anyway\n\n    bytes32[] memory opportunities;\n    opportunities = _storage.getOpportunities(key);\n\n    // Watch for breaching the block gas limit on for loops like this, it's fine\n    // now but need to check how scalable in the future\n   for (uint i = 0; i < opportunities.length; i++) {\n\n       bytes32 opportunityKey = opportunities[i];\n       address opportunity = _storage.getVerifier(opportunityKey);\n       uint opportunityBalance = INAVCalculator(_storage.getContractAddress(NAV_CALCULATOR_CONTRACT)).getOpportunityBalance(key, opportunityKey);\n\n       if (opportunityBalance <= 0) {\n\n         continue;\n\n       }\n\n       (totalDust, leftToWithdraw) = executeWithdraw(\n         key,\n         opportunityKey,\n         opportunity,\n         leftToWithdraw,\n         opportunityBalance,\n         totalDust\n       );\n\n       if (leftToWithdraw == 0) {\n\n         break;\n\n       }\n\n   }\n\n   if ((valueToWithdraw + totalDust) > totalValue) {\n\n     uint overflow = (valueToWithdraw + totalDust) - totalValue;\n     totalDust -= overflow;\n\n     emit LogOpportunityDust(key, overflow);\n\n   }\n\n   return totalDust;\n\n}\n\n\n  /// @notice  Consider withdrawing from the available capital of the portfolio\n  ///          on withdrawals.\n  ///\n  /// @return  The value left to withdraw\n  function considerAvailableCapital(\n    bytes32 key,\n    uint valueToWithdraw\n  )\n    internal\n    returns(uint)\n  {\n\n    uint availableCapital = _storage.getAvailableCapital(key);\n\n    if (valueToWithdraw <= availableCapital) {\n\n      StorageWrapperTwo(_storage.getContractAddress(STORAGE_WRAPPER_TWO_CONTRACT)).setAvailableCapital(key, availableCapital - valueToWithdraw);\n      return 0;\n\n    } else if (availableCapital > 0) {\n\n      StorageWrapperTwo(_storage.getContractAddress(STORAGE_WRAPPER_TWO_CONTRACT)).setAvailableCapital(key, 0);\n      valueToWithdraw -= availableCapital;\n\n    }\n\n    return valueToWithdraw;\n\n  }\n\n\n  /// @notice  Execute the withdrawal\n  ///\n  /// @return  The total dust we'll be withdrawing and the updated value left to withdraw\n  function executeWithdraw(\n    bytes32 key,\n    bytes32 opportunityKey,\n    address opportunity,\n    uint valueToWithdraw,\n    uint opportunityBalance,\n    uint totalDust\n  )\n    internal\n    returns(uint, uint)\n  {\n\n    // TODO: maybe don't check for equality so we don't unneccessarily call flatten\n    if (valueToWithdraw <= opportunityBalance) {\n\n      uint dust = flattenNumber(key, opportunityKey, opportunity, valueToWithdraw);\n      valueToWithdraw += dust;\n      totalDust += dust;\n      IPortfolioManager(_storage.getVerifier(key)).withdraw(key, opportunityKey, opportunity, valueToWithdraw, false);\n\n      return (totalDust, 0);\n\n    } else {\n\n      valueToWithdraw -= opportunityBalance;\n      IPortfolioManager(_storage.getVerifier(key)).withdraw(key, opportunityKey, opportunity, opportunityBalance, false);\n\n      return (totalDust, valueToWithdraw);\n\n    }\n\n  }\n\n\n  /// @notice  Flattens the number of shares we'll be withdrawing from an Opportunity\n  ///          token.\n  ///\n  /// @return  The extra value to withdraw\n  function flattenNumber(\n    bytes32 key,\n    bytes32 opportunityKey,\n    address opportunity,\n    uint valueToWithdraw\n  )\n    internal\n    view\n    returns (uint)\n  {\n\n    uint shares = _storage.getTokenShares(opportunityKey, _storage.getOpportunityToken(key, opportunityKey));\n    uint pricePerShare = INAVCalculator(_storage.getContractAddress(NAV_CALCULATOR_CONTRACT)).getOpportunityPricePerShare(opportunityKey);\n    uint raised = _storage.getRaised(_storage.getPrincipalAddress(key));\n\n    uint beforeCeilingShares = calculateShares(valueToWithdraw, shares, pricePerShare, raised);\n    uint afterCeilingShares = calculateCeiling(beforeCeilingShares, 10);\n\n    if (afterCeilingShares > shares) {\n\n      afterCeilingShares = shares;\n\n    }\n\n    uint extraShares = afterCeilingShares - beforeCeilingShares;\n\n    return (pricePerShare * extraShares / ON_CHAIN_PRECISION);\n\n  }\n\n\n  /// @notice  Calculate the shares we need to redeem for a certain value to be withdrawn\n  ///          from the system.\n  ///\n  /// @return  the number of shares\n  function calculateShares(\n    uint valueToWithdraw,\n    uint shares,\n    uint pricePerShare,\n    uint raised\n  )\n    internal\n    view\n    returns(uint)\n  {\n\n    uint beforeCeilingPercentage = (valueToWithdraw * raised / ((shares * pricePerShare) / raised));\n    uint beforeCeilingShares = (shares * beforeCeilingPercentage / raised);\n\n    return beforeCeilingShares;\n\n  }\n\n\n  /// @notice  Find the ceiling of a divisions result\n  ///\n  /// @return  The ceiling of the result\n  function calculateCeiling(uint a, uint m) internal pure returns (uint) {\n     return ((a + m - 1) / m) * m;\n }\n\n\n}\n",
  "sourcePath": "/Users/tom/www/robo-advisor-yield/contracts/ray/protocol/impl/Oracle.sol",
  "compiler": {
    "name": "solc",
    "version": "0.4.25+commit.59dbf8f1.Emscripten.clang"
  },
  "schemaVersion": "3.0.11",
  "updatedAt": "2019-10-25T03:55:56.920Z",
  "devdoc": {
    "methods": {
      "lend(bytes32,bytes32,address,uint256)": {
        "params": {
          "key": "- The portfolio key to lend too",
          "opportunity": "- The opportunity's contract address we're lending too (ours not the third-party one)",
          "opportunityKey": "- The opportunity key of the opportunity we want to lend too",
          "value": "- The value we're lending in-kind smallest units"
        }
      },
      "rebalance(bytes32,bytes32[],address[],uint256[],bytes32[],address[],uint256[])": {
        "details": "All indexes must be correlated across the same type (w or l) ",
        "params": {
          "lOpportunityKeys": "- The opportunity keys of platforms we're lending to",
          "lOpps": "- The opportunity contract addresses of the platforms we're lending to",
          "lValues": "- The amount we're lending to",
          "wOpportunityKeys": "- The opportunity keys of platforms we're withdrawing from",
          "wOpps": "- The opportunity contract addresses of the platforms we're withdrawing from",
          "wValues": "- The amount we're withdrawing"
        }
      },
      "setDeprecated(bool)": {
        "details": "Used when upgrading a contract ",
        "params": {
          "value": "- true to deprecate, false to un-deprecate"
        }
      },
      "withdraw(bytes32,bytes32,address,uint256)": {
        "params": {
          "key": "- The portfolio key we're withdrawing from",
          "opportunity": "- The contract address of the opportunity",
          "opportunityKey": "- The opportunity key we're withdrawing from",
          "value": "- The value in-kind in the smallest units we're withdrawing"
        }
      },
      "withdrawFromProtocols(bytes32,uint256,uint256)": {
        "details": "This is hard-coded currently in order of withdrawal from Opportunities ",
        "params": {
          "key": "- The portfolio key to use to find the Opportunities of this portfolio",
          "totalValue": "- The tokens total value, used to not withdraw more value then allowed ",
          "valueToWithdraw": "- The amount to withdraw in total."
        },
        "return": "The amount of value to add to the top-level tokens withdrawal   /// TODO:    Don't hard-code, maybe keep a map of spots each Opp. is ranked in and          update off some threshold. Currently this will just withdraw from the first          protocols that have enough value, it loops through based on what order          they were added in. A rebalance will re-optimize the amounts"
      }
    }
  },
  "userdoc": {
    "methods": {
      "lend(bytes32,bytes32,address,uint256)": {
        "notice": "Entrypoint for the off-chain oracle to instruct initial lending "
      },
      "rebalance(bytes32,bytes32[],address[],uint256[],bytes32[],address[],uint256[])": {
        "notice": "Entrypoint for the off-chain oracle to carry out rebalances. We          have this function to make it faster/more efficient to rebalance. "
      },
      "setDeprecated(bool)": {
        "notice": "Sets the deprecated flag of the contract "
      },
      "withdraw(bytes32,bytes32,address,uint256)": {
        "notice": "Only called when we're withdrawing from PortfolioManager on an upgrade "
      },
      "withdrawFromProtocols(bytes32,uint256,uint256)": {
        "notice": "Tells the PortfolioManager which protocols to withdraw from upon a          withdrawal request from a user. "
      }
    }
  }
}