{
  "contractName": "PortfolioManager",
  "abi": [
    {
      "constant": true,
      "inputs": [],
      "name": "deprecated",
      "outputs": [
        {
          "name": "",
          "type": "bool"
        }
      ],
      "payable": false,
      "stateMutability": "view",
      "type": "function"
    },
    {
      "constant": true,
      "inputs": [],
      "name": "_storage",
      "outputs": [
        {
          "name": "",
          "type": "address"
        }
      ],
      "payable": false,
      "stateMutability": "view",
      "type": "function"
    },
    {
      "inputs": [
        {
          "name": "__storage",
          "type": "address"
        }
      ],
      "payable": false,
      "stateMutability": "nonpayable",
      "type": "constructor"
    },
    {
      "payable": true,
      "stateMutability": "payable",
      "type": "fallback"
    },
    {
      "anonymous": false,
      "inputs": [
        {
          "indexed": true,
          "name": "tokenId",
          "type": "bytes32"
        },
        {
          "indexed": true,
          "name": "portfolioId",
          "type": "bytes32"
        },
        {
          "indexed": true,
          "name": "beneficiary",
          "type": "address"
        },
        {
          "indexed": false,
          "name": "value",
          "type": "uint256"
        }
      ],
      "name": "LogMintRAYT",
      "type": "event"
    },
    {
      "anonymous": false,
      "inputs": [
        {
          "indexed": false,
          "name": "tokenId",
          "type": "bytes32"
        },
        {
          "indexed": true,
          "name": "portfolioId",
          "type": "bytes32"
        }
      ],
      "name": "LogMintOpportunityToken",
      "type": "event"
    },
    {
      "anonymous": false,
      "inputs": [
        {
          "indexed": true,
          "name": "tokenId",
          "type": "bytes32"
        },
        {
          "indexed": false,
          "name": "value",
          "type": "uint256"
        },
        {
          "indexed": false,
          "name": "tokenValue",
          "type": "uint256"
        }
      ],
      "name": "LogWithdrawFromRAYT",
      "type": "event"
    },
    {
      "anonymous": false,
      "inputs": [
        {
          "indexed": true,
          "name": "tokenId",
          "type": "bytes32"
        },
        {
          "indexed": true,
          "name": "beneficiary",
          "type": "address"
        },
        {
          "indexed": false,
          "name": "value",
          "type": "uint256"
        },
        {
          "indexed": false,
          "name": "tokenValue",
          "type": "uint256"
        }
      ],
      "name": "LogBurnRAYT",
      "type": "event"
    },
    {
      "anonymous": false,
      "inputs": [
        {
          "indexed": true,
          "name": "tokenId",
          "type": "bytes32"
        },
        {
          "indexed": false,
          "name": "value",
          "type": "uint256"
        },
        {
          "indexed": false,
          "name": "tokenValue",
          "type": "uint256"
        }
      ],
      "name": "LogDepositToRAYT",
      "type": "event"
    },
    {
      "constant": false,
      "inputs": [
        {
          "name": "portfolioId",
          "type": "bytes32"
        },
        {
          "name": "beneficiary",
          "type": "address"
        },
        {
          "name": "value",
          "type": "uint256"
        }
      ],
      "name": "mint",
      "outputs": [
        {
          "name": "",
          "type": "bytes32"
        }
      ],
      "payable": true,
      "stateMutability": "payable",
      "type": "function"
    },
    {
      "constant": false,
      "inputs": [
        {
          "name": "tokenId",
          "type": "bytes32"
        },
        {
          "name": "value",
          "type": "uint256"
        }
      ],
      "name": "deposit",
      "outputs": [],
      "payable": true,
      "stateMutability": "payable",
      "type": "function"
    },
    {
      "constant": false,
      "inputs": [
        {
          "name": "tokenId",
          "type": "bytes32"
        },
        {
          "name": "valueToWithdraw",
          "type": "uint256"
        },
        {
          "name": "originalCaller",
          "type": "address"
        }
      ],
      "name": "redeem",
      "outputs": [
        {
          "name": "",
          "type": "uint256"
        }
      ],
      "payable": false,
      "stateMutability": "nonpayable",
      "type": "function"
    },
    {
      "constant": false,
      "inputs": [
        {
          "name": "",
          "type": "address"
        },
        {
          "name": "from",
          "type": "address"
        },
        {
          "name": "tokenId",
          "type": "uint256"
        },
        {
          "name": "",
          "type": "bytes"
        }
      ],
      "name": "onERC721Received",
      "outputs": [
        {
          "name": "",
          "type": "bytes4"
        }
      ],
      "payable": false,
      "stateMutability": "nonpayable",
      "type": "function"
    },
    {
      "constant": false,
      "inputs": [
        {
          "name": "portfolioId",
          "type": "bytes32"
        },
        {
          "name": "opportunityId",
          "type": "bytes32"
        },
        {
          "name": "opportunity",
          "type": "address"
        },
        {
          "name": "value",
          "type": "uint256"
        },
        {
          "name": "subtract",
          "type": "bool"
        }
      ],
      "name": "lend",
      "outputs": [],
      "payable": false,
      "stateMutability": "nonpayable",
      "type": "function"
    },
    {
      "constant": false,
      "inputs": [
        {
          "name": "portfolioId",
          "type": "bytes32"
        },
        {
          "name": "opportunityId",
          "type": "bytes32"
        },
        {
          "name": "opportunity",
          "type": "address"
        },
        {
          "name": "value",
          "type": "uint256"
        },
        {
          "name": "add",
          "type": "bool"
        }
      ],
      "name": "withdraw",
      "outputs": [],
      "payable": false,
      "stateMutability": "nonpayable",
      "type": "function"
    },
    {
      "constant": false,
      "inputs": [
        {
          "name": "portfolioId",
          "type": "bytes32"
        },
        {
          "name": "beneficiary",
          "type": "address"
        },
        {
          "name": "value",
          "type": "uint256"
        }
      ],
      "name": "transferFunds",
      "outputs": [],
      "payable": false,
      "stateMutability": "nonpayable",
      "type": "function"
    },
    {
      "constant": false,
      "inputs": [
        {
          "name": "token",
          "type": "address"
        },
        {
          "name": "beneficiary",
          "type": "address"
        },
        {
          "name": "amount",
          "type": "uint256"
        }
      ],
      "name": "approve",
      "outputs": [],
      "payable": false,
      "stateMutability": "nonpayable",
      "type": "function"
    },
    {
      "constant": false,
      "inputs": [
        {
          "name": "token",
          "type": "address"
        },
        {
          "name": "to",
          "type": "address"
        },
        {
          "name": "approved",
          "type": "bool"
        }
      ],
      "name": "setApprovalForAll",
      "outputs": [],
      "payable": false,
      "stateMutability": "nonpayable",
      "type": "function"
    },
    {
      "constant": false,
      "inputs": [
        {
          "name": "value",
          "type": "bool"
        }
      ],
      "name": "setDeprecated",
      "outputs": [],
      "payable": false,
      "stateMutability": "nonpayable",
      "type": "function"
    },
    {
      "constant": false,
      "inputs": [
        {
          "name": "value",
          "type": "uint256"
        },
        {
          "name": "principalToken",
          "type": "address"
        },
        {
          "name": "isERC20",
          "type": "bool"
        }
      ],
      "name": "fallbackClaim",
      "outputs": [],
      "payable": false,
      "stateMutability": "nonpayable",
      "type": "function"
    }
  ],
  "bytecode": "0x608060405234801561001057600080fd5b5060405160208062005d44833981016040525160008054600160a060020a03909216600160a060020a0319909216919091179055615cf080620000546000396000f3006080604052600436106100ab5763ffffffff60e060020a6000350416630e136b1981146100ad578063112ad90b146100d6578063150b7a021461010f5780631de26e16146101b3578063367605ca146101c157806337310a8a146101ed5780637ed9db591461021c5780639db165c514610236578063c18eb1ec14610265578063c3fb90d61461028c578063d1432e89146102bd578063d848dee7146102e6578063e1f21c6714610300575b005b3480156100b957600080fd5b506100c261032a565b604080519115158252519081900360200190f35b3480156100e257600080fd5b506100fd600435602435600160a060020a036044351661033a565b60408051918252519081900360200190f35b34801561011b57600080fd5b50604080516020601f60643560048181013592830184900484028501840190955281845261017e94600160a060020a0381358116956024803590921695604435953695608494019181908401838280828437509497506108bd9650505050505050565b604080517fffffffff000000000000000000000000000000000000000000000000000000009092168252519081900360200190f35b6100ab600435602435611543565b3480156101cd57600080fd5b506100ab600160a060020a03600435811690602435166044351515611d93565b3480156101f957600080fd5b506100ab600435602435600160a060020a03604435166064356084351515611f18565b6100fd600435600160a060020a03602435166044356122fa565b34801561024257600080fd5b506100ab600435602435600160a060020a03604435166064356084351515612d6f565b34801561027157600080fd5b506100ab600435600160a060020a0360243516604435613148565b34801561029857600080fd5b506102a1613254565b60408051600160a060020a039092168252519081900360200190f35b3480156102c957600080fd5b506100ab600435600160a060020a03602435166044351515613263565b3480156102f257600080fd5b506100ab60043515156135d3565b34801561030c57600080fd5b506100ab600160a060020a03600435811690602435166044356136fe565b60005460a060020a900460ff1681565b600080548190819081908190819060a060020a900460ff16156103ca576040805160e560020a62461bcd0281526020600482015260616024820152600080516020615c458339815191526044820152600080516020615ca58339815191526064820152600080516020615c25833981519152608482015260fa60020a60190260a482015290519081900360c40190fd5b6000805460408051600080516020615c858339815191528152815190819003601001812060e060020a630d2020dd028252600482015290518c93600160a060020a0390931692630d2020dd92602480820193602093909283900390910190829087803b15801561043957600080fd5b505af115801561044d573d6000803e3d6000fd5b505050506040513d602081101561046357600080fd5b5051604080517f56fa44a6000000000000000000000000000000000000000000000000000000008152600481018490529051600160a060020a03909216916356fa44a6916024808201926020929091908290030181600087803b1580156104c957600080fd5b505af11580156104dd573d6000803e3d6000fd5b505050506040513d60208110156104f357600080fd5b50511515610597576040805160e560020a62461bcd02815260206004820152604260248201527f23506f7274666f6c696f4d616e616e676572206578697374696e67524159542060448201527f4d6f6469666965723a2054686973206973206e6f7420612076616c696420524160648201527f5954000000000000000000000000000000000000000000000000000000000000608482015290519081900360a40190fd5b6000805460408051600080516020615b458339815191528152815190819003601501812060e060020a630d2020dd02825260048201529051600160a060020a0390921692630d2020dd926024808401936020939083900390910190829087803b15801561060357600080fd5b505af1158015610617573d6000803e3d6000fd5b505050506040513d602081101561062d57600080fd5b5051604080517f8ef41a4f000000000000000000000000000000000000000000000000000000008152600481018d9052600160a060020a038b8116602483015233604483015291519190921691638ef41a4f9160648083019260209291908290030181600087803b1580156106a157600080fd5b505af11580156106b5573d6000803e3d6000fd5b505050506040513d60208110156106cb57600080fd5b505160008054604080517f43aee400000000000000000000000000000000000000000000000000000000008152600481018f90529051939950600160a060020a03909116926343aee40092602480840193602093929083900390910190829087803b15801561073957600080fd5b505af115801561074d573d6000803e3d6000fd5b505050506040513d602081101561076357600080fd5b50516000805460408051600080516020615b458339815191528152815190819003601501812060e060020a630d2020dd02825260048201529051939650600160a060020a0390911692630d2020dd92602480840193602093929083900390910190829087803b1580156107d557600080fd5b505af11580156107e9573d6000803e3d6000fd5b505050506040513d60208110156107ff57600080fd5b5051604080517f2cc7b6f700000000000000000000000000000000000000000000000000000000815260048101869052602481018d90528151600160a060020a0390931692632cc7b6f7926044808401939192918290030181600087803b15801561086957600080fd5b505af115801561087d573d6000803e3d6000fd5b505050506040513d604081101561089357600080fd5b50805160209091015190955093506108af838b868c898b613905565b9a9950505050505050505050565b600080548190819081908190819060a060020a900460ff161561094d576040805160e560020a62461bcd0281526020600482015260616024820152600080516020615c458339815191526044820152600080516020615ca58339815191526064820152600080516020615c25833981519152608482015260fa60020a60190260a482015290519081900360c40190fd5b6000805460408051600080516020615c858339815191528152815190819003601001812060e060020a630d2020dd028252600482015290518b9850600160a060020a0390921692630d2020dd926024808401936020939083900390910190829087803b1580156109bc57600080fd5b505af11580156109d0573d6000803e3d6000fd5b505050506040513d60208110156109e657600080fd5b5051604080517f56fa44a6000000000000000000000000000000000000000000000000000000008152600481018890529051600160a060020a03909216916356fa44a6916024808201926020929091908290030181600087803b158015610a4c57600080fd5b505af1158015610a60573d6000803e3d6000fd5b505050506040513d6020811015610a7657600080fd5b50518015610b2357506000805460408051600080516020615c858339815191528152815190819003601001812060e060020a630d2020dd02825260048201529051600160a060020a0390921692630d2020dd926024808401936020939083900390910190829087803b158015610aeb57600080fd5b505af1158015610aff573d6000803e3d6000fd5b505050506040513d6020811015610b1557600080fd5b5051600160a060020a031633145b156114dc5760008054604080517f43aee400000000000000000000000000000000000000000000000000000000008152600481018990529051600160a060020a03909216926343aee400926024808401936020939083900390910190829087803b158015610b9057600080fd5b505af1158015610ba4573d6000803e3d6000fd5b505050506040513d6020811015610bba57600080fd5b50516000805460408051600080516020615b458339815191528152815190819003601501812060e060020a630d2020dd02825260048201529051939750600160a060020a0390911692630d2020dd92602480840193602093929083900390910190829087803b158015610c2c57600080fd5b505af1158015610c40573d6000803e3d6000fd5b505050506040513d6020811015610c5657600080fd5b5051604080517f2cc7b6f700000000000000000000000000000000000000000000000000000000815260048101879052602481018890528151600160a060020a0390931692632cc7b6f7926044808401939192918290030181600087803b158015610cc057600080fd5b505af1158015610cd4573d6000803e3d6000fd5b505050506040513d6040811015610cea57600080fd5b5080516020909101519093509150600083111561125c576000805460408051600080516020615ba58339815191528152815190819003600e01812060e060020a630d2020dd02825260048201529051600160a060020a0390921692630d2020dd926024808401936020939083900390910190829087803b158015610d6d57600080fd5b505af1158015610d81573d6000803e3d6000fd5b505050506040513d6020811015610d9757600080fd5b5051604080517fd2684e780000000000000000000000000000000000000000000000000000000081526004810187905260248101869052604481018690529051600160a060020a039092169163d2684e78916064808201926020929091908290030181600087803b158015610e0b57600080fd5b505af1158015610e1f573d6000803e3d6000fd5b505050506040513d6020811015610e3557600080fd5b50506000805460408051600080516020615b658339815191528152815190819003601001812060e060020a630d2020dd02825260048201529051600160a060020a0390921692630d2020dd926024808401936020939083900390910190829087803b158015610ea357600080fd5b505af1158015610eb7573d6000803e3d6000fd5b505050506040513d6020811015610ecd57600080fd5b5051604080517f224f6ae4000000000000000000000000000000000000000000000000000000008152600481018790526024810188905260448101869052606481018690529051600160a060020a039092169163224f6ae4916084808201926020929091908290030181600087803b158015610f4857600080fd5b505af1158015610f5c573d6000803e3d6000fd5b505050506040513d6020811015610f7257600080fd5b50516000805460408051600080516020615b858339815191528152815190819003601701812060e060020a630d2020dd02825260048201529051939450600160a060020a0390911692630d2020dd92602480840193602093929083900390910190829087803b158015610fe457600080fd5b505af1158015610ff8573d6000803e3d6000fd5b505050506040513d602081101561100e57600080fd5b505160008054604080517fd400d43a00000000000000000000000000000000000000000000000000000000815260048101899052602481018a90529051600160a060020a0394851694632cacb38a948a948c948b948b949092169263d400d43a926044808401936020939083900390910190829087803b15801561109157600080fd5b505af11580156110a5573d6000803e3d6000fd5b505050506040513d60208110156110bb57600080fd5b50516000805460408051600080516020615b458339815191528152815190819003601501812060e060020a630d2020dd02825260048201529051600160a060020a0390921692630d2020dd926024808401936020939083900390910190829087803b15801561112957600080fd5b505af115801561113d573d6000803e3d6000fd5b505050506040513d602081101561115357600080fd5b5051604080517f660dfdac000000000000000000000000000000000000000000000000000000008152600481018e90529051600160a060020a039092169163660dfdac916024808201926020929091908290030181600087803b1580156111b957600080fd5b505af11580156111cd573d6000803e3d6000fd5b505050506040513d60208110156111e357600080fd5b50516040805160e060020a63ffffffff8a160281526004810197909752602487019590955260448601939093526064850191909152608484015260a48301525160c480830192600092919082900301818387803b15801561124357600080fd5b505af1158015611257573d6000803e3d6000fd5b505050505b6000805460408051600080516020615c658339815191528152815190819003601901812060e060020a630d2020dd02825260048201529051600160a060020a0390921692630d2020dd926024808401936020939083900390910190829087803b1580156112c857600080fd5b505af11580156112dc573d6000803e3d6000fd5b505050506040513d60208110156112f257600080fd5b5051604080517fe08f645000000000000000000000000000000000000000000000000000000000815260048101879052602481018890529051600160a060020a039092169163e08f64509160448082019260009290919082900301818387803b15801561135e57600080fd5b505af1158015611372573d6000803e3d6000fd5b50506000805460408051600080516020615c858339815191528152815190819003601001812060e060020a630d2020dd02825260048201529051600160a060020a039092169450630d2020dd93506024808201936020939283900390910190829087803b1580156113e257600080fd5b505af11580156113f6573d6000803e3d6000fd5b505050506040513d602081101561140c57600080fd5b5051604080517f42966c68000000000000000000000000000000000000000000000000000000008152600481018b90529051600160a060020a03909216916342966c689160248082019260009290919082900301818387803b15801561147157600080fd5b505af1158015611485573d6000803e3d6000fd5b505060408051848152602081018790528151600160a060020a038e1694508993507f0bd3fcb807f1d221b244db840e76cf0397f60bebc84a4e9d899cf85bf1076582929181900390910190a36114dc848a83613dbf565b604080517f6f6e455243373231526563656976656428616464726573732c6164647265737381527f2c75696e743235362c62797465732900000000000000000000000000000000006020820152905190819003602f01902095505050505050949350505050565b600080548190819060a060020a900460ff16156115cd576040805160e560020a62461bcd0281526020600482015260616024820152600080516020615c458339815191526044820152600080516020615ca58339815191526064820152600080516020615c25833981519152608482015260fa60020a60190260a482015290519081900360c40190fd5b6000805460408051600080516020615c858339815191528152815190819003601001812060e060020a630d2020dd028252600482015290518893600160a060020a0390931692630d2020dd92602480820193602093909283900390910190829087803b15801561163c57600080fd5b505af1158015611650573d6000803e3d6000fd5b505050506040513d602081101561166657600080fd5b5051604080517f56fa44a6000000000000000000000000000000000000000000000000000000008152600481018490529051600160a060020a03909216916356fa44a6916024808201926020929091908290030181600087803b1580156116cc57600080fd5b505af11580156116e0573d6000803e3d6000fd5b505050506040513d60208110156116f657600080fd5b5051151561179a576040805160e560020a62461bcd02815260206004820152604260248201527f23506f7274666f6c696f4d616e616e676572206578697374696e67524159542060448201527f4d6f6469666965723a2054686973206973206e6f7420612076616c696420524160648201527f5954000000000000000000000000000000000000000000000000000000000000608482015290519081900360a40190fd5b60008054604080517f43aee400000000000000000000000000000000000000000000000000000000008152600481018a90529051600160a060020a03909216926343aee400926024808401936020939083900390910190829087803b15801561180257600080fd5b505af1158015611816573d6000803e3d6000fd5b505050506040513d602081101561182c57600080fd5b5051935061183984614062565b611844843387614265565b6000805460408051600080516020615b658339815191528152815190819003601001812060e060020a630d2020dd02825260048201529051600160a060020a0390921692630d2020dd926024808401936020939083900390910190829087803b1580156118b057600080fd5b505af11580156118c4573d6000803e3d6000fd5b505050506040513d60208110156118da57600080fd5b5051604080517fb3370af800000000000000000000000000000000000000000000000000000000815260048101879052602481018990529051600160a060020a039092169163b3370af8916044808201926020929091908290030181600087803b15801561194757600080fd5b505af115801561195b573d6000803e3d6000fd5b505050506040513d602081101561197157600080fd5b50506000805460408051600080516020615b458339815191528152815190819003601501812060e060020a630d2020dd02825260048201529051600160a060020a0390921692630d2020dd926024808401936020939083900390910190829087803b1580156119df57600080fd5b505af11580156119f3573d6000803e3d6000fd5b505050506040513d6020811015611a0957600080fd5b5051604080517f2cc7b6f700000000000000000000000000000000000000000000000000000000815260048101879052602481018990528151600160a060020a0390931692632cc7b6f7926044808401939192918290030181600087803b158015611a7357600080fd5b505af1158015611a87573d6000803e3d6000fd5b505050506040513d6040811015611a9d57600080fd5b5080516020918201516000805460408051600080516020615b858339815191528152815190819003601701812060e060020a630d2020dd02825260048201529051949850929650600160a060020a031693630d2020dd93602480850194929391928390030190829087803b158015611b1457600080fd5b505af1158015611b28573d6000803e3d6000fd5b505050506040513d6020811015611b3e57600080fd5b5051604080517f26b83111000000000000000000000000000000000000000000000000000000008152600481018790526024810189905260448101859052606481018890529051600160a060020a03909216916326b831119160848082019260009290919082900301818387803b158015611bb857600080fd5b505af1158015611bcc573d6000803e3d6000fd5b50506000805460408051600080516020615c658339815191528152815190819003601901812060e060020a630d2020dd02825260048201529051600160a060020a039092169450630d2020dd93506024808201936020939283900390910190829087803b158015611c3c57600080fd5b505af1158015611c50573d6000803e3d6000fd5b505050506040513d6020811015611c6657600080fd5b5051600080546040805160e260020a6309c33843028152600481018990529051600160a060020a039485169463bce31655948a948c9492169263270ce10c926024808201936020939283900390910190829087803b158015611cc757600080fd5b505af1158015611cdb573d6000803e3d6000fd5b505050506040513d6020811015611cf157600080fd5b50516040805160e060020a63ffffffff871602815260048101949094529101602483015251604480830192600092919082900301818387803b158015611d3657600080fd5b505af1158015611d4a573d6000803e3d6000fd5b5050604080518881526020810187905281518a94507ffff8686c8b56b6a19106d2a4b11b38aaa74223776a3e39810930c5d3e6a08f0d93509081900390910190a2505050505050565b6000805460408051600080516020615bc58339815191528152815190819003600d01812060e060020a630d2020dd028252600482015290513393600160a060020a039390931692630d2020dd92602480820193602093909283900390910190829087803b158015611e0357600080fd5b505af1158015611e17573d6000803e3d6000fd5b505050506040513d6020811015611e2d57600080fd5b5051600160a060020a031614611e8f576040805160e560020a62461bcd02815260206004820152603a6024820152600080516020615be58339815191526044820152600080516020615c05833981519152606482015290519081900360840190fd5b604080517fa22cb465000000000000000000000000000000000000000000000000000000008152600160a060020a038481166004830152831515602483015291519185169163a22cb4659160448082019260009290919082900301818387803b158015611efb57600080fd5b505af1158015611f0f573d6000803e3d6000fd5b50505050505050565b6000805460408051600080516020615ba58339815191528152815190819003600e01812060e060020a630d2020dd028252600482015290513393600160a060020a039390931692630d2020dd92602480820193602093909283900390910190829087803b158015611f8857600080fd5b505af1158015611f9c573d6000803e3d6000fd5b505050506040513d6020811015611fb257600080fd5b5051600160a060020a031614612038576040805160e560020a62461bcd02815260206004820152603c60248201527f234e43436f6e74726f6c6c6572206f6e6c794f7261636c65204d6f646966696560448201527f723a204f6e6c79204f7261636c652063616e2063616c6c207468697300000000606482015290519081900360840190fd5b600080546040805160e360020a631dd6f649028152600481018990529051889392600160a060020a03169163eeb7b24891602480830192602092919082900301818787803b15801561208957600080fd5b505af115801561209d573d6000803e3d6000fd5b505050506040513d60208110156120b357600080fd5b5051600160a060020a03161415612160576040805160e560020a62461bcd02815260206004820152604b60248201527f23506f7274666f6c696f4d616e616e67657220697356616c6964506f7274666f60448201527f6c696f206d6f6469666965723a2054686973206973206e6f7420612076616c6960648201527f6420706f7274666f6c696f000000000000000000000000000000000000000000608482015290519081900360a40190fd5b81156122e6576000805460408051600080516020615c658339815191528152815190819003601901812060e060020a630d2020dd02825260048201529051600160a060020a0390921692630d2020dd926024808401936020939083900390910190829087803b1580156121d257600080fd5b505af11580156121e6573d6000803e3d6000fd5b505050506040513d60208110156121fc57600080fd5b5051600080546040805160e260020a6309c33843028152600481018b90529051600160a060020a039485169463bce31655948c948a9492169263270ce10c926024808201936020939283900390910190829087803b15801561225d57600080fd5b505af1158015612271573d6000803e3d6000fd5b505050506040513d602081101561228757600080fd5b50516040805160e060020a63ffffffff87160281526004810194909452919003602483015251604480830192600092919082900301818387803b1580156122cd57600080fd5b505af11580156122e1573d6000803e3d6000fd5b505050505b6122f286868686614578565b505050505050565b6000805481908190819060a060020a900460ff1615612386576040805160e560020a62461bcd0281526020600482015260616024820152600080516020615c458339815191526044820152600080516020615ca58339815191526064820152600080516020615c25833981519152608482015260fa60020a60190260a482015290519081900360c40190fd5b600080546040805160e360020a631dd6f649028152600481018b905290518a9392600160a060020a03169163eeb7b24891602480830192602092919082900301818787803b1580156123d757600080fd5b505af11580156123eb573d6000803e3d6000fd5b505050506040513d602081101561240157600080fd5b5051600160a060020a031614156124ae576040805160e560020a62461bcd02815260206004820152604b60248201527f23506f7274666f6c696f4d616e616e67657220697356616c6964506f7274666f60448201527f6c696f206d6f6469666965723a2054686973206973206e6f7420612076616c6960648201527f6420706f7274666f6c696f000000000000000000000000000000000000000000608482015290519081900360a40190fd5b6124b788614062565b6124c2883388614265565b6000805460408051600080516020615b458339815191528152815190819003601501812060e060020a630d2020dd02825260048201529051600160a060020a0390921692630d2020dd926024808401936020939083900390910190829087803b15801561252e57600080fd5b505af1158015612542573d6000803e3d6000fd5b505050506040513d602081101561255857600080fd5b5051604080517fd9bdc6be000000000000000000000000000000000000000000000000000000008152600481018b90529051600160a060020a039092169163d9bdc6be916024808201926020929091908290030181600087803b1580156125be57600080fd5b505af11580156125d2573d6000803e3d6000fd5b505050506040513d60208110156125e857600080fd5b50516000805460408051600080516020615b858339815191528152815190819003601701812060e060020a630d2020dd02825260048201529051939750600160a060020a0390911692630d2020dd92602480840193602093929083900390910190829087803b15801561265a57600080fd5b505af115801561266e573d6000803e3d6000fd5b505050506040513d602081101561268457600080fd5b50516000805460408051600080516020615c858339815191528152815190819003601001812060e060020a630d2020dd02825260048201529051600160a060020a039485169463f68579de948e9490911692630d2020dd9260248083019360209383900390910190829087803b1580156126fd57600080fd5b505af1158015612711573d6000803e3d6000fd5b505050506040513d602081101561272757600080fd5b50516040805160e060020a63ffffffff86160281526004810193909352600160a060020a039182166024840152908b166044830152606482018a9052608482018890525160a48083019260209291908290030181600087803b15801561278c57600080fd5b505af11580156127a0573d6000803e3d6000fd5b505050506040513d60208110156127b657600080fd5b50516000805460408051600080516020615c658339815191528152815190819003601901812060e060020a630d2020dd02825260048201529051939650600160a060020a0390911692630d2020dd92602480840193602093929083900390910190829087803b15801561282857600080fd5b505af115801561283c573d6000803e3d6000fd5b505050506040513d602081101561285257600080fd5b5051604080517ff1380bc300000000000000000000000000000000000000000000000000000000815260048101869052602481018b90529051600160a060020a039092169163f1380bc39160448082019260009290919082900301818387803b1580156128be57600080fd5b505af11580156128d2573d6000803e3d6000fd5b50506000805460408051600080516020615b658339815191528152815190819003601001812060e060020a630d2020dd02825260048201529051600160a060020a039092169450630d2020dd93506024808201936020939283900390910190829087803b15801561294257600080fd5b505af1158015612956573d6000803e3d6000fd5b505050506040513d602081101561296c57600080fd5b505160008054604080517f3f1793c3000000000000000000000000000000000000000000000000000000008152600481018d90529051600160a060020a0394851694633ddb7ead94931692633f1793c392602480820193602093909283900390910190829087803b1580156129e057600080fd5b505af11580156129f4573d6000803e3d6000fd5b505050506040513d6020811015612a0a57600080fd5b50516040805160e060020a63ffffffff8516028152600160a060020a0390921660048301525160248083019260209291908290030181600087803b158015612a5157600080fd5b505af1158015612a65573d6000803e3d6000fd5b505050506040513d6020811015612a7b57600080fd5b50516000805460408051600080516020615c658339815191528152815190819003601901812060e060020a630d2020dd02825260048201529051939550600160a060020a0390911692630d2020dd92602480840193602093929083900390910190829087803b158015612aed57600080fd5b505af1158015612b01573d6000803e3d6000fd5b505050506040513d6020811015612b1757600080fd5b5051604080517f496b5773000000000000000000000000000000000000000000000000000000008152600481018b905260248101869052604481018590529051600160a060020a039092169163496b57739160648082019260009290919082900301818387803b158015612b8a57600080fd5b505af1158015612b9e573d6000803e3d6000fd5b50506000805460408051600080516020615c658339815191528152815190819003601901812060e060020a630d2020dd02825260048201529051600160a060020a039092169450630d2020dd93506024808201936020939283900390910190829087803b158015612c0e57600080fd5b505af1158015612c22573d6000803e3d6000fd5b505050506040513d6020811015612c3857600080fd5b5051600080546040805160e260020a6309c33843028152600481018d90529051600160a060020a039485169463bce31655948e948d9492169263270ce10c926024808201936020939283900390910190829087803b158015612c9957600080fd5b505af1158015612cad573d6000803e3d6000fd5b505050506040513d6020811015612cc357600080fd5b50516040805160e060020a63ffffffff871602815260048101949094529101602483015251604480830192600092919082900301818387803b158015612d0857600080fd5b505af1158015612d1c573d6000803e3d6000fd5b5050604080518981529051600160a060020a038b1693508b925086917fcaa99c5e7fccf6b825123d43a3a0b2eef27bd660674d034d19863a26e3324c82919081900360200190a450909695505050505050565b6000805460408051600080516020615ba58339815191528152815190819003600e01812060e060020a630d2020dd028252600482015290513393600160a060020a039390931692630d2020dd92602480820193602093909283900390910190829087803b158015612ddf57600080fd5b505af1158015612df3573d6000803e3d6000fd5b505050506040513d6020811015612e0957600080fd5b5051600160a060020a031614612e8f576040805160e560020a62461bcd02815260206004820152603c60248201527f234e43436f6e74726f6c6c6572206f6e6c794f7261636c65204d6f646966696560448201527f723a204f6e6c79204f7261636c652063616e2063616c6c207468697300000000606482015290519081900360840190fd5b600080546040805160e360020a631dd6f649028152600481018990529051889392600160a060020a03169163eeb7b24891602480830192602092919082900301818787803b158015612ee057600080fd5b505af1158015612ef4573d6000803e3d6000fd5b505050506040513d6020811015612f0a57600080fd5b5051600160a060020a03161415612fb7576040805160e560020a62461bcd02815260206004820152604b60248201527f23506f7274666f6c696f4d616e616e67657220697356616c6964506f7274666f60448201527f6c696f206d6f6469666965723a2054686973206973206e6f7420612076616c6960648201527f6420706f7274666f6c696f000000000000000000000000000000000000000000608482015290519081900360a40190fd5b811561313c576000805460408051600080516020615c658339815191528152815190819003601901812060e060020a630d2020dd02825260048201529051600160a060020a0390921692630d2020dd926024808401936020939083900390910190829087803b15801561302957600080fd5b505af115801561303d573d6000803e3d6000fd5b505050506040513d602081101561305357600080fd5b5051600080546040805160e260020a6309c33843028152600481018b90529051600160a060020a039485169463bce31655948c948a9492169263270ce10c926024808201936020939283900390910190829087803b1580156130b457600080fd5b505af11580156130c8573d6000803e3d6000fd5b505050506040513d60208110156130de57600080fd5b50516040805160e060020a63ffffffff871602815260048101949094529101602483015251604480830192600092919082900301818387803b15801561312357600080fd5b505af1158015613137573d6000803e3d6000fd5b505050505b6122f286868686614f6d565b6000805460408051600080516020615bc58339815191528152815190819003600d01812060e060020a630d2020dd028252600482015290513393600160a060020a039390931692630d2020dd92602480820193602093909283900390910190829087803b1580156131b857600080fd5b505af11580156131cc573d6000803e3d6000fd5b505050506040513d60208110156131e257600080fd5b5051600160a060020a031614613244576040805160e560020a62461bcd02815260206004820152603a6024820152600080516020615be58339815191526044820152600080516020615c05833981519152606482015290519081900360840190fd5b61324f838383613dbf565b505050565b600054600160a060020a031681565b6000809054906101000a9004600160a060020a0316600160a060020a031663db4042366040518163ffffffff1660e060020a028152600401602060405180830381600087803b1580156132b557600080fd5b505af11580156132c9573d6000803e3d6000fd5b505050506040513d60208110156132df57600080fd5b5051600160a060020a0316331461338c576040805160e560020a62461bcd02815260206004820152604960248201527f23506f7274666f6c696f4d616e616e676572206f6e6c79476f7665726e616e6360448201527f65204d6f6469666965723a204f6e6c7920476f7665726e616e63652063616e2060648201527f63616c6c20746869730000000000000000000000000000000000000000000000608482015290519081900360a40190fd5b80156135185781600160a060020a031663a9059cbb6000809054906101000a9004600160a060020a0316600160a060020a031663db4042366040518163ffffffff1660e060020a028152600401602060405180830381600087803b1580156133f357600080fd5b505af1158015613407573d6000803e3d6000fd5b505050506040513d602081101561341d57600080fd5b50516040805160e060020a63ffffffff8516028152600160a060020a039092166004830152602482018790525160448083019260209291908290030181600087803b15801561346b57600080fd5b505af115801561347f573d6000803e3d6000fd5b505050506040513d602081101561349557600080fd5b50511515613513576040805160e560020a62461bcd02815260206004820152603760248201527f506f7274666f6c696f4d616e616765722066616c6c6261636b436c61696d282960448201527f3a204552433230205472616e73666572206661696c6564000000000000000000606482015290519081900360840190fd5b61324f565b6000809054906101000a9004600160a060020a0316600160a060020a031663db4042366040518163ffffffff1660e060020a028152600401602060405180830381600087803b15801561356a57600080fd5b505af115801561357e573d6000803e3d6000fd5b505050506040513d602081101561359457600080fd5b5051604051600160a060020a039091169084156108fc029085906000818181858888f193505050501580156135cd573d6000803e3d6000fd5b50505050565b6000805460408051600080516020615bc58339815191528152815190819003600d01812060e060020a630d2020dd028252600482015290513393600160a060020a039390931692630d2020dd92602480820193602093909283900390910190829087803b15801561364357600080fd5b505af1158015613657573d6000803e3d6000fd5b505050506040513d602081101561366d57600080fd5b5051600160a060020a0316146136cf576040805160e560020a62461bcd02815260206004820152603a6024820152600080516020615be58339815191526044820152600080516020615c05833981519152606482015290519081900360840190fd5b6000805491151560a060020a0274ff000000000000000000000000000000000000000019909216919091179055565b6000805460408051600080516020615bc58339815191528152815190819003600d01812060e060020a630d2020dd028252600482015290513393600160a060020a039390931692630d2020dd92602480820193602093909283900390910190829087803b15801561376e57600080fd5b505af1158015613782573d6000803e3d6000fd5b505050506040513d602081101561379857600080fd5b5051600160a060020a0316146137fa576040805160e560020a62461bcd02815260206004820152603a6024820152600080516020615be58339815191526044820152600080516020615c05833981519152606482015290519081900360840190fd5b82600160a060020a031663095ea7b383836040518363ffffffff1660e060020a0281526004018083600160a060020a0316600160a060020a0316815260200182815260200192505050602060405180830381600087803b15801561385d57600080fd5b505af1158015613871573d6000803e3d6000fd5b505050506040513d602081101561388757600080fd5b5051151561324f576040805160e560020a62461bcd02815260206004820152603a60248201527f23506f7274666f6c696f4d616e616e67657220617070726f76653a204170707260448201527f6f76616c206f6620455243323020546f6b656e206661696c6564000000000000606482015290519081900360840190fd5b6000805460408051600080516020615b858339815191528152815190819003601701812060e060020a630d2020dd0282526004820152905183928392600160a060020a0390911691630d2020dd9160248082019260209290919082900301818787803b15801561397457600080fd5b505af1158015613988573d6000803e3d6000fd5b505050506040513d602081101561399e57600080fd5b50516000805460408051600080516020615c858339815191528152815190819003601001812060e060020a630d2020dd02825260048201529051600160a060020a0394851694630a55a508948f948f94921692630d2020dd926024808201936020939283900390910190829087803b158015613a1957600080fd5b505af1158015613a2d573d6000803e3d6000fd5b505050506040513d6020811015613a4357600080fd5b50516040805160e060020a63ffffffff871602815260048101949094526024840192909252600160a060020a03908116604484015288166064830152608482018b905260a482018a905260c482018990525160e48083019260209291908290030181600087803b158015613ab657600080fd5b505af1158015613aca573d6000803e3d6000fd5b505050506040513d6020811015613ae057600080fd5b50516000805460408051600080516020615ba58339815191528152815190819003600e01812060e060020a630d2020dd02825260048201529051939550600160a060020a0390911692630d2020dd92602480840193602093929083900390910190829087803b158015613b5257600080fd5b505af1158015613b66573d6000803e3d6000fd5b505050506040513d6020811015613b7c57600080fd5b5051604080517fd2684e78000000000000000000000000000000000000000000000000000000008152600481018c905260248101899052604481018890529051600160a060020a039092169163d2684e78916064808201926020929091908290030181600087803b158015613bf057600080fd5b505af1158015613c04573d6000803e3d6000fd5b505050506040513d6020811015613c1a57600080fd5b50516000805460408051600080516020615b658339815191528152815190819003601001812060e060020a630d2020dd028252600482015290519990930198600160a060020a0390911692630d2020dd9260248083019360209390929083900390910190829087803b158015613c8f57600080fd5b505af1158015613ca3573d6000803e3d6000fd5b505050506040513d6020811015613cb957600080fd5b5051604080517f224f6ae4000000000000000000000000000000000000000000000000000000008152600481018c9052602481018b905260448101899052606481018890529051600160a060020a039092169163224f6ae4916084808201926020929091908290030181600087803b158015613d3457600080fd5b505af1158015613d48573d6000803e3d6000fd5b505050506040513d6020811015613d5e57600080fd5b50519050613d6e8989888a61585b565b604080518281526020810187905281518a927f0888b93d39a18cb87358a4f14b87ab41f9314227dbe3f13b9a12d5714e2e88c4928290030190a2613db3898383613dbf565b98975050505050505050565b60008054604080517f3f1793c3000000000000000000000000000000000000000000000000000000008152600481018790529051600160a060020a0390921691633f1793c39160248082019260209290919082900301818787803b158015613e2657600080fd5b505af1158015613e3a573d6000803e3d6000fd5b505050506040513d6020811015613e5057600080fd5b505160008054604080517f53024bae000000000000000000000000000000000000000000000000000000008152600160a060020a03808616600483015291519495509116926353024bae92602480840193602093929083900390910190829087803b158015613ebe57600080fd5b505af1158015613ed2573d6000803e3d6000fd5b505050506040513d6020811015613ee857600080fd5b5051156140255780600160a060020a031663a9059cbb84846040518363ffffffff1660e060020a0281526004018083600160a060020a0316600160a060020a0316815260200182815260200192505050602060405180830381600087803b158015613f5257600080fd5b505af1158015613f66573d6000803e3d6000fd5b505050506040513d6020811015613f7c57600080fd5b50511515614020576040805160e560020a62461bcd02815260206004820152604360248201527f23506f7274666f6c696f4d616e616e676572205f7472616e7366657246756e6460448201527f7328293a205472616e73666572206f6620455243323020546f6b656e2066616960648201527f6c65640000000000000000000000000000000000000000000000000000000000608482015290519081900360a40190fd5b6135cd565b604051600160a060020a0384169083156108fc029084906000818181858888f1935050505015801561405b573d6000803e3d6000fd5b5050505050565b60008054604080517f5241590000000000000000000000000000000000000000000000000000000000815281519081900360030181207f617ddc7f00000000000000000000000000000000000000000000000000000000825260048201529051600160a060020a039092169263617ddc7f926024808401936020939083900390910190829087803b1580156140f657600080fd5b505af115801561410a573d6000803e3d6000fd5b505050506040513d602081101561412057600080fd5b50511580156141c0575060008054604080517f617ddc7f000000000000000000000000000000000000000000000000000000008152600481018590529051600160a060020a039092169263617ddc7f926024808401936020939083900390910190829087803b15801561419257600080fd5b505af11580156141a6573d6000803e3d6000fd5b505050506040513d60208110156141bc57600080fd5b5051155b1515614262576040805160e560020a62461bcd02815260206004820152604e60248201527f23506f7274666f6c696f4d616e616e676572206e6f745061757365643a20496e60448201527f207769746864726177206d6f6465202d20746869732066756e6374696f6e206860648201527f6173206265656e20706175736564000000000000000000000000000000000000608482015290519081900360a40190fd5b50565b60008054604080517f3f1793c3000000000000000000000000000000000000000000000000000000008152600481018790529051600160a060020a0390921691633f1793c39160248082019260209290919082900301818787803b1580156142cc57600080fd5b505af11580156142e0573d6000803e3d6000fd5b505050506040513d60208110156142f657600080fd5b505160008054604080517f53024bae000000000000000000000000000000000000000000000000000000008152600160a060020a03808616600483015291519495509116926353024bae92602480840193602093929083900390910190829087803b15801561436457600080fd5b505af1158015614378573d6000803e3d6000fd5b505050506040513d602081101561438e57600080fd5b5051156144d557604080517f23b872dd000000000000000000000000000000000000000000000000000000008152600160a060020a038581166004830152306024830152604482018590529151918316916323b872dd916064808201926020929091908290030181600087803b15801561440757600080fd5b505af115801561441b573d6000803e3d6000fd5b505050506040513d602081101561443157600080fd5b50511515614020576040805160e560020a62461bcd02815260206004820152604260248201527f23506f7274666f6c696f4d616e616e6765722076657269667956616c75653a2060448201527f5472616e7366657246726f6d206f6620455243323020546f6b656e206661696c60648201527f6564000000000000000000000000000000000000000000000000000000000000608482015290519081900360a40190fd5b3482146135cd576040805160e560020a62461bcd02815260206004820152604b60248201527f23506f7274666f6c696f4d616e616e6765722076657269667956616c7565282960448201527f3a204554482076616c75652073656e7420646f6573206e6f74206d617463682060648201527f696e7075742076616c7565000000000000000000000000000000000000000000608482015290519081900360a40190fd5b6000805481908190819060a060020a900460ff1615614604576040805160e560020a62461bcd0281526020600482015260616024820152600080516020615c458339815191526044820152600080516020615ca58339815191526064820152600080516020615c25833981519152608482015260fa60020a60190260a482015290519081900360c40190fd5b60008054604080517f241adc55000000000000000000000000000000000000000000000000000000008152600481018c9052602481018b905290518b938b93600160a060020a03169263241adc559260448083019360209383900390910190829087803b15801561467457600080fd5b505af1158015614688573d6000803e3d6000fd5b505050506040513d602081101561469e57600080fd5b50511515614768576040805160e560020a62461bcd02815260206004820152606260248201527f23506f7274666f6c696f4d616e616e67657220697356616c69644f70706f727460448201527f756e697479206d6f6469666965723a2054686973206973206e6f74206120766160648201527f6c6964206f70706f7274756e69747920666f72207468697320706f7274666f6c60848201527f696f00000000000000000000000000000000000000000000000000000000000060a482015290519081900360c40190fd5b600080546040805160e360020a631dd6f649028152600481018d905290518c938c93600160a060020a038086169491169263eeb7b24892602480840193602093929083900390910190829087803b1580156147c257600080fd5b505af11580156147d6573d6000803e3d6000fd5b505050506040513d60208110156147ec57600080fd5b5051600160a060020a0316146148be576040805160e560020a62461bcd02815260206004820152606260248201527f23506f7274666f6c696f4d616e616e676572206973436f72726563744164647260448201527f657373206d6f6469666965723a2054686973206973206e6f742074686520636f60648201527f7272656374206164647265737320666f722074686973206f70706f7274756e6960848201527f747900000000000000000000000000000000000000000000000000000000000060a482015290519081900360c40190fd5b6148c78c614062565b6000809054906101000a9004600160a060020a0316600160a060020a031663c80a29298d8d6040518363ffffffff1660e060020a028152600401808360001916600019168152602001826000191660001916815260200192505050602060405180830381600087803b15801561493c57600080fd5b505af1158015614950573d6000803e3d6000fd5b505050506040513d602081101561496657600080fd5b810190808051906020019092919050505097506000809054906101000a9004600160a060020a0316600160a060020a0316633f1793c38d6040518263ffffffff1660e060020a028152600401808260001916600019168152602001915050602060405180830381600087803b1580156149de57600080fd5b505af11580156149f2573d6000803e3d6000fd5b505050506040513d6020811015614a0857600080fd5b50516000805460408051600080516020615b458339815191528152815190819003601501812060e060020a630d2020dd02825260048201529051939a50600160a060020a0390911692630d2020dd92602480840193602093929083900390910190829087803b158015614a7a57600080fd5b505af1158015614a8e573d6000803e3d6000fd5b505050506040513d6020811015614aa457600080fd5b5051604080517fc840e0d6000000000000000000000000000000000000000000000000000000008152600160a060020a038a81166004830152602482018d9052825193169263c840e0d6926044808401939192918290030181600087803b158015614b0e57600080fd5b505af1158015614b22573d6000803e3d6000fd5b505050506040513d6040811015614b3857600080fd5b5080516020909101519096509450871515614e0f5760008054604080517f4f70706f7274756e6974794d616e61676572436f6e74726163740000000000008152815190819003601a01812060e060020a630d2020dd02825260048201529051600160a060020a0390921692630d2020dd926024808401936020939083900390910190829087803b158015614bcb57600080fd5b505af1158015614bdf573d6000803e3d6000fd5b505050506040513d6020811015614bf557600080fd5b5051604080517f60b67ce9000000000000000000000000000000000000000000000000000000008152600481018e9052306024820152600160a060020a038d811660448301528a81166064830152608482018d905289151560a4830152915191909216916360b67ce991889160c48082019260209290919082900301818588803b158015614c8257600080fd5b505af1158015614c96573d6000803e3d6000fd5b50505050506040513d6020811015614cad57600080fd5b50516000805460408051600080516020615c658339815191528152815190819003601901812060e060020a630d2020dd02825260048201529051939b50600160a060020a0390911692630d2020dd92602480840193602093929083900390910190829087803b158015614d1f57600080fd5b505af1158015614d33573d6000803e3d6000fd5b505050506040513d6020811015614d4957600080fd5b5051604080517fc424cefb000000000000000000000000000000000000000000000000000000008152600481018f9052602481018e9052604481018b90529051600160a060020a039092169163c424cefb9160648082019260009290919082900301818387803b158015614dbc57600080fd5b505af1158015614dd0573d6000803e3d6000fd5b5050604080518b815290518f93507f1709f3a866fd83c44ec76fced7fe86fb2689a569fc9c9d77bd40a005ab3613c992509081900360200190a2614f5f565b60008054604080517f4f70706f7274756e6974794d616e61676572436f6e74726163740000000000008152815190819003601a01812060e060020a630d2020dd02825260048201529051600160a060020a0390921692630d2020dd926024808401936020939083900390910190829087803b158015614e8d57600080fd5b505af1158015614ea1573d6000803e3d6000fd5b505050506040513d6020811015614eb757600080fd5b5051604080517f42736ddb000000000000000000000000000000000000000000000000000000008152600481018e9052602481018b9052600160a060020a038d811660448301528a81166064830152608482018d905289151560a4830152915191909216916342736ddb91889160c48082019260009290919082900301818588803b158015614f4557600080fd5b505af1158015614f59573d6000803e3d6000fd5b50505050505b505050505050505050505050565b600080548190819060a060020a900460ff1615614ff7576040805160e560020a62461bcd0281526020600482015260616024820152600080516020615c458339815191526044820152600080516020615ca58339815191526064820152600080516020615c25833981519152608482015260fa60020a60190260a482015290519081900360c40190fd5b60008054604080517f241adc55000000000000000000000000000000000000000000000000000000008152600481018b9052602481018a905290518a938a93600160a060020a03169263241adc559260448083019360209383900390910190829087803b15801561506757600080fd5b505af115801561507b573d6000803e3d6000fd5b505050506040513d602081101561509157600080fd5b5051151561515b576040805160e560020a62461bcd02815260206004820152606260248201527f23506f7274666f6c696f4d616e616e67657220697356616c69644f70706f727460448201527f756e697479206d6f6469666965723a2054686973206973206e6f74206120766160648201527f6c6964206f70706f7274756e69747920666f72207468697320706f7274666f6c60848201527f696f00000000000000000000000000000000000000000000000000000000000060a482015290519081900360c40190fd5b600080546040805160e360020a631dd6f649028152600481018c905290518b938b93600160a060020a038086169491169263eeb7b24892602480840193602093929083900390910190829087803b1580156151b557600080fd5b505af11580156151c9573d6000803e3d6000fd5b505050506040513d60208110156151df57600080fd5b5051600160a060020a0316146152b1576040805160e560020a62461bcd02815260206004820152606260248201527f23506f7274666f6c696f4d616e616e676572206973436f72726563744164647260448201527f657373206d6f6469666965723a2054686973206973206e6f742074686520636f60648201527f7272656374206164647265737320666f722074686973206f70706f7274756e6960848201527f747900000000000000000000000000000000000000000000000000000000000060a482015290519081900360c40190fd5b6000805460408051600080516020615b458339815191528152815190819003601501812060e060020a630d2020dd02825260048201529051600160a060020a0390921692630d2020dd926024808401936020939083900390910190829087803b15801561531d57600080fd5b505af1158015615331573d6000803e3d6000fd5b505050506040513d602081101561534757600080fd5b5051604080517f4c7105be000000000000000000000000000000000000000000000000000000008152600481018e9052602481018d9052604481018b90529051600160a060020a0390921691634c7105be916064808201926020929091908290030181600087803b1580156153bb57600080fd5b505af11580156153cf573d6000803e3d6000fd5b505050506040513d60208110156153e557600080fd5b810190808051906020019092919050505096506000809054906101000a9004600160a060020a0316600160a060020a031663c80a29298c8c6040518363ffffffff1660e060020a028152600401808360001916600019168152602001826000191660001916815260200192505050602060405180830381600087803b15801561546d57600080fd5b505af1158015615481573d6000803e3d6000fd5b505050506040513d602081101561549757600080fd5b810190808051906020019092919050505095506000809054906101000a9004600160a060020a0316600160a060020a0316633f1793c38c6040518263ffffffff1660e060020a028152600401808260001916600019168152602001915050602060405180830381600087803b15801561550f57600080fd5b505af1158015615523573d6000803e3d6000fd5b505050506040513d602081101561553957600080fd5b505160008054604080517f4f70706f7274756e6974794d616e61676572436f6e74726163740000000000008152815190819003601a01812060e060020a630d2020dd02825260048201529051939850600160a060020a0390911692630d2020dd92602480840193602093929083900390910190829087803b1580156155bd57600080fd5b505af11580156155d1573d6000803e3d6000fd5b505050506040513d60208110156155e757600080fd5b8101908080519060200190929190505050600160a060020a0316633e484b338b888c898d6000809054906101000a9004600160a060020a0316600160a060020a03166353024bae8d6040518263ffffffff1660e060020a0281526004018082600160a060020a0316600160a060020a03168152602001915050602060405180830381600087803b15801561567a57600080fd5b505af115801561568e573d6000803e3d6000fd5b505050506040513d60208110156156a457600080fd5b50516040805160e060020a63ffffffff8a1602815260048101979097526024870195909552600160a060020a0393841660448701529190921660648501526084840191909152151560a48301525160c480830192600092919082900301818387803b15801561571257600080fd5b505af1158015615726573d6000803e3d6000fd5b50505050600087111561584e576000805460408051600080516020615b458339815191528152815190819003601501812060e060020a630d2020dd02825260048201529051600160a060020a0390921692630d2020dd926024808401936020939083900390910190829087803b15801561579f57600080fd5b505af11580156157b3573d6000803e3d6000fd5b505050506040513d60208110156157c957600080fd5b5051604080517fbeb7edbf000000000000000000000000000000000000000000000000000000008152600481018e9052602481018a90529051600160a060020a039092169163beb7edbf9160448082019260009290919082900301818387803b15801561583557600080fd5b505af1158015615849573d6000803e3d6000fd5b505050505b5050505050505050505050565b6000805460408051600080516020615b858339815191528152815190819003601701812060e060020a630d2020dd02825260048201529051600160a060020a0390921692630d2020dd926024808401936020939083900390910190829087803b1580156158c757600080fd5b505af11580156158db573d6000803e3d6000fd5b505050506040513d60208110156158f157600080fd5b505160008054604080517fd400d43a00000000000000000000000000000000000000000000000000000000815260048101899052602481018890529051600160a060020a0394851694632cacb38a948a948a948a948a949092169263d400d43a926044808401936020939083900390910190829087803b15801561597457600080fd5b505af1158015615988573d6000803e3d6000fd5b505050506040513d602081101561599e57600080fd5b50516000805460408051600080516020615b458339815191528152815190819003601501812060e060020a630d2020dd02825260048201529051600160a060020a0390921692630d2020dd926024808401936020939083900390910190829087803b158015615a0c57600080fd5b505af1158015615a20573d6000803e3d6000fd5b505050506040513d6020811015615a3657600080fd5b5051604080517f660dfdac000000000000000000000000000000000000000000000000000000008152600481018e90529051600160a060020a039092169163660dfdac916024808201926020929091908290030181600087803b158015615a9c57600080fd5b505af1158015615ab0573d6000803e3d6000fd5b505050506040513d6020811015615ac657600080fd5b50516040805160e060020a63ffffffff8a160281526004810197909752602487019590955260448601939093526064850191909152608484015260a48301525160c480830192600092919082900301818387803b158015615b2657600080fd5b505af1158015615b3a573d6000803e3d6000fd5b505050505050505056004e415643616c63756c61746f72436f6e747261637400000000000000000000004665654d6f64656c436f6e747261637400000000000000000000000000000000506f736974696f6e4d616e61676572436f6e74726163740000000000000000004f7261636c65436f6e747261637400000000000000000000000000000000000041646d696e436f6e747261637400000000000000000000000000000000000000234e43436f6e74726f6c6c6572206f6e6c7941646d696e204d6f6469666965723a204f6e6c792041646d696e2063616e2063616c6c20746869730000000000007468697320636f6e747261637420686173206265656e2064657072656361746523506f7274666f6c696f4d616e616e676572206e6f744465707265636174656453746f726167655772617070657254776f436f6e747261637400000000000000524159546f6b656e436f6e747261637400000000000000000000000000000000204d6f6469666965723a20496e2064657072656361746564206d6f6465202d20a165627a7a72305820eec4029434a39d5943d74ea5517147b3bddb4b1398102facfdc15a4408b9586b0029",
  "source": "/**\n\n    The software and documentation available in this repository (the \"Software\") is\n    protected by copyright law and accessible pursuant to the license set forth below.\n\n    Copyright  2019 Staked Securely, Inc. All rights reserved.\n\n    Permission is hereby granted, free of charge, to any person or organization\n    obtaining the Software (the Licensee) to privately study, review, and analyze\n    the Software. Licensee shall not use the Software for any other purpose. Licensee\n    shall not modify, transfer, assign, share, or sub-license the Software or any\n    derivative works of the Software.\n\n    THE SOFTWARE IS PROVIDED \"AS IS\", WITHOUT WARRANTY OF ANY KIND, EXPRESS OR IMPLIED,\n    INCLUDING BUT NOT LIMITED TO THE WARRANTIES OF MERCHANTABILITY, FITNESS FOR A\n    PARTICULAR PURPOSE, TITLE, AND NON-INFRINGEMENT. IN NO EVENT SHALL THE COPYRIGHT\n    HOLDERS BE LIABLE FOR ANY DAMAGES OR OTHER LIABILITY, WHETHER IN CONTRACT, TORT,\n    OR OTHERWISE, ARISING FROM, OUT OF, OR IN CONNECTION WITH THE SOFTWARE.\n\n*/\n\npragma solidity 0.4.25;\n\n\n// external dependencies\nimport \"./impl/openzeppelin/ERC721/IERC721Receiver.sol\";\nimport \"./impl/openzeppelin/ERC721/IERC721.sol\";\nimport \"./impl/openzeppelin/ERC20/IERC20.sol\";\nimport \"./impl/openzeppelin/math/SafeMath.sol\";\n\n// internal dependencies\nimport \"./interfaces/Approves.sol\";\nimport \"./interfaces/Upgradeable.sol\";\nimport \"./interfaces/IOpportunityManager.sol\";\nimport \"./interfaces/IPositionManager.sol\";\nimport \"./interfaces/IFeeModel.sol\";\nimport \"./interfaces/IOracle.sol\";\nimport \"./interfaces/INAVCalculator.sol\";\nimport \"./interfaces/IRAYToken.sol\";\nimport \"./interfaces/IStorageWrapper.sol\";\nimport \"./interfaces/IStorage.sol\";\n\n\n\n /// @notice  PortfolioManager accepts users assets and mints RAY Tokens [RAYT].\n ///          The owner of the loans is the RAYT, not the user. This contract is\n ///          the user entry-point to the core RAY system.\n ///\n /// TODO:    Gas optimization in all contracts [once design is settled]\n ///\n /// Author:   Devan Purhar\n /// Version:  1.0.0\n\ncontract PortfolioManager is IERC721Receiver, Upgradeable, Approves {\n    using SafeMath\n    for uint256;\n\n\n    /*************** STORAGE VARIABLE DECLARATIONS **************/\n\n    /* TODO: Re-order declarations for gas optimization (not important for now) */\n\n\n    // contracts used\n    bytes32 internal constant RAY_TOKEN_CONTRACT = keccak256(\"RAYTokenContract\");\n    bytes32 internal constant FEE_MODEL_CONTRACT = keccak256(\"FeeModelContract\");\n    bytes32 internal constant ADMIN_CONTRACT = keccak256(\"AdminContract\");\n    bytes32 internal constant POSITION_MANAGER_CONTRACT = keccak256(\"PositionManagerContract\");\n    bytes32 internal constant STORAGE_WRAPPER_TWO_CONTRACT = keccak256(\"StorageWrapperTwoContract\");\n    bytes32 internal constant NAV_CALCULATOR_CONTRACT = keccak256(\"NAVCalculatorContract\");\n    bytes32 internal constant OPPORTUNITY_MANAGER_CONTRACT = keccak256(\"OpportunityManagerContract\");\n    bytes32 internal constant ORACLE_CONTRACT = keccak256(\"OracleContract\");\n\n    bytes32 internal constant name = keccak256(\"RAY\");\n\n    IStorage public _storage;\n    bool public deprecated;\n\n\n    /*************** EVENT DECLARATIONS **************/\n\n\n    /// @notice  Logs the minting of a RAY token\n    event LogMintRAYT(\n        bytes32 indexed tokenId,\n        bytes32 indexed portfolioId,\n        address indexed beneficiary,\n        uint value\n    );\n\n\n    /// @notice  Logs the minting of an Opportunity token\n    event LogMintOpportunityToken(\n      bytes32 tokenId,\n      bytes32 indexed portfolioId\n    );\n\n\n    /// @notice  Logs the withdrawing from a RAY token\n    event LogWithdrawFromRAYT(\n      bytes32 indexed tokenId,\n      uint value,\n      uint tokenValue // used to calculate gross return off-chain\n    );\n\n\n    /// @notice  Logs the burning of a RAY token\n    event LogBurnRAYT(\n        bytes32 indexed tokenId,\n        address indexed beneficiary,\n        uint value,\n        uint tokenValue // used to calculate gross return off-chain\n    );\n\n\n    /// @notice  Logs a deposit to a RAY token\n    event LogDepositToRAYT(\n        bytes32 indexed tokenId,\n        uint value,\n        uint tokenValue // used to calculate gross return off-chain\n    );\n\n\n    /*************** MODIFIER DECLARATIONS **************/\n\n\n    /// @notice  Checks if the token id exists within the RAY token contract\n    modifier existingRAYT(bytes32 tokenId)\n    {\n        require(\n             IRAYToken(_storage.getContractAddress(RAY_TOKEN_CONTRACT)).tokenExists(tokenId),\n            \"#PortfolioMananger existingRAYT Modifier: This is not a valid RAYT\"\n        );\n\n        _;\n    }\n\n\n    /// @notice  Checks the caller is our Oracle contract\n    modifier onlyOracle()\n    {\n\n      require(\n        _storage.getContractAddress(ORACLE_CONTRACT) == msg.sender,\n        \"#NCController onlyOracle Modifier: Only Oracle can call this\"\n      );\n\n      _;\n\n    }\n\n\n    /// @notice  Checks the caller is our Admin contract\n    modifier onlyAdmin()\n    {\n\n      require(\n        _storage.getContractAddress(ADMIN_CONTRACT) == msg.sender,\n        \"#NCController onlyAdmin Modifier: Only Admin can call this\"\n      );\n\n      _;\n\n    }\n\n\n    /// @notice  Checks the caller is our Governance Wallet\n    ///\n    /// @dev     To be removed once fallbacks are\n    modifier onlyGovernance()\n    {\n        require(\n            msg.sender == _storage.getGovernanceWallet(),\n            \"#PortfolioMananger onlyGovernance Modifier: Only Governance can call this\"\n        );\n\n        _;\n    }\n\n\n    /// @notice  Checks the opportunity entered is valid for the portfolio entered\n    ///\n    /// @param   portfolioId - The portfolio id\n    /// @param   opportunityId - The opportunity id\n    modifier isValidOpportunity(bytes32 portfolioId, bytes32 opportunityId)\n    {\n\n      require(_storage.isValidOpportunity(portfolioId, opportunityId),\n      \"#PortfolioMananger isValidOpportunity modifier: This is not a valid opportunity for this portfolio\");\n\n        _;\n    }\n\n\n    /// @notice  Checks the opportunity address entered is the correct one\n    ///\n    /// @param   opportunityId - The opportunity id\n    /// @param   opportunity - The contract address of the opportunity\n    ///\n    /// TODO: Stop passing in, just access storage and grab from there\n    modifier isCorrectAddress(bytes32 opportunityId, address opportunity)\n    {\n\n      require(_storage.getVerifier(opportunityId) == opportunity,\n      \"#PortfolioMananger isCorrectAddress modifier: This is not the correct address for this opportunity\");\n\n        _;\n    }\n\n\n    /// @notice  Use this on public functions only\n    ///\n    /// @param   portfolioId - The portfolio id\n    modifier isValidPortfolio(bytes32 portfolioId)\n    {\n\n      require(_storage.getVerifier(portfolioId) != address(0),\n      \"#PortfolioMananger isValidPortfolio modifier: This is not a valid portfolio\");\n\n        _;\n    }\n\n\n    /// @notice  Checks if the contract has been set to deprecated\n    modifier notDeprecated()\n    {\n        require(\n             deprecated == false,\n            \"#PortfolioMananger notDeprecated Modifier: In deprecated mode - this contract has been deprecated\"\n        );\n\n        _;\n    }\n\n\n    /////////////////////// FUNCTION DECLARATIONS BEGIN ///////////////////////\n\n    /******************* PUBLIC FUNCTIONS *******************/\n\n\n    /// @notice  Sets the Storage contract instance\n    ///\n    /// @param   __storage - The Storage contracts address\n    constructor(\n      address __storage\n    )\n        public\n    {\n\n      _storage = IStorage(__storage);\n\n    }\n\n\n    /// @notice  Fallback function to receive Ether\n    ///\n    /// @dev     Required to receive Ether from the OpportunityManager upon withdraws\n    function() external payable {\n\n    }\n\n\n\n    /** --------------- USER ENTRYPOINTS ----------------- **/\n\n\n    /// @notice  Allows users to send ETH or accepted ERC20's to this contract and\n    ///          used as capital. In return the PM mints and gives them a RAYT which\n    ///          represents their 'stake' in the investing pool. A RAYT maps to many shares.\n    ///          The price of shares is determined by the NAV.\n    ///\n    /// @param   portfolioId - The portfolio id\n    /// @param   beneficiary - The owner of the position, supports third-party buys\n    /// @param   value - The amount to be invested, need so we can accept ERC20's\n    ///\n    /// @return   The unique token id of their RAY Token position\n    function mint(\n      bytes32 portfolioId,\n      address beneficiary,\n      uint value\n    )\n      external\n      notDeprecated\n      isValidPortfolio(portfolioId)\n      payable\n      returns(bytes32)\n    {\n\n        notPaused(portfolioId);\n        verifyValue(portfolioId, msg.sender, value); // verify the amount they claim to have sent in\n        uint pricePerShare = INAVCalculator(_storage.getContractAddress(NAV_CALCULATOR_CONTRACT)).getPortfolioPricePerShare(portfolioId);\n\n        // create their RAY Token\n        bytes32 tokenId = IPositionManager(_storage.getContractAddress(POSITION_MANAGER_CONTRACT)).createToken(\n            portfolioId,\n            _storage.getContractAddress(RAY_TOKEN_CONTRACT),\n            beneficiary,\n            value,\n            pricePerShare\n        );\n\n        // record what portfolio this token belongs too, not in PositionManager since Opp tokens don't need that logic\n        IStorageWrapper(_storage.getContractAddress(STORAGE_WRAPPER_TWO_CONTRACT)).setTokenKey(tokenId, portfolioId);\n\n        // record what the rate was when they entered for tracking yield allowances\n        // not in createToken() b/c Opp Tokens don't need this (unless we implement fees on them)\n        uint cumulativeRate = IFeeModel(_storage.getContractAddress(FEE_MODEL_CONTRACT)).updateCumulativeRate(_storage.getPrincipalAddress(portfolioId));\n        IStorageWrapper(_storage.getContractAddress(STORAGE_WRAPPER_TWO_CONTRACT)).setEntryRate(portfolioId, tokenId, cumulativeRate);\n        // increase the available capital in this portfolio upon this investment\n        IStorageWrapper(_storage.getContractAddress(STORAGE_WRAPPER_TWO_CONTRACT)).setAvailableCapital(portfolioId, _storage.getAvailableCapital(portfolioId) + value);\n\n        emit LogMintRAYT(tokenId, portfolioId, beneficiary, value);\n\n        return tokenId;\n\n    }\n\n\n    /// @notice  Adds capital to an existing RAYT, this doesn't restrict who adds,\n    ///          addresses besides the owner can add value to the position.\n    ///\n    /// @dev     The value added must be in the same coin type as the position\n    ///\n    /// @param   tokenId - The unique id of the position\n    /// @param   value - The amount of value they wish to add\n    function deposit(\n      bytes32 tokenId,\n      uint value\n    )\n      external\n      payable\n      notDeprecated\n      existingRAYT(tokenId)\n    {\n\n        bytes32 portfolioId = _storage.getTokenKey(tokenId);\n        notPaused(portfolioId);\n        verifyValue(portfolioId, msg.sender, value);\n\n        // don't need the return value of this function (the tokens updated allowance), just need to carry the action out\n        // since they're adding capital, they're going to a new \"capital stage\". Their\n        // allowance will be calculated based on their new amount of capital from this point on.\n        IFeeModel(_storage.getContractAddress(FEE_MODEL_CONTRACT)).updateAllowance(portfolioId, tokenId);\n\n        uint tokenValueBeforeDeposit;\n        uint pricePerShare;\n\n        (tokenValueBeforeDeposit, pricePerShare) = INAVCalculator(_storage.getContractAddress(NAV_CALCULATOR_CONTRACT)).getTokenValue(portfolioId, tokenId);\n\n        IPositionManager(_storage.getContractAddress(POSITION_MANAGER_CONTRACT)).increaseTokenCapital(\n            portfolioId,\n            tokenId,\n            pricePerShare,\n            value\n        );\n\n        IStorageWrapper(_storage.getContractAddress(STORAGE_WRAPPER_TWO_CONTRACT)).setAvailableCapital(portfolioId, _storage.getAvailableCapital(portfolioId) + value);\n\n        emit LogDepositToRAYT(tokenId, value, tokenValueBeforeDeposit);\n\n    }\n\n\n    /// @notice   Part 1 of 3 to withdraw value from a RAY Position\n    ///\n    /// @dev      Caller must be the owner of the token or our GasFunder (Payer) contract\n    ///\n    /// @param    tokenId - The id of the position\n    /// @param    valueToWithdraw - The value to withdraw\n    /// @param    originalCaller - Unimportant unless Payer is the msg.sender, tells\n    ///                            us who signed the original message.\n    ///\n    /// NOTE:     We no longer force a RAY token burn to unlock all value of the position\n    function redeem(\n      bytes32 tokenId,\n      uint valueToWithdraw,\n      address originalCaller\n    )\n      external\n      notDeprecated\n      existingRAYT(tokenId)\n      returns(uint)\n    {\n\n        address addressToUse = INAVCalculator(_storage.getContractAddress(NAV_CALCULATOR_CONTRACT)).onlyTokenOwner(tokenId, originalCaller, msg.sender);\n\n        uint totalValue;\n        uint pricePerShare;\n\n        bytes32 portfolioId = _storage.getTokenKey(tokenId);\n        (totalValue, pricePerShare) = INAVCalculator(_storage.getContractAddress(NAV_CALCULATOR_CONTRACT)).getTokenValue(portfolioId, tokenId);\n\n      uint valueAfterFee = redeem2(\n          portfolioId,\n          tokenId,\n          pricePerShare,\n          valueToWithdraw,\n          totalValue,\n          addressToUse\n        );\n\n      return valueAfterFee;\n\n    }\n\n\n     /// @notice  Implemented to receive ERC721 tokens. Main use case is for users to burn\n     ///          and withdraw their RAYT and withdraw the underlying value. It clears\n     ///          it's associated token data, burns the RAYT, and transfers the capital + yield\n     ///\n     /// @dev     Must return hash of the function signature for tx to be valid.\n     ///\n     /// @param   from - The last owner of the RAY before becoming us\n     /// @param   tokenId - the unique id of the position\n     ///\n     /// TODO: find value of hash: bytes4(keccak256(\"onERC721Received(address,address,uint256,bytes)\"))\n     ////       and make it a constant.\n    function onERC721Received\n    (\n        address /*operator*/,\n        address from,\n        uint256 tokenId,\n        bytes /*data*/\n    )\n        public\n        notDeprecated\n        returns(bytes4)\n    {\n\n        bytes32 convertedTokenId = bytes32(tokenId);\n\n        // optimization: should create local var to store the RAYT Contract Address rather then calling for it twice or more times\n        if (\n          (IRAYToken(_storage.getContractAddress(RAY_TOKEN_CONTRACT)).tokenExists(convertedTokenId)) &&\n          (msg.sender == _storage.getContractAddress(RAY_TOKEN_CONTRACT))\n        ) {\n\n            bytes32 portfolioId = _storage.getTokenKey(convertedTokenId);\n\n            uint totalValue;\n            uint pricePerShare;\n            uint valueAfterFee;\n            (totalValue, pricePerShare) = INAVCalculator(_storage.getContractAddress(NAV_CALCULATOR_CONTRACT)).getTokenValue(portfolioId, convertedTokenId);\n\n            // we allow ray tokens with zero value to be sent in still simply to burn\n            if (totalValue > 0) {\n\n              IOracle(_storage.getContractAddress(ORACLE_CONTRACT)).withdrawFromProtocols(portfolioId, totalValue, totalValue);\n\n              valueAfterFee = IFeeModel(_storage.getContractAddress(FEE_MODEL_CONTRACT)).takeFee(portfolioId, convertedTokenId, totalValue, totalValue);\n\n              IPositionManager(_storage.getContractAddress(POSITION_MANAGER_CONTRACT)).updateTokenUponWithdrawal(\n                  portfolioId,\n                  convertedTokenId,\n                  totalValue,\n                  pricePerShare,\n                  _storage.getTokenShares(portfolioId, convertedTokenId),\n                  INAVCalculator(_storage.getContractAddress(NAV_CALCULATOR_CONTRACT)).getPortfolioUnrealizedYield(portfolioId)\n              );\n\n            }\n\n            // deletes entire values on the token (shares, capital, owner, existence, etc.)\n            IStorageWrapper(_storage.getContractAddress(STORAGE_WRAPPER_TWO_CONTRACT)).deleteTokenValues(portfolioId, convertedTokenId);\n\n            IRAYToken(_storage.getContractAddress(RAY_TOKEN_CONTRACT)).burn(tokenId);\n\n            emit LogBurnRAYT(convertedTokenId, from, valueAfterFee, totalValue);\n\n           // send them the assets, this could be 0 if the totalvalue was zero to begin with\n           // could put this transfer in the bottom of if block for the totalvalue check since it would still be safe\n           // against re-entrancy since we're using transfer()\n            _transferFunds(portfolioId, from, valueAfterFee);\n\n        }\n\n        return bytes4(keccak256(\"onERC721Received(address,address,uint256,bytes)\"));\n    }\n\n\n    /** ----------------- ONLY ORACLE MUTATORS ----------------- **/\n\n\n    /// @notice  Entrypoint of the Oracle to tell us where/how to lend\n    ///\n    /// @dev  Could pass in sha3 id and use _storage to find the appropriate contract address\n    ///       but that is an extra external call when we can just do it free beforehand\n    ///\n    /// @param  portfolioId - The portfolio id we're lending for\n    /// @param  opportunityId - The opportunity id we're lending too\n    /// @param  opportunity - The contract address of our Opportunity contract\n    /// @param  value - The amount to lend in-kind\n    /// @param  subtract - Flag to let us know if we wish to subtract value lent\n    ///                 from the available capital.\n    function lend(\n      bytes32 portfolioId,\n      bytes32 opportunityId,\n      address opportunity,\n      uint value,\n      bool subtract\n    )\n      external\n      onlyOracle\n      isValidPortfolio(portfolioId)\n      // notDeprecated --> called in _lend\n    {\n\n        if (subtract) {\n\n          // we don't want to call this on rebalances else we'd have to add capital as we withdrew it and\n          // then when withdrawing to send to a user we'd have to subtract it right back off == waste of gas\n          // this can't underflow, Oracle function that calls this has a check\n          IStorageWrapper(_storage.getContractAddress(STORAGE_WRAPPER_TWO_CONTRACT)).setAvailableCapital(portfolioId, _storage.getAvailableCapital(portfolioId) - value);\n\n        }\n\n        _lend(portfolioId, opportunityId, opportunity, value);\n    }\n\n\n    /// @notice  Entrypoint of the Oracle to tell us where/how to withdraw\n    ///\n    /// @dev  Could pass in sha3 id and use _storage to find the appropriate contract address\n    ///       but that is an extra external call when we can just do it free beforehand\n    ///\n    /// @param  portfolioId - The portfolio id we're withdrawing for\n    /// @param  opportunityId - The opportunity id we're withdrawing from\n    /// @param  opportunity - The contract address of our Opportunity contract\n    /// @param  value - The amount to withdraw in-kind\n    /// @param  add - Flag to let us know if we wish to add value withdrawn\n    ///                 into the available capital.\n    function withdraw(\n      bytes32 portfolioId,\n      bytes32 opportunityId,\n      address opportunity,\n      uint value,\n      bool add\n    )\n      external\n      onlyOracle\n      isValidPortfolio(portfolioId)\n      // notDeprecated --> called in _withdraw\n    { // called by oracle to rebalance, withdraw during upgrade, or withdraw-From-Protocols\n\n        // if we're paused, and the oracle is the one who called withdraw(), we want to re-add the withdrawn funds to availbale capital\n        // we're probably upgrading the opportunity. We don't want to re-add to available capital if fee model is the sender b/c that\n        // means a user is trying to withdraw from the RAY token (meaning the value flows out instead of staying around and being 'available capital')\n        if (add) {\n\n          IStorageWrapper(_storage.getContractAddress(STORAGE_WRAPPER_TWO_CONTRACT)).setAvailableCapital(portfolioId, _storage.getAvailableCapital(portfolioId) + value); // if we're paused we're not\n\n        }\n\n        _withdraw(portfolioId, opportunityId, opportunity, value);\n\n    }\n\n\n    /** ----------------- ONLY ADMIN MUTATORS ----------------- **/\n\n\n    /// @notice  Public wrapper so we can call via our Admin contract\n    ///\n    /// @dev   If this is deprecated, should be no value, therefore this function will revert anyway, so we don't ned the deprecation flag\n    ///        since it won't help us debug the error in prod. since error msgs don't show up\n    function transferFunds(\n      bytes32 portfolioId,\n      address beneficiary,\n      uint value\n    )\n      external\n      onlyAdmin\n    {\n\n      _transferFunds(portfolioId, beneficiary, value);\n\n    }\n\n\n    /// @notice  Approve function for ERC20's\n    ///\n    /// @dev     Need to approve the OpportunityManager contract\n    ///\n    /// @param   token - Contract address of the token\n    /// @param   beneficiary - The OpportunityManager contract for now\n    function approve(\n      address token,\n      address beneficiary,\n      uint amount\n    )\n      external\n      onlyAdmin\n    {\n\n      require(\n        IERC20(token).approve(beneficiary, amount),\n        \"#PortfolioMananger approve: Approval of ERC20 Token failed\"\n      );\n\n    }\n\n\n    /// @notice  Approval for ERC721's\n    ///\n    /// @dev     Used by Admin so it can deprecate this contract, it transfers\n    ///          all the opporunity tokens to a new contract.\n    ///\n    /// @param   token - The contract address of the token\n    function setApprovalForAll(\n      address token,\n      address to,\n      bool approved\n    )\n      external\n      onlyAdmin\n    {\n\n      IERC721(token).setApprovalForAll(to, approved);\n\n    }\n\n\n    /// @notice  Sets the deprecated flag of the contract\n    ///\n    /// @dev     Used when upgrading a contract\n    ///\n    /// @param   value - true to deprecate, false to un-deprecate\n    function setDeprecated(bool value) external onlyAdmin {\n\n        deprecated = value;\n\n    }\n\n\n    /********************* INTERNAL FUNCTIONS **********************/\n\n\n    /// @notice  Direct OpportunityManager to lend capital\n    ///\n    /// @param  portfolioId - The portfolio id we're lending for\n    /// @param  opportunityId - The opportunity id we're lending too\n    /// @param  opportunity - The contract address of our Opportunity contract\n    /// @param  value - The amount to lend in-kind\n    function _lend(\n      bytes32 portfolioId,\n      bytes32 opportunityId,\n      address opportunity,\n      uint value\n    )\n      internal\n      notDeprecated\n      isValidOpportunity(portfolioId, opportunityId)\n      isCorrectAddress(opportunityId, opportunity)\n    {\n\n      notPaused(portfolioId);\n\n      bytes32 tokenId = _storage.getOpportunityToken(portfolioId, opportunityId);\n      address principalAddress = _storage.getPrincipalAddress(portfolioId);\n      bool isERC20;\n      uint payableValue;\n      (isERC20, payableValue) =  INAVCalculator(_storage.getContractAddress(NAV_CALCULATOR_CONTRACT)).calculatePayableAmount(principalAddress, value);\n\n      if (tokenId == bytes32(0)) { // if this contract/portfolio don't have a position yet, buy one and lend\n\n          tokenId = IOpportunityManager(_storage.getContractAddress(OPPORTUNITY_MANAGER_CONTRACT)).buyPosition.value(payableValue)(\n            opportunityId,\n            address(this),\n            opportunity,\n            principalAddress,\n            value,\n            isERC20\n          );\n\n          // we'll only have one opportunity token per opporutnity per portfolio\n          IStorageWrapper(_storage.getContractAddress(STORAGE_WRAPPER_TWO_CONTRACT)).setOpportunityToken(portfolioId, opportunityId, tokenId);\n\n          emit LogMintOpportunityToken(tokenId, portfolioId);\n\n      } else { // else add capital to our existing portfolio's position\n\n          IOpportunityManager(_storage.getContractAddress(OPPORTUNITY_MANAGER_CONTRACT)).increasePosition.value(payableValue)(\n            opportunityId,\n            tokenId,\n            opportunity,\n            principalAddress,\n            value,\n            isERC20\n          );\n\n      }\n\n    }\n\n\n    /// @notice  Direct OpportunityManager to withdraw funds\n    ///\n    /// @param  portfolioId - The portfolio id we're withdrawing for\n    /// @param  opportunityId - The opportunity id we're withdrawing from\n    /// @param  opportunity - The contract address of our Opportunity contract\n    /// @param  value - The amount to withdraw in-kind\n    function _withdraw(\n      bytes32 portfolioId,\n      bytes32 opportunityId,\n      address opportunity,\n      uint value\n    )\n      internal\n      notDeprecated // need to block this even though nobody should have value left in the contract if it's deprecated, since the logic could be wrong\n      isValidOpportunity(portfolioId, opportunityId)\n      isCorrectAddress(opportunityId, opportunity)\n    {\n\n        uint yield = INAVCalculator(_storage.getContractAddress(NAV_CALCULATOR_CONTRACT)).getOpportunityYield(portfolioId, opportunityId, value);\n\n        bytes32 tokenId = _storage.getOpportunityToken(portfolioId, opportunityId);\n        address principalAddress = _storage.getPrincipalAddress(portfolioId);\n\n        IOpportunityManager(_storage.getContractAddress(OPPORTUNITY_MANAGER_CONTRACT)).withdrawPosition(\n          opportunityId,\n          tokenId,\n          opportunity,\n          principalAddress,\n          value,\n          _storage.getIsERC20(principalAddress)\n         );\n\n        if (yield > 0) {\n\n          INAVCalculator(_storage.getContractAddress(NAV_CALCULATOR_CONTRACT)).updateYield(portfolioId, yield);\n\n        }\n\n    }\n\n\n    /// @notice  Part 2 of 3 to withdraw a tokens value\n    ///\n    /// @param   portfolioId - The portfolio id of the token\n    /// @param   tokenId - The unique token we're withdrawing from\n    /// @param   pricePerShare - The current price per share we're using\n    /// @param   valueToWithdraw - THe value being withdrawn in-kind\n    /// @param   totalValue - The total value of the token\n    /// @param   addressToUse - Added to support us paying for user transactions\n    function redeem2(\n      bytes32 portfolioId,\n      bytes32 tokenId,\n      uint pricePerShare,\n      uint valueToWithdraw,\n      uint totalValue,\n      address addressToUse\n    )\n      internal\n      returns(uint)\n    {\n\n      address beneficiary = IPositionManager(_storage.getContractAddress(POSITION_MANAGER_CONTRACT)).verifyWithdrawer(\n          portfolioId,\n          tokenId,\n          _storage.getContractAddress(RAY_TOKEN_CONTRACT),\n          addressToUse, // person who called/signed to call this function\n          pricePerShare,\n          valueToWithdraw,\n          totalValue\n      );\n\n      valueToWithdraw += IOracle(_storage.getContractAddress(ORACLE_CONTRACT)).withdrawFromProtocols(portfolioId, valueToWithdraw, totalValue);\n\n      uint valueAfterFee = IFeeModel(_storage.getContractAddress(FEE_MODEL_CONTRACT)).takeFee(portfolioId, tokenId, valueToWithdraw, totalValue);\n\n      redeem3(portfolioId, tokenId, valueToWithdraw, pricePerShare);\n\n      emit LogWithdrawFromRAYT(tokenId, valueAfterFee, totalValue);\n\n      _transferFunds(portfolioId, beneficiary, valueAfterFee);\n\n      return valueAfterFee;\n\n    }\n\n\n    /// @notice  Part 3 of 3 for withdrawing from a position, updates the tokens storage\n    ///          such as the shares, capital, etc.\n    ///\n    /// @param  portfolioId - The portfolio id we're withdrawing from\n    /// @param  tokenId - The token we're withdrawing from\n    /// @param  valueToWithdraw - The value being withdrawn\n    /// @param  pricePerShare - The price per share we're using to calculate value\n    function redeem3(\n      bytes32 portfolioId,\n      bytes32 tokenId,\n      uint valueToWithdraw,\n      uint pricePerShare\n    )\n      internal\n    {\n\n      IPositionManager(_storage.getContractAddress(POSITION_MANAGER_CONTRACT)).updateTokenUponWithdrawal(\n          portfolioId,\n          tokenId,\n          valueToWithdraw,\n          pricePerShare,\n          _storage.getTokenShares(portfolioId, tokenId),\n          INAVCalculator(_storage.getContractAddress(NAV_CALCULATOR_CONTRACT)).getPortfolioUnrealizedYield(portfolioId)\n      );\n\n    }\n\n\n    /// @notice  Used to transfer ETH or ERC20's\n    ///\n    /// @param   portfolioId - The portfolio id, used to get the coin associated\n    /// @param   beneficiary - The address to send funds to - is untrusted\n    /// @param   value - The value to send in-kind\n    function _transferFunds(\n      bytes32 portfolioId,\n      address beneficiary,\n      uint value\n    )\n      internal\n    {\n\n      address principalAddress = _storage.getPrincipalAddress(portfolioId);\n\n      if (_storage.getIsERC20(principalAddress)) {\n\n        require(\n          IERC20(principalAddress).transfer(beneficiary, value),\n          \"#PortfolioMananger _transferFunds(): Transfer of ERC20 Token failed\"\n        );\n\n      } else {\n\n        beneficiary.transfer(value);\n\n      }\n\n    }\n\n\n    /// @notice  Verify the amount the sender claims to give to the system is true\n    ///\n    /// @dev     Used for ETH and ERC20's\n    ///\n    /// @param   portfolioId - The portfolio id, used to get the coin associated\n    /// @param   funder - The payer of the transaction\n    /// @param   inputValue - The value the user said they're contributing by parameter\n    function verifyValue(\n      bytes32 portfolioId,\n      address funder,\n      uint inputValue\n    )\n      internal\n    {\n\n      address principalAddress = _storage.getPrincipalAddress(portfolioId);\n\n      if (_storage.getIsERC20(principalAddress)) {\n\n        require(\n          IERC20(principalAddress).transferFrom(funder, address(this), inputValue),\n          \"#PortfolioMananger verifyValue: TransferFrom of ERC20 Token failed\"\n        );\n\n      } else {\n\n        require(\n          inputValue == msg.value,\n          \"#PortfolioMananger verifyValue(): ETH value sent does not match input value\");\n\n      }\n\n    }\n\n\n    /// @notice  Checks if the portfolio or this Opportunity has been paused.\n    ///\n    /// @dev     Withdrawals are allowed on pauses, lending or accepting value isn't\n    function notPaused(bytes32 portfolioId) internal view {\n\n      require(\n             _storage.getPausedMode(name) == false &&\n             _storage.getPausedMode(portfolioId) == false,\n             \"#PortfolioMananger notPaused: In withdraw mode - this function has been paused\"\n         );\n\n    }\n\n\n    /** ----------------- FALLBACK FUNCTIONS (to be removed Sept. 26th ----------------- **/\n\n\n    function fallbackClaim(\n      uint value,\n      address principalToken,\n      bool isERC20\n    )\n      external\n      onlyGovernance\n    {\n\n      if (isERC20) {\n\n        require(\n          IERC20(principalToken).transfer(_storage.getGovernanceWallet(), value),\n         \"PortfolioManager fallbackClaim(): ERC20 Transfer failed\"\n       );\n\n      } else {\n\n        _storage.getGovernanceWallet().transfer(value);\n\n      }\n\n    }\n\n}\n",
  "sourcePath": "/Users/tom/www/robo-advisor-yield/contracts/ray/protocol/PortfolioManager.sol",
  "compiler": {
    "name": "solc",
    "version": "0.4.25+commit.59dbf8f1.Emscripten.clang"
  },
  "schemaVersion": "3.0.11",
  "updatedAt": "2019-10-25T03:55:56.807Z",
  "devdoc": {
    "methods": {
      "approve(address,address,uint256)": {
        "details": "Need to approve the OpportunityManager contract ",
        "params": {
          "beneficiary": "- The OpportunityManager contract for now",
          "token": "- Contract address of the token"
        }
      },
      "deposit(bytes32,uint256)": {
        "details": "The value added must be in the same coin type as the position ",
        "params": {
          "tokenId": "- The unique id of the position",
          "value": "- The amount of value they wish to add"
        }
      },
      "lend(bytes32,bytes32,address,uint256,bool)": {
        "details": "Could pass in sha3 id and use _storage to find the appropriate contract address       but that is an extra external call when we can just do it free beforehand ",
        "params": {
          "opportunity": "- The contract address of our Opportunity contract",
          "opportunityId": "- The opportunity id we're lending too",
          "portfolioId": "- The portfolio id we're lending for",
          "subtract": "- Flag to let us know if we wish to subtract value lent                 from the available capital.",
          "value": "- The amount to lend in-kind"
        }
      },
      "mint(bytes32,address,uint256)": {
        "params": {
          "beneficiary": "- The owner of the position, supports third-party buys",
          "portfolioId": "- The portfolio id",
          "value": "- The amount to be invested, need so we can accept ERC20's "
        },
        "return": "The unique token id of their RAY Token position"
      },
      "onERC721Received(address,address,uint256,bytes)": {
        "details": "Must return hash of the function signature for tx to be valid. ",
        "params": {
          "from": "- The last owner of the RAY before becoming us",
          "tokenId": "- the unique id of the position      /// TODO: find value of hash: bytes4(keccak256(\"onERC721Received(address,address,uint256,bytes)\")) /       and make it a constant."
        }
      },
      "redeem(bytes32,uint256,address)": {
        "details": "Caller must be the owner of the token or our GasFunder (Payer) contract ",
        "params": {
          "originalCaller": "- Unimportant unless Payer is the msg.sender, tells                            us who signed the original message.     /// NOTE:     We no longer force a RAY token burn to unlock all value of the position",
          "tokenId": "- The id of the position",
          "valueToWithdraw": "- The value to withdraw"
        }
      },
      "setApprovalForAll(address,address,bool)": {
        "details": "Used by Admin so it can deprecate this contract, it transfers          all the opporunity tokens to a new contract. ",
        "params": {
          "token": "- The contract address of the token"
        }
      },
      "setDeprecated(bool)": {
        "details": "Used when upgrading a contract ",
        "params": {
          "value": "- true to deprecate, false to un-deprecate"
        }
      },
      "transferFunds(bytes32,address,uint256)": {
        "details": "If this is deprecated, should be no value, therefore this function will revert anyway, so we don't ned the deprecation flag        since it won't help us debug the error in prod. since error msgs don't show up"
      },
      "withdraw(bytes32,bytes32,address,uint256,bool)": {
        "details": "Could pass in sha3 id and use _storage to find the appropriate contract address       but that is an extra external call when we can just do it free beforehand ",
        "params": {
          "add": "- Flag to let us know if we wish to add value withdrawn                 into the available capital.",
          "opportunity": "- The contract address of our Opportunity contract",
          "opportunityId": "- The opportunity id we're withdrawing from",
          "portfolioId": "- The portfolio id we're withdrawing for",
          "value": "- The amount to withdraw in-kind"
        }
      }
    }
  },
  "userdoc": {
    "methods": {
      "approve(address,address,uint256)": {
        "notice": "Approve function for ERC20's "
      },
      "deposit(bytes32,uint256)": {
        "notice": "Adds capital to an existing RAYT, this doesn't restrict who adds,          addresses besides the owner can add value to the position. "
      },
      "fallbackClaim(uint256,address,bool)": {
        "notice": "----------------- FALLBACK FUNCTIONS (to be removed Sept. 26th ----------------- *"
      },
      "lend(bytes32,bytes32,address,uint256,bool)": {
        "notice": "Entrypoint of the Oracle to tell us where/how to lend "
      },
      "mint(bytes32,address,uint256)": {
        "notice": "Allows users to send ETH or accepted ERC20's to this contract and          used as capital. In return the PM mints and gives them a RAYT which          represents their 'stake' in the investing pool. A RAYT maps to many shares.          The price of shares is determined by the NAV. "
      },
      "onERC721Received(address,address,uint256,bytes)": {
        "notice": "Implemented to receive ERC721 tokens. Main use case is for users to burn          and withdraw their RAYT and withdraw the underlying value. It clears          it's associated token data, burns the RAYT, and transfers the capital + yield "
      },
      "redeem(bytes32,uint256,address)": {
        "notice": "Part 1 of 3 to withdraw value from a RAY Position "
      },
      "setApprovalForAll(address,address,bool)": {
        "notice": "Approval for ERC721's "
      },
      "setDeprecated(bool)": {
        "notice": "Sets the deprecated flag of the contract "
      },
      "transferFunds(bytes32,address,uint256)": {
        "notice": "Public wrapper so we can call via our Admin contract "
      },
      "withdraw(bytes32,bytes32,address,uint256,bool)": {
        "notice": "Entrypoint of the Oracle to tell us where/how to withdraw "
      }
    }
  }
}