{
  "contractName": "RAYIntegration",
  "abi": [
    {
      "constant": true,
      "inputs": [],
      "name": "rayStorage",
      "outputs": [
        {
          "name": "",
          "type": "address"
        }
      ],
      "payable": false,
      "stateMutability": "view",
      "type": "function"
    },
    {
      "constant": false,
      "inputs": [
        {
          "name": "",
          "type": "address"
        },
        {
          "name": "",
          "type": "address"
        },
        {
          "name": "",
          "type": "uint256"
        },
        {
          "name": "",
          "type": "bytes"
        }
      ],
      "name": "onERC721Received",
      "outputs": [
        {
          "name": "",
          "type": "bytes4"
        }
      ],
      "payable": false,
      "stateMutability": "nonpayable",
      "type": "function"
    },
    {
      "constant": true,
      "inputs": [
        {
          "name": "",
          "type": "address"
        },
        {
          "name": "",
          "type": "uint256"
        }
      ],
      "name": "reverseRayTokens",
      "outputs": [
        {
          "name": "",
          "type": "bytes32"
        }
      ],
      "payable": false,
      "stateMutability": "view",
      "type": "function"
    },
    {
      "constant": true,
      "inputs": [
        {
          "name": "",
          "type": "bytes32"
        }
      ],
      "name": "rayTokens",
      "outputs": [
        {
          "name": "",
          "type": "address"
        }
      ],
      "payable": false,
      "stateMutability": "view",
      "type": "function"
    },
    {
      "payable": true,
      "stateMutability": "payable",
      "type": "fallback"
    },
    {
      "anonymous": false,
      "inputs": [
        {
          "indexed": false,
          "name": "portfolioId",
          "type": "bytes32"
        },
        {
          "indexed": false,
          "name": "beneficiary",
          "type": "address"
        },
        {
          "indexed": false,
          "name": "value",
          "type": "uint256"
        },
        {
          "indexed": false,
          "name": "rayTokenId",
          "type": "bytes32"
        }
      ],
      "name": "InvestmentRAY",
      "type": "event"
    },
    {
      "anonymous": false,
      "inputs": [
        {
          "indexed": false,
          "name": "rayTokenId",
          "type": "bytes32"
        },
        {
          "indexed": false,
          "name": "value",
          "type": "uint256"
        },
        {
          "indexed": false,
          "name": "beneficiary",
          "type": "address"
        }
      ],
      "name": "DepositRAY",
      "type": "event"
    },
    {
      "anonymous": false,
      "inputs": [
        {
          "indexed": false,
          "name": "rayTokenId",
          "type": "bytes32"
        },
        {
          "indexed": false,
          "name": "value",
          "type": "uint256"
        },
        {
          "indexed": false,
          "name": "beneficiary",
          "type": "address"
        }
      ],
      "name": "RedeemRAY",
      "type": "event"
    },
    {
      "anonymous": false,
      "inputs": [
        {
          "indexed": false,
          "name": "tokenAddress",
          "type": "address"
        },
        {
          "indexed": false,
          "name": "from",
          "type": "address"
        },
        {
          "indexed": false,
          "name": "beneficiary",
          "type": "address"
        },
        {
          "indexed": false,
          "name": "value",
          "type": "uint256"
        }
      ],
      "name": "FundsTransferRAY",
      "type": "event"
    },
    {
      "constant": false,
      "inputs": [
        {
          "name": "_rayStorage",
          "type": "address"
        }
      ],
      "name": "init",
      "outputs": [],
      "payable": false,
      "stateMutability": "nonpayable",
      "type": "function"
    },
    {
      "constant": true,
      "inputs": [
        {
          "name": "portfolioDescription",
          "type": "string"
        }
      ],
      "name": "genPortfolioId",
      "outputs": [
        {
          "name": "",
          "type": "bytes32"
        }
      ],
      "payable": false,
      "stateMutability": "pure",
      "type": "function"
    },
    {
      "constant": false,
      "inputs": [
        {
          "name": "wallet",
          "type": "address"
        }
      ],
      "name": "getRayTokens",
      "outputs": [
        {
          "name": "",
          "type": "bytes32[]"
        }
      ],
      "payable": false,
      "stateMutability": "nonpayable",
      "type": "function"
    },
    {
      "constant": true,
      "inputs": [
        {
          "name": "tokenId",
          "type": "bytes32"
        }
      ],
      "name": "getTokenOwner",
      "outputs": [
        {
          "name": "",
          "type": "address"
        }
      ],
      "payable": false,
      "stateMutability": "view",
      "type": "function"
    },
    {
      "constant": false,
      "inputs": [
        {
          "name": "portfolioId",
          "type": "bytes32"
        },
        {
          "name": "beneficiary",
          "type": "address"
        },
        {
          "name": "value",
          "type": "uint256"
        }
      ],
      "name": "mint",
      "outputs": [
        {
          "name": "",
          "type": "bytes32"
        }
      ],
      "payable": true,
      "stateMutability": "payable",
      "type": "function"
    },
    {
      "constant": false,
      "inputs": [
        {
          "name": "rayTokenId",
          "type": "bytes32"
        },
        {
          "name": "value",
          "type": "uint256"
        }
      ],
      "name": "deposit",
      "outputs": [],
      "payable": true,
      "stateMutability": "payable",
      "type": "function"
    },
    {
      "constant": false,
      "inputs": [
        {
          "name": "rayTokenId",
          "type": "bytes32"
        },
        {
          "name": "valueToWithdraw",
          "type": "uint256"
        },
        {
          "name": "originalCaller",
          "type": "address"
        }
      ],
      "name": "redeemAndWithdraw",
      "outputs": [],
      "payable": false,
      "stateMutability": "nonpayable",
      "type": "function"
    },
    {
      "constant": true,
      "inputs": [
        {
          "name": "rayTokenId",
          "type": "bytes32"
        }
      ],
      "name": "getTokenValue",
      "outputs": [
        {
          "name": "",
          "type": "uint256"
        }
      ],
      "payable": false,
      "stateMutability": "view",
      "type": "function"
    }
  ],
  "bytecode": "0x608060405234801561001057600080fd5b50612135806100206000396000f3fe6080604052600436106100a75760003560e01c80633a03e2b4116100645780633a03e2b4146103d7578063421517f0146104b35780637ed9db5914610502578063883820aa1461056e5780638c04550c146105d3578063af249e231461064e576100a7565b80630ea80f8e146100a9578063150b7a021461010057806319ab453c146102645780631de26e16146102b557806327f53f1c146102ed57806329c1a3ac14610368575b005b3480156100b557600080fd5b506100be6106f4565b604051808273ffffffffffffffffffffffffffffffffffffffff1673ffffffffffffffffffffffffffffffffffffffff16815260200191505060405180910390f35b34801561010c57600080fd5b506102106004803603608081101561012357600080fd5b81019080803573ffffffffffffffffffffffffffffffffffffffff169060200190929190803573ffffffffffffffffffffffffffffffffffffffff169060200190929190803590602001909291908035906020019064010000000081111561018a57600080fd5b82018360208201111561019c57600080fd5b803590602001918460018302840111640100000000831117156101be57600080fd5b91908080601f016020809104026020016040519081016040528093929190818152602001838380828437600081840152601f19601f82011690508083019250505050505050919291929050505061071a565b60405180827bffffffffffffffffffffffffffffffffffffffffffffffffffffffff19167bffffffffffffffffffffffffffffffffffffffffffffffffffffffff1916815260200191505060405180910390f35b34801561027057600080fd5b506102b36004803603602081101561028757600080fd5b81019080803573ffffffffffffffffffffffffffffffffffffffff16906020019092919050505061072e565b005b6102eb600480360360408110156102cb57600080fd5b810190808035906020019092919080359060200190929190505050610a13565b005b3480156102f957600080fd5b506103266004803603602081101561031057600080fd5b8101908080359060200190929190505050610caa565b604051808273ffffffffffffffffffffffffffffffffffffffff1673ffffffffffffffffffffffffffffffffffffffff16815260200191505060405180910390f35b34801561037457600080fd5b506103c16004803603604081101561038b57600080fd5b81019080803573ffffffffffffffffffffffffffffffffffffffff16906020019092919080359060200190929190505050610ce7565b6040518082815260200191505060405180910390f35b3480156103e357600080fd5b5061049d600480360360208110156103fa57600080fd5b810190808035906020019064010000000081111561041757600080fd5b82018360208201111561042957600080fd5b8035906020019184600183028401116401000000008311171561044b57600080fd5b91908080601f016020809104026020016040519081016040528093929190818152602001838380828437600081840152601f19601f820116905080830192505050505050509192919290505050610d15565b6040518082815260200191505060405180910390f35b3480156104bf57600080fd5b506104ec600480360360208110156104d657600080fd5b8101908080359060200190929190505050610d90565b6040518082815260200191505060405180910390f35b6105586004803603606081101561051857600080fd5b8101908080359060200190929190803573ffffffffffffffffffffffffffffffffffffffff16906020019092919080359060200190929190505050610fa5565b6040518082815260200191505060405180910390f35b34801561057a57600080fd5b506105d16004803603606081101561059157600080fd5b810190808035906020019092919080359060200190929190803573ffffffffffffffffffffffffffffffffffffffff16906020019092919050505061127c565b005b3480156105df57600080fd5b5061060c600480360360208110156105f657600080fd5b81019080803590602001909291905050506112dd565b604051808273ffffffffffffffffffffffffffffffffffffffff1673ffffffffffffffffffffffffffffffffffffffff16815260200191505060405180910390f35b34801561065a57600080fd5b5061069d6004803603602081101561067157600080fd5b81019080803573ffffffffffffffffffffffffffffffffffffffff169060200190929190505050611310565b6040518080602001828103825283818151815260200191508051906020019060200280838360005b838110156106e05780820151818401526020810190506106c5565b505050509050019250505060405180910390f35b603960009054906101000a900473ffffffffffffffffffffffffffffffffffffffff1681565b600063150b7a0260e01b9050949350505050565b600060019054906101000a900460ff168061074d575061074c6113a7565b5b8061076457506000809054906101000a900460ff16155b6107b9576040517f08c379a000000000000000000000000000000000000000000000000000000000815260040180806020018281038252602e815260200180612018602e913960400191505060405180910390fd5b60008060019054906101000a900460ff161590508015610809576001600060016101000a81548160ff02191690831515021790555060016000806101000a81548160ff0219169083151502179055505b81603960006101000a81548173ffffffffffffffffffffffffffffffffffffffff021916908373ffffffffffffffffffffffffffffffffffffffff16021790555060405180807f41646d696e436f6e747261637400000000000000000000000000000000000000815250600d019050604051809103902060338190555060405180807f506f7274666f6c696f4d616e61676572436f6e747261637400000000000000008152506018019050604051809103902060348190555060405180807f5061796572436f6e747261637400000000000000000000000000000000000000815250600d019050604051809103902060358190555060405180807f524159546f6b656e436f6e7472616374000000000000000000000000000000008152506010019050604051809103902060368190555060405180807f4e415643616c63756c61746f72436f6e74726163740000000000000000000000815250601501905060405180910390206037819055506040518080611fac602f9139602f0190506040518091039020603860006101000a81548163ffffffff021916908360e01c02179055506000603860046101000a81548173ffffffffffffffffffffffffffffffffffffffff021916908373ffffffffffffffffffffffffffffffffffffffff1602179055508015610a0f5760008060016101000a81548160ff0219169083151502179055505b5050565b6000603960009054906101000a900473ffffffffffffffffffffffffffffffffffffffff1673ffffffffffffffffffffffffffffffffffffffff166343aee400846040518263ffffffff1660e01b81526004018082815260200191505060206040518083038186803b158015610a8857600080fd5b505afa158015610a9c573d6000803e3d6000fd5b505050506040513d6020811015610ab257600080fd5b810190808051906020019092919050505090506000603960009054906101000a900473ffffffffffffffffffffffffffffffffffffffff1673ffffffffffffffffffffffffffffffffffffffff16630d2020dd6034546040518263ffffffff1660e01b81526004018082815260200191505060206040518083038186803b158015610b3c57600080fd5b505afa158015610b50573d6000803e3d6000fd5b505050506040513d6020811015610b6657600080fd5b810190808051906020019092919050505090506000610b87833386856113b8565b90508173ffffffffffffffffffffffffffffffffffffffff16631de26e168287876040518463ffffffff1660e01b815260040180838152602001828152602001925050506000604051808303818588803b158015610be457600080fd5b505af1158015610bf8573d6000803e3d6000fd5b50505050507f18deb3b7772ccd6bb7a588a8a4682455bd256880ac88a8cd6c692ff18ff15a628585603a600089815260200190815260200160002060009054906101000a900473ffffffffffffffffffffffffffffffffffffffff16604051808481526020018381526020018273ffffffffffffffffffffffffffffffffffffffff1673ffffffffffffffffffffffffffffffffffffffff168152602001935050505060405180910390a15050505050565b6000603a600083815260200190815260200160002060009054906101000a900473ffffffffffffffffffffffffffffffffffffffff169050919050565b603b6020528160005260406000208181548110610d0057fe5b90600052602060002001600091509150505481565b6000816040516020018082805190602001908083835b60208310610d4e5780518252602082019150602081019050602083039250610d2b565b6001836020036101000a038019825116818451168082178552505050505050905001915050604051602081830303815290604052805190602001209050919050565b600080600080603960009054906101000a900473ffffffffffffffffffffffffffffffffffffffff1673ffffffffffffffffffffffffffffffffffffffff166343aee400866040518263ffffffff1660e01b81526004018082815260200191505060206040518083038186803b158015610e0957600080fd5b505afa158015610e1d573d6000803e3d6000fd5b505050506040513d6020811015610e3357600080fd5b81019080805190602001909291905050509050603960009054906101000a900473ffffffffffffffffffffffffffffffffffffffff1673ffffffffffffffffffffffffffffffffffffffff16630d2020dd6037546040518263ffffffff1660e01b81526004018082815260200191505060206040518083038186803b158015610ebb57600080fd5b505afa158015610ecf573d6000803e3d6000fd5b505050506040513d6020811015610ee557600080fd5b810190808051906020019092919050505073ffffffffffffffffffffffffffffffffffffffff16632cc7b6f782876040518363ffffffff1660e01b81526004018083815260200182815260200192505050604080518083038186803b158015610f4d57600080fd5b505afa158015610f61573d6000803e3d6000fd5b505050506040513d6040811015610f7757600080fd5b8101908080519060200190929190805190602001909291905050508093508194505050829350505050919050565b600080603960009054906101000a900473ffffffffffffffffffffffffffffffffffffffff1673ffffffffffffffffffffffffffffffffffffffff16630d2020dd6034546040518263ffffffff1660e01b81526004018082815260200191505060206040518083038186803b15801561101d57600080fd5b505afa158015611031573d6000803e3d6000fd5b505050506040513d602081101561104757600080fd5b810190808051906020019092919050505090506000611068868686856113b8565b905060008273ffffffffffffffffffffffffffffffffffffffff16637ed9db59838930896040518563ffffffff1660e01b8152600401808481526020018373ffffffffffffffffffffffffffffffffffffffff1673ffffffffffffffffffffffffffffffffffffffff16815260200182815260200193505050506020604051808303818588803b1580156110fb57600080fd5b505af115801561110f573d6000803e3d6000fd5b50505050506040513d602081101561112657600080fd5b8101908080519060200190929190505050905085603a600083815260200190815260200160002060006101000a81548173ffffffffffffffffffffffffffffffffffffffff021916908373ffffffffffffffffffffffffffffffffffffffff160217905550603b60008773ffffffffffffffffffffffffffffffffffffffff1673ffffffffffffffffffffffffffffffffffffffff1681526020019081526020016000208190806001815401808255809150509060018203906000526020600020016000909192909190915055507f8667d3b890097908e74765dd3b76068096309b7c3755b889b9afffc436182b5e87878784604051808581526020018473ffffffffffffffffffffffffffffffffffffffff1673ffffffffffffffffffffffffffffffffffffffff16815260200183815260200182815260200194505050505060405180910390a18093505050509392505050565b60008061128a85858561181b565b80925081935050506000603a600087815260200190815260200160002060009054906101000a900473ffffffffffffffffffffffffffffffffffffffff1690506112d5838284611b09565b505050505050565b603a6020528060005260406000206000915054906101000a900473ffffffffffffffffffffffffffffffffffffffff1681565b6060603b60008373ffffffffffffffffffffffffffffffffffffffff1673ffffffffffffffffffffffffffffffffffffffff16815260200190815260200160002080548060200260200160405190810160405280929190818152602001828054801561139b57602002820191906000526020600020905b815481526020019060010190808311611387575b50505050509050919050565b600080303b90506000811491505090565b600080603960009054906101000a900473ffffffffffffffffffffffffffffffffffffffff1673ffffffffffffffffffffffffffffffffffffffff16633f1793c3876040518263ffffffff1660e01b81526004018082815260200191505060206040518083038186803b15801561142e57600080fd5b505afa158015611442573d6000803e3d6000fd5b505050506040513d602081101561145857600080fd5b81019080805190602001909291905050509050603960009054906101000a900473ffffffffffffffffffffffffffffffffffffffff1673ffffffffffffffffffffffffffffffffffffffff166353024bae826040518263ffffffff1660e01b8152600401808273ffffffffffffffffffffffffffffffffffffffff1673ffffffffffffffffffffffffffffffffffffffff16815260200191505060206040518083038186803b15801561150a57600080fd5b505afa15801561151e573d6000803e3d6000fd5b505050506040513d602081101561153457600080fd5b8101908080519060200190929190505050156117b6578073ffffffffffffffffffffffffffffffffffffffff166323b872dd8630876040518463ffffffff1660e01b8152600401808473ffffffffffffffffffffffffffffffffffffffff1673ffffffffffffffffffffffffffffffffffffffff1681526020018373ffffffffffffffffffffffffffffffffffffffff1673ffffffffffffffffffffffffffffffffffffffff1681526020018281526020019350505050602060405180830381600087803b15801561160557600080fd5b505af1158015611619573d6000803e3d6000fd5b505050506040513d602081101561162f57600080fd5b8101908080519060200190929190505050611695576040517f08c379a000000000000000000000000000000000000000000000000000000000815260040180806020018281038252603d815260200180612046603d913960400191505060405180910390fd5b8073ffffffffffffffffffffffffffffffffffffffff1663095ea7b384866040518363ffffffff1660e01b8152600401808373ffffffffffffffffffffffffffffffffffffffff1673ffffffffffffffffffffffffffffffffffffffff16815260200182815260200192505050602060405180830381600087803b15801561171c57600080fd5b505af1158015611730573d6000803e3d6000fd5b505050506040513d602081101561174657600080fd5b81019080805190602001909291905050506117ac576040517f08c379a000000000000000000000000000000000000000000000000000000000815260040180806020018281038252603d815260200180611fdb603d913960400191505060405180910390fd5b6000915050611813565b34841461180e576040517f08c379a00000000000000000000000000000000000000000000000000000000081526004018080602001828103825260488152602001806120c26048913960600191505060405180910390fd5b839150505b949350505050565b6000806000603960009054906101000a900473ffffffffffffffffffffffffffffffffffffffff1673ffffffffffffffffffffffffffffffffffffffff166343aee400876040518263ffffffff1660e01b81526004018082815260200191505060206040518083038186803b15801561189357600080fd5b505afa1580156118a7573d6000803e3d6000fd5b505050506040513d60208110156118bd57600080fd5b810190808051906020019092919050505090506000603960009054906101000a900473ffffffffffffffffffffffffffffffffffffffff1673ffffffffffffffffffffffffffffffffffffffff16630d2020dd6034546040518263ffffffff1660e01b81526004018082815260200191505060206040518083038186803b15801561194757600080fd5b505afa15801561195b573d6000803e3d6000fd5b505050506040513d602081101561197157600080fd5b8101908080519060200190929190505050905060008173ffffffffffffffffffffffffffffffffffffffff1663112ad90b8989896040518463ffffffff1660e01b8152600401808481526020018381526020018273ffffffffffffffffffffffffffffffffffffffff1673ffffffffffffffffffffffffffffffffffffffff1681526020019350505050602060405180830381600087803b158015611a1557600080fd5b505af1158015611a29573d6000803e3d6000fd5b505050506040513d6020811015611a3f57600080fd5b810190808051906020019092919050505090507f7029c547dc32802e528b6770662e27ad50f2fb85883fe19b9107a73afa6e2ef68882603a60008c815260200190815260200160002060009054906101000a900473ffffffffffffffffffffffffffffffffffffffff16604051808481526020018381526020018273ffffffffffffffffffffffffffffffffffffffff1673ffffffffffffffffffffffffffffffffffffffff168152602001935050505060405180910390a1828194509450505050935093915050565b6000603960009054906101000a900473ffffffffffffffffffffffffffffffffffffffff1673ffffffffffffffffffffffffffffffffffffffff16633f1793c3856040518263ffffffff1660e01b81526004018082815260200191505060206040518083038186803b158015611b7e57600080fd5b505afa158015611b92573d6000803e3d6000fd5b505050506040513d6020811015611ba857600080fd5b81019080805190602001909291905050509050603960009054906101000a900473ffffffffffffffffffffffffffffffffffffffff1673ffffffffffffffffffffffffffffffffffffffff166353024bae826040518263ffffffff1660e01b8152600401808273ffffffffffffffffffffffffffffffffffffffff1673ffffffffffffffffffffffffffffffffffffffff16815260200191505060206040518083038186803b158015611c5a57600080fd5b505afa158015611c6e573d6000803e3d6000fd5b505050506040513d6020811015611c8457600080fd5b810190808051906020019092919050505015611e89578073ffffffffffffffffffffffffffffffffffffffff1663a9059cbb84846040518363ffffffff1660e01b8152600401808373ffffffffffffffffffffffffffffffffffffffff1673ffffffffffffffffffffffffffffffffffffffff16815260200182815260200192505050602060405180830381600087803b158015611d2157600080fd5b505af1158015611d35573d6000803e3d6000fd5b505050506040513d6020811015611d4b57600080fd5b8101908080519060200190929190505050611db1576040517f08c379a000000000000000000000000000000000000000000000000000000000815260040180806020018281038252603f815260200180612083603f913960400191505060405180910390fd5b7f811818cc81106965711d42e377725a1ae3815b6175654fc80aa44e7a6821b77f81308585604051808573ffffffffffffffffffffffffffffffffffffffff1673ffffffffffffffffffffffffffffffffffffffff1681526020018473ffffffffffffffffffffffffffffffffffffffff1673ffffffffffffffffffffffffffffffffffffffff1681526020018373ffffffffffffffffffffffffffffffffffffffff1673ffffffffffffffffffffffffffffffffffffffff16815260200182815260200194505050505060405180910390a1611fa5565b8273ffffffffffffffffffffffffffffffffffffffff166108fc839081150290604051600060405180830381858888f19350505050158015611ecf573d6000803e3d6000fd5b507f811818cc81106965711d42e377725a1ae3815b6175654fc80aa44e7a6821b77f6000308585604051808573ffffffffffffffffffffffffffffffffffffffff1673ffffffffffffffffffffffffffffffffffffffff1681526020018473ffffffffffffffffffffffffffffffffffffffff1673ffffffffffffffffffffffffffffffffffffffff1681526020018373ffffffffffffffffffffffffffffffffffffffff1673ffffffffffffffffffffffffffffffffffffffff16815260200182815260200194505050505060405180910390a15b5050505056fe6f6e455243373231526563656976656428616464726573732c616464726573732c75696e743235362c62797465732923524159496e746567726174696f6e2076657269667956616c756528293a20417070726f76616c206f6620455243323020546f6b656e206661696c6564436f6e747261637420696e7374616e63652068617320616c7265616479206265656e20696e697469616c697a656423524159496e746567726174696f6e2076657269667956616c756528293a205472616e73666572206f6620455243323020546f6b656e206661696c656423524159496e746567726174696f6e207472616e7366657246756e647328293a205472616e73666572206f6620455243323020746f6b656e206661696c656423524159496e746567726174696f6e2076657269667956616c756528293a204554482076616c75652073656e7420646f6573206e6f74206d6174636820696e7075742076616c7565a165627a7a72305820fb76f5039a3c9d2415a5cea0acda0a8cc7985842704caa7ba08cd8eefec789900029",
  "source": "// TODO: RAY is written in solidity 0.4, we are using 0.5 is it a problem?\npragma solidity >=0.5.0 <0.6.0;\n\n// external dependencies\nimport \"@openzeppelin/upgrades/contracts/Initializable.sol\";\nimport \"@openzeppelin/contracts/token/ERC20/IERC20.sol\";\nimport \"@openzeppelin/contracts/token/ERC721/ERC721Holder.sol\";\n\n// internal dependencies\nimport \"./interfaces/ray/IRAY.sol\";\nimport \"./interfaces/ray/IRAYStorage.sol\";\n\ncontract RAYIntegration is Initializable, ERC721Holder {\n\n\n    /*************** VARIABLE DECLARATIONS **************/\n\n\n    // RAY smart contracts used, these id's can be used to identify them dynamically\n    bytes32 internal ADMIN_CONTRACT;\n    bytes32 internal PORTFOLIO_MANAGER_CONTRACT;\n\n    bytes32 internal PAYER_CONTRACT;\n    bytes32 internal RAY_TOKEN_CONTRACT;\n    bytes32 internal NAV_CALCULATOR_CONTRACT;\n\n    bytes4 internal ERC721_RECEIVER_STANDARD;\n    address internal NULL_ADDRESS;\n\n    IRAYStorage public rayStorage;\n\n    // map the 'true' owners of the RAY tokens owned by this contract\n    mapping(bytes32 => address payable) public rayTokens;\n    mapping(address => bytes32[]) public reverseRayTokens;\n\n\n    event InvestmentRAY(bytes32 portfolioId, address beneficiary, uint256 value, bytes32 rayTokenId);\n    event DepositRAY(bytes32 rayTokenId, uint256 value, address beneficiary);\n    event RedeemRAY(bytes32 rayTokenId, uint256 value, address beneficiary);\n    event FundsTransferRAY(address tokenAddress, address from, address beneficiary, uint256 value);\n\n\n    /*************** MODIFIER DECLARATIONS **************/\n\n\n    /// @dev  A modifier that verifies either the msg.sender == our Payer contract\n    ///       and then the original caller is passed as a parameter (so check the original caller)\n    ///       since we trust Payer. Else msg.sender must be the true owner of the token.\n    ///\n    ///       This functionality enables paying for users transactions when interacting\n    ///       with RAY.\n    ///\n    ///       origCaller is the address that signed the transaction that went through Payer\n    modifier onlyTokenOwner(bytes32 tokenId, address origCaller) {\n        if (msg.sender == rayStorage.getContractAddress(PAYER_CONTRACT)) {\n            require(rayTokens[tokenId] == origCaller, \"#RAYIntegration onlyTokenOwner modifier: The original caller is not the owner of the token\");\n        } else {\n            require(rayTokens[tokenId] == msg.sender, \"#RAYIntegration onlyTokenOwner modifier: The caller is not the owner of the token\");\n        }\n        _;\n    }\n\n\n    /////////////////////// FUNCTION DECLARATIONS BEGIN ///////////////////////\n\n    /******************* PUBLIC FUNCTIONS *******************/\n\n\n    /// @notice  Init contract by referencing the Eternal storage contract of RAY\n    ///\n    /// @param   _rayStorage - The address of the RAY storage contract\n\n    function init(address _rayStorage) public initializer {\n        rayStorage = IRAYStorage(_rayStorage);\n\n        // constants\n        ADMIN_CONTRACT = keccak256(\"AdminContract\");\n        PORTFOLIO_MANAGER_CONTRACT = keccak256(\"PortfolioManagerContract\");\n        PAYER_CONTRACT = keccak256(\"PayerContract\");\n        RAY_TOKEN_CONTRACT = keccak256(\"RAYTokenContract\");\n        NAV_CALCULATOR_CONTRACT = keccak256(\"NAVCalculatorContract\");\n        ERC721_RECEIVER_STANDARD = bytes4(keccak256(\"onERC721Received(address,address,uint256,bytes)\"));\n        NULL_ADDRESS = address(0);\n    }\n\n    function genPortfolioId(string memory portfolioDescription) public pure returns (bytes32) {\n        return keccak256(abi.encodePacked(portfolioDescription));\n    }\n\n    function getRayTokens(address wallet) public returns (bytes32[] memory) {\n        return reverseRayTokens[wallet];\n    }\n\n    function getTokenOwner(bytes32 tokenId) external view returns (address) {\n        return rayTokens[tokenId];\n    }\n\n    /// @notice  Fallback function to receive Ether\n    ///\n    /// @dev     Required to receive Ether from PortfolioManager upon withdraws\n    function() external payable {}\n\n\n    /** --------------------- RAY ENTRYPOINTS --------------------- **/\n\n\n    /// @notice  Allows users to deposit ETH or accepted ERC20's to this contract and\n    ///          used as capital. In return they receive an ERC-721 'RAY' token.\n    ///\n    /// @param   portfolioId - The portfolio id\n    /// @param   beneficiary - The address that will own the position\n    /// @param   value - The amount to be deposited denominated in the smallest units\n    ///                  in-kind. Ex. For USDC, to deposit 1 USDC, value = 1000000\n    ///\n    /// @return   The unique token id of the new RAY token position\n    function mint(bytes32 portfolioId, address payable beneficiary, uint value)\n        external\n        payable\n        returns (bytes32)\n    {\n        address rayContract = rayStorage.getContractAddress(PORTFOLIO_MANAGER_CONTRACT);\n        uint payableValue = verifyValue(portfolioId, beneficiary, value, rayContract);\n\n        // this contract will own the minted RAY\n        bytes32 rayTokenId = IRAY(rayContract).mint.value(payableValue)(portfolioId, address(this), value); // payable value can be 0\n\n        // map RAY's to their true owners\n        rayTokens[rayTokenId] = beneficiary;\n        reverseRayTokens[beneficiary].push(rayTokenId);\n\n        emit InvestmentRAY(portfolioId, beneficiary, value, rayTokenId);\n\n        return rayTokenId;\n    }\n\n\n    /// @notice  Adds capital to an existing RAY token, this doesn't restrict who\n    ///          adds. Addresses besides the owner can add value to the position.\n    ///\n    /// @dev     The value added must be in the same underlying asset as the position.\n    ///\n    /// @param   rayTokenId - The unique id of the RAY token\n    /// @param   value - The amount to be deposited denominated in the smallest units\n    ///                  in-kind. Ex. For USDC, to deposit 1 USDC, value = 1000000\n    function deposit(bytes32 rayTokenId, uint value) external payable {\n        bytes32 portfolioId = rayStorage.getTokenKey(rayTokenId);\n        address rayContract = rayStorage.getContractAddress(PORTFOLIO_MANAGER_CONTRACT);\n\n        uint payableValue = verifyValue(portfolioId, msg.sender, value, rayContract);\n\n        IRAY(rayContract).deposit.value(payableValue)(rayTokenId, value);\n\n        emit DepositRAY(rayTokenId, value, rayTokens[rayTokenId]);\n    }\n\n\n    /// @notice   Withdraw value from a RAY token\n    ///\n    /// @dev      Caller must be the 'true' owner of the token or RAY's GasFunder (Payer) contract\n    ///\n    /// @param    rayTokenId - The id of the position\n    /// @param    valueToWithdraw - The value to withdraw\n    /// @param    originalCaller - Unimportant unless Payer is the msg.sender, tells\n    ///                            us who signed the original message.\n    function redeem(bytes32 rayTokenId, uint valueToWithdraw, address originalCaller)\n        internal\n        returns (bytes32, uint256)\n    {\n        bytes32 portfolioId = rayStorage.getTokenKey(rayTokenId);\n        address rayContract = rayStorage.getContractAddress(PORTFOLIO_MANAGER_CONTRACT);\n\n        uint valueAfterFee = \n            IRAY(rayContract).redeem(rayTokenId, valueToWithdraw, originalCaller);\n\n        emit RedeemRAY(rayTokenId, valueAfterFee, rayTokens[rayTokenId]);\n        return (portfolioId, valueAfterFee);\n    }\n\n    /// @notice   Withdraw value from a RAY token\n    ///\n    /// @dev      Caller must be the 'true' owner of the token or RAY's GasFunder (Payer) contract\n    ///\n    /// @param    rayTokenId - The id of the position\n    /// @param    valueToWithdraw - The value to withdraw\n    /// @param    originalCaller - Unimportant unless Payer is the msg.sender, tells\n    ///                            us who signed the original message.\n    function redeemAndWithdraw(bytes32 rayTokenId, uint valueToWithdraw, address originalCaller)\n        public\n    {\n        bytes32 portfolioId;\n        uint256 valueAfterFee;\n        \n        (portfolioId, valueAfterFee) = redeem(rayTokenId, valueToWithdraw, originalCaller);\n\n        address payable beneficiary = rayTokens[rayTokenId];\n        transferFunds(portfolioId, beneficiary, valueAfterFee);\n    }\n\n\n    /// @notice  Gets a RAY tokens current value\n    ///\n    /// @param    rayTokenId - The unique token id of the RAY\n    ///\n    /// @return   Value of the token\n    function getTokenValue(bytes32 rayTokenId) public view returns (uint) {\n\n        uint tokenValue;\n        uint pricePerShare;\n\n        bytes32 portfolioId = rayStorage.getTokenKey(rayTokenId);\n\n        (tokenValue, pricePerShare) = IRAY(rayStorage.getContractAddress(NAV_CALCULATOR_CONTRACT)).getTokenValue(portfolioId, rayTokenId);\n\n        return tokenValue;\n    }\n\n\n    /************************ INTERNAL FUNCTIONS **********************/\n\n\n    /// @notice  Verifies the funds have been credited to this contract and then\n    ///          returns the 'payable' value - the amount of ETH to be forwarded.\n    ///\n    /// @param   portfolioId - The portfolioId the RAY being minted or deposited is\n    ///                        associated with\n    /// @param   funder - The address funding the transaction\n    /// @param   inputValue - The value input to the function parameter\n    /// @param   rayContract - The address of the PortfolioManager\n    ///\n    /// @return  The 'payable' value to be forwarded to the PortfolioManager\n    function verifyValue(\n        bytes32 portfolioId,\n        address funder,\n        uint inputValue,\n        address rayContract\n    ) internal returns(uint) {\n        address principalAddress = rayStorage.getPrincipalAddress(portfolioId);\n\n        if (rayStorage.getIsERC20(principalAddress)) {\n            require(IERC20(principalAddress).transferFrom(funder, address(this), inputValue),\n                \"#RAYIntegration verifyValue(): Transfer of ERC20 Token failed\");\n\n            // could one time max approve the ray contract (or everytime it upgrades and changes addresses)\n            require(IERC20(principalAddress).approve(rayContract, inputValue),\n                \"#RAYIntegration verifyValue(): Approval of ERC20 Token failed\");\n\n            return 0;\n        } else {\n            require(inputValue == msg.value, \"#RAYIntegration verifyValue(): ETH value sent does not match input value\");\n            return inputValue;\n        }\n    }\n\n\n    /// @notice  Used to transfer ETH or ERC20's\n    ///\n    /// @param   portfolioId - The portfolio id, used to get the coin associated\n    /// @param   beneficiary - The address to send funds to - is untrusted\n    /// @param   value - The value to send in-kind in smallest units\n    function transferFunds(\n        bytes32 portfolioId,\n        address payable beneficiary,\n        uint value\n    ) internal {\n        address principalAddress = rayStorage.getPrincipalAddress(portfolioId);\n\n        if (rayStorage.getIsERC20(principalAddress)) {\n            require(IERC20(principalAddress).transfer(beneficiary, value),\n                \"#RAYIntegration transferFunds(): Transfer of ERC20 token failed\");\n            emit FundsTransferRAY(principalAddress, address(this), beneficiary, value);\n        } else {\n            beneficiary.transfer(value);\n            emit FundsTransferRAY(address(0), address(this), beneficiary, value);\n        }\n    }\n}\n",
  "sourcePath": "/Users/tom/www/defi-custody-sf-hackathon/contracts/RAYIntegration.sol",
  "compiler": {
    "name": "solc",
    "version": "0.5.8+commit.23d335f2.Emscripten.clang"
  },
  "schemaVersion": "3.0.11",
  "updatedAt": "2019-10-27T17:28:52.665Z",
  "devdoc": {
    "methods": {
      "deposit(bytes32,uint256)": {
        "details": "The value added must be in the same underlying asset as the position. ",
        "params": {
          "rayTokenId": "- The unique id of the RAY token",
          "value": "- The amount to be deposited denominated in the smallest units                  in-kind. Ex. For USDC, to deposit 1 USDC, value = 1000000"
        }
      },
      "getTokenValue(bytes32)": {
        "params": {
          "rayTokenId": "- The unique token id of the RAY "
        },
        "return": "Value of the token"
      },
      "init(address)": {
        "params": {
          "_rayStorage": "- The address of the RAY storage contract"
        }
      },
      "mint(bytes32,address,uint256)": {
        "params": {
          "beneficiary": "- The address that will own the position",
          "portfolioId": "- The portfolio id",
          "value": "- The amount to be deposited denominated in the smallest units                  in-kind. Ex. For USDC, to deposit 1 USDC, value = 1000000 "
        },
        "return": "The unique token id of the new RAY token position"
      },
      "redeemAndWithdraw(bytes32,uint256,address)": {
        "details": "Caller must be the 'true' owner of the token or RAY's GasFunder (Payer) contract ",
        "params": {
          "originalCaller": "- Unimportant unless Payer is the msg.sender, tells                            us who signed the original message.",
          "rayTokenId": "- The id of the position",
          "valueToWithdraw": "- The value to withdraw"
        }
      }
    }
  },
  "userdoc": {
    "methods": {
      "deposit(bytes32,uint256)": {
        "notice": "Adds capital to an existing RAY token, this doesn't restrict who          adds. Addresses besides the owner can add value to the position. "
      },
      "getTokenValue(bytes32)": {
        "notice": "Gets a RAY tokens current value "
      },
      "init(address)": {
        "notice": "Init contract by referencing the Eternal storage contract of RAY "
      },
      "mint(bytes32,address,uint256)": {
        "notice": "Allows users to deposit ETH or accepted ERC20's to this contract and          used as capital. In return they receive an ERC-721 'RAY' token. "
      },
      "redeemAndWithdraw(bytes32,uint256,address)": {
        "notice": "Withdraw value from a RAY token "
      }
    }
  }
}