{
  "fileName": "RAYIntegration.sol",
  "contractName": "RAYIntegration",
  "source": "// TODO: RAY is written in solidity 0.4, we are using 0.5 is it a problem?\npragma solidity >=0.5.0 <0.6.0;\n\n// external dependencies\nimport \"@openzeppelin/upgrades/contracts/Initializable.sol\";\nimport \"@openzeppelin/contracts/token/ERC20/IERC20.sol\";\nimport \"@openzeppelin/contracts/token/ERC721/ERC721Holder.sol\";\n\n// internal dependencies\nimport \"./interfaces/ray/IRAY.sol\";\nimport \"./interfaces/ray/IRAYStorage.sol\";\n\ncontract RAYIntegration is Initializable, ERC721Holder {\n\n\n    /*************** VARIABLE DECLARATIONS **************/\n\n\n    // RAY smart contracts used, these id's can be used to identify them dynamically\n    bytes32 internal ADMIN_CONTRACT;\n    bytes32 internal PORTFOLIO_MANAGER_CONTRACT;\n\n    bytes32 internal PAYER_CONTRACT;\n    bytes32 internal RAY_TOKEN_CONTRACT;\n    bytes32 internal NAV_CALCULATOR_CONTRACT;\n\n    bytes4 internal ERC721_RECEIVER_STANDARD;\n    address internal NULL_ADDRESS;\n\n    IRAYStorage public rayStorage;\n\n    // map the 'true' owners of the RAY tokens owned by this contract\n    mapping(bytes32 => address payable) public rayTokens;\n    mapping(address => bytes32[]) private reverseRayTokens;\n\n\n    event InvestmentRAY(bytes32 portfolioId, address beneficiary, uint256 value, bytes32 rayTokenId);\n    event DepositRAY(bytes32 rayTokenId, uint256 value, address beneficiary);\n    event RedeemRAY(bytes32 rayTokenId, uint256 value, address beneficiary);\n    event FundsTransferRAY(address tokenAddress, address from, address beneficiary, uint256 value);\n\n\n    /*************** MODIFIER DECLARATIONS **************/\n\n\n    /// @dev  A modifier that verifies either the msg.sender == our Payer contract\n    ///       and then the original caller is passed as a parameter (so check the original caller)\n    ///       since we trust Payer. Else msg.sender must be the true owner of the token.\n    ///\n    ///       This functionality enables paying for users transactions when interacting\n    ///       with RAY.\n    ///\n    ///       origCaller is the address that signed the transaction that went through Payer\n    modifier onlyTokenOwner(bytes32 tokenId, address origCaller) {\n        if (msg.sender == rayStorage.getContractAddress(PAYER_CONTRACT)) {\n            require(rayTokens[tokenId] == origCaller, \"#RAYIntegration onlyTokenOwner modifier: The original caller is not the owner of the token\");\n        } else {\n            require(rayTokens[tokenId] == msg.sender, \"#RAYIntegration onlyTokenOwner modifier: The caller is not the owner of the token\");\n        }\n        _;\n    }\n\n\n    /////////////////////// FUNCTION DECLARATIONS BEGIN ///////////////////////\n\n    /******************* PUBLIC FUNCTIONS *******************/\n\n\n    /// @notice  Init contract by referencing the Eternal storage contract of RAY\n    ///\n    /// @param   _rayStorage - The address of the RAY storage contract\n\n    function init(address _rayStorage) public initializer {\n        rayStorage = IRAYStorage(_rayStorage);\n\n        // constants\n        ADMIN_CONTRACT = keccak256(\"AdminContract\");\n        PORTFOLIO_MANAGER_CONTRACT = keccak256(\"PortfolioManagerContract\");\n        PAYER_CONTRACT = keccak256(\"PayerContract\");\n        RAY_TOKEN_CONTRACT = keccak256(\"RAYTokenContract\");\n        NAV_CALCULATOR_CONTRACT = keccak256(\"NAVCalculatorContract\");\n        ERC721_RECEIVER_STANDARD = bytes4(keccak256(\"onERC721Received(address,address,uint256,bytes)\"));\n        NULL_ADDRESS = address(0);\n    }\n\n    function genPortfolioId(string memory portfolioDescription) public pure returns (bytes32) {\n        return keccak256(abi.encodePacked(portfolioDescription));\n    }\n\n    function getRayTokens(address wallet) public returns (bytes32[] memory) {\n        return reverseRayTokens[wallet];\n    }\n\n    function getTokenOwner(bytes32 tokenId) external view returns (address) {\n        return rayTokens[tokenId];\n    }\n\n    /// @notice  Fallback function to receive Ether\n    ///\n    /// @dev     Required to receive Ether from PortfolioManager upon withdraws\n    function() external payable {}\n\n\n    /** --------------------- RAY ENTRYPOINTS --------------------- **/\n\n\n    /// @notice  Allows users to deposit ETH or accepted ERC20's to this contract and\n    ///          used as capital. In return they receive an ERC-721 'RAY' token.\n    ///\n    /// @param   portfolioId - The portfolio id\n    /// @param   beneficiary - The address that will own the position\n    /// @param   value - The amount to be deposited denominated in the smallest units\n    ///                  in-kind. Ex. For USDC, to deposit 1 USDC, value = 1000000\n    ///\n    /// @return   The unique token id of the new RAY token position\n    function mint(bytes32 portfolioId, address payable beneficiary, uint value)\n        external\n        payable\n        returns (bytes32)\n    {\n        address rayContract = rayStorage.getContractAddress(PORTFOLIO_MANAGER_CONTRACT);\n        uint payableValue = verifyValue(portfolioId, beneficiary, value, rayContract);\n\n        // this contract will own the minted RAY\n        bytes32 rayTokenId = IRAY(rayContract).mint.value(payableValue)(portfolioId, address(this), value); // payable value can be 0\n\n        // map RAY's to their true owners\n        rayTokens[rayTokenId] = beneficiary;\n        reverseRayTokens[beneficiary].push(rayTokenId);\n\n        emit InvestmentRAY(portfolioId, beneficiary, value, rayTokenId);\n\n        return rayTokenId;\n    }\n\n\n    /// @notice  Adds capital to an existing RAY token, this doesn't restrict who\n    ///          adds. Addresses besides the owner can add value to the position.\n    ///\n    /// @dev     The value added must be in the same underlying asset as the position.\n    ///\n    /// @param   rayTokenId - The unique id of the RAY token\n    /// @param   value - The amount to be deposited denominated in the smallest units\n    ///                  in-kind. Ex. For USDC, to deposit 1 USDC, value = 1000000\n    function deposit(bytes32 rayTokenId, uint value) external payable {\n        bytes32 portfolioId = rayStorage.getTokenKey(rayTokenId);\n        address rayContract = rayStorage.getContractAddress(PORTFOLIO_MANAGER_CONTRACT);\n\n        uint payableValue = verifyValue(portfolioId, msg.sender, value, rayContract);\n\n        IRAY(rayContract).deposit.value(payableValue)(rayTokenId, value);\n\n        emit DepositRAY(rayTokenId, value, rayTokens[rayTokenId]);\n    }\n\n\n    /// @notice   Withdraw value from a RAY token\n    ///\n    /// @dev      Caller must be the 'true' owner of the token or RAY's GasFunder (Payer) contract\n    ///\n    /// @param    rayTokenId - The id of the position\n    /// @param    valueToWithdraw - The value to withdraw\n    /// @param    originalCaller - Unimportant unless Payer is the msg.sender, tells\n    ///                            us who signed the original message.\n    function redeem(bytes32 rayTokenId, uint valueToWithdraw, address originalCaller)\n        internal\n        returns (bytes32, uint256)\n    {\n        bytes32 portfolioId = rayStorage.getTokenKey(rayTokenId);\n        address rayContract = rayStorage.getContractAddress(PORTFOLIO_MANAGER_CONTRACT);\n\n        uint valueAfterFee = \n            IRAY(rayContract).redeem(rayTokenId, valueToWithdraw, originalCaller);\n\n        emit RedeemRAY(rayTokenId, valueAfterFee, rayTokens[rayTokenId]);\n        return (portfolioId, valueAfterFee);\n    }\n\n    /// @notice   Withdraw value from a RAY token\n    ///\n    /// @dev      Caller must be the 'true' owner of the token or RAY's GasFunder (Payer) contract\n    ///\n    /// @param    rayTokenId - The id of the position\n    /// @param    valueToWithdraw - The value to withdraw\n    /// @param    originalCaller - Unimportant unless Payer is the msg.sender, tells\n    ///                            us who signed the original message.\n    function redeemAndWithdraw(bytes32 rayTokenId, uint valueToWithdraw, address originalCaller)\n        public\n    {\n        bytes32 portfolioId;\n        uint256 valueAfterFee;\n        \n        (portfolioId, valueAfterFee) = redeem(rayTokenId, valueToWithdraw, originalCaller);\n\n        address payable beneficiary = rayTokens[rayTokenId];\n        transferFunds(portfolioId, beneficiary, valueAfterFee);\n    }\n\n\n    /// @notice  Gets a RAY tokens current value\n    ///\n    /// @param    rayTokenId - The unique token id of the RAY\n    ///\n    /// @return   Value of the token\n    function getTokenValue(bytes32 rayTokenId) public view returns (uint) {\n\n        uint tokenValue;\n        uint pricePerShare;\n\n        bytes32 portfolioId = rayStorage.getTokenKey(rayTokenId);\n\n        (tokenValue, pricePerShare) = IRAY(rayStorage.getContractAddress(NAV_CALCULATOR_CONTRACT)).getTokenValue(portfolioId, rayTokenId);\n\n        return tokenValue;\n    }\n\n\n    /************************ INTERNAL FUNCTIONS **********************/\n\n\n    /// @notice  Verifies the funds have been credited to this contract and then\n    ///          returns the 'payable' value - the amount of ETH to be forwarded.\n    ///\n    /// @param   portfolioId - The portfolioId the RAY being minted or deposited is\n    ///                        associated with\n    /// @param   funder - The address funding the transaction\n    /// @param   inputValue - The value input to the function parameter\n    /// @param   rayContract - The address of the PortfolioManager\n    ///\n    /// @return  The 'payable' value to be forwarded to the PortfolioManager\n    function verifyValue(\n        bytes32 portfolioId,\n        address funder,\n        uint inputValue,\n        address rayContract\n    ) internal returns(uint) {\n        address principalAddress = rayStorage.getPrincipalAddress(portfolioId);\n\n        if (rayStorage.getIsERC20(principalAddress)) {\n            require(IERC20(principalAddress).transferFrom(funder, address(this), inputValue),\n                \"#RAYIntegration verifyValue(): Transfer of ERC20 Token failed\");\n\n            // could one time max approve the ray contract (or everytime it upgrades and changes addresses)\n            require(IERC20(principalAddress).approve(rayContract, inputValue),\n                \"#RAYIntegration verifyValue(): Approval of ERC20 Token failed\");\n\n            return 0;\n        } else {\n            require(inputValue == msg.value, \"#RAYIntegration verifyValue(): ETH value sent does not match input value\");\n            return inputValue;\n        }\n    }\n\n\n    /// @notice  Used to transfer ETH or ERC20's\n    ///\n    /// @param   portfolioId - The portfolio id, used to get the coin associated\n    /// @param   beneficiary - The address to send funds to - is untrusted\n    /// @param   value - The value to send in-kind in smallest units\n    function transferFunds(\n        bytes32 portfolioId,\n        address payable beneficiary,\n        uint value\n    ) internal {\n        address principalAddress = rayStorage.getPrincipalAddress(portfolioId);\n\n        if (rayStorage.getIsERC20(principalAddress)) {\n            require(IERC20(principalAddress).transfer(beneficiary, value),\n                \"#RAYIntegration transferFunds(): Transfer of ERC20 token failed\");\n            emit FundsTransferRAY(principalAddress, address(this), beneficiary, value);\n        } else {\n            beneficiary.transfer(value);\n            emit FundsTransferRAY(address(0), address(this), beneficiary, value);\n        }\n    }\n\n    function getSenderTokens() external view returns (address payable[] memory result) {\n        bytes32[] memory tokensId = reverseRayTokens[msg.sender];\n        result = new address payable[](tokensId.length);\n        for (uint i = 0; i < tokensId.length; i++) {\n            result[i] = rayTokens[tokensId[i]];\n        }\n    }\n}\n",
  "sourcePath": "contracts/RAYIntegration.sol",
  "abi": [
    {
      "anonymous": false,
      "inputs": [
        {
          "indexed": false,
          "internalType": "bytes32",
          "name": "rayTokenId",
          "type": "bytes32"
        },
        {
          "indexed": false,
          "internalType": "uint256",
          "name": "value",
          "type": "uint256"
        },
        {
          "indexed": false,
          "internalType": "address",
          "name": "beneficiary",
          "type": "address"
        }
      ],
      "name": "DepositRAY",
      "type": "event"
    },
    {
      "anonymous": false,
      "inputs": [
        {
          "indexed": false,
          "internalType": "address",
          "name": "tokenAddress",
          "type": "address"
        },
        {
          "indexed": false,
          "internalType": "address",
          "name": "from",
          "type": "address"
        },
        {
          "indexed": false,
          "internalType": "address",
          "name": "beneficiary",
          "type": "address"
        },
        {
          "indexed": false,
          "internalType": "uint256",
          "name": "value",
          "type": "uint256"
        }
      ],
      "name": "FundsTransferRAY",
      "type": "event"
    },
    {
      "anonymous": false,
      "inputs": [
        {
          "indexed": false,
          "internalType": "bytes32",
          "name": "portfolioId",
          "type": "bytes32"
        },
        {
          "indexed": false,
          "internalType": "address",
          "name": "beneficiary",
          "type": "address"
        },
        {
          "indexed": false,
          "internalType": "uint256",
          "name": "value",
          "type": "uint256"
        },
        {
          "indexed": false,
          "internalType": "bytes32",
          "name": "rayTokenId",
          "type": "bytes32"
        }
      ],
      "name": "InvestmentRAY",
      "type": "event"
    },
    {
      "anonymous": false,
      "inputs": [
        {
          "indexed": false,
          "internalType": "bytes32",
          "name": "rayTokenId",
          "type": "bytes32"
        },
        {
          "indexed": false,
          "internalType": "uint256",
          "name": "value",
          "type": "uint256"
        },
        {
          "indexed": false,
          "internalType": "address",
          "name": "beneficiary",
          "type": "address"
        }
      ],
      "name": "RedeemRAY",
      "type": "event"
    },
    {
      "payable": true,
      "stateMutability": "payable",
      "type": "fallback"
    },
    {
      "constant": false,
      "inputs": [
        {
          "internalType": "bytes32",
          "name": "rayTokenId",
          "type": "bytes32"
        },
        {
          "internalType": "uint256",
          "name": "value",
          "type": "uint256"
        }
      ],
      "name": "deposit",
      "outputs": [],
      "payable": true,
      "stateMutability": "payable",
      "type": "function"
    },
    {
      "constant": true,
      "inputs": [
        {
          "internalType": "string",
          "name": "portfolioDescription",
          "type": "string"
        }
      ],
      "name": "genPortfolioId",
      "outputs": [
        {
          "internalType": "bytes32",
          "name": "",
          "type": "bytes32"
        }
      ],
      "payable": false,
      "stateMutability": "pure",
      "type": "function"
    },
    {
      "constant": false,
      "inputs": [
        {
          "internalType": "address",
          "name": "wallet",
          "type": "address"
        }
      ],
      "name": "getRayTokens",
      "outputs": [
        {
          "internalType": "bytes32[]",
          "name": "",
          "type": "bytes32[]"
        }
      ],
      "payable": false,
      "stateMutability": "nonpayable",
      "type": "function"
    },
    {
      "constant": true,
      "inputs": [],
      "name": "getSenderTokens",
      "outputs": [
        {
          "internalType": "address payable[]",
          "name": "result",
          "type": "address[]"
        }
      ],
      "payable": false,
      "stateMutability": "view",
      "type": "function"
    },
    {
      "constant": true,
      "inputs": [
        {
          "internalType": "bytes32",
          "name": "tokenId",
          "type": "bytes32"
        }
      ],
      "name": "getTokenOwner",
      "outputs": [
        {
          "internalType": "address",
          "name": "",
          "type": "address"
        }
      ],
      "payable": false,
      "stateMutability": "view",
      "type": "function"
    },
    {
      "constant": true,
      "inputs": [
        {
          "internalType": "bytes32",
          "name": "rayTokenId",
          "type": "bytes32"
        }
      ],
      "name": "getTokenValue",
      "outputs": [
        {
          "internalType": "uint256",
          "name": "",
          "type": "uint256"
        }
      ],
      "payable": false,
      "stateMutability": "view",
      "type": "function"
    },
    {
      "constant": false,
      "inputs": [
        {
          "internalType": "address",
          "name": "_rayStorage",
          "type": "address"
        }
      ],
      "name": "init",
      "outputs": [],
      "payable": false,
      "stateMutability": "nonpayable",
      "type": "function"
    },
    {
      "constant": false,
      "inputs": [
        {
          "internalType": "bytes32",
          "name": "portfolioId",
          "type": "bytes32"
        },
        {
          "internalType": "address payable",
          "name": "beneficiary",
          "type": "address"
        },
        {
          "internalType": "uint256",
          "name": "value",
          "type": "uint256"
        }
      ],
      "name": "mint",
      "outputs": [
        {
          "internalType": "bytes32",
          "name": "",
          "type": "bytes32"
        }
      ],
      "payable": true,
      "stateMutability": "payable",
      "type": "function"
    },
    {
      "constant": false,
      "inputs": [
        {
          "internalType": "address",
          "name": "",
          "type": "address"
        },
        {
          "internalType": "address",
          "name": "",
          "type": "address"
        },
        {
          "internalType": "uint256",
          "name": "",
          "type": "uint256"
        },
        {
          "internalType": "bytes",
          "name": "",
          "type": "bytes"
        }
      ],
      "name": "onERC721Received",
      "outputs": [
        {
          "internalType": "bytes4",
          "name": "",
          "type": "bytes4"
        }
      ],
      "payable": false,
      "stateMutability": "nonpayable",
      "type": "function"
    },
    {
      "constant": true,
      "inputs": [],
      "name": "rayStorage",
      "outputs": [
        {
          "internalType": "contract IRAYStorage",
          "name": "",
          "type": "address"
        }
      ],
      "payable": false,
      "stateMutability": "view",
      "type": "function"
    },
    {
      "constant": true,
      "inputs": [
        {
          "internalType": "bytes32",
          "name": "",
          "type": "bytes32"
        }
      ],
      "name": "rayTokens",
      "outputs": [
        {
          "internalType": "address payable",
          "name": "",
          "type": "address"
        }
      ],
      "payable": false,
      "stateMutability": "view",
      "type": "function"
    },
    {
      "constant": false,
      "inputs": [
        {
          "internalType": "bytes32",
          "name": "rayTokenId",
          "type": "bytes32"
        },
        {
          "internalType": "uint256",
          "name": "valueToWithdraw",
          "type": "uint256"
        },
        {
          "internalType": "address",
          "name": "originalCaller",
          "type": "address"
        }
      ],
      "name": "redeemAndWithdraw",
      "outputs": [],
      "payable": false,
      "stateMutability": "nonpayable",
      "type": "function"
    }
  ],
  "bytecode": "0x60806040523480156100115760006000fd5b50610017565b6124d5806100266000396000f3fe6080604052600436106100ab5760003560e01c8063421517f011610064578063421517f0146104725780637ed9db59146104c7578063883820aa146105405780638c04550c146105ab578063af249e231461062c578063ee0c04ca146106d5576100ab565b80630ea80f8e146100af578063150b7a021461010757806319ab453c146102745780631de26e16146102c757806327f53f1c146103045780633a03e2b414610385576100ab565b5b5b005b3480156100bc5760006000fd5b506100c5610743565b604051808273ffffffffffffffffffffffffffffffffffffffff1673ffffffffffffffffffffffffffffffffffffffff16815260200191505060405180910390f35b3480156101145760006000fd5b506102206004803603608081101561012c5760006000fd5b81019080803573ffffffffffffffffffffffffffffffffffffffff169060200190929190803573ffffffffffffffffffffffffffffffffffffffff16906020019092919080359060200190929190803590602001906401000000008111156101945760006000fd5b8201836020820111156101a75760006000fd5b803590602001918460018302840111640100000000831117156101ca5760006000fd5b91908080601f016020809104026020016040519081016040528093929190818152602001838380828437600081840152601f19601f82011690508083019250505050505050909091929090919290505050610769565b60405180827bffffffffffffffffffffffffffffffffffffffffffffffffffffffff19167bffffffffffffffffffffffffffffffffffffffffffffffffffffffff1916815260200191505060405180910390f35b3480156102815760006000fd5b506102c5600480360360208110156102995760006000fd5b81019080803573ffffffffffffffffffffffffffffffffffffffff169060200190929190505050610782565b005b610302600480360360408110156102de5760006000fd5b81019080803560001916906020019092919080359060200190929190505050610ab1565b005b3480156103115760006000fd5b50610343600480360360208110156103295760006000fd5b810190808035600019169060200190929190505050610d85565b604051808273ffffffffffffffffffffffffffffffffffffffff1673ffffffffffffffffffffffffffffffffffffffff16815260200191505060405180910390f35b3480156103925760006000fd5b50610454600480360360208110156103aa5760006000fd5b81019080803590602001906401000000008111156103c85760006000fd5b8201836020820111156103db5760006000fd5b803590602001918460018302840111640100000000831117156103fe5760006000fd5b91908080601f016020809104026020016040519081016040528093929190818152602001838380828437600081840152601f19601f82011690508083019250505050505050909091929090919290505050610dd2565b60405180826000191660001916815260200191505060405180910390f35b34801561047f5760006000fd5b506104b1600480360360208110156104975760006000fd5b810190808035600019169060200190929190505050610e55565b6040518082815260200191505060405180910390f35b610522600480360360608110156104de5760006000fd5b810190808035600019169060200190929190803573ffffffffffffffffffffffffffffffffffffffff169060200190929190803590602001909291905050506110a1565b60405180826000191660001916815260200191505060405180910390f35b34801561054d5760006000fd5b506105a9600480360360608110156105655760006000fd5b81019080803560001916906020019092919080359060200190929190803573ffffffffffffffffffffffffffffffffffffffff1690602001909291905050506113c9565b005b3480156105b85760006000fd5b506105ea600480360360208110156105d05760006000fd5b810190808035600019169060200190929190505050611443565b604051808273ffffffffffffffffffffffffffffffffffffffff1673ffffffffffffffffffffffffffffffffffffffff16815260200191505060405180910390f35b3480156106395760006000fd5b5061067d600480360360208110156106515760006000fd5b81019080803573ffffffffffffffffffffffffffffffffffffffff16906020019092919050505061147b565b6040518080602001828103825283818151815260200191508051906020019060200280838360005b838110156106c15780820151818401525b6020810190506106a5565b505050509050019250505060405180910390f35b3480156106e25760006000fd5b506106eb611524565b6040518080602001828103825283818151815260200191508051906020019060200280838360005b8381101561072f5780820151818401525b602081019050610713565b505050509050019250505060405180910390f35b603960009054906101000a900473ffffffffffffffffffffffffffffffffffffffff1681565b600063150b7a0260e01b905061077a565b949350505050565b600060019054906101000a900460ff16806107a757506107a66116bd63ffffffff16565b5b806107bf5750600060009054906101000a900460ff16155b1515610816576040517f08c379a000000000000000000000000000000000000000000000000000000000815260040180806020018281038252602e8152602001806123af602e913960400191505060405180910390fd5b6000600060019054906101000a900460ff161590508015610868576001600060016101000a81548160ff0219169083151502179055506001600060006101000a81548160ff0219169083151502179055505b81603960006101000a81548173ffffffffffffffffffffffffffffffffffffffff021916908373ffffffffffffffffffffffffffffffffffffffff16021790555060405180807f41646d696e436f6e747261637400000000000000000000000000000000000000815260200150600d019050604051809103902060336000508190906000191690555060405180807f506f7274666f6c696f4d616e61676572436f6e747261637400000000000000008152602001506018019050604051809103902060346000508190906000191690555060405180807f5061796572436f6e747261637400000000000000000000000000000000000000815260200150600d019050604051809103902060356000508190906000191690555060405180807f524159546f6b656e436f6e7472616374000000000000000000000000000000008152602001506010019050604051809103902060366000508190906000191690555060405180807f4e415643616c63756c61746f72436f6e74726163740000000000000000000000815260200150601501905060405180910390206037600050819090600019169055506040518080612343602f9139602f0190506040518091039020603860006101000a81548163ffffffff021916908360e01c02179055506000603860046101000a81548173ffffffffffffffffffffffffffffffffffffffff021916908373ffffffffffffffffffffffffffffffffffffffff1602179055505b8015610aac576000600060016101000a81548160ff0219169083151502179055505b505b50565b6000603960009054906101000a900473ffffffffffffffffffffffffffffffffffffffff1673ffffffffffffffffffffffffffffffffffffffff166343aee400846040518263ffffffff1660e01b815260040180826000191660001916815260200191505060206040518083038186803b158015610b2f5760006000fd5b505afa158015610b44573d600060003e3d6000fd5b505050506040513d6020811015610b5b5760006000fd5b810190808051906020019092919050505090506000603960009054906101000a900473ffffffffffffffffffffffffffffffffffffffff1673ffffffffffffffffffffffffffffffffffffffff16630d2020dd6034600050546040518263ffffffff1660e01b815260040180826000191660001916815260200191505060206040518083038186803b158015610bf15760006000fd5b505afa158015610c06573d600060003e3d6000fd5b505050506040513d6020811015610c1d5760006000fd5b810190808051906020019092919050505090506000610c44833386856116d563ffffffff16565b90508173ffffffffffffffffffffffffffffffffffffffff16631de26e168287876040518463ffffffff1660e01b8152600401808360001916600019168152602001828152602001925050506000604051808303818588803b158015610caa5760006000fd5b505af1158015610cbf573d600060003e3d6000fd5b50505050507f18deb3b7772ccd6bb7a588a8a4682455bd256880ac88a8cd6c692ff18ff15a628585603a6000506000896000191660001916815260200190815260200160002060009054906101000a900473ffffffffffffffffffffffffffffffffffffffff166040518084600019166000191681526020018381526020018273ffffffffffffffffffffffffffffffffffffffff1673ffffffffffffffffffffffffffffffffffffffff168152602001935050505060405180910390a15050505b5050565b6000603a6000506000836000191660001916815260200190815260200160002060009054906101000a900473ffffffffffffffffffffffffffffffffffffffff169050610dcd565b919050565b6000816040516020018082805190602001908083835b602083101515610e0e57805182525b602082019150602081019050602083039250610de8565b6001836020036101000a038019825116818451168082178552505050505050905001915050604051602081830303815290604052805190602001209050610e50565b919050565b6000600060006000603960009054906101000a900473ffffffffffffffffffffffffffffffffffffffff1673ffffffffffffffffffffffffffffffffffffffff166343aee400866040518263ffffffff1660e01b815260040180826000191660001916815260200191505060206040518083038186803b158015610ed95760006000fd5b505afa158015610eee573d600060003e3d6000fd5b505050506040513d6020811015610f055760006000fd5b81019080805190602001909291905050509050603960009054906101000a900473ffffffffffffffffffffffffffffffffffffffff1673ffffffffffffffffffffffffffffffffffffffff16630d2020dd6037600050546040518263ffffffff1660e01b815260040180826000191660001916815260200191505060206040518083038186803b158015610f995760006000fd5b505afa158015610fae573d600060003e3d6000fd5b505050506040513d6020811015610fc55760006000fd5b810190808051906020019092919050505073ffffffffffffffffffffffffffffffffffffffff16632cc7b6f782876040518363ffffffff1660e01b815260040180836000191660001916815260200182600019166000191681526020019250505060406040518083038186803b15801561103f5760006000fd5b505afa158015611054573d600060003e3d6000fd5b505050506040513d604081101561106b5760006000fd5b810190808051906020019092919080519060200190929190505050809350819450505082935050505061109c565050505b919050565b60006000603960009054906101000a900473ffffffffffffffffffffffffffffffffffffffff1673ffffffffffffffffffffffffffffffffffffffff16630d2020dd6034600050546040518263ffffffff1660e01b815260040180826000191660001916815260200191505060206040518083038186803b1580156111265760006000fd5b505afa15801561113b573d600060003e3d6000fd5b505050506040513d60208110156111525760006000fd5b810190808051906020019092919050505090506000611179868686856116d563ffffffff16565b905060008273ffffffffffffffffffffffffffffffffffffffff16637ed9db59838930896040518563ffffffff1660e01b81526004018084600019166000191681526020018373ffffffffffffffffffffffffffffffffffffffff1673ffffffffffffffffffffffffffffffffffffffff16815260200182815260200193505050506020604051808303818588803b1580156112155760006000fd5b505af115801561122a573d600060003e3d6000fd5b50505050506040513d60208110156112425760006000fd5b8101908080519060200190929190505050905085603a6000506000836000191660001916815260200190815260200160002060006101000a81548173ffffffffffffffffffffffffffffffffffffffff021916908373ffffffffffffffffffffffffffffffffffffffff160217905550603b60005060008773ffffffffffffffffffffffffffffffffffffffff1673ffffffffffffffffffffffffffffffffffffffff1681526020019081526020016000206000508190806001815401808255809150509060018203906000526020600020900160005b909192909190915090600019169055507f8667d3b890097908e74765dd3b76068096309b7c3755b889b9afffc436182b5e878787846040518085600019166000191681526020018473ffffffffffffffffffffffffffffffffffffffff1673ffffffffffffffffffffffffffffffffffffffff168152602001838152602001826000191660001916815260200194505050505060405180910390a18093505050506113c2565050505b9392505050565b600060006113de858585611b5d63ffffffff16565b80925081935050506000603a6000506000876000191660001916815260200190815260200160002060009054906101000a900473ffffffffffffffffffffffffffffffffffffffff16905061143a838284611e8b63ffffffff16565b5050505b505050565b603a60005060205280600052604060002060009150909054906101000a900473ffffffffffffffffffffffffffffffffffffffff1681565b6060603b60005060008373ffffffffffffffffffffffffffffffffffffffff1673ffffffffffffffffffffffffffffffffffffffff16815260200190815260200160002060005080548060200260200160405190810160405280929190818152602001828054801561151357602002820191906000526020600020905b816000505460001916815260200190600101908083116114f8575b5050505050905061151f565b919050565b60606060603b60005060003373ffffffffffffffffffffffffffffffffffffffff1673ffffffffffffffffffffffffffffffffffffffff1681526020019081526020016000206000508054806020026020016040519081016040528092919081815260200182805480156115be57602002820191906000526020600020905b816000505460001916815260200190600101908083116115a3575b5050505050905080516040519080825280602002602001820160405280156115f55781602001602082028038833980820191505090505b50915081506000600090505b81518110156116b757603a6000506000838381518110151561161f57fe5b60200260200101516000191660001916815260200190815260200160002060009054906101000a900473ffffffffffffffffffffffffffffffffffffffff16838281518110151561166c57fe5b602002602001019073ffffffffffffffffffffffffffffffffffffffff16908173ffffffffffffffffffffffffffffffffffffffff16815260200150505b8080600101915050611601565b50505b90565b60006000303b9050600081149150506116d256505b90565b60006000603960009054906101000a900473ffffffffffffffffffffffffffffffffffffffff1673ffffffffffffffffffffffffffffffffffffffff16633f1793c3876040518263ffffffff1660e01b815260040180826000191660001916815260200191505060206040518083038186803b1580156117555760006000fd5b505afa15801561176a573d600060003e3d6000fd5b505050506040513d60208110156117815760006000fd5b81019080805190602001909291905050509050603960009054906101000a900473ffffffffffffffffffffffffffffffffffffffff1673ffffffffffffffffffffffffffffffffffffffff166353024bae826040518263ffffffff1660e01b8152600401808273ffffffffffffffffffffffffffffffffffffffff1673ffffffffffffffffffffffffffffffffffffffff16815260200191505060206040518083038186803b1580156118345760006000fd5b505afa158015611849573d600060003e3d6000fd5b505050506040513d60208110156118605760006000fd5b810190808051906020019092919050505015611af0578073ffffffffffffffffffffffffffffffffffffffff166323b872dd8630876040518463ffffffff1660e01b8152600401808473ffffffffffffffffffffffffffffffffffffffff1673ffffffffffffffffffffffffffffffffffffffff1681526020018373ffffffffffffffffffffffffffffffffffffffff1673ffffffffffffffffffffffffffffffffffffffff1681526020018281526020019350505050602060405180830381600087803b1580156119325760006000fd5b505af1158015611947573d600060003e3d6000fd5b505050506040513d602081101561195e5760006000fd5b810190808051906020019092919050505015156119c6576040517f08c379a000000000000000000000000000000000000000000000000000000000815260040180806020018281038252603d8152602001806123dd603d913960400191505060405180910390fd5b8073ffffffffffffffffffffffffffffffffffffffff1663095ea7b384866040518363ffffffff1660e01b8152600401808373ffffffffffffffffffffffffffffffffffffffff1673ffffffffffffffffffffffffffffffffffffffff16815260200182815260200192505050602060405180830381600087803b158015611a4e5760006000fd5b505af1158015611a63573d600060003e3d6000fd5b505050506040513d6020811015611a7a5760006000fd5b81019080805190602001909291905050501515611ae2576040517f08c379a000000000000000000000000000000000000000000000000000000000815260040180806020018281038252603d815260200180612372603d913960400191505060405180910390fd5b6000915050611b5556611b53565b3484141515611b4a576040517f08c379a00000000000000000000000000000000000000000000000000000000081526004018080602001828103825260488152602001806124596048913960600191505060405180910390fd5b83915050611b55565b505b949350505050565b600060006000603960009054906101000a900473ffffffffffffffffffffffffffffffffffffffff1673ffffffffffffffffffffffffffffffffffffffff166343aee400876040518263ffffffff1660e01b815260040180826000191660001916815260200191505060206040518083038186803b158015611bdf5760006000fd5b505afa158015611bf4573d600060003e3d6000fd5b505050506040513d6020811015611c0b5760006000fd5b810190808051906020019092919050505090506000603960009054906101000a900473ffffffffffffffffffffffffffffffffffffffff1673ffffffffffffffffffffffffffffffffffffffff16630d2020dd6034600050546040518263ffffffff1660e01b815260040180826000191660001916815260200191505060206040518083038186803b158015611ca15760006000fd5b505afa158015611cb6573d600060003e3d6000fd5b505050506040513d6020811015611ccd5760006000fd5b8101908080519060200190929190505050905060008173ffffffffffffffffffffffffffffffffffffffff1663112ad90b8989896040518463ffffffff1660e01b81526004018084600019166000191681526020018381526020018273ffffffffffffffffffffffffffffffffffffffff1673ffffffffffffffffffffffffffffffffffffffff1681526020019350505050602060405180830381600087803b158015611d7a5760006000fd5b505af1158015611d8f573d600060003e3d6000fd5b505050506040513d6020811015611da65760006000fd5b810190808051906020019092919050505090507f7029c547dc32802e528b6770662e27ad50f2fb85883fe19b9107a73afa6e2ef68882603a60005060008c6000191660001916815260200190815260200160002060009054906101000a900473ffffffffffffffffffffffffffffffffffffffff166040518084600019166000191681526020018381526020018273ffffffffffffffffffffffffffffffffffffffff1673ffffffffffffffffffffffffffffffffffffffff168152602001935050505060405180910390a1828194509450505050611e83565050505b935093915050565b6000603960009054906101000a900473ffffffffffffffffffffffffffffffffffffffff1673ffffffffffffffffffffffffffffffffffffffff16633f1793c3856040518263ffffffff1660e01b815260040180826000191660001916815260200191505060206040518083038186803b158015611f095760006000fd5b505afa158015611f1e573d600060003e3d6000fd5b505050506040513d6020811015611f355760006000fd5b81019080805190602001909291905050509050603960009054906101000a900473ffffffffffffffffffffffffffffffffffffffff1673ffffffffffffffffffffffffffffffffffffffff166353024bae826040518263ffffffff1660e01b8152600401808273ffffffffffffffffffffffffffffffffffffffff1673ffffffffffffffffffffffffffffffffffffffff16815260200191505060206040518083038186803b158015611fe85760006000fd5b505afa158015611ffd573d600060003e3d6000fd5b505050506040513d60208110156120145760006000fd5b81019080805190602001909291905050501561221e578073ffffffffffffffffffffffffffffffffffffffff1663a9059cbb84846040518363ffffffff1660e01b8152600401808373ffffffffffffffffffffffffffffffffffffffff1673ffffffffffffffffffffffffffffffffffffffff16815260200182815260200192505050602060405180830381600087803b1580156120b25760006000fd5b505af11580156120c7573d600060003e3d6000fd5b505050506040513d60208110156120de5760006000fd5b81019080805190602001909291905050501515612146576040517f08c379a000000000000000000000000000000000000000000000000000000000815260040180806020018281038252603f81526020018061241a603f913960400191505060405180910390fd5b7f811818cc81106965711d42e377725a1ae3815b6175654fc80aa44e7a6821b77f81308585604051808573ffffffffffffffffffffffffffffffffffffffff1673ffffffffffffffffffffffffffffffffffffffff1681526020018473ffffffffffffffffffffffffffffffffffffffff1673ffffffffffffffffffffffffffffffffffffffff1681526020018373ffffffffffffffffffffffffffffffffffffffff1673ffffffffffffffffffffffffffffffffffffffff16815260200182815260200194505050505060405180910390a161233b565b8273ffffffffffffffffffffffffffffffffffffffff166108fc839081150290604051600060405180830381858888f19350505050158015612265573d600060003e3d6000fd5b507f811818cc81106965711d42e377725a1ae3815b6175654fc80aa44e7a6821b77f6000308585604051808573ffffffffffffffffffffffffffffffffffffffff1673ffffffffffffffffffffffffffffffffffffffff1681526020018473ffffffffffffffffffffffffffffffffffffffff1673ffffffffffffffffffffffffffffffffffffffff1681526020018373ffffffffffffffffffffffffffffffffffffffff1673ffffffffffffffffffffffffffffffffffffffff16815260200182815260200194505050505060405180910390a15b505b50505056fe6f6e455243373231526563656976656428616464726573732c616464726573732c75696e743235362c62797465732923524159496e746567726174696f6e2076657269667956616c756528293a20417070726f76616c206f6620455243323020546f6b656e206661696c6564436f6e747261637420696e7374616e63652068617320616c7265616479206265656e20696e697469616c697a656423524159496e746567726174696f6e2076657269667956616c756528293a205472616e73666572206f6620455243323020546f6b656e206661696c656423524159496e746567726174696f6e207472616e7366657246756e647328293a205472616e73666572206f6620455243323020746f6b656e206661696c656423524159496e746567726174696f6e2076657269667956616c756528293a204554482076616c75652073656e7420646f6573206e6f74206d6174636820696e7075742076616c7565a265627a7a7231582087891f4d2d2490451fb855a53546d6c2f09ec5be64b33777542a072263ae001264736f6c634300050c0032",
  "compiler": {
    "name": "solc",
    "version": "0.5.12+commit.7709ece9.Emscripten.clang",
    "optimizer": {},
    "evmVersion": "constantinople"
  }
}