{
  "fileName": "RecoveryLogic.sol",
  "contractName": "RecoveryLogic",
  "source": "pragma solidity >=0.5.0 <0.6.0;\n\nimport \"@openzeppelin/contracts/ownership/Ownable.sol\";\nimport \"@openzeppelin/upgrades/contracts/Initializable.sol\";\n\ncontract RecoveryLogic is Initializable, Ownable {\n    address[] public dcWalletsList;\n\n    mapping(address => uint256) public lastAction;\n    mapping(address => uint256) public recoveryDeadline;\n    mapping(address => address[]) public recoveryWallets;\n\n    // wallet => recoveryWallet => asset address => percentage | 1 ETH = 100%\n    mapping(address => mapping(address => mapping(address => uint256))) public recoverySheet;\n\n    event NewRecoverySheet(address user, address asset, address[] wallets, uint256[] values, uint256 deadline);\n\n    modifier updateAction(address wallet) {\n        lastAction[wallet] = now;\n        _;\n    }\n\n    modifier ifRecoverable(address wallet) {\n        require(isRecoverable(wallet), \"#RecoveryLogic ifRecoverable() modifier: Contract is not recoverable\");\n        _;\n    }\n\n    function init(address owner) public initializer {\n        _transferOwnership(owner);\n    }\n\n    /**\n     * @dev Allows to recoverySheet state.\n     * @param asset The address of token that will be used as Asset.\n     * @param wallets The array of addresses to whom the asset will be sent.\n     * @param values The array of percentages that corresponds to each wallets share. 1 ether = 100%.\n     * @param deadline The number of seconds from the current moment (lastAction) the Asset will be sent to wallets.\n     */\n    function setRecoverySheet(\n        address asset,\n        address[] memory wallets,\n        uint256[] memory values,\n        uint256 deadline\n    ) public updateAction(msg.sender) {\n        require(asset != address(0),\n            \"#RecoveryLogic setRecoverySheet(): Asset cannot be zero address\");\n        require(deadline > 0,\n            \"#RecoveryLogic setRecoverySheet(): Deadline must be bigger than zero\");\n        require(wallets.length == values.length && wallets.length > 0,\n            \"#RecoveryLogic setRecoverySheet(): Length incorrect. Data corrupted\");\n\n        uint valuesTotalAmount = 0;\n        for (uint256 i = 0; i < wallets.length; i++) {\n            require(wallets[i] != address(0),\n                \"#RecoveryLogic setRecoverySheet(): Recovery wallet cannot be zero address\");\n            require(values[i] <= 1 ether,\n                \"#RecoveryLogic setRecoverySheet(): Percentage must be smaller then 1 ether(100%)\");\n\n            recoverySheet[msg.sender][wallets[i]][asset] = values[i];\n            valuesTotalAmount += values[i];\n        }\n        require(valuesTotalAmount == 1 ether,\n            \"#RecoveryLogic setRecoverySheet(): Sum of all the percentages is not 1 ether(100%)\");\n\n        recoveryDeadline[msg.sender] = deadline;\n        recoveryWallets[msg.sender] = wallets;\n        emit NewRecoverySheet(msg.sender, asset, wallets, values, deadline);\n        dcWalletsList.push(msg.sender);\n    }\n\n    /// @dev extend the deadline for recovery\n    function alive() public updateAction(msg.sender) returns (bool) {\n        return true;\n    }\n\n    function isRecoverable(address wallet) public view returns (bool) {\n        return (lastAction[wallet] + recoveryDeadline[wallet]) <= now;\n    }\n\n    function getRecoveryWallets(address wallet) public view returns (address[] memory) {\n        return recoveryWallets[wallet];\n    }\n    \n    function getDCWallets() external view returns (address[] memory) {\n        return dcWalletsList;\n    }\n}\n",
  "sourcePath": "contracts/RecoveryLogic.sol",
  "abi": [
    {
      "anonymous": false,
      "inputs": [
        {
          "indexed": false,
          "internalType": "address",
          "name": "user",
          "type": "address"
        },
        {
          "indexed": false,
          "internalType": "address",
          "name": "asset",
          "type": "address"
        },
        {
          "indexed": false,
          "internalType": "address[]",
          "name": "wallets",
          "type": "address[]"
        },
        {
          "indexed": false,
          "internalType": "uint256[]",
          "name": "values",
          "type": "uint256[]"
        },
        {
          "indexed": false,
          "internalType": "uint256",
          "name": "deadline",
          "type": "uint256"
        }
      ],
      "name": "NewRecoverySheet",
      "type": "event"
    },
    {
      "anonymous": false,
      "inputs": [
        {
          "indexed": true,
          "internalType": "address",
          "name": "previousOwner",
          "type": "address"
        },
        {
          "indexed": true,
          "internalType": "address",
          "name": "newOwner",
          "type": "address"
        }
      ],
      "name": "OwnershipTransferred",
      "type": "event"
    },
    {
      "constant": false,
      "inputs": [],
      "name": "alive",
      "outputs": [
        {
          "internalType": "bool",
          "name": "",
          "type": "bool"
        }
      ],
      "payable": false,
      "stateMutability": "nonpayable",
      "type": "function"
    },
    {
      "constant": true,
      "inputs": [
        {
          "internalType": "uint256",
          "name": "",
          "type": "uint256"
        }
      ],
      "name": "dcWalletsList",
      "outputs": [
        {
          "internalType": "address",
          "name": "",
          "type": "address"
        }
      ],
      "payable": false,
      "stateMutability": "view",
      "type": "function"
    },
    {
      "constant": true,
      "inputs": [],
      "name": "getDCWallets",
      "outputs": [
        {
          "internalType": "address[]",
          "name": "",
          "type": "address[]"
        }
      ],
      "payable": false,
      "stateMutability": "view",
      "type": "function"
    },
    {
      "constant": true,
      "inputs": [
        {
          "internalType": "address",
          "name": "wallet",
          "type": "address"
        }
      ],
      "name": "getRecoveryWallets",
      "outputs": [
        {
          "internalType": "address[]",
          "name": "",
          "type": "address[]"
        }
      ],
      "payable": false,
      "stateMutability": "view",
      "type": "function"
    },
    {
      "constant": false,
      "inputs": [
        {
          "internalType": "address",
          "name": "owner",
          "type": "address"
        }
      ],
      "name": "init",
      "outputs": [],
      "payable": false,
      "stateMutability": "nonpayable",
      "type": "function"
    },
    {
      "constant": true,
      "inputs": [],
      "name": "isOwner",
      "outputs": [
        {
          "internalType": "bool",
          "name": "",
          "type": "bool"
        }
      ],
      "payable": false,
      "stateMutability": "view",
      "type": "function"
    },
    {
      "constant": true,
      "inputs": [
        {
          "internalType": "address",
          "name": "wallet",
          "type": "address"
        }
      ],
      "name": "isRecoverable",
      "outputs": [
        {
          "internalType": "bool",
          "name": "",
          "type": "bool"
        }
      ],
      "payable": false,
      "stateMutability": "view",
      "type": "function"
    },
    {
      "constant": true,
      "inputs": [
        {
          "internalType": "address",
          "name": "",
          "type": "address"
        }
      ],
      "name": "lastAction",
      "outputs": [
        {
          "internalType": "uint256",
          "name": "",
          "type": "uint256"
        }
      ],
      "payable": false,
      "stateMutability": "view",
      "type": "function"
    },
    {
      "constant": true,
      "inputs": [],
      "name": "owner",
      "outputs": [
        {
          "internalType": "address",
          "name": "",
          "type": "address"
        }
      ],
      "payable": false,
      "stateMutability": "view",
      "type": "function"
    },
    {
      "constant": true,
      "inputs": [
        {
          "internalType": "address",
          "name": "",
          "type": "address"
        }
      ],
      "name": "recoveryDeadline",
      "outputs": [
        {
          "internalType": "uint256",
          "name": "",
          "type": "uint256"
        }
      ],
      "payable": false,
      "stateMutability": "view",
      "type": "function"
    },
    {
      "constant": true,
      "inputs": [
        {
          "internalType": "address",
          "name": "",
          "type": "address"
        },
        {
          "internalType": "address",
          "name": "",
          "type": "address"
        },
        {
          "internalType": "address",
          "name": "",
          "type": "address"
        }
      ],
      "name": "recoverySheet",
      "outputs": [
        {
          "internalType": "uint256",
          "name": "",
          "type": "uint256"
        }
      ],
      "payable": false,
      "stateMutability": "view",
      "type": "function"
    },
    {
      "constant": true,
      "inputs": [
        {
          "internalType": "address",
          "name": "",
          "type": "address"
        },
        {
          "internalType": "uint256",
          "name": "",
          "type": "uint256"
        }
      ],
      "name": "recoveryWallets",
      "outputs": [
        {
          "internalType": "address",
          "name": "",
          "type": "address"
        }
      ],
      "payable": false,
      "stateMutability": "view",
      "type": "function"
    },
    {
      "constant": false,
      "inputs": [],
      "name": "renounceOwnership",
      "outputs": [],
      "payable": false,
      "stateMutability": "nonpayable",
      "type": "function"
    },
    {
      "constant": false,
      "inputs": [
        {
          "internalType": "address",
          "name": "asset",
          "type": "address"
        },
        {
          "internalType": "address[]",
          "name": "wallets",
          "type": "address[]"
        },
        {
          "internalType": "uint256[]",
          "name": "values",
          "type": "uint256[]"
        },
        {
          "internalType": "uint256",
          "name": "deadline",
          "type": "uint256"
        }
      ],
      "name": "setRecoverySheet",
      "outputs": [],
      "payable": false,
      "stateMutability": "nonpayable",
      "type": "function"
    },
    {
      "constant": false,
      "inputs": [
        {
          "internalType": "address",
          "name": "newOwner",
          "type": "address"
        }
      ],
      "name": "transferOwnership",
      "outputs": [],
      "payable": false,
      "stateMutability": "nonpayable",
      "type": "function"
    }
  ],
  "bytecode": "0x60806040525b33603360006101000a81548173ffffffffffffffffffffffffffffffffffffffff021916908373ffffffffffffffffffffffffffffffffffffffff160217905550603360009054906101000a900473ffffffffffffffffffffffffffffffffffffffff1673ffffffffffffffffffffffffffffffffffffffff16600073ffffffffffffffffffffffffffffffffffffffff167f8be0079c531659141344cd1fd0a4f28419497f9722a3daafe3b4186f6b6457e060405160405180910390a35b6100c9565b611947806100d86000396000f3fe60806040523480156100115760006000fd5b50600436106100fa5760003560e01c8063753899e911610098578063a50e4ed011610067578063a50e4ed014610485578063b5408a8e146104e5578063f2fde38b1461066a578063f5db4255146106af576100fa565b8063753899e9146103685780638da5cb5b1461038a5780638f32d59b146103d457806390bfebf0146103f6576100fa565b80632ba5c3eb116100d45780632ba5c3eb146101fb5780634ab6fcaf1461026a57806370720d1f14610305578063715018a61461035e576100fa565b80630e54ae2e1461010057806319ab453c146101595780632851bbc91461019e576100fa565b60006000fd5b610143600480360360208110156101175760006000fd5b81019080803573ffffffffffffffffffffffffffffffffffffffff169060200190929190505050610748565b6040518082815260200191505060405180910390f35b61019c600480360360208110156101705760006000fd5b81019080803573ffffffffffffffffffffffffffffffffffffffff169060200190929190505050610763565b005b6101e1600480360360208110156101b55760006000fd5b81019080803573ffffffffffffffffffffffffffffffffffffffff169060200190929190505050610880565b604051808215151515815260200191505060405180910390f35b610228600480360360208110156102125760006000fd5b810190808035906020019092919050505061091e565b604051808273ffffffffffffffffffffffffffffffffffffffff1673ffffffffffffffffffffffffffffffffffffffff16815260200191505060405180910390f35b6102ad600480360360208110156102815760006000fd5b81019080803573ffffffffffffffffffffffffffffffffffffffff169060200190929190505050610963565b6040518080602001828103825283818151815260200191508051906020019060200280838360005b838110156102f15780820151818401525b6020810190506102d5565b505050509050019250505060405180910390f35b6103486004803603602081101561031c5760006000fd5b81019080803573ffffffffffffffffffffffffffffffffffffffff169060200190929190505050610a3b565b6040518082815260200191505060405180910390f35b610366610a56565b005b610370610b9e565b604051808215151515815260200191505060405180910390f35b610392610bfb565b604051808273ffffffffffffffffffffffffffffffffffffffff1673ffffffffffffffffffffffffffffffffffffffff16815260200191505060405180910390f35b6103dc610c2a565b604051808215151515815260200191505060405180910390f35b6104436004803603604081101561040d5760006000fd5b81019080803573ffffffffffffffffffffffffffffffffffffffff16906020019092919080359060200190929190505050610c87565b604051808273ffffffffffffffffffffffffffffffffffffffff1673ffffffffffffffffffffffffffffffffffffffff16815260200191505060405180910390f35b61048d610cdc565b6040518080602001828103825283818151815260200191508051906020019060200280838360005b838110156104d15780820151818401525b6020810190506104b5565b505050509050019250505060405180910390f35b610668600480360360808110156104fc5760006000fd5b81019080803573ffffffffffffffffffffffffffffffffffffffff1690602001909291908035906020019064010000000081111561053a5760006000fd5b82018360208201111561054d5760006000fd5b803590602001918460208302840111640100000000831117156105705760006000fd5b919080806020026020016040519081016040528093929190818152602001838360200280828437600081840152601f19601f82011690508083019250505050505050909091929090919290803590602001906401000000008111156105d55760006000fd5b8201836020820111156105e85760006000fd5b8035906020019184602083028401116401000000008311171561060b5760006000fd5b919080806020026020016040519081016040528093929190818152602001838360200280828437600081840152601f19601f8201169050808301925050505050505090909192909091929080359060200190929190505050610d72565b005b6106ad600480360360208110156106815760006000fd5b81019080803573ffffffffffffffffffffffffffffffffffffffff169060200190929190505050611407565b005b610732600480360360608110156106c65760006000fd5b81019080803573ffffffffffffffffffffffffffffffffffffffff169060200190929190803573ffffffffffffffffffffffffffffffffffffffff169060200190929190803573ffffffffffffffffffffffffffffffffffffffff1690602001909291905050506114a0565b6040518082815260200191505060405180910390f35b60366000506020528060005260406000206000915090505481565b600060019054906101000a900460ff168061078857506107876114db63ffffffff16565b5b806107a05750600060009054906101000a900460ff16155b15156107f7576040517f08c379a000000000000000000000000000000000000000000000000000000000815260040180806020018281038252602e81526020018061189c602e913960400191505060405180910390fd5b6000600060019054906101000a900460ff161590508015610849576001600060016101000a81548160ff0219169083151502179055506001600060006101000a81548160ff0219169083151502179055505b610858826114f363ffffffff16565b5b801561087b576000600060016101000a81548160ff0219169083151502179055505b505b50565b600042603660005060008473ffffffffffffffffffffffffffffffffffffffff1673ffffffffffffffffffffffffffffffffffffffff16815260200190815260200160002060005054603560005060008573ffffffffffffffffffffffffffffffffffffffff1673ffffffffffffffffffffffffffffffffffffffff168152602001908152602001600020600050540111159050610919565b919050565b60346000508181548110151561093057fe5b906000526020600020900160005b9150909054906101000a900473ffffffffffffffffffffffffffffffffffffffff1681565b6060603760005060008373ffffffffffffffffffffffffffffffffffffffff1673ffffffffffffffffffffffffffffffffffffffff168152602001908152602001600020600050805480602002602001604051908101604052809291908181526020018280548015610a2a57602002820191906000526020600020905b8160009054906101000a900473ffffffffffffffffffffffffffffffffffffffff1673ffffffffffffffffffffffffffffffffffffffff16815260200190600101908083116109e0575b50505050509050610a36565b919050565b60356000506020528060005260406000206000915090505481565b610a64610c2a63ffffffff16565b1515610adb576040517f08c379a00000000000000000000000000000000000000000000000000000000081526004018080602001828103825260208152602001807f4f776e61626c653a2063616c6c6572206973206e6f7420746865206f776e657281526020015060200191505060405180910390fd5b600073ffffffffffffffffffffffffffffffffffffffff16603360009054906101000a900473ffffffffffffffffffffffffffffffffffffffff1673ffffffffffffffffffffffffffffffffffffffff167f8be0079c531659141344cd1fd0a4f28419497f9722a3daafe3b4186f6b6457e060405160405180910390a36000603360006101000a81548173ffffffffffffffffffffffffffffffffffffffff021916908373ffffffffffffffffffffffffffffffffffffffff1602179055505b5b565b60003342603560005060008373ffffffffffffffffffffffffffffffffffffffff1673ffffffffffffffffffffffffffffffffffffffff16815260200190815260200160002060005081909090555060019150610bf6565b5b5090565b6000603360009054906101000a900473ffffffffffffffffffffffffffffffffffffffff169050610c27565b90565b6000603360009054906101000a900473ffffffffffffffffffffffffffffffffffffffff1673ffffffffffffffffffffffffffffffffffffffff163373ffffffffffffffffffffffffffffffffffffffff16149050610c84565b90565b603760005060205281600052604060002060005081815481101515610ca857fe5b906000526020600020900160005b915091509054906101000a900473ffffffffffffffffffffffffffffffffffffffff1681565b60606034600050805480602002602001604051908101604052809291908181526020018280548015610d6357602002820191906000526020600020905b8160009054906101000a900473ffffffffffffffffffffffffffffffffffffffff1673ffffffffffffffffffffffffffffffffffffffff1681526020019060010190808311610d19575b50505050509050610d6f565b90565b3342603560005060008373ffffffffffffffffffffffffffffffffffffffff1673ffffffffffffffffffffffffffffffffffffffff168152602001908152602001600020600050819090905550600073ffffffffffffffffffffffffffffffffffffffff168573ffffffffffffffffffffffffffffffffffffffff1614151515610e47576040517f08c379a000000000000000000000000000000000000000000000000000000000815260040180806020018281038252603f81526020018061181a603f913960400191505060405180910390fd5b600082111515610ea2576040517f08c379a00000000000000000000000000000000000000000000000000000000081526004018080602001828103825260448152602001806117d66044913960600191505060405180910390fd5b82518451148015610eb4575060008451115b1515610f0b576040517f08c379a00000000000000000000000000000000000000000000000000000000081526004018080602001828103825260438152602001806118596043913960600191505060405180910390fd5b6000600090506000600090505b855181101561115657600073ffffffffffffffffffffffffffffffffffffffff168682815181101515610f4757fe5b602002602001015173ffffffffffffffffffffffffffffffffffffffff1614151515610fbe576040517f08c379a00000000000000000000000000000000000000000000000000000000081526004018080602001828103825260498152602001806118ca6049913960600191505060405180910390fd5b670de0b6b3a76400008582815181101515610fd557fe5b602002602001015111151515611036576040517f08c379a000000000000000000000000000000000000000000000000000000000815260040180806020018281038252605081526020018061170e6050913960600191505060405180910390fd5b848181518110151561104457fe5b6020026020010151603860005060003373ffffffffffffffffffffffffffffffffffffffff1673ffffffffffffffffffffffffffffffffffffffff168152602001908152602001600020600050600088848151811015156110a157fe5b602002602001015173ffffffffffffffffffffffffffffffffffffffff1673ffffffffffffffffffffffffffffffffffffffff16815260200190815260200160002060005060008973ffffffffffffffffffffffffffffffffffffffff1673ffffffffffffffffffffffffffffffffffffffff168152602001908152602001600020600050819090905550848181518110151561113a57fe5b60200260200101518201915081505b8080600101915050610f18565b50670de0b6b3a7640000811415156111b9576040517f08c379a00000000000000000000000000000000000000000000000000000000081526004018080602001828103825260528152602001806117846052913960600191505060405180910390fd5b82603660005060003373ffffffffffffffffffffffffffffffffffffffff1673ffffffffffffffffffffffffffffffffffffffff16815260200190815260200160002060005081909090555084603760005060003373ffffffffffffffffffffffffffffffffffffffff1673ffffffffffffffffffffffffffffffffffffffff168152602001908152602001600020600050908051906020019061125e92919061163c565b507fd755b4b1c6f89e651f14f05a6de0376c202dddaf96dd4ee3052c42b72f47dbb43387878787604051808673ffffffffffffffffffffffffffffffffffffffff1673ffffffffffffffffffffffffffffffffffffffff1681526020018573ffffffffffffffffffffffffffffffffffffffff1673ffffffffffffffffffffffffffffffffffffffff1681526020018060200180602001848152602001838103835286818151815260200191508051906020019060200280838360005b838110156113375780820151818401525b60208101905061131b565b50505050905001838103825285818151815260200191508051906020019060200280838360005b8381101561137a5780820151818401525b60208101905061135e565b5050505090500197505050505050505060405180910390a160346000503390806001815401808255809150509060018203906000526020600020900160005b909192909190916101000a81548173ffffffffffffffffffffffffffffffffffffffff021916908373ffffffffffffffffffffffffffffffffffffffff16021790555050505b5b5050505050565b611415610c2a63ffffffff16565b151561148c576040517f08c379a00000000000000000000000000000000000000000000000000000000081526004018080602001828103825260208152602001807f4f776e61626c653a2063616c6c6572206973206e6f7420746865206f776e657281526020015060200191505060405180910390fd5b61149b816114f363ffffffff16565b5b5b50565b603860005060205282600052604060002060005060205281600052604060002060005060205280600052604060002060009250925050505481565b60006000303b9050600081149150506114f056505b90565b600073ffffffffffffffffffffffffffffffffffffffff168173ffffffffffffffffffffffffffffffffffffffff161415151561157b576040517f08c379a000000000000000000000000000000000000000000000000000000000815260040180806020018281038252602681526020018061175e6026913960400191505060405180910390fd5b8073ffffffffffffffffffffffffffffffffffffffff16603360009054906101000a900473ffffffffffffffffffffffffffffffffffffffff1673ffffffffffffffffffffffffffffffffffffffff167f8be0079c531659141344cd1fd0a4f28419497f9722a3daafe3b4186f6b6457e060405160405180910390a380603360006101000a81548173ffffffffffffffffffffffffffffffffffffffff021916908373ffffffffffffffffffffffffffffffffffffffff1602179055505b50565b8280548282559060005260206000209081019282156116b5579160200282015b828111156116b45782518260006101000a81548173ffffffffffffffffffffffffffffffffffffffff021916908373ffffffffffffffffffffffffffffffffffffffff1602179055509160200191906001019061165c565b5b5090506116c291906116c6565b5090565b61170a91906116d0565b8082111561170657600081816101000a81549073ffffffffffffffffffffffffffffffffffffffff0219169055506001016116d0565b5090565b9056fe235265636f766572794c6f676963207365745265636f76657279536865657428293a2050657263656e74616765206d75737420626520736d616c6c6572207468656e20312065746865722831303025294f776e61626c653a206e6577206f776e657220697320746865207a65726f2061646472657373235265636f766572794c6f676963207365745265636f76657279536865657428293a2053756d206f6620616c6c207468652070657263656e7461676573206973206e6f742031206574686572283130302529235265636f766572794c6f676963207365745265636f76657279536865657428293a20446561646c696e65206d75737420626520626967676572207468616e207a65726f235265636f766572794c6f676963207365745265636f76657279536865657428293a2041737365742063616e6e6f74206265207a65726f2061646472657373235265636f766572794c6f676963207365745265636f76657279536865657428293a204c656e67746820696e636f72726563742e204461746120636f72727570746564436f6e747261637420696e7374616e63652068617320616c7265616479206265656e20696e697469616c697a6564235265636f766572794c6f676963207365745265636f76657279536865657428293a205265636f766572792077616c6c65742063616e6e6f74206265207a65726f2061646472657373a265627a7a72315820921e7ac683acb361ff0f4bdcb25682cd932bdeeefff0bb7e33c19302e0778c7964736f6c634300050c0032",
  "compiler": {
    "name": "solc",
    "version": "0.5.12+commit.7709ece9.Emscripten.clang",
    "optimizer": {},
    "evmVersion": "constantinople"
  }
}