{
  "contractName": "RecoveryLogic",
  "abi": [
    {
      "constant": true,
      "inputs": [
        {
          "name": "",
          "type": "address"
        }
      ],
      "name": "recoveryDeadline",
      "outputs": [
        {
          "name": "",
          "type": "uint256"
        }
      ],
      "payable": false,
      "stateMutability": "view",
      "type": "function"
    },
    {
      "constant": true,
      "inputs": [
        {
          "name": "",
          "type": "uint256"
        }
      ],
      "name": "dcWalletsList",
      "outputs": [
        {
          "name": "",
          "type": "address"
        }
      ],
      "payable": false,
      "stateMutability": "view",
      "type": "function"
    },
    {
      "constant": true,
      "inputs": [
        {
          "name": "",
          "type": "address"
        }
      ],
      "name": "lastAction",
      "outputs": [
        {
          "name": "",
          "type": "uint256"
        }
      ],
      "payable": false,
      "stateMutability": "view",
      "type": "function"
    },
    {
      "constant": false,
      "inputs": [],
      "name": "renounceOwnership",
      "outputs": [],
      "payable": false,
      "stateMutability": "nonpayable",
      "type": "function"
    },
    {
      "constant": true,
      "inputs": [],
      "name": "owner",
      "outputs": [
        {
          "name": "",
          "type": "address"
        }
      ],
      "payable": false,
      "stateMutability": "view",
      "type": "function"
    },
    {
      "constant": true,
      "inputs": [],
      "name": "isOwner",
      "outputs": [
        {
          "name": "",
          "type": "bool"
        }
      ],
      "payable": false,
      "stateMutability": "view",
      "type": "function"
    },
    {
      "constant": true,
      "inputs": [
        {
          "name": "",
          "type": "address"
        },
        {
          "name": "",
          "type": "uint256"
        }
      ],
      "name": "recoveryWallets",
      "outputs": [
        {
          "name": "",
          "type": "address"
        }
      ],
      "payable": false,
      "stateMutability": "view",
      "type": "function"
    },
    {
      "constant": false,
      "inputs": [
        {
          "name": "newOwner",
          "type": "address"
        }
      ],
      "name": "transferOwnership",
      "outputs": [],
      "payable": false,
      "stateMutability": "nonpayable",
      "type": "function"
    },
    {
      "constant": true,
      "inputs": [
        {
          "name": "",
          "type": "address"
        },
        {
          "name": "",
          "type": "address"
        },
        {
          "name": "",
          "type": "address"
        }
      ],
      "name": "recoverySheet",
      "outputs": [
        {
          "name": "",
          "type": "uint256"
        }
      ],
      "payable": false,
      "stateMutability": "view",
      "type": "function"
    },
    {
      "anonymous": false,
      "inputs": [
        {
          "indexed": false,
          "name": "user",
          "type": "address"
        },
        {
          "indexed": false,
          "name": "asset",
          "type": "address"
        },
        {
          "indexed": false,
          "name": "wallets",
          "type": "address[]"
        },
        {
          "indexed": false,
          "name": "values",
          "type": "uint256[]"
        },
        {
          "indexed": false,
          "name": "deadline",
          "type": "uint256"
        }
      ],
      "name": "NewRecoverySheet",
      "type": "event"
    },
    {
      "anonymous": false,
      "inputs": [
        {
          "indexed": true,
          "name": "previousOwner",
          "type": "address"
        },
        {
          "indexed": true,
          "name": "newOwner",
          "type": "address"
        }
      ],
      "name": "OwnershipTransferred",
      "type": "event"
    },
    {
      "constant": false,
      "inputs": [
        {
          "name": "owner",
          "type": "address"
        }
      ],
      "name": "init",
      "outputs": [],
      "payable": false,
      "stateMutability": "nonpayable",
      "type": "function"
    },
    {
      "constant": false,
      "inputs": [
        {
          "name": "asset",
          "type": "address"
        },
        {
          "name": "wallets",
          "type": "address[]"
        },
        {
          "name": "values",
          "type": "uint256[]"
        },
        {
          "name": "deadline",
          "type": "uint256"
        }
      ],
      "name": "setRecoverySheet",
      "outputs": [],
      "payable": false,
      "stateMutability": "nonpayable",
      "type": "function"
    },
    {
      "constant": false,
      "inputs": [],
      "name": "alive",
      "outputs": [
        {
          "name": "",
          "type": "bool"
        }
      ],
      "payable": false,
      "stateMutability": "nonpayable",
      "type": "function"
    },
    {
      "constant": true,
      "inputs": [
        {
          "name": "wallet",
          "type": "address"
        }
      ],
      "name": "isRecoverable",
      "outputs": [
        {
          "name": "",
          "type": "bool"
        }
      ],
      "payable": false,
      "stateMutability": "view",
      "type": "function"
    },
    {
      "constant": true,
      "inputs": [
        {
          "name": "wallet",
          "type": "address"
        }
      ],
      "name": "getRecoveryWallets",
      "outputs": [
        {
          "name": "",
          "type": "address[]"
        }
      ],
      "payable": false,
      "stateMutability": "view",
      "type": "function"
    },
    {
      "constant": true,
      "inputs": [],
      "name": "getDCWallets",
      "outputs": [
        {
          "name": "",
          "type": "address[]"
        }
      ],
      "payable": false,
      "stateMutability": "view",
      "type": "function"
    }
  ],
  "bytecode": "0x608060405233603360006101000a81548173ffffffffffffffffffffffffffffffffffffffff021916908373ffffffffffffffffffffffffffffffffffffffff160217905550603360009054906101000a900473ffffffffffffffffffffffffffffffffffffffff1673ffffffffffffffffffffffffffffffffffffffff16600073ffffffffffffffffffffffffffffffffffffffff167f8be0079c531659141344cd1fd0a4f28419497f9722a3daafe3b4186f6b6457e060405160405180910390a3611836806100d16000396000f3fe608060405234801561001057600080fd5b50600436106100f55760003560e01c8063753899e911610097578063a50e4ed011610066578063a50e4ed014610477578063b5408a8e146104d6578063f2fde38b1461064c578063f5db425514610690576100f5565b8063753899e91461035b5780638da5cb5b1461037d5780638f32d59b146103c757806390bfebf0146103e9576100f5565b80632ba5c3eb116100d35780632ba5c3eb146101f25780634ab6fcaf1461026057806370720d1f146102f9578063715018a614610351576100f5565b80630e54ae2e146100fa57806319ab453c146101525780632851bbc914610196575b600080fd5b61013c6004803603602081101561011057600080fd5b81019080803573ffffffffffffffffffffffffffffffffffffffff169060200190929190505050610728565b6040518082815260200191505060405180910390f35b6101946004803603602081101561016857600080fd5b81019080803573ffffffffffffffffffffffffffffffffffffffff169060200190929190505050610740565b005b6101d8600480360360208110156101ac57600080fd5b81019080803573ffffffffffffffffffffffffffffffffffffffff169060200190929190505050610849565b604051808215151515815260200191505060405180910390f35b61021e6004803603602081101561020857600080fd5b81019080803590602001909291905050506108d6565b604051808273ffffffffffffffffffffffffffffffffffffffff1673ffffffffffffffffffffffffffffffffffffffff16815260200191505060405180910390f35b6102a26004803603602081101561027657600080fd5b81019080803573ffffffffffffffffffffffffffffffffffffffff169060200190929190505050610912565b6040518080602001828103825283818151815260200191508051906020019060200280838360005b838110156102e55780820151818401526020810190506102ca565b505050509050019250505060405180910390f35b61033b6004803603602081101561030f57600080fd5b81019080803573ffffffffffffffffffffffffffffffffffffffff1690602001909291905050506109df565b6040518082815260200191505060405180910390f35b6103596109f7565b005b610363610b32565b604051808215151515815260200191505060405180910390f35b610385610b81565b604051808273ffffffffffffffffffffffffffffffffffffffff1673ffffffffffffffffffffffffffffffffffffffff16815260200191505060405180910390f35b6103cf610bab565b604051808215151515815260200191505060405180910390f35b610435600480360360408110156103ff57600080fd5b81019080803573ffffffffffffffffffffffffffffffffffffffff16906020019092919080359060200190929190505050610c03565b604051808273ffffffffffffffffffffffffffffffffffffffff1673ffffffffffffffffffffffffffffffffffffffff16815260200191505060405180910390f35b61047f610c4e565b6040518080602001828103825283818151815260200191508051906020019060200280838360005b838110156104c25780820151818401526020810190506104a7565b505050509050019250505060405180910390f35b61064a600480360360808110156104ec57600080fd5b81019080803573ffffffffffffffffffffffffffffffffffffffff1690602001909291908035906020019064010000000081111561052957600080fd5b82018360208201111561053b57600080fd5b8035906020019184602083028401116401000000008311171561055d57600080fd5b919080806020026020016040519081016040528093929190818152602001838360200280828437600081840152601f19601f820116905080830192505050505050509192919290803590602001906401000000008111156105bd57600080fd5b8201836020820111156105cf57600080fd5b803590602001918460208302840111640100000000831117156105f157600080fd5b919080806020026020016040519081016040528093929190818152602001838360200280828437600081840152601f19601f82011690508083019250505050505050919291929080359060200190929190505050610cdc565b005b61068e6004803603602081101561066257600080fd5b81019080803573ffffffffffffffffffffffffffffffffffffffff169060200190929190505050611329565b005b610712600480360360608110156106a657600080fd5b81019080803573ffffffffffffffffffffffffffffffffffffffff169060200190929190803573ffffffffffffffffffffffffffffffffffffffff169060200190929190803573ffffffffffffffffffffffffffffffffffffffff1690602001909291905050506113af565b6040518082815260200191505060405180910390f35b60366020528060005260406000206000915090505481565b600060019054906101000a900460ff168061075f575061075e6113e1565b5b8061077657506000809054906101000a900460ff16155b6107cb576040517f08c379a000000000000000000000000000000000000000000000000000000000815260040180806020018281038252602e815260200180611794602e913960400191505060405180910390fd5b60008060019054906101000a900460ff16159050801561081b576001600060016101000a81548160ff02191690831515021790555060016000806101000a81548160ff0219169083151502179055505b610824826113f2565b80156108455760008060016101000a81548160ff0219169083151502179055505b5050565b600042603660008473ffffffffffffffffffffffffffffffffffffffff1673ffffffffffffffffffffffffffffffffffffffff16815260200190815260200160002054603560008573ffffffffffffffffffffffffffffffffffffffff1673ffffffffffffffffffffffffffffffffffffffff168152602001908152602001600020540111159050919050565b603481815481106108e357fe5b906000526020600020016000915054906101000a900473ffffffffffffffffffffffffffffffffffffffff1681565b6060603760008373ffffffffffffffffffffffffffffffffffffffff1673ffffffffffffffffffffffffffffffffffffffff1681526020019081526020016000208054806020026020016040519081016040528092919081815260200182805480156109d357602002820191906000526020600020905b8160009054906101000a900473ffffffffffffffffffffffffffffffffffffffff1673ffffffffffffffffffffffffffffffffffffffff1681526020019060010190808311610989575b50505050509050919050565b60356020528060005260406000206000915090505481565b6109ff610bab565b610a71576040517f08c379a00000000000000000000000000000000000000000000000000000000081526004018080602001828103825260208152602001807f4f776e61626c653a2063616c6c6572206973206e6f7420746865206f776e657281525060200191505060405180910390fd5b600073ffffffffffffffffffffffffffffffffffffffff16603360009054906101000a900473ffffffffffffffffffffffffffffffffffffffff1673ffffffffffffffffffffffffffffffffffffffff167f8be0079c531659141344cd1fd0a4f28419497f9722a3daafe3b4186f6b6457e060405160405180910390a36000603360006101000a81548173ffffffffffffffffffffffffffffffffffffffff021916908373ffffffffffffffffffffffffffffffffffffffff160217905550565b60003342603560008373ffffffffffffffffffffffffffffffffffffffff1673ffffffffffffffffffffffffffffffffffffffff16815260200190815260200160002081905550600191505090565b6000603360009054906101000a900473ffffffffffffffffffffffffffffffffffffffff16905090565b6000603360009054906101000a900473ffffffffffffffffffffffffffffffffffffffff1673ffffffffffffffffffffffffffffffffffffffff163373ffffffffffffffffffffffffffffffffffffffff1614905090565b60376020528160005260406000208181548110610c1c57fe5b906000526020600020016000915091509054906101000a900473ffffffffffffffffffffffffffffffffffffffff1681565b60606034805480602002602001604051908101604052809291908181526020018280548015610cd257602002820191906000526020600020905b8160009054906101000a900473ffffffffffffffffffffffffffffffffffffffff1673ffffffffffffffffffffffffffffffffffffffff1681526020019060010190808311610c88575b5050505050905090565b3342603560008373ffffffffffffffffffffffffffffffffffffffff1673ffffffffffffffffffffffffffffffffffffffff16815260200190815260200160002081905550600073ffffffffffffffffffffffffffffffffffffffff168573ffffffffffffffffffffffffffffffffffffffff161415610da7576040517f08c379a000000000000000000000000000000000000000000000000000000000815260040180806020018281038252603f815260200180611712603f913960400191505060405180910390fd5b60008211610e00576040517f08c379a00000000000000000000000000000000000000000000000000000000081526004018080602001828103825260448152602001806116ce6044913960600191505060405180910390fd5b82518451148015610e12575060008451115b610e67576040517f08c379a00000000000000000000000000000000000000000000000000000000081526004018080602001828103825260438152602001806117516043913960600191505060405180910390fd5b600080905060008090505b855181101561109157600073ffffffffffffffffffffffffffffffffffffffff16868281518110610e9f57fe5b602002602001015173ffffffffffffffffffffffffffffffffffffffff161415610f14576040517f08c379a00000000000000000000000000000000000000000000000000000000081526004018080602001828103825260498152602001806117c26049913960600191505060405180910390fd5b670de0b6b3a7640000858281518110610f2957fe5b60200260200101511115610f88576040517f08c379a00000000000000000000000000000000000000000000000000000000081526004018080602001828103825260508152602001806116066050913960600191505060405180910390fd5b848181518110610f9457fe5b6020026020010151603860003373ffffffffffffffffffffffffffffffffffffffff1673ffffffffffffffffffffffffffffffffffffffff1681526020019081526020016000206000888481518110610fe957fe5b602002602001015173ffffffffffffffffffffffffffffffffffffffff1673ffffffffffffffffffffffffffffffffffffffff16815260200190815260200160002060008973ffffffffffffffffffffffffffffffffffffffff1673ffffffffffffffffffffffffffffffffffffffff1681526020019081526020016000208190555084818151811061107857fe5b6020026020010151820191508080600101915050610e72565b50670de0b6b3a764000081146110f2576040517f08c379a000000000000000000000000000000000000000000000000000000000815260040180806020018281038252605281526020018061167c6052913960600191505060405180910390fd5b82603660003373ffffffffffffffffffffffffffffffffffffffff1673ffffffffffffffffffffffffffffffffffffffff1681526020019081526020016000208190555084603760003373ffffffffffffffffffffffffffffffffffffffff1673ffffffffffffffffffffffffffffffffffffffff1681526020019081526020016000209080519060200190611189929190611538565b507fd755b4b1c6f89e651f14f05a6de0376c202dddaf96dd4ee3052c42b72f47dbb43387878787604051808673ffffffffffffffffffffffffffffffffffffffff1673ffffffffffffffffffffffffffffffffffffffff1681526020018573ffffffffffffffffffffffffffffffffffffffff1673ffffffffffffffffffffffffffffffffffffffff1681526020018060200180602001848152602001838103835286818151815260200191508051906020019060200280838360005b83811015611261578082015181840152602081019050611246565b50505050905001838103825285818151815260200191508051906020019060200280838360005b838110156112a3578082015181840152602081019050611288565b5050505090500197505050505050505060405180910390a160343390806001815401808255809150509060018203906000526020600020016000909192909190916101000a81548173ffffffffffffffffffffffffffffffffffffffff021916908373ffffffffffffffffffffffffffffffffffffffff16021790555050505050505050565b611331610bab565b6113a3576040517f08c379a00000000000000000000000000000000000000000000000000000000081526004018080602001828103825260208152602001807f4f776e61626c653a2063616c6c6572206973206e6f7420746865206f776e657281525060200191505060405180910390fd5b6113ac816113f2565b50565b603860205282600052604060002060205281600052604060002060205280600052604060002060009250925050505481565b600080303b90506000811491505090565b600073ffffffffffffffffffffffffffffffffffffffff168173ffffffffffffffffffffffffffffffffffffffff161415611478576040517f08c379a00000000000000000000000000000000000000000000000000000000081526004018080602001828103825260268152602001806116566026913960400191505060405180910390fd5b8073ffffffffffffffffffffffffffffffffffffffff16603360009054906101000a900473ffffffffffffffffffffffffffffffffffffffff1673ffffffffffffffffffffffffffffffffffffffff167f8be0079c531659141344cd1fd0a4f28419497f9722a3daafe3b4186f6b6457e060405160405180910390a380603360006101000a81548173ffffffffffffffffffffffffffffffffffffffff021916908373ffffffffffffffffffffffffffffffffffffffff16021790555050565b8280548282559060005260206000209081019282156115b1579160200282015b828111156115b05782518260006101000a81548173ffffffffffffffffffffffffffffffffffffffff021916908373ffffffffffffffffffffffffffffffffffffffff16021790555091602001919060010190611558565b5b5090506115be91906115c2565b5090565b61160291905b808211156115fe57600081816101000a81549073ffffffffffffffffffffffffffffffffffffffff0219169055506001016115c8565b5090565b9056fe235265636f766572794c6f676963207365745265636f76657279536865657428293a2050657263656e74616765206d75737420626520736d616c6c6572207468656e20312065746865722831303025294f776e61626c653a206e6577206f776e657220697320746865207a65726f2061646472657373235265636f766572794c6f676963207365745265636f76657279536865657428293a2053756d206f6620616c6c207468652070657263656e7461676573206973206e6f742031206574686572283130302529235265636f766572794c6f676963207365745265636f76657279536865657428293a20446561646c696e65206d75737420626520626967676572207468616e207a65726f235265636f766572794c6f676963207365745265636f76657279536865657428293a2041737365742063616e6e6f74206265207a65726f2061646472657373235265636f766572794c6f676963207365745265636f76657279536865657428293a204c656e67746820696e636f72726563742e204461746120636f72727570746564436f6e747261637420696e7374616e63652068617320616c7265616479206265656e20696e697469616c697a6564235265636f766572794c6f676963207365745265636f76657279536865657428293a205265636f766572792077616c6c65742063616e6e6f74206265207a65726f2061646472657373a165627a7a72305820dc0e3ecf6f4bd3262a195e89548eaa7e102a80b833c3286f07f592108c8fe7860029",
  "source": "pragma solidity >=0.5.0 <0.6.0;\n\nimport \"@openzeppelin/contracts/ownership/Ownable.sol\";\nimport \"@openzeppelin/upgrades/contracts/Initializable.sol\";\n\ncontract RecoveryLogic is Initializable, Ownable {\n    address[] public dcWalletsList;\n\n    mapping(address => uint256) public lastAction;\n    mapping(address => uint256) public recoveryDeadline;\n    mapping(address => address[]) public recoveryWallets;\n\n    // wallet => recoveryWallet => asset address => percentage | 1 ETH = 100%\n    mapping(address => mapping(address => mapping(address => uint256))) public recoverySheet;\n\n    event NewRecoverySheet(address user, address asset, address[] wallets, uint256[] values, uint256 deadline);\n\n    modifier updateAction(address wallet) {\n        lastAction[wallet] = now;\n        _;\n    }\n\n    modifier ifRecoverable(address wallet) {\n        require(isRecoverable(wallet), \"#RecoveryLogic ifRecoverable() modifier: Contract is not recoverable\");\n        _;\n    }\n\n    function init(address owner) public initializer {\n        _transferOwnership(owner);\n    }\n\n    /**\n     * @dev Allows to recoverySheet state.\n     * @param asset The address of token that will be used as Asset.\n     * @param wallets The array of addresses to whom the asset will be sent.\n     * @param values The array of percentages that corresponds to each wallets share. 1 ether = 100%.\n     * @param deadline The number of seconds from the current moment (lastAction) the Asset will be sent to wallets.\n     */\n    function setRecoverySheet(\n        address asset,\n        address[] memory wallets,\n        uint256[] memory values,\n        uint256 deadline\n    ) public updateAction(msg.sender) {\n        require(asset != address(0),\n            \"#RecoveryLogic setRecoverySheet(): Asset cannot be zero address\");\n        require(deadline > 0,\n            \"#RecoveryLogic setRecoverySheet(): Deadline must be bigger than zero\");\n        require(wallets.length == values.length && wallets.length > 0,\n            \"#RecoveryLogic setRecoverySheet(): Length incorrect. Data corrupted\");\n\n        uint valuesTotalAmount = 0;\n        for (uint256 i = 0; i < wallets.length; i++) {\n            require(wallets[i] != address(0),\n                \"#RecoveryLogic setRecoverySheet(): Recovery wallet cannot be zero address\");\n            require(values[i] <= 1 ether,\n                \"#RecoveryLogic setRecoverySheet(): Percentage must be smaller then 1 ether(100%)\");\n\n            recoverySheet[msg.sender][wallets[i]][asset] = values[i];\n            valuesTotalAmount += values[i];\n        }\n        require(valuesTotalAmount == 1 ether,\n            \"#RecoveryLogic setRecoverySheet(): Sum of all the percentages is not 1 ether(100%)\");\n\n        recoveryDeadline[msg.sender] = deadline;\n        recoveryWallets[msg.sender] = wallets;\n        emit NewRecoverySheet(msg.sender, asset, wallets, values, deadline);\n        dcWalletsList.push(msg.sender);\n    }\n\n    /// @dev extend the deadline for recovery\n    function alive() public updateAction(msg.sender) returns (bool) {\n        return true;\n    }\n\n    function isRecoverable(address wallet) public view returns (bool) {\n        return (lastAction[wallet] + recoveryDeadline[wallet]) <= now;\n    }\n\n    function getRecoveryWallets(address wallet) public view returns (address[] memory) {\n        return recoveryWallets[wallet];\n    }\n    \n    function getDCWallets() external view returns (address[] memory) {\n        return dcWalletsList;\n    }\n}\n",
  "sourcePath": "/home/ilgiz/defi-custody-hackathon/contracts/RecoveryLogic.sol",
  "compiler": {
    "name": "solc",
    "version": "0.5.8+commit.23d335f2.Emscripten.clang"
  },
  "schemaVersion": "3.0.11",
  "updatedAt": "2019-10-27T22:34:34.465Z",
  "devdoc": {
    "methods": {
      "alive()": {
        "details": "extend the deadline for recovery"
      },
      "isOwner()": {
        "details": "Returns true if the caller is the current owner."
      },
      "owner()": {
        "details": "Returns the address of the current owner."
      },
      "renounceOwnership()": {
        "details": "Leaves the contract without owner. It will not be possible to call `onlyOwner` functions anymore. Can only be called by the current owner.     * > Note: Renouncing ownership will leave the contract without an owner, thereby removing any functionality that is only available to the owner."
      },
      "setRecoverySheet(address,address[],uint256[],uint256)": {
        "details": "Allows to recoverySheet state.",
        "params": {
          "asset": "The address of token that will be used as Asset.",
          "deadline": "The number of seconds from the current moment (lastAction) the Asset will be sent to wallets.",
          "values": "The array of percentages that corresponds to each wallets share. 1 ether = 100%.",
          "wallets": "The array of addresses to whom the asset will be sent."
        }
      },
      "transferOwnership(address)": {
        "details": "Transfers ownership of the contract to a new account (`newOwner`). Can only be called by the current owner."
      }
    }
  },
  "userdoc": {
    "methods": {}
  }
}