{
  "contractName": "RecoveryLogic",
  "abi": [
    {
      "constant": true,
      "inputs": [
        {
          "name": "",
          "type": "address"
        }
      ],
      "name": "recoveryDeadline",
      "outputs": [
        {
          "name": "",
          "type": "uint256"
        }
      ],
      "payable": false,
      "stateMutability": "view",
      "type": "function"
    },
    {
      "constant": true,
      "inputs": [
        {
          "name": "",
          "type": "uint256"
        }
      ],
      "name": "dcWalletsList",
      "outputs": [
        {
          "name": "",
          "type": "address"
        }
      ],
      "payable": false,
      "stateMutability": "view",
      "type": "function"
    },
    {
      "constant": true,
      "inputs": [
        {
          "name": "",
          "type": "address"
        }
      ],
      "name": "lastAction",
      "outputs": [
        {
          "name": "",
          "type": "uint256"
        }
      ],
      "payable": false,
      "stateMutability": "view",
      "type": "function"
    },
    {
      "constant": false,
      "inputs": [],
      "name": "renounceOwnership",
      "outputs": [],
      "payable": false,
      "stateMutability": "nonpayable",
      "type": "function"
    },
    {
      "constant": true,
      "inputs": [],
      "name": "owner",
      "outputs": [
        {
          "name": "",
          "type": "address"
        }
      ],
      "payable": false,
      "stateMutability": "view",
      "type": "function"
    },
    {
      "constant": true,
      "inputs": [],
      "name": "isOwner",
      "outputs": [
        {
          "name": "",
          "type": "bool"
        }
      ],
      "payable": false,
      "stateMutability": "view",
      "type": "function"
    },
    {
      "constant": true,
      "inputs": [
        {
          "name": "",
          "type": "address"
        },
        {
          "name": "",
          "type": "uint256"
        }
      ],
      "name": "recoveryWallets",
      "outputs": [
        {
          "name": "",
          "type": "address"
        }
      ],
      "payable": false,
      "stateMutability": "view",
      "type": "function"
    },
    {
      "constant": false,
      "inputs": [
        {
          "name": "newOwner",
          "type": "address"
        }
      ],
      "name": "transferOwnership",
      "outputs": [],
      "payable": false,
      "stateMutability": "nonpayable",
      "type": "function"
    },
    {
      "constant": true,
      "inputs": [
        {
          "name": "",
          "type": "address"
        },
        {
          "name": "",
          "type": "address"
        },
        {
          "name": "",
          "type": "address"
        }
      ],
      "name": "recoverySheet",
      "outputs": [
        {
          "name": "",
          "type": "uint256"
        }
      ],
      "payable": false,
      "stateMutability": "view",
      "type": "function"
    },
    {
      "anonymous": false,
      "inputs": [
        {
          "indexed": false,
          "name": "user",
          "type": "address"
        },
        {
          "indexed": false,
          "name": "asset",
          "type": "address"
        },
        {
          "indexed": false,
          "name": "wallets",
          "type": "address[]"
        },
        {
          "indexed": false,
          "name": "values",
          "type": "uint256[]"
        },
        {
          "indexed": false,
          "name": "deadline",
          "type": "uint256"
        }
      ],
      "name": "NewRecoverySheet",
      "type": "event"
    },
    {
      "anonymous": false,
      "inputs": [
        {
          "indexed": true,
          "name": "previousOwner",
          "type": "address"
        },
        {
          "indexed": true,
          "name": "newOwner",
          "type": "address"
        }
      ],
      "name": "OwnershipTransferred",
      "type": "event"
    },
    {
      "constant": false,
      "inputs": [
        {
          "name": "owner",
          "type": "address"
        }
      ],
      "name": "init",
      "outputs": [],
      "payable": false,
      "stateMutability": "nonpayable",
      "type": "function"
    },
    {
      "constant": false,
      "inputs": [
        {
          "name": "asset",
          "type": "address"
        },
        {
          "name": "wallets",
          "type": "address[]"
        },
        {
          "name": "values",
          "type": "uint256[]"
        },
        {
          "name": "deadline",
          "type": "uint256"
        }
      ],
      "name": "setRecoverySheet",
      "outputs": [],
      "payable": false,
      "stateMutability": "nonpayable",
      "type": "function"
    },
    {
      "constant": false,
      "inputs": [],
      "name": "alive",
      "outputs": [
        {
          "name": "",
          "type": "bool"
        }
      ],
      "payable": false,
      "stateMutability": "nonpayable",
      "type": "function"
    },
    {
      "constant": true,
      "inputs": [
        {
          "name": "wallet",
          "type": "address"
        }
      ],
      "name": "isRecoverable",
      "outputs": [
        {
          "name": "",
          "type": "bool"
        }
      ],
      "payable": false,
      "stateMutability": "view",
      "type": "function"
    },
    {
      "constant": true,
      "inputs": [
        {
          "name": "wallet",
          "type": "address"
        }
      ],
      "name": "getRecoveryWallets",
      "outputs": [
        {
          "name": "",
          "type": "address[]"
        }
      ],
      "payable": false,
      "stateMutability": "view",
      "type": "function"
    }
  ],
  "bytecode": "0x608060405233603360006101000a81548173ffffffffffffffffffffffffffffffffffffffff021916908373ffffffffffffffffffffffffffffffffffffffff160217905550603360009054906101000a900473ffffffffffffffffffffffffffffffffffffffff1673ffffffffffffffffffffffffffffffffffffffff16600073ffffffffffffffffffffffffffffffffffffffff167f8be0079c531659141344cd1fd0a4f28419497f9722a3daafe3b4186f6b6457e060405160405180910390a361173e806100d16000396000f3fe608060405234801561001057600080fd5b50600436106100ea5760003560e01c8063753899e91161008c57806390bfebf01161006657806390bfebf0146103de578063b5408a8e1461046c578063f2fde38b146105e2578063f5db425514610626576100ea565b8063753899e9146103505780638da5cb5b146103725780638f32d59b146103bc576100ea565b80632ba5c3eb116100c85780632ba5c3eb146101e75780634ab6fcaf1461025557806370720d1f146102ee578063715018a614610346576100ea565b80630e54ae2e146100ef57806319ab453c146101475780632851bbc91461018b575b600080fd5b6101316004803603602081101561010557600080fd5b81019080803573ffffffffffffffffffffffffffffffffffffffff1690602001909291905050506106be565b6040518082815260200191505060405180910390f35b6101896004803603602081101561015d57600080fd5b81019080803573ffffffffffffffffffffffffffffffffffffffff1690602001909291905050506106d6565b005b6101cd600480360360208110156101a157600080fd5b81019080803573ffffffffffffffffffffffffffffffffffffffff1690602001909291905050506107df565b604051808215151515815260200191505060405180910390f35b610213600480360360208110156101fd57600080fd5b810190808035906020019092919050505061086c565b604051808273ffffffffffffffffffffffffffffffffffffffff1673ffffffffffffffffffffffffffffffffffffffff16815260200191505060405180910390f35b6102976004803603602081101561026b57600080fd5b81019080803573ffffffffffffffffffffffffffffffffffffffff1690602001909291905050506108a8565b6040518080602001828103825283818151815260200191508051906020019060200280838360005b838110156102da5780820151818401526020810190506102bf565b505050509050019250505060405180910390f35b6103306004803603602081101561030457600080fd5b81019080803573ffffffffffffffffffffffffffffffffffffffff169060200190929190505050610975565b6040518082815260200191505060405180910390f35b61034e61098d565b005b610358610ac8565b604051808215151515815260200191505060405180910390f35b61037a610b17565b604051808273ffffffffffffffffffffffffffffffffffffffff1673ffffffffffffffffffffffffffffffffffffffff16815260200191505060405180910390f35b6103c4610b41565b604051808215151515815260200191505060405180910390f35b61042a600480360360408110156103f457600080fd5b81019080803573ffffffffffffffffffffffffffffffffffffffff16906020019092919080359060200190929190505050610b99565b604051808273ffffffffffffffffffffffffffffffffffffffff1673ffffffffffffffffffffffffffffffffffffffff16815260200191505060405180910390f35b6105e06004803603608081101561048257600080fd5b81019080803573ffffffffffffffffffffffffffffffffffffffff169060200190929190803590602001906401000000008111156104bf57600080fd5b8201836020820111156104d157600080fd5b803590602001918460208302840111640100000000831117156104f357600080fd5b919080806020026020016040519081016040528093929190818152602001838360200280828437600081840152601f19601f8201169050808301925050505050505091929192908035906020019064010000000081111561055357600080fd5b82018360208201111561056557600080fd5b8035906020019184602083028401116401000000008311171561058757600080fd5b919080806020026020016040519081016040528093929190818152602001838360200280828437600081840152601f19601f82011690508083019250505050505050919291929080359060200190929190505050610be4565b005b610624600480360360208110156105f857600080fd5b81019080803573ffffffffffffffffffffffffffffffffffffffff169060200190929190505050611231565b005b6106a86004803603606081101561063c57600080fd5b81019080803573ffffffffffffffffffffffffffffffffffffffff169060200190929190803573ffffffffffffffffffffffffffffffffffffffff169060200190929190803573ffffffffffffffffffffffffffffffffffffffff1690602001909291905050506112b7565b6040518082815260200191505060405180910390f35b60366020528060005260406000206000915090505481565b600060019054906101000a900460ff16806106f557506106f46112e9565b5b8061070c57506000809054906101000a900460ff16155b610761576040517f08c379a000000000000000000000000000000000000000000000000000000000815260040180806020018281038252602e81526020018061169c602e913960400191505060405180910390fd5b60008060019054906101000a900460ff1615905080156107b1576001600060016101000a81548160ff02191690831515021790555060016000806101000a81548160ff0219169083151502179055505b6107ba826112fa565b80156107db5760008060016101000a81548160ff0219169083151502179055505b5050565b600042603660008473ffffffffffffffffffffffffffffffffffffffff1673ffffffffffffffffffffffffffffffffffffffff16815260200190815260200160002054603560008573ffffffffffffffffffffffffffffffffffffffff1673ffffffffffffffffffffffffffffffffffffffff168152602001908152602001600020540111159050919050565b6034818154811061087957fe5b906000526020600020016000915054906101000a900473ffffffffffffffffffffffffffffffffffffffff1681565b6060603760008373ffffffffffffffffffffffffffffffffffffffff1673ffffffffffffffffffffffffffffffffffffffff16815260200190815260200160002080548060200260200160405190810160405280929190818152602001828054801561096957602002820191906000526020600020905b8160009054906101000a900473ffffffffffffffffffffffffffffffffffffffff1673ffffffffffffffffffffffffffffffffffffffff168152602001906001019080831161091f575b50505050509050919050565b60356020528060005260406000206000915090505481565b610995610b41565b610a07576040517f08c379a00000000000000000000000000000000000000000000000000000000081526004018080602001828103825260208152602001807f4f776e61626c653a2063616c6c6572206973206e6f7420746865206f776e657281525060200191505060405180910390fd5b600073ffffffffffffffffffffffffffffffffffffffff16603360009054906101000a900473ffffffffffffffffffffffffffffffffffffffff1673ffffffffffffffffffffffffffffffffffffffff167f8be0079c531659141344cd1fd0a4f28419497f9722a3daafe3b4186f6b6457e060405160405180910390a36000603360006101000a81548173ffffffffffffffffffffffffffffffffffffffff021916908373ffffffffffffffffffffffffffffffffffffffff160217905550565b60003342603560008373ffffffffffffffffffffffffffffffffffffffff1673ffffffffffffffffffffffffffffffffffffffff16815260200190815260200160002081905550600191505090565b6000603360009054906101000a900473ffffffffffffffffffffffffffffffffffffffff16905090565b6000603360009054906101000a900473ffffffffffffffffffffffffffffffffffffffff1673ffffffffffffffffffffffffffffffffffffffff163373ffffffffffffffffffffffffffffffffffffffff1614905090565b60376020528160005260406000208181548110610bb257fe5b906000526020600020016000915091509054906101000a900473ffffffffffffffffffffffffffffffffffffffff1681565b3342603560008373ffffffffffffffffffffffffffffffffffffffff1673ffffffffffffffffffffffffffffffffffffffff16815260200190815260200160002081905550600073ffffffffffffffffffffffffffffffffffffffff168573ffffffffffffffffffffffffffffffffffffffff161415610caf576040517f08c379a000000000000000000000000000000000000000000000000000000000815260040180806020018281038252603f81526020018061161a603f913960400191505060405180910390fd5b60008211610d08576040517f08c379a00000000000000000000000000000000000000000000000000000000081526004018080602001828103825260448152602001806115d66044913960600191505060405180910390fd5b82518451148015610d1a575060008451115b610d6f576040517f08c379a00000000000000000000000000000000000000000000000000000000081526004018080602001828103825260438152602001806116596043913960600191505060405180910390fd5b600080905060008090505b8551811015610f9957600073ffffffffffffffffffffffffffffffffffffffff16868281518110610da757fe5b602002602001015173ffffffffffffffffffffffffffffffffffffffff161415610e1c576040517f08c379a00000000000000000000000000000000000000000000000000000000081526004018080602001828103825260498152602001806116ca6049913960600191505060405180910390fd5b670de0b6b3a7640000858281518110610e3157fe5b60200260200101511115610e90576040517f08c379a000000000000000000000000000000000000000000000000000000000815260040180806020018281038252605081526020018061150e6050913960600191505060405180910390fd5b848181518110610e9c57fe5b6020026020010151603860003373ffffffffffffffffffffffffffffffffffffffff1673ffffffffffffffffffffffffffffffffffffffff1681526020019081526020016000206000888481518110610ef157fe5b602002602001015173ffffffffffffffffffffffffffffffffffffffff1673ffffffffffffffffffffffffffffffffffffffff16815260200190815260200160002060008973ffffffffffffffffffffffffffffffffffffffff1673ffffffffffffffffffffffffffffffffffffffff16815260200190815260200160002081905550848181518110610f8057fe5b6020026020010151820191508080600101915050610d7a565b50670de0b6b3a76400008114610ffa576040517f08c379a00000000000000000000000000000000000000000000000000000000081526004018080602001828103825260528152602001806115846052913960600191505060405180910390fd5b82603660003373ffffffffffffffffffffffffffffffffffffffff1673ffffffffffffffffffffffffffffffffffffffff1681526020019081526020016000208190555084603760003373ffffffffffffffffffffffffffffffffffffffff1673ffffffffffffffffffffffffffffffffffffffff1681526020019081526020016000209080519060200190611091929190611440565b507fd755b4b1c6f89e651f14f05a6de0376c202dddaf96dd4ee3052c42b72f47dbb43387878787604051808673ffffffffffffffffffffffffffffffffffffffff1673ffffffffffffffffffffffffffffffffffffffff1681526020018573ffffffffffffffffffffffffffffffffffffffff1673ffffffffffffffffffffffffffffffffffffffff1681526020018060200180602001848152602001838103835286818151815260200191508051906020019060200280838360005b8381101561116957808201518184015260208101905061114e565b50505050905001838103825285818151815260200191508051906020019060200280838360005b838110156111ab578082015181840152602081019050611190565b5050505090500197505050505050505060405180910390a160343390806001815401808255809150509060018203906000526020600020016000909192909190916101000a81548173ffffffffffffffffffffffffffffffffffffffff021916908373ffffffffffffffffffffffffffffffffffffffff16021790555050505050505050565b611239610b41565b6112ab576040517f08c379a00000000000000000000000000000000000000000000000000000000081526004018080602001828103825260208152602001807f4f776e61626c653a2063616c6c6572206973206e6f7420746865206f776e657281525060200191505060405180910390fd5b6112b4816112fa565b50565b603860205282600052604060002060205281600052604060002060205280600052604060002060009250925050505481565b600080303b90506000811491505090565b600073ffffffffffffffffffffffffffffffffffffffff168173ffffffffffffffffffffffffffffffffffffffff161415611380576040517f08c379a000000000000000000000000000000000000000000000000000000000815260040180806020018281038252602681526020018061155e6026913960400191505060405180910390fd5b8073ffffffffffffffffffffffffffffffffffffffff16603360009054906101000a900473ffffffffffffffffffffffffffffffffffffffff1673ffffffffffffffffffffffffffffffffffffffff167f8be0079c531659141344cd1fd0a4f28419497f9722a3daafe3b4186f6b6457e060405160405180910390a380603360006101000a81548173ffffffffffffffffffffffffffffffffffffffff021916908373ffffffffffffffffffffffffffffffffffffffff16021790555050565b8280548282559060005260206000209081019282156114b9579160200282015b828111156114b85782518260006101000a81548173ffffffffffffffffffffffffffffffffffffffff021916908373ffffffffffffffffffffffffffffffffffffffff16021790555091602001919060010190611460565b5b5090506114c691906114ca565b5090565b61150a91905b8082111561150657600081816101000a81549073ffffffffffffffffffffffffffffffffffffffff0219169055506001016114d0565b5090565b9056fe235265636f766572794c6f676963207365745265636f76657279536865657428293a2050657263656e74616765206d75737420626520736d616c6c6572207468656e20312065746865722831303025294f776e61626c653a206e6577206f776e657220697320746865207a65726f2061646472657373235265636f766572794c6f676963207365745265636f76657279536865657428293a2053756d206f6620616c6c207468652070657263656e7461676573206973206e6f742031206574686572283130302529235265636f766572794c6f676963207365745265636f76657279536865657428293a20446561646c696e65206d75737420626520626967676572207468616e207a65726f235265636f766572794c6f676963207365745265636f76657279536865657428293a2041737365742063616e6e6f74206265207a65726f2061646472657373235265636f766572794c6f676963207365745265636f76657279536865657428293a204c656e67746820696e636f72726563742e204461746120636f72727570746564436f6e747261637420696e7374616e63652068617320616c7265616479206265656e20696e697469616c697a6564235265636f766572794c6f676963207365745265636f76657279536865657428293a205265636f766572792077616c6c65742063616e6e6f74206265207a65726f2061646472657373a165627a7a723058205cb0abcf37944931c258cb745da4818300c603ed95cc162aeb6b896ac95ce2060029",
  "source": "pragma solidity >=0.5.0 <0.6.0;\n\nimport \"@openzeppelin/contracts/ownership/Ownable.sol\";\nimport \"@openzeppelin/upgrades/contracts/Initializable.sol\";\n\ncontract RecoveryLogic is Initializable, Ownable {\n    address[] public dcWalletsList;\n\n    mapping(address => uint256) public lastAction;\n    mapping(address => uint256) public recoveryDeadline;\n    mapping(address => address[]) public recoveryWallets;\n\n    // wallet => recoveryWallet => asset address => percentage | 1 ETH = 100%\n    mapping(address => mapping(address => mapping(address => uint256))) public recoverySheet;\n\n    event NewRecoverySheet(address user, address asset, address[] wallets, uint256[] values, uint256 deadline);\n\n    modifier updateAction(address wallet) {\n        lastAction[wallet] = now;\n        _;\n    }\n\n    modifier ifRecoverable(address wallet) {\n        require(isRecoverable(wallet), \"#RecoveryLogic ifRecoverable() modifier: Contract is not recoverable\");\n        _;\n    }\n\n    function init(address owner) public initializer {\n        _transferOwnership(owner);\n    }\n\n    /**\n     * @dev Allows to recoverySheet state.\n     * @param asset The address of token that will be used as Asset.\n     * @param wallets The array of addresses to whom the asset will be sent.\n     * @param values The array of percentages that corresponds to each wallets share. 1 ether = 100%.\n     * @param deadline The number of seconds from the current moment (lastAction) the Asset will be sent to wallets.\n     */\n    function setRecoverySheet(\n        address asset,\n        address[] memory wallets,\n        uint256[] memory values,\n        uint256 deadline\n    ) public updateAction(msg.sender) {\n        require(asset != address(0), \n            \"#RecoveryLogic setRecoverySheet(): Asset cannot be zero address\");\n        require(deadline > 0, \n            \"#RecoveryLogic setRecoverySheet(): Deadline must be bigger than zero\");\n        require(wallets.length == values.length && wallets.length > 0, \n            \"#RecoveryLogic setRecoverySheet(): Length incorrect. Data corrupted\");\n\n        uint valuesTotalAmount = 0;\n        for (uint256 i = 0; i < wallets.length; i++) {\n            require(wallets[i] != address(0),\n                \"#RecoveryLogic setRecoverySheet(): Recovery wallet cannot be zero address\");\n            require(values[i] <= 1 ether,\n                \"#RecoveryLogic setRecoverySheet(): Percentage must be smaller then 1 ether(100%)\");\n\n            recoverySheet[msg.sender][wallets[i]][asset] = values[i];\n            valuesTotalAmount += values[i];\n        }\n        require(valuesTotalAmount == 1 ether,\n            \"#RecoveryLogic setRecoverySheet(): Sum of all the percentages is not 1 ether(100%)\");\n        \n        recoveryDeadline[msg.sender] = deadline;\n        recoveryWallets[msg.sender] = wallets;\n        emit NewRecoverySheet(msg.sender, asset, wallets, values, deadline);\n        dcWalletsList.push(msg.sender);\n    }\n\n    /// @dev extend the deadline for recovery\n    function alive() public updateAction(msg.sender) returns (bool) {\n        return true;\n    }\n\n    function isRecoverable(address wallet) public view returns (bool) {\n        return (lastAction[wallet] + recoveryDeadline[wallet]) <= now;\n    }\n\n    function getRecoveryWallets(address wallet) public view returns (address[] memory) {\n        return recoveryWallets[wallet];\n    }\n}\n",
  "sourcePath": "/Users/tom/www/defi-custody-sf-hackathon/contracts/RecoveryLogic.sol",
  "compiler": {
    "name": "solc",
    "version": "0.5.8+commit.23d335f2.Emscripten.clang"
  },
  "schemaVersion": "3.0.11",
  "updatedAt": "2019-10-27T03:24:50.248Z",
  "devdoc": {
    "methods": {
      "alive()": {
        "details": "extend the deadline for recovery"
      },
      "isOwner()": {
        "details": "Returns true if the caller is the current owner."
      },
      "owner()": {
        "details": "Returns the address of the current owner."
      },
      "renounceOwnership()": {
        "details": "Leaves the contract without owner. It will not be possible to call `onlyOwner` functions anymore. Can only be called by the current owner.     * > Note: Renouncing ownership will leave the contract without an owner, thereby removing any functionality that is only available to the owner."
      },
      "setRecoverySheet(address,address[],uint256[],uint256)": {
        "details": "Allows to recoverySheet state.",
        "params": {
          "asset": "The address of token that will be used as Asset.",
          "deadline": "The number of seconds from the current moment (lastAction) the Asset will be sent to wallets.",
          "values": "The array of percentages that corresponds to each wallets share. 1 ether = 100%.",
          "wallets": "The array of addresses to whom the asset will be sent."
        }
      },
      "transferOwnership(address)": {
        "details": "Transfers ownership of the contract to a new account (`newOwner`). Can only be called by the current owner."
      }
    }
  },
  "userdoc": {
    "methods": {}
  }
}